:020000020000FC
:100000000C94603F189518951895189518951895A3
:100010001895189518951895189518951895189578
:10002000189518950C94C516189518951895189547
:1000300018951895189518950C94F82F18951895EB
:100040000C946F14189518950C94C9130C943914CA
:100050001895189518951895189518951895189538
:100060001895189518951895189518951895189528
:1000700018951895189518950C94CF150C942A1668
:10008000189518951895189518951895303F3002C1
:10009000300338010C0101200201000041A042A1FF
:1000A000E045A3A4A5A64BA74D484FA8504354A98B
:1000B000AA58E1ABACE2ADAE62AFB0B161B2B3B4DD
:1000C000E365B6B7B8B9BABBBCBD6FBE7063BF79E4
:1000D000E478E5C0C1E6C2C3C4C5C6C7CDE5F22019
:1000E000F1E2FFE7E820F120C1D1CF20202020203D
:1000F000002020C8EDE8F6E8E0EBE8E7E0F6E8FFEE
:10010000202020202000312EC6F3F0EDE0EB2E0061
:10011000322EC4E0F2E02FE2F0E5ECFF2E00332EA9
:10012000D3EFF0E0E2EBE5EDE8E52E00342ED3F17D
:10013000F2E0EDEEE2E8F2FC2E00352ECFF0EEF12B
:10014000ECEEF2F020EFE0F0E0EC2E000601100102
:100150001E012C013A01312E20C4E0F2E02E2020B5
:100160002020202020202020202000322E20C2F01D
:10017000E5ECFF2E20202020202020202020200021
:10018000312ED0E5E6E8EC2E00322ECFE0F0E0ECA8
:10019000E5F2F0FB2E00332ECFE0F0EEEBFC2E006C
:1001A000342ED2E5F1F22E00800189019601A001E2
:1001B0002EC7E0F9E8F2E02E002ECFF0E8E5ECEDF6
:1001C000E8EA2E002ECFE5F0E5E4E0F2F7E8EA2ECB
:1001D000002ECEE1F9E8E52E00B001B901C401D14D
:1001E00001D2E8EF20E7E0F9E8F2FB202020202010
:1001F000202020202000D2E8EF20EBE8EDE8E820E6
:100200002020202020202020202000C4EEEF2E20BF
:10021000E2F0E5ECFF20E1E5E720ECE0ED2E200048
:10022000CAEEECEF2EE7E0E4E5F0E6EAE820E220B3
:10023000EBE8ED2E00CFE5F0E5EAF0FBF2E8E52093
:10024000E8ECEFF3EBFCF1EEE200C7E0E3F02EF7B1
:10025000F3E2F1F2E2E8F22E20D0C720202000CF16
:10026000EEF0EEE320CFD0C5C4D3CFD020EFEE2008
:10027000D0C72000D2E8EF20EFF0E8E5ECEDE8EAA7
:10028000E02020202020202000E101F6010B0220A8
:100290000235024A025F027402F1EFE8F1EEEA0071
:1002A000F1EFE8F1EEEA00302E2E393900302E2E33
:1002B000313800302E2E353400302E2E32300030C2
:1002C0002E2E323000F1EFE8F1EEEA009902A002A2
:1002D000A702AD02B302B902BF02C502C2F0E5EC4B
:1002E000FF20E2EAEBFEF7E5EDE8FF2020202020EA
:1002F00000C7E0E4E5F0E6EAE020EDE020E2FBEA1A
:10030000EB2E203FEA00C1EBEEEA2E20EAEEECE015
:10031000EDE4FB2020342E2E312000DC02F1020619
:1003200003302E2E313000302E2E3130303000EDA3
:10033000E5F200210327032F03C2F0E5ECFF20E2E2
:10034000EAEBFEF7E5EDE8FF202020202000C4EBDB
:10035000E8F2E5EBFCEDEEF1F2FC20EAEEECE0ED8C
:10036000E4FB00C4EBE8F22E20EAEEECE0EDE4FB67
:100370002020342E2E312000C1EBEEEA2E20EAEEB2
:10038000ECE0EDE4FB2020342E2E31200039034E2A
:100390000363037803302E2E31300032302E2E319D
:1003A0003030000095039B03A303A303D3E4E5F0DF
:1003B000E6E0EDE8E520F0E5EBE520CFD0CC00D39A
:1003C000E4E5F0E6E0EDE8E520F0E5EBE520CFD070
:1003D000C400C2F0E5ECFF20EFE5F0E5E7E0EFF365
:1003E000F1EAE000CAEEEDF2F0EEEBFC20E2FBF504
:1003F0002EF1E8E3EDE0EBE000CFEEF0EEE320CF0E
:10040000D0C5C4D3CFD020EFEE20CAD72000D3EC84
:10041000E5ED2EF3F1E8EBE5EDE8FF203120EAE031
:10042000ED2E00AC03BF03D203E403F9030E04C7AF
:10043000C0D900CFD0CC00CFCC3200CFD0C400C2C6
:10044000FBE2E5E42000C3EEF2EEE22000C2E2E5CA
:10045000E4E5ED00D0E5F7FC202000D2E5F1F23133
:100460002000D2E5F1F2322000D2E5F1F233200093
:100470003F0446044D0454045B04620469043F3F96
:100480003F3F00202020C7E0EFF3F1EA20F2E5F142
:10049000F2E02020202020002020CFEEE4EEE6E451
:1004A000E8F2E5203F20F1E5EA20202000C4D4C78F
:1004B0002DCFF0CFE4202000C4D4C72DCFF0ECCC5A
:1004C000CA3100C4D4C72DCFF0ECCCCA3200C4D49A
:1004D000C72D4C363020202000CDC72DCFF0CFE4E3
:1004E00020202000CDC72DCFF0EC2DCCCA2000CF8E
:1004F000CFC72DCFF0CFE4202000CFCFC72DCFF036
:10050000EC2DCCCA00EEF8E8E1EAE0202020200043
:10051000AD04B804C304CE04D904E404EF04FA041F
:1005200005053220EAEEEDF6E5E2E0FF003320EAD1
:10053000EEEDF6E5E2E0FF00EEF8E8E1EAE020208B
:1005400020200022052D053805E0EAF22BEFE0F12E
:10055000F12000E0EAF2E8E2EDE0FF2000EFE0F158
:10056000F1E8E2EDE0FF00EEF8E8E1EAE02020202B
:1005700000490553055D056705C7C0D93A00CFD0CE
:10058000CC3A00CFCC323A00CFD0C43A003F3F3F04
:100590003F2020202000CDE5E8F1EFF0202000CF23
:1005A000F0E5E4F3EFF02000C2FBE2E5E4E5ED2046
:1005B00000C3EEF2EEE220202000C2E2E5E4E5ED29
:1005C000202000D0E5F7FC2020202000D2E5F1F229
:1005D0003120202000D2E5F1F23220202000D2E5A7
:1005E000F1F23320202000A805B105BA05C305CCDF
:1005F00005D505A805BA05A805CC05D505DE05A8CD
:1006000005BA05CC05D505DE05C8F1F5EEE4ED2EFD
:100610002000CAEEEDF2F0EEEBFC00CFF3F1EA20A1
:1006200020202000D0E0E1EEF2E0202000CDE5E83F
:10063000F1EFF02E2000CF2EEDE5E8F1EFF000CE47
:10064000E6E8E4E0EDE8E500CDE0EB2EEFF3F1EADB
:10065000003F307830383F202000CDE5F220D0C771
:10066000202000D0E5F7FC202020200009061206FB
:100670001B0624062D0636063F06480651065A0676
:100680006306C8F1F5EEE4ED2E2000CFD0CC20CAF1
:10069000D7202000CFD0CC20CFC0202000CDE5F245
:1006A00020CAD7202000CDE5E8F1EFF02E2000CFC2
:1006B0002EEDE5E8F1EFF000CEE6E8E4E0EDE8E568
:1006C00000C1CBCA20CACC2020003F307830383F50
:1006D0002020003F307830393F202000D0E5F7FC63
:1006E000202020200082068B0694069D06A606AFD9
:1006F00006B806C106CA06D306DC06C8F1F5EEE464
:10070000ED2E2000CFD0C420CAD7202000CFD0C4E7
:1007100020CFC0202000CDE5F220CAD7202000CD78
:10072000E5E8F1EFF02E2000CF2EEDE5E8F1EFF057
:1007300000CEE6E8E4E0EDE8E5003F307830373F12
:100740002020003F307830383F202000D1E8F1F2FF
:10075000E5EC2E2000D0E5F7FC2020202000FB0651
:1007600004070D0716071F07280731073A07430735
:100770004C075507672D006C2D00C2E2EEE43A00ED
:10078000CFE0F0EEEBFC3A00CDEEE2FBE920EFE04B
:10079000F0EEEBFC3A00C7EDE0F7E5EDE8E53A20D6
:1007A000003F3F3F3F00E2FBEAEB2E00E2EAEB2E88
:1007B00000A607AC07A107C4E8E0EFE0E7EEED3ADA
:1007C0002000E2EAEB2FE2FBEAEB00E2EAEB2FE2A9
:1007D000FBEAEB00302E2E3500E2EAEB2FE2FBEADB
:1007E000EB00302E2E323200302E2E323200302EE0
:1007F0002E313000C207CB07D407D907E207E8073C
:10080000EE07CFF0EEF8E8E2EAE020502D55535025
:10081000202000CFF0EEF8E8E2EAE02041542D5528
:1008200053502000CFF0EEF8E8E2EAE020445350C5
:100830002D55535000C4EEEFEEEBED2E20EFE0F01F
:10084000E0ECE5F2F0FB00C2E8E420EFE0F0E0ECE1
:10085000E5F2F0E00002081308240835084708C54F
:10086000F1F2FC00CDE5F200F1F2E0EDE4E0F0F2AF
:100870000048455800710868082020202020457253
:10088000726F7220202020202000D3F1F2E0EDEEE4
:10089000E2E8F2E520F7E0F1FB2000CDE5E8F1EF3A
:1008A000F02EF7F22E20464C41534800CDE5E8F1FA
:1008B000EFF02EE7E0EF2E464C41534800CDE5E83F
:1008C000F1EFF02EF7F22E20504C49532000CDE5E9
:1008D000E8F1EFF02EE7E0EF2E504C49532000CD29
:1008E000E5E8F1EFF02EE7E0EF2E3252414D200027
:1008F000CDE5E8F1EFF02E445350203252414D2027
:1009000000CDE5E8F1EFF02EF7F22E203252414D06
:100910002000D3F1F2E0EDEEE2E8F2E520F7E0F1BD
:10092000FB2000CDE8E7EAEEE520EDE0EFF02EE277
:10093000FBF52E00C2FBF1EEEAEEE520EDE0EFF074
:100940002EE2FBF5009B08AC08BD08CE08DF087955
:100950000879087908F0080109120923093409798E
:100960000879087908CDE5F220E1EBEEEAE020C154
:10097000D1C720202000CDE5E8F1EFF02EE2E5F030
:10098000F12EC1D1C72000CDE5E8F1EFF02EEFE563
:10099000F0E5EAEB2E202000CDE5E8F1EFF02EE7C0
:1009A000E0EF2E20C1D1C72000CDE5E8F1EFF02E19
:1009B000E2F5EEE42ECFD3D1CA00CDE5E8F1EFF0B9
:1009C0002EE2F5EEE42ED1D2CECF00CDE5E8F1EF68
:1009D000F02EF6E5EFFC2EC2DBD52000CDE5E8F1E8
:1009E000EFF02EE7E0EF2E20C2DBD52000CDE5F2C0
:1009F00020F1E8E3EDE0EBE020D0C720200065091E
:100A00007609870998097908790879087908A90980
:100A1000BA097908CB097908DC09ED097908CDE82C
:100A2000E7EAE8E920F3F0EEE22E20D0C72000CD7F
:100A3000E5F220E1EBEEEAE020C1D1CA202020005F
:100A4000CDE5E8F1EFF02EE2E5F0F12EC1D1CA20BC
:100A500000CDE5E8F1EFF02EEDE5F220CAD7312028
:100A60002000CFF0E5E22EE4EB2DF1F2E82EEAEEE5
:100A7000EC2E00CDE5E8F1EFF02EE7E0EF2E20C1FF
:100A8000D1CA2000CDE5E8F1EFF02EE2FBEAEB2E33
:100A9000CAD1CA2000CDE5E8F1EFF02EE2EAEB2E54
:100AA00020CAD1CA2000CDE5E8F1EFF02EEAEEED44
:100AB000F2F02ECAD1CA00CFF0E5E4F3EFF02EED4C
:100AC000E5F220CAD7312000CFF0E8E5EC20E1EBD9
:100AD000EEEA2E20CAEEEC2E002F0A400A510A62DE
:100AE0000A7908790879087908730A840A950AA6A8
:100AF0000AB70A79087908C80AD1EDE8E62E20F38A
:100B0000F0EEE2EDFF20CFD0CC00CDE5F220E1EB1E
:100B1000EEEAE020C1D1CA20202000CDE5E8F1EFC7
:100B2000F02EE2E5F0F12EC1D1CA2000CDE5E8F1CA
:100B3000EFF02EE2FBEAEB2ED2E5F1F200CDE5E894
:100B4000F1EFF02EE2EAEB2E20D2E5F1F200CDE556
:100B5000E8F1EFF02EE2F5EEE42ECAD1CA20000A49
:100B60000B1B0B79087908790879087908790879D5
:100B7000082C0B3D0B4E0B7908790879087908C3CE
:100B8000F0313A00C3F0323A00C3F0F3EFEFE02067
:100B90003100C3F0F3EFEFE0203200890B920BE25B
:100BA000FBEAEB00CAD73100CAD73200CAEEEC31FB
:100BB00000CAEEEC3200CAEEEC3300CAEEEC3400B0
:100BC000CAEEEC3500CAEEEC3600CAEEEC3700CACD
:100BD000EEEC38009F0BA40BA80BAC0BB10BB60BC3
:100BE000BB0BC00BC50BCA0BCF0BE2FBEAEB00D073
:100BF000C73100D0C73200EA0BEF0BF30BD2E5F19F
:100C0000F2203100D2E5F1F2203200FD0B040CC6D7
:100C1000F3F0EDE0EB2000F1EEE1FBF2E8E900E7B4
:100C2000E0F9E8F2FB00EFF0E8E5ECEDE8EAE000DF
:100C3000EFE5F0E5E4E0F2F7E8EAE000170C1F0C5E
:100C4000260C300CD7F2E5EDE8E520E0F0F5E8E21F
:100C5000E02E00CFCC00CFC400D1C100C7D90059CD
:100C60000C560C530C5C0CCEC1D90000CD2EE2EA20
:100C7000EB2EF2E5F1F22000CD2EE2FBEAEB2EF2B4
:100C8000E5F1F200CD2EE2F5EEE4E020CAD1CA0093
:100C9000CD2EE2EAEB2E20CAD1CA2000CD2EE2FBF7
:100CA000EAEB2E20CAD1CA00CD2EE7E0EF2E20C1FC
:100CB000D1CA2000CD2EEAEEEDF2F02EC1D1CA004D
:100CC000CDE5F220E1EB2E20C1D1C700CEF82EE217
:100CD000E5F0F12EC1D1C700CD2EEFE5F0E5EA2E0B
:100CE000C1D1C700CD2EEAEEED2EE2FBF52EF600C7
:100CF000CD2EE7E0EF2EE2FBF52EF600CDE5F2205B
:100D0000F12E20CFD3D1CA00CDE5F220F12E20D193
:100D1000D2CECF00CDE5F220F1E8E3ED2ED0C70032
:100D2000CFE5F0E5E7E0EFF3F1EA2000C8E7EC2ECD
:100D3000F0E5E6E8ECE02000C2EEF1F1F22E203121
:100D4000CAD72000C2EEF1F1F22E2032CAD720001D
:100D5000CDE5F22031CAD72035F12000CDE5F220D3
:100D600032CAD72035F12000CD2EF0E0E1EEF22E90
:100D700044535000C2EEF12EF0E0E12E44535000F7
:100D8000CD2EF7F22E203252414D2000CD2EE7E03D
:100D9000EF2E203252414D00CD2EE2F0E5ECE5ED94
:100DA000E8202000CD2EE7E0EF2E20504C495300E4
:100DB000CD2EF7F22E20504C49532000CD2EF7F2C5
:100DC0002E20464C41534800CD2EE7E0EF2E464CF6
:100DD00041534800CDE8E72EEDE0EF2EE2FBF500B1
:100DE000C2FBF12EEDE0EF2EE2FBF5006B0C6C0C7C
:100DF000780C840C900C9C0CA80CB40CC00CCC0C83
:100E0000D80CE40CF00CFC0C080D140D200D2C0D6E
:100E1000380D440D500D5C0D680D740D800D8C0D5A
:100E2000980DA40DB00DBC0DC80DD40DE00DCFE58F
:100E3000F0E5E7E0EF2000CDE0F7E0EBEE2000CAC0
:100E4000EEEDE5F62000EAEEECE0EDE4FB002ED15D
:100E5000E1F0EEF120F1E2EEE5E3EE2E202020209D
:100E600020002ECFF3F1EA20EDE0EBE0E42E20E2CB
:100E7000EAEB2E2020002ECFF3F1EA20EDE0EBE0AC
:100E8000E42E20E2FBEAEB2E2000D1E1F0EEF100AF
:100E9000CFF3F1EA00D1F2EEEF008A0E900E950E3C
:100EA0005F00D1E2FFE7FC20F120CFCA002E003026
:100EB000303030007701091B011B04F91A02F11AC6
:100EC00001E91A39051B04FD1A02F51A01ED1A1978
:100ED000031B04FB1A02F31A01EB1A09071B04FF98
:100EE0001A02F71A01EF1AFB0000212F0800FA2B53
:100EF000102C262C452C642C832CA22CC12C0100F8
:100F0000602F0800382F3D2F422F472F4C2F512F95
:100F1000562F5B2F3000F42F0B00BD2FC22FC72F91
:100F2000CC2FD12FD62FDB2FE02FE52FEA2FEF2F5D
:100F300001005E36160052369E36D436ED362E3718
:100F40008937BB376C38D2382239DC398937BB371F
:100F50006C38D23822395E365E36843AF73AF23B44
:100F6000DB3D000068380800EA37FB370C381538DD
:100F70001E38273836383F3830E042E007C050E0AE
:100F8000F801E40FF51F5081350F43954217B8F370
:100F9000032F0895E2EEF3E0208120612083009387
:100FA000250401E0009326041093270425E003E2C2
:100FB00014E0E2DF10E0EFE8F2E000831183EFE8F5
:100FC000F2E000810093280406E00E94A81508952D
:100FD0009A938A93812FE2EEF3E0108110611083DF
:100FE0000093250480932604282F2C5F03E214E04D
:100FF000C3DF10E0EFE8F2E000831183EFE8F2E0F6
:10100000008190E0FC01ED5DFB4F04838B5F082FB6
:101010000E94A8158991999108950150A1F00A950F
:10102000E9F00A9569F10A9509F446C00A9509F4B0
:101030007AC00A9509F493C00A9509F4ACC002502D
:1010400009F4B6C0D0C00091E703083018F400914D
:10105000E70301C008E000935E02C5C00091E7030A
:10106000013050F00091E703033030F40091E703C2
:101070000A9500937B02B7C002E000937B02B3C0E5
:101080000091E703043688F40091E7034AE00E94E8
:10109000743F005D00937C020091E7034AE00E94E8
:1010A000743F405D40937D029EC00FE300937C023D
:1010B0000FE300937D0297C00091E703033188F4AA
:1010C0000091E7034AE00E94743F005D00935F02D5
:1010D0000091E7034AE00E94743F405D4093600244
:1010E00006C00FE300935F020FE3009360020091DC
:1010F000E803033188F40091E8034AE00E94743F5A
:10110000005D009367020091E8034AE00E94743F8B
:10111000405D4093680267C00FE3009367020FE3EE
:101120000093680260C00091E703073388F40091E0
:10113000E7034AE00E94743F005D00938302009140
:10114000E7034AE00E94743F405D409384024BC035
:101150000FE3009383020FE30093840244C00091E5
:10116000E703053188F40091E7034AE00E94743FE9
:10117000005D00936F020091E7034AE00E94743F14
:10118000405D409370022FC00FE300936F020FE3A6
:101190000093700228C00091E703033028F4009107
:1011A000E70300938B021FC003E000938B021BC078
:1011B0000091E703053188F40091E7034AE00E94BB
:1011C000743F005D009375020091E7034AE00E94BE
:1011D000743F405D4093760206C00FE300937502B2
:1011E0000FE30093760201E00093CF0401E0009347
:1011F000CE040895015131F0025031F10A9509F4FD
:1012000040C014C00091E7030B30B8F40091E7032D
:101210004AE00E94743F005D009311020091E703D1
:101220004AE00E94743F405D4093120201E0009347
:10123000CE0401E00093CF0408950FE30093110260
:101240000FE300931202F2CF00E00BC010E0F801B0
:10125000ED51FC4F248110E0F801E95EFD4F208341
:101260000395083018F710E0F801ED51FC4F148198
:10127000153660F32FEF10E0F801E95EFD4F208393
:10128000EFCF0091E7030093270220E00BC030E38B
:10129000022F10E0119501951040F801E85DFD4F17
:1012A00033832395243010F630912702422F01E03A
:1012B00010E00E948A3F3023332349F331E3022FA9
:1012C00010E0119501951040F801E85DFD4F338362
:1012D000E8CF015261F00A9561F1025009F45DC056
:1012E0000A9509F483C00A9509F4A9C014C00091B5
:1012F000E7030B30B8F40091E7034AE00E94743F23
:10130000005D009333020091E7034AE00E94743FBE
:10131000405D4093340201E00093CE0401E000936D
:10132000CF0408950FE3009333020FE300933402D8
:10133000F2CF0091E703043130F10091E703053665
:1013400010F50091E703043651F401E300933902EC
:1013500000E300933A0200E300933B02DCCF00E39A
:10136000009339020091E7034AE00E94743F005D58
:1013700000933A020091E7034AE00E94743F405D07
:1013800040933B02C8CF0FE3009339020FE3009371
:101390003A020FE300933B02BECF0091E7030093B4
:1013A000400220E00BC030E3022F10E011950195C0
:1013B0001040F801EF5BFD4F33832395243008F094
:1013C000AACF30914002422F01E010E00E948A3FF4
:1013D0003023332341F331E3022F10E011950195BF
:1013E0001040F801EF5BFD4F3383E7CF0091E70337
:1013F0000093F00420E00BC030E3022F10E01195C1
:1014000001951040F801EA5BFD4F338323952430AA
:1014100008F081CF3091F004422F01E010E00E94EB
:101420008A3F3023332341F331E3022F10E011953B
:1014300001951040F801EA5BFD4F3383E7CF00913F
:10144000E7030093F10420E00BC030E3022F10E02B
:10145000119501951040F801E55BFD4F3783239509
:10146000283008F058CF3091F104422F01E010E00D
:101470000E948A3F3023332341F331E3022F10E0EF
:10148000119501951040F801E55BFD4F3783E7CFDB
:101490009A938A9380E022C0482F50E003E010E046
:1014A0000E94823FF801ED51FC4F2581082F10E08A
:1014B000000F111FF801EF52FE4F2183482F50E01B
:1014C00003E010E00E94823FF801ED51FC4F0681DD
:1014D00090E0FC01E652FE4F008383958430F8F5DE
:1014E000482F50E003E010E00E94823FF801ED51E8
:1014F000FC4F0481063050F02EE4082F10E0000F5E
:10150000111FF801EF52FE4F208312C0482F50E008
:1015100003E010E00E94823FF801ED51FC4F24816E
:10152000082F10E0000F111FF801EF52FE4F20832B
:10153000482F50E003E010E00E94823FF801ED5197
:10154000FC4F05810B3008F4A7CF2EE4082F10E0E4
:10155000000F111FF801EF52FE4F2183AFCF01E0C2
:101560000093CE0401E00093CF04899199910895EE
:1015700000E00BC010E0F801ED51FC4F248110E0B9
:10158000F801EA52FB4F20830395043198F3009150
:10159000E204002321F40091E304002321F001E0A0
:1015A0000093460503C000E0009346050091E40463
:1015B000002321F40091E504002321F001E00093D1
:1015C000470503C000E0009347050091D6040023BF
:1015D00021F40091D704002321F001E00093480595
:1015E00003C000E0009348050091D804002321F4D3
:1015F0000091D904002321F001E00093490503C0C4
:1016000000E0009349050091DA04002321F40091E1
:10161000DB04002321F001E000934A0503C000E051
:1016200000934A050091DC04002321F40091DD04BD
:10163000002321F001E000934B0503C000E000937C
:101640004B050091DE04002321F40091DF04002308
:1016500021F001E000934C0503C000E000934C052D
:101660000091E004002321F40091E104002321F023
:1016700001E000934D0503C000E000934D0500918B
:10168000E604002321F40091E704002321F001E0A7
:1016900000934E0503C000E000934E050091E8045E
:1016A000002321F40091E904002321F001E00093DC
:1016B0004F0503C000E000934F0501E00093CE0406
:1016C00001E00093CF0408959A938A930091E70371
:1016D0000F70005D009322010091E70302950F70E7
:1016E000005D009321010091E8030F70005D0093FD
:1016F0001F010091E80302950F70005D00931E0129
:101700000091E9030F70005D00931C010091E90353
:1017100002950F70005D00931B010091EA030F70AA
:10172000005D009325010091EA0302950F70005DB2
:10173000009324010091EB030F70005D00932801DA
:101740000091EB0302950F70005D0093270100915B
:10175000EC030F70005D00932B010091EC030295E8
:101760000F70005D00932A0100E004C010E01093A8
:10177000920203950830C8F510E0F801E55EFE4FCF
:1017800010811A3338F410E0F801E55EFE4F108145
:10179000103368F410E0F801E55EFE4F10811E3250
:1017A00031F0E1E9F2E010811395108303C010E0FD
:1017B0001093910210E0F801EC5DFE4F10811A3396
:1017C00038F410E0F801EC5DFE4F1081103370F634
:1017D00010E0F801EC5DFE4F10811A3339F2E2E9B6
:1017E000F2E0108113951083C4CF8091220190E024
:1017F0004091210150E00AE010E00E94823F800FFA
:10180000911F80519240843600E090072CF0E1E96E
:10181000F2E000810395008380911F0190E04091E8
:101820001E0150E00AE010E00E94823F800F911FED
:10183000805192408D3090402CF0E1E9F2E000813F
:101840000395008380911C0190E040911B0150E0C2
:101850000AE010E00E94823F800F911F8051924069
:10186000803290402CF0E1E9F2E0008103950083A2
:101870008091250190E04091240150E00AE010E0C1
:101880000E94823F800F911F805192408931904089
:101890002CF0E2E9F2E000810395008380912801B9
:1018A00090E04091270150E00AE010E00E94823F62
:1018B000800F911F805192408D3300E090072CF0F3
:1018C000E2E9F2E000810395008380912B0190E032
:1018D00040912A0150E00AE010E00E94823F800F10
:1018E000911F805192408D3300E090072CF0E2E987
:1018F000F2E000810395008300919102002301F141
:1019000000E30093220100E30093210100E3009330
:101910001F0100E300931E0100E300931C0100E39C
:1019200000931B0100E00093910200E00330B8F443
:1019300020E010E0F801E050FF4F20830395F6CF40
:1019400000E00BC010E0F801ED51FC4F248110E0E5
:10195000F801E050FF4F20830395033098F3009186
:101960009202002301F100E30093250100E30093BC
:10197000240100E30093280100E30093270100E322
:1019800000932B0100E300932A0100E000939202F0
:1019900000E00330B8F420E010E0F801E050FF4F21
:1019A00023830395F6CF00E00BC010E0F801ED5162
:1019B000FC4F278110E0F801E050FF4F238303958F
:1019C000033098F301E00093CF0401E000930D0190
:1019D0008991999108950E940E40D801822F942FE9
:1019E000452E3A95082F07C020E210E0FD01E00FD8
:1019F000F11F208303950930B8F300E8401658F032
:101A00000FEF402643942DE2082F10E0FD01E00F78
:101A1000F11F20838395042D10E0432F0E948A3FFD
:101A2000402E03E64016C8F44AE0042D0E94743F9D
:101A3000005D282F30E0FD01E20FF31F0083839546
:101A40004AE0042D0E94743F405D082F10E0FD0124
:101A5000E00FF11F4083839510C02FE3082F10E0A3
:101A6000FD01E00FF11F208383952FE3082F10E085
:101A7000FD01E00FF11F20838395873008F48395E3
:101A8000923061F404EE90E0FD01E80FF91F00834D
:101A9000839501EC90E0A80FB91F0C93E5E00C943E
:101AA00018400E940D40D801422E542ECB016E8169
:101AB0007F813A95042D07C020E210E0FD01E00F80
:101AC000F11F208303950930B8F3432F8C010E9446
:101AD0008A3FC8018617970708F067C0883E03E071
:101AE000900710F148EE53E08C010E94903F202FA8
:101AF000042D10E0FD01E00FF11F2083042D10E004
:101B0000FD01E00FF11F408150E008EE13E00E945C
:101B1000823F801B910B042D10E0FD01E00FF11FAF
:101B20000081005D00834394843600E0900710F14B
:101B300044E650E08C010E94903F202F042D10E0DD
:101B4000FD01E00FF11F2083042D10E0FD01E00FE7
:101B5000F11F408150E004E610E00E94823F801BAC
:101B6000910B042D10E0FD01E00FF11F0081005DDD
:101B7000008343944AE050E08C010E94903F005D56
:101B8000242D30E0FD01E20FF31F008343944AE06F
:101B900050E08C010E94903F405D042D10E0FD015B
:101BA000E00FF11F4083439410C02FE3042D10E099
:101BB000FD01E00FF11F208343942FE3042D10E07B
:101BC000FD01E00FF11F2083439407E0401608F465
:101BD0004394052D015019F0025071F019C00CEE1C
:101BE0005524FD01E40DF51D008300EC5524A40DE2
:101BF000B51DFD0101830CC00EEC5524FD01E40D63
:101C0000F51D00830CEE5524A40DB51DFD010183C7
:101C1000E8E00C941740BD01F801032F02950F7006
:101C20003F700A3040F0095C422F50E0DF01A40F02
:101C3000B51F0C9307C0005D422F50E0DF01A40FD9
:101C4000B51F0C933A3038F0395C022F10E0E00FEA
:101C5000F11F318306C0305D022F10E0E00FF11F4D
:101C60003183DB0108950091E703002309F0C4C02C
:101C70007091E80360E00091E90310E0600F711FCC
:101C8000683E03E0700710F067EE73E008EE13E0C3
:101C90001A930A9343E031E022E00DE211E001DF04
:101CA0003091E80323E0E5ECF1E000811181B3DF3E
:101CB0003091E90325E0E5ECF1E000811181ABDF33
:101CC0007091EA0360E00091EB0310E0600F711F78
:101CD00008EE13E01A930A9341E031E023E007E3B2
:101CE00011E0DFDE3091EA0323E0E5ECF1E0028170
:101CF000138191DF3091EB0325E0E5ECF1E0028107
:101D0000138189DF0091EC030436E8F40091ED03C0
:101D10000336C8F40091EC034AE00E94743F005D72
:101D2000009343010091EC034AE00E94743F405D40
:101D3000409344010091ED034AE00E94743F005D2E
:101D40000093460109C00FE3009343010FE30093A2
:101D500044010FE3009346013091EC0323E0E5ECEE
:101D6000F1E00481158157DF3091ED0325E0E5ECCA
:101D7000F1E0048115814FDF5091EE0342E031E044
:101D800024E005E511E027DE5091EF0342E031E069
:101D900024E00FE511E01FDE3091EE0323E0E5ECD7
:101DA000F1E00681178137DF5091F00342E031E026
:101DB00024E009E611E00FDE5091F10342E031E04A
:101DC00024E003E711E007DE3091F00323E0E5ECC7
:101DD000F1E0008511851FDF5091F20342E031E010
:101DE00023E00BE411E0F7DD3091F20323E0E5ECB2
:101DF000F1E0028513850FDF01E000930E0101E0A1
:101E00000093CF040895065389F00A95E1F002503B
:101E100009F458C00A9509F463C00A9509F10A95B6
:101E200009F49EC00A9509F4EDC0F8C00091E703DB
:101E3000023028F40091E7030093E201EFC002E0D2
:101E40000093E201EBC00091E703023028F4009117
:101E5000E7030093E301E2C002E00093E301DEC088
:101E60000091E703053608F50091E7030A30E8F032
:101E70000091E703043639F401E30093FD0100E328
:101E80000093FE010BC000E30093FD010091E70306
:101E90004AE00E94743F005D0093FE0100E300935E
:101EA000FF0100E300930002B9C00FE30093FD01BE
:101EB0000FE30093FE010FE30093FF010FE3009394
:101EC0000002ACC00091E703063030F40091E70354
:101ED000005D0093E401A2C00FE30093E4019EC003
:101EE0000091E7030130D9F40091E8030B3088F446
:101EF0000091E8034AE00E94743F005D00930502F0
:101F00000091E8034AE00E94743F405D409306025E
:101F100006C00FE3009305020FE300930602009151
:101F2000E703023009F07AC00091E8030B3088F42F
:101F30000091E8034AE00E94743F005D00930B02A9
:101F40000091E8034AE00E94743F405D40930C0218
:101F500065C00FE300930B020FE300930C025EC019
:101F60000091E703073138F00FE30093EB010FE333
:101F70000093EC0110C00091E7034AE00E94743F17
:101F8000005D0093EB010091E7034AE00E94743F7B
:101F9000405D4093EC010091E803073138F00FE316
:101FA0000093F1010FE30093F20110C00091E803E8
:101FB0004AE00E94743F005D0093F1010091E80344
:101FC0004AE00E94743F405D4093F2010091E903B2
:101FD000073138F00FE30093F7010FE30093F801A6
:101FE0001DC00091E9034AE00E94743F005D009328
:101FF000F7010091E9034AE00E94743F405D40937D
:10200000F8010CC00091E703023028F40091E703C7
:102010000093EA0103C002E00093EA0101E00093AB
:10202000CF0401E00093CE04089500E00093DE01A8
:1020300000E00093DF0100E00093E00100E0009386
:10204000E101E3EEF3E0048100FF04C001E000934E
:10205000DE011EC0E3EEF3E0048101FF04C002E0F4
:102060000093DE0115C00091E803013088F002E022
:102070000093DE01EEEDF1E0008103950083009115
:10208000E80306950093E8030091E803002391F725
:10209000E3EEF3E0048102FF04C001E00093DF01FE
:1020A00008C0E3EEF3E0048103FF03C002E0009305
:1020B000DF01E3EEF3E0078100FF04C001E00093DD
:1020C000E0011EC0E3EEF3E0078101FF04C002E07F
:1020D0000093E00115C00091EB03013088F002E0AD
:1020E0000093E001E0EEF1E00081039500830091B0
:1020F000EB0306950093EB030091EB03002391F7AC
:10210000E3EEF3E0078102FF04C001E00093E10188
:1021100008C0E3EEF3E0078103FF03C002E0009391
:10212000E10101E00093CF0401E00093CE040895A3
:1021300001E01091E703113021F401E000933C0528
:1021400001C000E00091E803023021F408E00093B0
:102150003F0501C000E00091E903023021F408E0EE
:102160000093400501C000E00091EA03023021F431
:1021700008E000933E0501C000E00091EB0303304E
:1021800039F403E00093430508E000933D0501C0E6
:1021900000E00091EC03013021F401E000934205DE
:1021A00001C000E03091ED0320E00091EE0310E06B
:1021B000200F311FE7E0F1E0228333833091EF03FA
:1021C00020E00091F00310E0200F311FE7E0F1E084
:1021D0002483358301E00093440504E00093220545
:1021E00000E00093240503E00093250502E000933E
:1021F000260501E000932705089540E001E00093E3
:10220000CF0401E00093CE040FE010E02091E5033D
:1022100022952F7030E0021B130B2091230530E034
:10222000F901EE5DFA4F228130E00217130709F43D
:1022300041E00091E5030F700130D9F44423C9F067
:102240000091E803002359F000E011E0E2E2F5E03C
:10225000078310870091E70300932B050AC00091C4
:10226000E70310E0E2E2F5E00783108700E0009367
:102270002B050091E5030F700230E1F4442379F05F
:1022800000E00031B8F410E0F801ED51FC4F24817A
:1022900010E0F801EE5DFA4F22870395F2CF00E0DF
:1022A00007C020E010E0F801EE5DFA4F22870395A9
:1022B0000031B8F308959A938A93802F282F2A9596
:1022C00003EE13E00E94BC0710E0EFE8F2E00083A9
:1022D0001183EFE8F2E02081318190E0FC01EE51C2
:1022E000FC4F008110E02017310719F0549A579ADB
:1022F00082C000917304023001F502E00093930262
:1023000013C00091930210E0F801ED51FC4F2081C1
:102310000091930210E0F801E652FD4F2083E3E9BB
:10232000F2E000810395008300919302081748F3BF
:1023300003E00093730480937404009173040023FA
:1023400009F059C00091E503007F005039F00051B9
:1023500051F0005169F0005181F038C00091E5035F
:102360000E940D0846C00091E5030E94FA0841C092
:102370000091E5030E9469093CC00091E503005308
:10238000A9F00A95A9F00A95A9F00250A9F0025007
:10239000A9F00A9599F0025089F0035079F00A9556
:1023A00069F00A9579F00A9579F023C071D821C0B7
:1023B000DFD81FC089D91DC056DC1BC00091E503C2
:1023C00022DD17C032DE15C0B3DE13C00091E50375
:1023D000015C71F00A9561F00F5051F00A9541F0DF
:1023E0000F5031F00A9521F00F5011F00A9509F4C1
:1023F00004DF549A579A0E94AD1500E000937504CB
:1024000089919991089530E042E007C050E0F801C9
:10241000E40FF51F5081350F43954217B8F3032F92
:1024200008959A938A93812FE9E9F2E0108110616F
:1024300010830093DC028093DD02282F2C5F0AEDCD
:1024400012E0E1DF10E0E4E9F2E000831183E4E967
:10245000F2E0008190E0FC01E652FD4F04838B5FC7
:10246000082F0E947116899199910895E9E9F2E087
:102470001081106110830093DC0202E00093DD0202
:1024800026E00AED12E0BFDF10E0E4E9F2E00083AD
:102490001183E4E9F2E000810093E00207E00E948A
:1024A000711608959A938A93802F0E947E1600FBDE
:1024B0004EF400E00093DE0200E00093DF0201EE44
:1024C000D5DF44C100919A02053509F035C100916C
:1024D0009B020A3A09F030C100919D0210E0E82FFA
:1024E000F0E035970E171F0751F000919D02009301
:1024F000DE0285508093DF0203EEB8DF27C1282F6C
:102500002A950AE912E07FDF10E0E4E9F2E00083B7
:102510001183E4E9F2E02081318190E0FC01E7568B
:10252000FD4F008110E02017310779F090E0FC01A9
:10253000E756FD4F00810093DE02E4E9F2E00081FE
:102540000093DF0202EE92DF01C100919C0202378C
:1025500029F000919C02033709F0C2C000919C024F
:10256000023799F54091140550E008EE13E00E94FF
:10257000823FC8014091150550E004E610E00E943A
:10258000823F800F911F4091160550E00AE010E055
:102590000E94823F800F911F0091170510E0800F6D
:1025A000911F8055904DE7E9F2E080839183E7E940
:1025B000F2E01181012F0093DE02E7E9F2E00081F1
:1025C0000093DF0212E002E72CDF00919C02033748
:1025D00009F078C030919E0220E000919F0210E047
:1025E000200F311FE7E9F2E02083318348EE53E00A
:1025F000E7E9F2E0008111810E94903F005D0093C5
:1026000014058091140590E0C09708EE13E0AC012A
:102610000E94823FE7E9F2E020813181201B310BEB
:102620002083318344E650E0E7E9F2E00081118144
:102630000E94903F005D009315058091150590E084
:10264000C09704E610E0AC010E94823FE7E9F2E0A7
:1026500020813181201B310B208331834AE050E0FF
:10266000E7E9F2E0008111810E94903F005D009354
:1026700016058091160590E0C0970AE010E0AC01C5
:102680000E94823FE7E9F2E020813181201B310B7B
:1026900020833183E7E9F2E00081005D00931705B4
:1026A00010E003E7BEDE01E00093690400E010E003
:1026B000EFE6F4E00083118304E115E0EBE6F4E0DB
:1026C000008311830FE00093060100919A000061DE
:1026D00000939A0000919A00006800939A0036C017
:1026E00000E0009396021BC00091960210E0F801F2
:1026F000E656FD4F20810091960210E0F801ED5D55
:10270000FB4F208300E02091960230E0F901E6566D
:10271000FD4F0083E6E9F2E000810395008300911C
:102720009602081708F38093740401E00093730481
:102730000FE0009306010AC000919A000061009327
:102740009A0000919A00006800939A000E948B16EC
:102750008991999108950FEC09B91098119A1898D8
:10276000199A0EE00093950008E10AB9549A579A15
:1027700006B70D7F06BF07B7016007BF05E002BFC0
:1027800004E003BF05E5009323040AEA0093240450
:102790000895FA93EA935A934A933A932A931A9391
:1027A0000A934FB75BB70CB15C9958C010916504A0
:1027B000105039F01A9561F01A95A1F01A95C1F0F0
:1027C00028C0053509F04AC001E00093650446C001
:1027D0000A3A21F402E00093650440C000E000934F
:1027E00065043CC00093E50303E00093650436C034
:1027F0000093E6030C3320F010E01093650403C04F
:1028000014E01093650410916504100F1093660492
:1028100025C02091650430E0F901ED51FC4F0083A3
:102820000091650410916604011798F001E000938F
:10283000750400E00093650454985798009166046D
:10284000039500937604E2EEF3E0008108600083D4
:1028500005C0E5E6F4E00081039500835BBF4FBF50
:10286000099119912991399149915991E991F991D8
:102870001895FA93EA933A932A931A930A932FB7E7
:102880003BB70091630410916404011784F4009134
:102890006304102F110F110BF801ED5DFB4F008148
:1028A0000CB9E3E6F4E00081039500830FC0539870
:1028B000559800E00093640400E000936304549A88
:1028C000579AE2EEF3E000810F7E00833BBF2FBFFB
:1028D0000991199129913991E991F9911895BA9332
:1028E000AA939A938A93FA93EA933A922A921A9223
:1028F0000A927A936A935A934A933A932A931A9331
:102900000A938FB79BB72197A89505E002BF009166
:10291000CA04003F09F045C000917304002309F088
:1029200040C00E94BB1A0093DF030091DF031091A7
:10293000DE03011721F00091DF03003FD1F4E0EE48
:10294000F3E0008111810F5F1F4F00831183E0EEE0
:10295000F3E000811181013921E0120784F000E9E0
:1029600011E0E0EEF3E00083118300EF0093DE035B
:1029700006C000E010E0E0EEF3E000831183009178
:10298000DF031091DE03011761F00091DF03003FC8
:1029900041F00091DF030093CA040091DF0300932C
:1029A000DE030091DC03053078F10091DD03013096
:1029B00029F0E9E9F2E0008100FF22C000919A00CD
:1029C0000F7E00939A0000919A000F7700939A006F
:1029D000E9E9F2E00081086000830091D9030E94D8
:1029E000521200E00093DD0300E00093D903009150
:1029F0009C000883E9E9F2E000810F7E008309C0B2
:102A00000EE10093DC0305C0ECEDF3E000810395DB
:102A10000083E19937C000916904013099F5EFE630
:102A2000F4E0008111811FBB0EBB0091670410E030
:102A3000EBE6F4E0A081B181A00FB11F0C910DBBBA
:102A4000E29AE19AE7E6F4E0008103950083EFE67D
:102A5000F4E0008111810F5F1F4F0083118300910B
:102A6000670410E0ABE6B4E0ED91FC91E00FF11FDC
:102A700031970081002331F400E00093690400E005
:102A800000936704E1994EC000916A04013009F097
:102A900049C0E1E7F4E0008111811FBB0EBBE09A61
:102AA0002DB30091680410E0EDE6F4E0A081B1815F
:102AB000A00FB11F2C930091680410E0ADE6B4E0C4
:102AC000ED91FC91E00FF11F00810F3F59F400E000
:102AD0002091680430E0ADE6B4E0ED91FC91E20FA6
:102AE000F31F0083E1E7F4E0008111810F5F1F4FC6
:102AF00000831183E8E6F4E00081039500830091F0
:102B0000680410E0ADE6B4E0ED91FC91E00FF11F38
:102B100031970081002331F400E000936A0400E063
:102B20000093680421969BBF8FBF09911991299149
:102B30003991499159916991799109901990299008
:102B40003990E991F99189919991A991B991189543
:102B500000936404539A559A089500E00093E203A9
:102B6000089503E3009399008A988B9A9298939A18
:102B70000EE000939D0008E100939A0000919A00F6
:102B8000006100939A0000919A00006800939A00F7
:102B900005E50093DA020AEA0093DB020895FA934E
:102BA000EA934A933A932A931A930A933FB74BB7FF
:102BB000219700919B00102F14FF05C0E9E9F2E076
:102BC0000081016000830091DD03002391F40091F6
:102BD000DC030E3170F001E00093DD0300E00093B0
:102BE000D90300E00093DC03E9E9F2E00081006131
:102BF00000830091DD03013011F50091DC030E31FB
:102C0000F0F40091D903003448F0E9E9F2E00081E2
:102C10000160008300919C0008830EC020919C00FD
:102C20000091D90310E0F801E656FD4F2083E9ED4D
:102C3000F3E000810395008300E00093DC0321961C
:102C40004BBF3FBF09911991299139914991E99160
:102C5000F9911895FA93EA933A932A931A930A935F
:102C60002FB73BB70091DA031091DB0301178CF407
:102C70000091DA03102F110F110BF801E652FD4FEE
:102C8000008100939C00EAEDF3E00081039500834E
:102C90001FC000919A00077F00939A0000919A004C
:102CA0000F7D00939A0000E00093DB0300E00093A7
:102CB000DA0300919A00006100939A0000919A0053
:102CC000006800939A00E9E9F2E000810F7E00833A
:102CD0003BBF2FBF0991199129913991E991F99140
:102CE00018950093DB0300919A00086000939A0006
:102CF00000919A00006200939A0008950091990251
:102D000010919A00212F27FD026010919A00212F27
:102D100025FD0460089500E00093990208950FEFE7
:102D20000ABB00E00BBB00E707BB00E208BB00E00A
:102D300004BB00E005BB00E001BB00E002BB07B73D
:102D4000006807BF00E004BD0AE003BD08E005BD60
:102D500005B5056005BD07B7046007BF00E00FBDFE
:102D600000E00EBD09EF0DBD05EE0CBD0895A89560
:102D700001B5006101BD01B5087F01BD01B500616C
:102D800001BD01B5086001BD0895FA93EA933A9335
:102D90002A931A930A932FB73BB70091C8040150A6
:102DA00009F445C00A9521F00A9509F452C07FC084
:102DB00001E003BDC69AC59A0091C70410E0F8016E
:102DC000E958FB4F00810BBBC5980091C7040F3435
:102DD00020F40091C704039501C000E00093C704EC
:102DE0000091C704005039F0045161F0045189F09A
:102DF0000451B1F05CC000E80093C90401E0009305
:102E0000C80455C000EC0093C90401E00093C80455
:102E10004EC004E90093C90401E00093C80447C010
:102E200004ED0093C90401E00093C80440C0009180
:102E3000C904013011F400E201C001E003BDC698ED
:102E4000C59A0091C9040BBBC59802E00093C80461
:102E50002EC00091C70410E0000F111FF801E457C5
:102E6000FF4F04910023E9F0C698C59A0091C7046A
:102E700010E0000F111FF801E457FF4F04910BBB46
:102E8000C5980091C70410E0000F111FF801E35727
:102E9000FF4F049103BDE7ECF4E00081039500834C
:102EA00006C002E00093C80400E00093C7043BBFE3
:102EB0002FBF0991199129913991E991F9911895AB
:102EC000202F00E064E1269F010E1BEE010E0CC0D6
:102ED00010E0FA01E00FF11F10811124F001E95810
:102EE000FB4F10830394039510E0FA01E00FF11FEC
:102EF0001081112381F1313059F710E0FA01E00F10
:102F0000F11F1081103CD8F010E0FA01E00FF11F22
:102F1000608170E0603011E071078CF410E0FA011C
:102F2000E00FF11F608170E0FB01E452F04014916A
:102F30001124F001E958FB4F10830394D4CF10E023
:102F4000FA01E00FF11F10811124F001E958FB4F45
:102F500010830394C8CF089504E107C020E210E075
:102F6000F801E958FB4F208303950035B8F300E0E2
:102F70000093C704089500E00093C70403E00093A2
:102F8000C804089534E1039F010E0BEE000E10E01B
:102F900008C000E21124F001E958FB4F00830394BC
:102FA00013951217B0F308959A938A93922F24E100
:102FB000029F802D810F855140E1092F0E94743FAF
:102FC000282F30E0F901E958FB4F0083082F10E06B
:102FD000F801E958FB4F108100E1109F9019082F6C
:102FE00010E0F801E958FB4F918390E0FC01E958AB
:102FF000FB4F00810A3040F090E0FC01E958FB4FA4
:103000000081095C008307C090E0FC01E958FB4F98
:103010000081005D008390E0FC01E958FB4F0181D5
:103020000A3040F090E0FC01E958FB4F0181095C57
:10303000018307C090E0FC01E958FB4F0181005D6E
:1030400001838991999108959A938A93922F24E10B
:10305000029F802D810F85514AE0092F0E94743F05
:10306000005D282F30E0F901E958FB4F0083082F5D
:1030700010E0F801E958FB4F0081003309F0839517
:103080004AE0092F0E94743F1AE0019F9019905D59
:10309000082F10E0F801E958FB4F9083899199912E
:1030A0000895202F00E064E1269F010E1BEE010E23
:1030B0000CC010E0FA01E00FF11F14911124F0018F
:1030C000E958FB4F10830394039510E0FA01E00FD9
:1030D000F11F14911123D9F1313071F510E0FA018B
:1030E000E00FF11F1491103CD8F010E0FA01E00F4E
:1030F000F11F649170E0603011E071078CF410E012
:10310000FA01E00FF11F649170E0FB01E452F0401E
:1031100014911124F001E958FB4F10830394D4CF8C
:1031200010E0FA01E00FF11F14911124F001E958A9
:10313000FB4F10830394C8CF323009F0BACF10E2AE
:103140001124F001E958FB4F10830394BDCF08957B
:1031500044E1049F010E0BEE000E1124F001E9582A
:10316000FB4F2083089500E007C020E210E0F80143
:10317000E958FB4F208303950035B8F308950E946A
:103180000D40802FD901412E855C982F28E2082F11
:1031900010E0F801E958FB4F208383950A2F0B2B91
:1031A00021F0A13001E0B00748F020E3082F10E043
:1031B000F801E958FB4F208383954FC055240FEF4A
:1031C0004016C9F422E3082F10E0F801E958FB4F3C
:1031D0002083839525E3082F10E0F801E958FB4F81
:1031E0002083839526E3082F10E0F801E958FB4F70
:1031F0002083839532C0439404E6401670F044E681
:10320000042D0E94743F502E252D205D082F10E0C4
:10321000F801E958FB4F208383950AE0401688F0B7
:103220004AE0042D0E94743F1AE0519E502E50181F
:1032300000E3500E082F10E0F801E958FB4F5082D0
:1032400083954AE0042D0E94743F405D082F10E0F2
:10325000F801E958FB4F408383952FE2082F10E0D7
:10326000F801E958FB4F20838395A03001E0B007B7
:10327000C9F422E3082F10E0F801E958FB4F20833E
:10328000839525E3082F10E0F801E958FB4F2083D0
:10329000839526E3082F10E0F801E958FB4F2083BF
:1032A00083953DC0A03001E0B00788F55524A436D1
:1032B00070F044E60A2F0E94743F502E252D205DA9
:1032C000082F10E0F801E958FB4F20838395AA30BE
:1032D00088F04AE00A2F0E94743F1AE0519E502E57
:1032E000501800E3500E082F10E0F801E958FB4F8A
:1032F000508283954AE00A2F0E94743F405D082F58
:1033000010E0F801E958FB4F4083839508C02FE394
:10331000082F10E0F801E958FB4F2083839529E23C
:10332000082F10E0F801E958FB4F2083082F091BF4
:10333000902F0AC08395282F822F00E230E0F901F8
:10334000E958FB4F008393959830A0F3E6E00C9486
:103350001740BD01D90110E015C0202F30E0F90160
:10336000E958FB4F2081205D2083123048F40395FB
:10337000402F042F2EE250E0FA01E958FB4F208342
:1033800003951395133008F049C0112319F4FD017A
:10339000258507C0113019F4FD01268502C0FD0105
:1033A0002785322F32953F70402F50E0FA01E958BF
:1033B000FB4F3083402F50E0FA01E958FB4F30813A
:1033C0003A3048F0402F50E0FA01E958FB4F308185
:1033D000395C308308C0402F50E0FA01E958FB4FB8
:1033E0003081305D30830395402F042F2F7050E0E3
:1033F000FA01E958FB4F2083202F30E0F901E9580A
:10340000FB4F20812A3008F4A8CF202F30E0F901AB
:10341000E958FB4F2081295C2083A7CFDB01089569
:103420000E940F40802F00E00BC08395482F842F0F
:103430001EE250E0FA01E958FB4F10838395039593
:10344000033008F056C0002319F4F901138507C0B2
:10345000013019F4F901128502C0F9011185412FDB
:1034600042954F7090E0FC01E958FB4F408390E09B
:10347000FC01E958FB4F40814A3040F090E0FC01EC
:10348000E958FB4F4081495C408307C090E0FC0154
:10349000E958FB4F4081405D40838395482F842F3E
:1034A0001F7050E0FA01E958FB4F108390E0FC01D7
:1034B000E958FB4F10811A3040F090E0FC01E958C8
:1034C000FB4F1081195C108307C090E0FC01E958A4
:1034D000FB4F1081105D1083023008F0A6CF83955A
:1034E000482F842F1AE350E0FA01E958FB4F10836C
:1034F000A5CFF901A781B0E0F901108500E0A00F88
:10350000B11FA83E03E0B00760F000E0033080F593
:103510001FE390E0FC01E958FB4F1083839503956E
:10352000F5CF4AE050E08D010E94903F405D90E071
:10353000FC01E958FB4F42834AE050E08D010E94B4
:10354000903FD8014AE050E08D010E94903F405DDD
:1035500090E0FC01E958FB4F41834AE050E08D01C7
:103560000E94903F005D90E0FC01E958FB4F008312
:10357000E4E00C94194001E004BB00E001C00395B5
:103580000A30E8F303B312E014BB0E3FE1F400E0AD
:1035900001C003950A30E8F303B314E014BB0D3FF8
:1035A00091F400E001C003950A30E8F303B318E09A
:1035B00014BB0B3F41F400E001C003950A30E8F36F
:1035C00003B310E014BBE4EBF0E0FBBFFEE00C94AF
:1035D000C53F03E4089503E2089500E308950DE470
:1035E000089504E4089509E3089508E3089507E3BE
:1035F000089505E5089506E3089505E3089504E3B5
:10360000089505E4089503E3089502E3089501E3AE
:10361000089500EF089500E02EE43EE0402F50E0D2
:10362000440F551FFA01EF5AFA4F2383348321E0E8
:1036300010E0F801EF5AFA4F278320E010E0F8017C
:10364000EF5AFA4F208303951091D2011730C1F43D
:1036500026E73EE0402F50E0440F551FFA01EF5A95
:10366000FA4F2383348329E010E0F801EF5AFA4F30
:10367000278322E010E0F801EF5AFA4F208317C0A9
:1036800022E63EE0402F50E0440F551FFA01EF5A6A
:10369000FA4F2383348328E010E0F801EF5AFA4F01
:1036A000278321E010E0F801EF5AFA4F20830395B9
:1036B000009353050895BA93AA9331E04AE757E07F
:1036C00022E011E004E00E9451182FE016E004E02F
:1036D0000E94C21731E00091190510E0000F111F80
:1036E000ADE1B5E0ED91FC91E00FF11F45915491F2
:1036F00022E017E004E00E9451180091CA0403542C
:1037000009F10A9591F00A9591F1005109F0A4C0D0
:1037100000911C0510911905011708F09DC0E9E101
:10372000F5E000810A95008397C00091190510917A
:103730001B05011708F090C0E9E1F5E00081039551
:1037400000838AC000E0009305050E94AC1701E0E9
:103750000093CE0400E00093190500E000931B05E0
:1037600000E000931C0500E000931F0575C0009168
:1037700010010D3059F400911A05023009F05CC0B7
:10378000E9E1F5E000810395008356C00091100146
:10379000033191F400911A05033009F04DC00091F6
:1037A0001905002311F001E001C000E000938E0232
:1037B00000E000931F0540C000911001063149F45C
:1037C00000911A0500931F0500912005009319052B
:1037D00033C0009110010B3079F500911A050230C9
:1037E00049F400911905013028F0E9E1F5E0008184
:1037F0000395008300911A05013021F40091190509
:10380000023040F400911A050230B1F4009119051C
:10381000013090F00091D301043040F00091D501C7
:10382000043020F00091D101043030F401E310E0C5
:10383000EBEEF4E00083118300911A0500931F055D
:1038400000911905009320050E94AC1701E0009338
:10385000CE0400E00093050500EF0093CA04A9918F
:10386000B99108950E94104080910105A82FA95F89
:103870009091CA042FE016E004E00E94C21731E0E4
:103880004AE757E022E011E004E00E94511831E0DD
:1038900042E151E022E017E004E00E94601700914D
:1038A0000105083098F400911305013061F430E00F
:1038B00040EA5EE022E01A2F04E00E94511800E086
:1038C0000093130503C001E000931305903F09F432
:1038D000D6C2953409F0F0C000911105013009F00D
:1038E0008AC0109118010AE0109F002D1091190153
:1038F000010F0051209115011AE0219F102D2091F8
:103900001601120F1051309112012AE0329F802DC2
:1039100020911301820F8051209118012295207F60
:1039200030911901230F2053209300011C3058F4CB
:10393000209115012295207F30911601230F2053ED
:103940002093010104C011E021E0209301011250F5
:1039500049F0125071F1125061F1135051F11250AF
:1039600041F138C044E00E94743F442389F08D3116
:1039700058F4009112010295007F10911301010F7C
:1039800000530093020188C001E00093020184C04B
:103990008E3158F4009112010295007F10911301AD
:1039A000010F00530093020177C001E00093020170
:1039B00073C08F3158F4009112010295007F10916D
:1039C0001301010F00530093020166C001E0009350
:1039D000020162C0803258F4009112010295007F0A
:1039E00010911301010F00530093020155C001E033
:1039F0000093020151C000911105023009F04CC042
:103A0000109112010AE0109F102D00911301100F68
:103A10001051209115010AE0209F002D20911601E0
:103A2000020F0051309118012AE0329F20911901B4
:103A3000020E20EF020E183158F410911201129567
:103A4000107F20911301120F10531093030103C034
:103A500010E0109303010C3358F400911501029506
:103A6000007F10911601010F00530093040103C061
:103A700000E0009304010CE3001658F400911801D3
:103A80000295007F10911901010F00530093050169
:103A900003C000E00093050101E00093D20400E0C0
:103AA0000093050580E024E111E004E00E94C217C4
:103AB00001E00093CE04DEC1933479F400E000937A
:103AC000050500E00093010524E111E004E00E94F7
:103AD000C21701E00093CE04CDC1953551F4873073
:103AE00008F48395823019F0853009F0C3C18395BD
:103AF000C1C1943451F4813008F08A95823019F0B4
:103B0000853009F0B7C18A95B5C1903308F4B2C1C8
:103B10009A3308F0AFC100911105013009F0EBC0F4
:103B2000082F005081F00A9509F448C0025009F4AA
:103B300073C00A9509F4A1C0025009F4CCC00A95DB
:103B400009F4D1C092C19033B1F4082F10E0F8010C
:103B5000EE5EFE4F9083839590E0FC01EE5EFE4F9B
:103B60000081003309F081C101E390E0FC01EE5EC9
:103B7000FE4F00837AC1933340F4082F10E0F80120
:103B8000EE5EFE4F9083839570C1933309F06DC153
:103B9000082F10E0F801EE5EFE4F9083839590E0D1
:103BA000FC01EE5EFE4F0081023308F45EC100E3CB
:103BB00090E0FC01EE5EFE4F008357C1903389F424
:103BC000082F10E0F801EF5EFE4F0081013308F48A
:103BD0004CC1082F10E0F801EE5EFE4F90838395F4
:103BE00044C1913341F4082F10E0F801EE5EFE4F1E
:103BF000908383953AC1082F10E0F801EF5EFE4FE5
:103C00000081033308F031C1082F10E0F801EE5EA7
:103C1000FE4F9083839529C19033B1F4082F10E0B3
:103C2000F801EE5EFE4F9083839590E0FC01EE5E1E
:103C3000FE4F0081003309F018C101E390E0FC0160
:103C4000EE5EFE4F008311C1913309F00EC1082FC3
:103C500010E0F801EE5EFE4F9083839590E0FC014A
:103C6000EE5EFE4F0081033308F4FFC000E390E0F6
:103C7000FC01EE5EFE4F0083F8C0903389F4082FFC
:103C800010E0F801EF5EFE4F0081013308F4EDC053
:103C9000082F10E0F801EE5EFE4F90838395E5C09B
:103CA000082F10E0F801EF5EFE4F0081013359F458
:103CB000933308F0DAC0082F10E0F801EE5EFE4FF3
:103CC00090838395D2C0082F10E0F801EE5EFE4F7E
:103CD00090838395CAC0082F10E0F801EE5EFE4F76
:103CE00090838395C2C0082F10E0F801EE5EFE4F6E
:103CF00090838395BAC000911105023009F0B5C0D8
:103D0000082F005081F00A9509F448C0025009F4C8
:103D100073C00A9509F491C0025009F46DC00A9568
:103D200009F48BC0A2C09033B1F4082F10E0F80161
:103D3000EE5EFE4F9083839590E0FC01EE5EFE4FB9
:103D40000081003309F091C001E390E0FC01EE5ED8
:103D5000FE4F00838AC0923340F4082F10E0F80130
:103D6000EE5EFE4F9083839580C0923309F07DC054
:103D7000082F10E0F801EE5EFE4F9083839590E0EF
:103D8000FC01EE5EFE4F0081043308F46EC000E3D8
:103D900090E0FC01EE5EFE4F008367C0903389F433
:103DA000082F10E0F801EF5EFE4F0081013308F4A8
:103DB0005CC0082F10E0F801EE5EFE4F9083839503
:103DC00054C0943340F4082F10E0F801EE5EFE4F2B
:103DD000908383954AC0082F10E0F801EF5EFE4FF4
:103DE0000081023308F041C0082F10E0F801EE5EB8
:103DF000FE4F9083839539C09033A9F4082F10E0CB
:103E0000F801EE5EFE4F9083839590E0FC01EE5E3C
:103E1000FE4F0081003349F501E390E0FC01EE5EC6
:103E2000FE4F008322C0963300F5082F10E0F80102
:103E3000EE5EFE4F9083839518C0903379F4082F7F
:103E400010E0F801EF5EFE4F0081013370F0082FA3
:103E500010E0F801EE5EFE4F908307C0082F10E0DF
:103E6000F801EE5EFE4F90838395823011F085302D
:103E700009F483958093010500EF0093CA04E3E001
:103E80000C941A409A938A932FE016E004E00E9463
:103E9000C217009110010530C9F400918C02023064
:103EA00041F431E040E857E022E011E004E00E94F4
:103EB000511800918C02013011F531E048E857E0CB
:103EC00022E011E004E00E94511819C00091100195
:103ED0000B3069F400918C02023049F431E040E883
:103EE00057E022E011E004E00E94511808C031E0E0
:103EF0004AE757E022E011E004E00E9451180091E7
:103F00000105109102050117E8F500911105053A28
:103F100061F000911105043941F000911105043A56
:103F200021F000911105063AB9F40091CA0400335A
:103F300021F00091CA04013329F52091CA040091AF
:103F4000010510E0F801E850FB4F2083E1E0F5E0C7
:103F500000810395008316C00091CA04003390F0DD
:103F60000091CA040A3370F42091CA04009101053B
:103F700010E0F801E850FB4F2083E1E0F5E000811C
:103F8000039500830091CA040332B9F40091100133
:103F90000D3098F000911001013178F4E3EFF4E076
:103FA0000081039500830091F304023018F000E0D3
:103FB0000093F30401E00093CE04009101051091F9
:103FC0000205011708F04AC000911305013009F0FD
:103FD00042C0009110010530E9F400918C020230DA
:103FE00051F430E040EA5EE022E010910105175FF5
:103FF00004E00E94511800918C02013041F530E03C
:1040000040EA5EE022E010910105115F04E00E94A9
:1040100051181DC0009110010B3079F400918C02F1
:10402000023059F430E040EA5EE022E010910105F0
:10403000175F04E00E9451180AC030E040EA5EE0D9
:1040400022E010910105195F04E00E94511800E080
:104050000093130503C001E0009313050091CA0407
:10406000043489F400910105013068F0E1E0F5E0E5
:1040700000810A95008300E02091010530E0F901FC
:10408000E850FB4F0083009110010530C9F4009106
:104090008C02023041F431E048EF54E022E019E0B4
:1040A00004E00E94601700918C02013011F531E0AC
:1040B00048EF54E022E01FE004E00E94601719C0BE
:1040C000009110010B3069F400918C02023049F428
:1040D00031E048EF54E022E019E004E00E9460176C
:1040E00008C031E048EF54E022E017E004E00E940D
:1040F00060170091CA04033409F068C000918C0273
:10410000013019F402E000938C0200913C05002379
:1041100039F00091D101023019F400E00093EE046F
:1041200000913D05013058F00091D301013021F09C
:104130000091D301023019F400E00093EE040091E5
:104140003E05013038F00091D501023019F400E04D
:104150000093EE040091EE04013019F401E00093A5
:10416000D50400E0009305050E94AC1701E0009320
:10417000CE0400E0009301050DC000E02091010590
:1041800030E0F901E850FB4F0083E1E0F5E0008109
:104190000395008300910105083078F300E0009357
:1041A000F30400E00093010500E00093020500E045
:1041B0000093060500E010E0E8E0F5E000831183DD
:1041C00000E010E0EAE0F5E00083118300911105C2
:1041D000053A69F000911105043949F00091110583
:1041E000043A29F000911105063A09F06BC00091DC
:1041F000010510910205011709F064C00091CA047D
:10420000053409F05FC000E0009305050E94AC177B
:1042100001E00093CE0400E010E0EEE0F5E0008362
:10422000118300E00093200520E05091020512C0A8
:104230005A9530E0F901E850FB4F808190E0C0973B
:104240008C01452F0E948A3FE0E2F5E01081100FBB
:104250001083239500910205201750F301E000938D
:1042600012050091110500931F0500E00093010560
:104270000DC000E02091010530E0F901E850FB4F4E
:104280000083E1E0F5E000810395008300910105E2
:10429000083078F300E00093010500E00093020588
:1042A00000E00093060500E00093110500E010E037
:1042B000E8E0F5E00083118300E010E0EAE0F5E0DB
:1042C000008311830091CA04053409F002C20091F1
:1042D0001001023009F4FDC100911001053009F40C
:1042E000F8C1009110010B3009F4F3C100911105E0
:1042F000053A09F4EEC100911105053109F4E9C14F
:1043000000911105043909F4E4C100911105043A42
:1043100009F4DFC100911105063A09F4DAC100E0A1
:10432000009305050E94AC1701E00093CE040091B4
:104330000105015051F00A9509F443C00A9509F4AA
:104340008AC00A9509F4D2C022C10091F80410E095
:10435000005310404091070550E00E94A83FECE058
:10436000F5E0008311830091070510E0ECE0F5E033
:10437000408151810E94823FEEE0F5E0008311838D
:104380000091F804005300931005EEE0F5E0008181
:104390001181EAE0F5E0208131810217130708F46A
:1043A000F6C0E8E0F5E000811181EEE0F5E0208163
:1043B00031810217130708F4EAC001E000931205E7
:1043C000E6C04091F80450E00AE010E00E94823F0D
:1043D0002091F90430E0020F131F00511240409168
:1043E000070550E00E94A83FECE0F5E00083118350
:1043F0000091070510E0ECE0F5E0408151810E945A
:10440000823FEEE0F5E0008311830091F80402950D
:10441000007F1091F904010F005300931005EEE0A6
:10442000F5E000811181EAE0F5E020813181021799
:10443000130708F4ACC0E8E0F5E000811181EEE07C
:10444000F5E0208131810217130708F4A0C001E0D4
:10445000009312059CC04091F80450E004E610E07F
:104460000E94823FC8014091F90450E00AE010E048
:104470000E94823F800F911F0091FA0410E0800F8C
:10448000911F805D94418C014091070550E00E948E
:10449000A83FECE0F5E0008311830091070510E0F0
:1044A000ECE0F5E0408151810E94823FEEE0F5E0D2
:1044B00000831183EEE0F5E000811181EAE0F5E090
:1044C000208131810217130708F461C0E8E0F5E0AC
:1044D00000811181EEE0F5E02081318102171307A0
:1044E00008F455C001E00093120551C04091F80452
:1044F00050E008EE13E00E94823FC8014091F904A9
:1045000050E004E610E00E94823F800F911F40912E
:10451000FA0450E00AE010E00E94823F800F911FF1
:104520000091FB0410E0800F911F8055904D8C018D
:104530004091070550E00E94A83FECE0F5E00083C1
:1045400011830091070510E0ECE0F5E04081518116
:104550000E94823FEEE0F5E000831183EEE0F5E09B
:1045600000811181EAE0F5E0208131810217130713
:1045700070F0E8E0F5E000811181EEE0F5E02081E7
:1045800031810217130718F001E000931205009122
:104590001205013009F070C000911105015909F4AC
:1045A0004DC00A9509F454C00A9509F451C00E5043
:1045B00009F444C00A9509F441C00450F9F10F55BB
:1045C00060F0035058F0005040F0035088F00F5056
:1045D000D1F00A9509F10A9541F148C00091110501
:1045E00000931F05EEE0F5E00081009320053EC03A
:1045F00000911105055000931F05EEE0F5E00081E4
:104600000093200533C004E000931F05EEE0F5E0C1
:104610000081009320052AC006E000931F05EEE00C
:10462000F5E000810093200521C009E000931F05FB
:10463000EEE0F5E000810093200518C0009111051F
:1046400000931F05EEE0F5E00081009320050EC009
:104650000091110500931F054AE050E0EEE0F5E0FF
:10466000008111810E94903F0093200500E000939B
:10467000110500E00093120500E0009301050DC054
:1046800000E02091010530E0F901E850FB4F008384
:10469000E1E0F5E000810395008300910105083019
:1046A00078F300E00093F30400E00093010500E0DC
:1046B0000093020500E00093060500E010E0E8E04A
:1046C000F5E00083118300E010E0EAE0F5E000830C
:1046D00011830091CA04053409F0FDC00091010561
:1046E000043009F0F8C000918C02013029F00091EB
:1046F0008C02023009F0EFC000911001053029F062
:10470000009110010B3009F0E6C000E000930505B0
:104710000E94AC1701E00093CE0400918C0202309D
:1047200009F089C000E00093010500E000938C02CD
:104730001AC000918C0210E0F801E850FB4F208174
:1047400000918C0210E0F801EC5EFA4F0081201716
:1047500029F0E1E0F5E0008103950083ECE8F2E068
:1047600000810395008300918C02043010F30091C6
:104770000105002329F100E00093010500E000930A
:104780008C021AC000918C0210E0F801E850FB4F37
:10479000208100918C0210E0F801E155F14F049165
:1047A000201729F0E1E0F5E0008103950083ECE8B3
:1047B000F2E000810395008300918C02043010F335
:1047C00000910105002339F401E000938C0201E01F
:1047D0000093ED0456C002E000938C0200913C056A
:1047E000002339F00091D101023019F400E0009368
:1047F000EE0400913D05013058F00091D3010130E5
:1048000021F00091D301023019F400E00093EE048E
:1048100000913E05013038F00091D501023019F4C5
:1048200000E00093EE040091EE04013051F501E048
:104830000093D50426C000918C02013011F500913F
:10484000F804009314050091F904009315050091F4
:10485000FA04009316050091FB040093170501E08C
:104860000093690400E010E0EFE6F4E000831183B8
:1048700004E115E0EBE6F4E00083118302E000932D
:104880008C0200E0009301050DC000E020910105BD
:1048900030E0F901E850FB4F0083E1E0F5E00081F2
:1048A0000395008300910105043078F300E0009344
:1048B000010500E00093020500E00093060500E01A
:1048C00010E0E8E0F5E00083118300E010E0EAE0AA
:1048D000F5E00083118300EF0093CA040091D50432
:1048E000013031F405E40093CA0400E00093D504DC
:1048F00000918C02013039F4009110010B3019F451
:1049000005E40093CA0400918C02013071F4009117
:104910001001053051F40091ED04013031F403E34E
:104920000093CA0400E00093ED04899199910895E1
:104930008A93802F05E1009310010E94AC1700E0DC
:104940000093F40402E00093F6048153809323055E
:1049500000E010E0E2E2F5E0078310878991089516
:1049600004E0009310010E94AC1700E00093F404EF
:1049700003E00093F60401E00093F50400E00093E7
:10498000380528E211E002E00E94C21700E010E0C2
:10499000E2E2F5E00783108701E00093CE0408957A
:1049A0008A93802F8F3F69F40FE300931F020FE378
:1049B000009320020FE3009321020FE300932202F1
:1049C00023C0843669F401E300931F0200E30093DF
:1049D000200200E30093210200E30093220214C0AE
:1049E00000E300931F024AE0082F0E94743F005D1D
:1049F000009320024AE0082F0E94743F405D4093DC
:104A0000210200E300932202899108950E940F4041
:104A100000911001013009F08CC00091CA040352CA
:104A200009F47DC00F5031F1025009F448C0025022
:104A300009F445C0025009F44DC00D5009F474C08A
:104A4000085011F00C94212F0E94AC1702E0009343
:104A5000100101E00093CE0401E000930D0100E09D
:104A60000093F40402E00093F50403E00093F604DD
:104A70000C94212F00918D02023040F000918D02A4
:104A8000102F1A9510938D02102F04C006E000938A
:104A90008D02102F00918D020093CB0401E0009352
:104AA000690405E010E0EFE6F4E0008311830BEC0D
:104AB00014E0EBE6F4E0008311830C94212F0091C5
:104AC0000F01013011F402E001C001E000930F0179
:104AD0000C94212F00918D02063040F400918D023C
:104AE000102F139510938D02102F04C000E0009337
:104AF0008D02102F00918D020093CB0401E00093F2
:104B0000690405E010E0EFE6F4E0008311830BECAC
:104B100014E0EBE6F4E0008311830C94212F02E013
:104B20000093F2040C94212F01E00093F2040C9402
:104B3000212F00911001023009F0EBC00091CA044E
:104B4000015309F458C00A9509F468C00A9509F49C
:104B50006FC00A9509F47FC00A9509F4B4C00A959C
:104B600009F4C4C00D5041F00A9571F1095021F0CB
:104B70000850A9F00C94212F0E94AC1701E000937B
:104B80000D0101E00093100100E00093F40400E047
:104B90000093F60401E00093F5040C94212F00919A
:104BA000F404013010F40C94212F0E94AC17E4EFB0
:104BB000F4E000810A95008301E00093CE0401E057
:104BC000009311010C94212F0091F4041091F5042D
:104BD000011710F00C94212F0E94AC17E4EFF4E0C1
:104BE00000810395008301E00093CE0401E000936F
:104BF00011010C94212F0E94AC1701E00093CE0408
:104C000004E00093100100E00093F40401E000933D
:104C1000F50403E00093F6040C94212F0E94AC17D6
:104C200001E00093CE0403E0009310010C94212FC7
:104C30000E94AC1701E00093CE0406E1009310013E
:104C400000E00093F40400E00093F50403E0009317
:104C5000F6040C94212F0E94AC1701E00093CE04BF
:104C600005E00093100100E00093F40403E00093DA
:104C7000F60401E00093F50400913D05013038F0A1
:104C80000091D301043018F400E00093F504009182
:104C90003E05013038F00091D501043018F400E0F1
:104CA0000093F50400913C05002311F40C94212F8E
:104CB0000091D101043010F00C94212F00E00093FA
:104CC000F5040C94212F0E94AC1701E00093CE0450
:104CD00006E00093100100E00093F40401E000936B
:104CE000F50403E00093F6040C94212F0E94AC1706
:104CF00001E00093CE0403E10093100100E0009373
:104D0000F40404E00093F50401E00093F6040C942D
:104D1000212F00911001033009F073C00091CA04E3
:104D2000015379F10A9509F44CC00151B9F00A50C8
:104D300011F00C94212F0E94AC1701E000930D019B
:104D400001E00093100100E00093F40400E0009300
:104D5000F60401E00093F5040C94212F0E94AC1797
:104D600002E00093100101E00093CE0400E0009304
:104D7000F40402E00093F50403E00093F6040C94BD
:104D8000212F03E0009305050BE111E0E3E0F5E0DE
:104D90000083118301E00093110501E000930705F2
:104DA00000E0093010F00C94212F10E0F801E55ECE
:104DB000FE4F208110E0F801EE5EFE4F2083039548
:104DC000F0CF03E00093050504E211E0E3E0F5E035
:104DD0000083118302E00093110501E000930705B1
:104DE00000E0093010F00C94212F10E0F801EC5D88
:104DF000FE4F208110E0F801EE5EFE4F2083039508
:104E0000F0CF00911001043009F060C00091CA0495
:104E10000153045008F456C00E50D1F00A95E9F140
:104E2000095021F0085031F10C94212F0E94AC1749
:104E300001E000930D0101E00093100100E00093F8
:104E4000F40400E00093F60401E00093F504F9C7D0
:104E50000E94AC1702E00093100101E00093CE0421
:104E600000E00093F40402E00093F50403E00093F3
:104E7000F604E7C70091F404013008F4E2C70E9489
:104E8000AC17E4EFF4E000810A95008301E00093A1
:104E9000CE0401E000931101D4C70091F4041091F5
:104EA000F504011708F0CDC70E94AC17E4EFF4E059
:104EB00000810395008301E00093CE0401E000939C
:104EC0001101BFC70091CA0433DDBBC700911001B7
:104ED000053009F0EFC00091CA04015309F45EC027
:104EE0000A9509F46DC00A9509F47CC00A9509F485
:104EF000C0C00F50C9F00A95E1F1095019F00850EF
:104F000029F19FC70E94AC1701E000930D0101E059
:104F10000093100100E00093F40400E00093F60415
:104F200001E00093F5048DC70E94AC1702E00093E6
:104F3000100101E00093CE0400E00093F40402E0CD
:104F40000093F50403E00093F6047BC70091F4049A
:104F5000013008F476C70E94AC17E4EFF4E000815A
:104F60000A95008301E00093CE0401E00093110153
:104F700068C70091F4041091F504011708F061C7A7
:104F80000E94AC17E4EFF4E000810395008301E098
:104F90000093CE0401E00093110153C70E94AC17A7
:104FA00001E00093CE040BE00093100100E00093B9
:104FB000F40400E00093F50401E00093F60441C717
:104FC0000E94AC1701E00093CE040CE000931001A6
:104FD00000E00093F40401E00093F50403E0009383
:104FE000F6042FC700918C020230F9F401E000931F
:104FF000050504E00093020504E115E0E3E0F5E0B7
:105000000083118300E00093060500E010E0E8E073
:10501000F5E00083118300E010E0EAE0F5E00083B2
:10502000118301E0009307050CC700918C02013049
:1050300009F007C701E00093050504E000930205AD
:1050400004E115E0E3E0F5E00083118300E0009364
:10505000060500E010E0E8E0F5E00083118300E0E1
:1050600010E0EAE0F5E00083118301E0009307051A
:10507000E8C60091D301043008F4E3C60091D501DD
:10508000043008F4DEC60091D101043008F4D9C61A
:105090000E94AC1701E00093CE0404E100931001DC
:1050A00000E00093F40403E00093F60401E00093B1
:1050B000F504C7C600911001063109F091C00091B6
:1050C000CA04035209F4BDC60D5009F4BAC603510F
:1050D000E1F00A95D1F10A9509F4B3C6085019F028
:1050E000085029F151C00E94AC1701E000930D0156
:1050F00001E00093100100E00093F40400E000934D
:10510000F60401E00093F5049CC60E94AC1702E08F
:105110000093100101E00093CE0400E00093F4043A
:1051200002E00093F50403E00093F6048AC60091C0
:10513000F404013008F485C6E4EFF4E000810A9538
:10514000008301E00093CE047CC60091F604109128
:105150005305011708F075C64091F40450E0209102
:10516000530530E00091F60410E0201B310B42178C
:1051700053070CF066C6E4EFF4E00081039500836A
:1051800001E00093CE045DC60091CA040153109162
:105190005305011708F055C612E710931A0510E0E1
:1051A000F801EF5AFA4F17811093200510E0F8012B
:1051B000EF5AFA4F008110E0EAE0F5E00083118336
:1051C000E8E0F5E000831183009319050AE91EE089
:1051D000EDE1F5E00083118302E00093050531C69F
:1051E0000091CA04035209F4FEC10E50D9F00A9589
:1051F000B9F10A9509F452C00A9509F46DC002503C
:1052000009F49AC00D5009F4C1C00A9509F494C17B
:105210000A9509F402C2085009F4A6C0085009F41E
:105220003AC10EC600911001065019F0065009F05F
:1052300008C60E94AC1701E00093CE04E0E1F1E063
:1052400000810395008300E00093F40407E00093DD
:10525000F50401E00093F60400E00093F304F1C5C7
:1052600000911001065019F0065009F0EAC50E949D
:10527000AC1701E00093CE0400E00093F40401E0D9
:105280000093F60401E00093110102E00093F5049D
:10529000E0E1F1E000810E5F0083D3C500911001D1
:1052A000065019F0065009F0CCC50E94AC1701E079
:1052B0000093CE0400E00093F40401E00093F604B0
:1052C00001E00093110103E00093F504E0E1F1E057
:1052D00000810D5F0083B5C500911001065039F0C3
:1052E0000250C9F0045019F00250A9F0AAC50E945A
:1052F000AC1701E00093CE0400E00093F40401E059
:105300000093F604E0E1F1E000810C5F008305E02A
:105310000093F50496C50091F404013009F091C59D
:1053200000911101023020F0009111010A9501C095
:1053300004E00093110185C500911001085019F097
:10534000065009F07EC50091F404013009F079C5DA
:1053500000911101043020F400911101039501C066
:1053600001E0009311016DC50E94AC1701E00093AC
:105370000D0101E00093100100E00093F40400E04F
:105380000093F60401E00093F5045BC50091100161
:105390000650A9F0015090F0045018F10050B1F1FE
:1053A0000A95A1F1015050F0045008F457C0025082
:1053B00031F00A9559F10A9509F46BC042C50E9473
:1053C000AC1702E00093100101E00093CE0400E06E
:1053D0000093F40402E00093F50403E00093F60464
:1053E00030C50E94AC1706E00093100101E0009365
:1053F000CE0400E00093F40401E00093110101E009
:105400000093F50403E00093F6041BC50E94AC175B
:1054100005E00093100101E00093CE0400E000934A
:10542000F40403E00093F60401E00093F504009116
:10543000D301043018F400E00093F5040091D50185
:10544000043018F400E00093F5040091D101043019
:1054500008F0F7C400E00093F504F3C40E94AC1711
:1054600001E00093CE040CE00093100100E00093F3
:10547000F40400E00093F30401E00093110101E063
:105480000093F50403E00093F60400E00093F304B6
:10549000D8C466DAD6C40091100106500550A0F0B9
:1054A0000A9591F00A9569F00A9571F00A9561F0F4
:1054B0000A9539F0035041F00A9531F00A95B9F098
:1054C000C0C400E00093F3040091F404013008F438
:1054D000B8C4E4EFF4E000810A95008301E0009392
:1054E000CE040E94AC1701E000931101AAC4A9E206
:1054F000B5E0ED91FC9132970CF4A3C40091F40453
:10550000013030F0E4EFF4E000810A95008306C03A
:10551000E2E2F5E007810A950093F40400E00093CD
:10552000380528E211E002E00E94C21728E01DE0E1
:1055300004E00E94C21785C4009110010650055076
:10554000A0F00A9591F00A9569F00A9571F00A9514
:1055500061F00A9539F0035041F00A9531F00A954F
:10556000C9F06FC400E00093F3040091F4041091BB
:10557000F504011708F065C4E4EFF4E00081039539
:10558000008301E00093CE040E94AC1701E0009379
:10559000110157C4A9E2B5E0ED91FC9132970CF4EA
:1055A00050C40091F40410E0E2E2F5E087819085B8
:1055B00001970817190734F4E4EFF4E0008103952C
:1055C000008303C000E00093F40400E0009338057A
:1055D00028E211E002E00E94C21728E01DE004E08A
:1055E0000E94C2172EC4009110010D3008F429C486
:1055F00000911001013108F024C4E3EFF4E00081D0
:10560000039500830091F304023018F000E000934A
:10561000F30401E00093CE0414C4009110010B5078
:1056200099F0025009F4D9C00A9509F4C0C10A954D
:1056300009F42AC20A9509F4B5C2035009F4A5C3B6
:105640000A9509F4C9C3FDC300918C02023031F5FB
:105650000091EE04002311F501E00093050504E03C
:105660000093020504E115E0E3E0F5E00083118317
:1056700000E00093060500E010E0E8E0F5E00083BC
:10568000118300E010E0EAE0F5E00083118301E01F
:105690000093070501E00093EE04D3C300918C0250
:1056A000013009F052C000E0009341050091D101A2
:1056B000023021F00091D1010E3419F401E0009381
:1056C00041050091D301023041F00091D301013036
:1056D00021F00091D3010E3419F401E0009341054B
:1056E0000091D501023021F00091D5010E3419F45A
:1056F00001E00093410502E00093050501E00093FD
:105700001A0500E00093190500E000931C0502E073
:1057100000938C0200914105002351F001E00093B9
:105720001B0503EF15E0EDE1F5E00083118309C0EF
:1057300003E000931B050FEF15E0EDE1F5E00083BA
:10574000118300E00093EE047CC300E00093410568
:105750000091D101023039F00091D1010E3419F0DD
:1057600001E0009341050091D301023059F000910E
:10577000D301013039F00091D3010E3419F001E06A
:10578000009341050091D501023039F00091D50117
:105790000E3419F001E0009341050091410500230A
:1057A000C1F002E00093050502E000931A0500E055
:1057B0000093190500E000931C0507EF15E0EDE1EB
:1057C000F5E00083118302E000938C0202E0009375
:1057D0001B0500E00093EE0434C30091D1010023C7
:1057E00009F02FC30091F404E8EEF0E0FBBFFEE007
:1057F0000C94C53F02E00093050501E000931A05F3
:1058000000E00093190507E000931B0500E00093FA
:105810001C0500E115E0EDE1F5E00083118311C303
:1058200002E00093050502E000931A0500E00093F2
:10583000190501E000931B0500E000931C0503E43B
:1058400015E0EDE1F5E000831183FBC201E0009378
:10585000050502E00093020500E00093060503E65B
:1058600010E0E8E0F5E00083118300E010E0EAE0FA
:10587000F5E00083118308E00093110501E0009337
:10588000070501E00093EF04DCC201E00093050589
:1058900002E00093020500E00093060502E110E03B
:1058A000E8E0F5E00083118300E010E0EAE0F5E0D5
:1058B0000083118309E00093110501E000930705BF
:1058C00001E00093EF04BDC201E00093050502E092
:1058D0000093020500E00093060506E310E0E8E00F
:1058E000F5E00083118300E010E0EAE0F5E00083DA
:1058F00011830AE00093110502E00093070501E01F
:105900000093EF049EC201E00093050502E00093BE
:10591000020500E00093060504E110E0E8E0F5E090
:105920000083118300E010E0EAE0F5E000831183DA
:105930000BE10093110501E00093070501E00093DE
:10594000EF047FC201E00093050502E00093020529
:1059500000E00093060504E110E0E8E0F5E00083D4
:10596000118300E010E0EAE0F5E0008311830CE130
:105970000093110501E00093070501E00093EF0497
:1059800060C202E00093050507E000931A0500E0FD
:105990000093190502E000931B0500E000931C052D
:1059A00001E715E0EDE1F5E0008311834AC20091C3
:1059B000D101002309F045C20091F404005031F0F8
:1059C0000A9519F10A9509F440C03BC201E0009321
:1059D000050502E00093020500E0009306050AE0D9
:1059E00010E0E8E0F5E00083118300E010E0EAE079
:1059F000F5E00083118301E90093110501E00093B4
:105A0000070501E00093EF041CC201E000930505C7
:105A100004E00093020500E00093060508EE13E0A1
:105A2000E8E0F5E00083118300E010E0EAE0F5E053
:105A30000083118303E90093110502E30093070536
:105A4000009111010093EF04FCC101E000930505F2
:105A500004E00093020500E00093060500E010E07A
:105A6000E8E0F5E00083118300E010E0EAE0F5E013
:105A70000083118304E90093110501E000930705F9
:105A800001E00093EF04DDC10091D101002309F092
:105A9000D8C10091F404005049F00A9531F10A95FB
:105AA00009F442C00A9509F45EC0CBC101E000933D
:105AB000050502E00093020500E0009306050AE0F8
:105AC00010E0E8E0F5E00083118300E010E0EAE098
:105AD000F5E00083118301EA0093110501E00093D2
