:020000020000FC
:100000000C94073F189518951895189518951895FC
:100010001895189518951895189518951895189578
:10002000189518950C94CE1618951895189518953E
:1000300018951895189518950C94AB2F1895189538
:100040000C947814189518950C94D2130C944214AF
:100050001895189518951895189518951895189538
:100060001895189518951895189518951895189528
:1000700018951895189518950C94D8150C94331656
:10008000189518951895189518951895303F3002C1
:10009000300338010C0101200201000041A042A1FF
:1000A000E045A3A4A5A64BA74D484FA8504354A98B
:1000B000AA58E1ABACE2ADAE62AFB0B161B2B3B4DD
:1000C000E365B6B7B8B9BABBBCBD6FBE7063BF79E4
:1000D000E478E5C0C1E6C2C3C4C5C6C7CDE5F22019
:1000E000F1E2FFE7E820F120C1D1CF20202020203D
:1000F000002020C8EDE8F6E8E0EBE8E7E0F6E8FFEE
:10010000202020202000312EC6F3F0EDE0EB2E0061
:10011000322EC4E0F2E02FE2F0E5ECFF2E00332EA9
:10012000D3EFF0E0E2EBE5EDE8E52E00342ED3F17D
:10013000F2E0EDEEE2E8F2FC2E00352ECFF0EEF12B
:10014000ECEEF2F020EFE0F0E0EC2E000601100102
:100150001E012C013A01312E20C4E0F2E02E2020B5
:100160002020202020202020202000322E20C2F01D
:10017000E5ECFF2E20202020202020202020200021
:10018000312ED0E5E6E8EC2E00322ECFE0F0E0ECA8
:10019000E5F2F0FB2E00332ECFE0F0EEEBFC2E006C
:1001A000342ED2E5F1F22E00800189019601A001E2
:1001B0002EC7E0F9E8F2E02E002ECFF0E8E5ECEDF6
:1001C000E8EA2E002ECFE5F0E5E4E0F2F7E8EA2ECB
:1001D000002ECEE1F9E8E52E00B001B901C401D14D
:1001E00001D2E8EF20E7E0F9E8F2FB202020202010
:1001F000202020202000D2E8EF20EBE8EDE8E820E6
:100200002020202020202020202000C4EEEF2E20BF
:10021000E2F0E5ECFF20E1E5E720ECE0ED2E200048
:10022000CAEEECEF2EE7E0E4E5F0E6EAE820E220B3
:10023000EBE8ED2E00CFE5F0E5EAF0FBF2E8E52093
:10024000E8ECEFF3EBFCF1EEE200C7E0E3F02EF7B1
:10025000F3E2F1F2E2E8F22E20D0C720202000CF16
:10026000EEF0EEE320CFD0C5C4D3CFD020EFEE2008
:10027000D0C72000D2E8EF20EFF0E8E5ECEDE8EAA7
:10028000E02020202020202000E101F6010B0220A8
:100290000235024A025F027402F1EFE8F1EEEA0071
:1002A000F1EFE8F1EEEA00302E2E393900302E2E33
:1002B000313800302E2E353400302E2E32300030C2
:1002C0002E2E323000F1EFE8F1EEEA009902A002A2
:1002D000A702AD02B302B902BF02C502C2F0E5EC4B
:1002E000FF20E2EAEBFEF7E5EDE8FF2020202020EA
:1002F00000C7E0E4E5F0E6EAE020EDE020E2FBEA1A
:10030000EB2E203FEA00C1EBEEEA2E20EAEEECE015
:10031000EDE4FB2020342E2E312000DC02F1020619
:1003200003302E2E313000302E2E3130303000EDA3
:10033000E5F200210327032F03C2F0E5ECFF20E2E2
:10034000EAEBFEF7E5EDE8FF202020202000C4EBDB
:10035000E8F2E5EBFCEDEEF1F2FC20EAEEECE0ED8C
:10036000E4FB00C4EBE8F22E20EAEEECE0EDE4FB67
:100370002020342E2E312000C1EBEEEA2E20EAEEB2
:10038000ECE0EDE4FB2020342E2E31200039034E2A
:100390000363037803302E2E31300032302E2E319D
:1003A0003030000095039B03A303A303D3E4E5F0DF
:1003B000E6E0EDE8E520F0E5EBE520CFD0CC00D39A
:1003C000E4E5F0E6E0EDE8E520F0E5EBE520CFD070
:1003D000C400C2F0E5ECFF20EFE5F0E5E7E0EFF365
:1003E000F1EAE000CAEEEDF2F0EEEBFC20E2FBF504
:1003F0002EF1E8E3EDE0EBE000CFEEF0EEE320CF0E
:10040000D0C5C4D3CFD020EFEE20CAD72000D3EC84
:10041000E5ED2EF3F1E8EBE5EDE8FF203120EAE031
:10042000ED2E00AC03BF03D203E403F9030E04C7AF
:10043000C0D900CFD0CC00CFCC3200CFD0C400C2C6
:10044000FBE2E5E42000C3EEF2EEE22000C2E2E5CA
:10045000E4E5ED00D0E5F7FC202000D2E5F1F23133
:100460002000D2E5F1F2322000D2E5F1F233200093
:100470003F0446044D0454045B04620469043F3F96
:100480003F3F00202020C7E0EFF3F1EA20F2E5F142
:10049000F2E02020202020002020CFEEE4EEE6E451
:1004A000E8F2E5203F20F1E5EA20202000C4D4C78F
:1004B0002DCFF0CFE4202000C4D4C72DCFF0ECCC5A
:1004C000CA3100C4D4C72DCFF0ECCCCA3200C4D49A
:1004D000C72D4C363020202000CDC72DCFF0CFE4E3
:1004E00020202000CDC72DCFF0EC2DCCCA2000CF8E
:1004F000CFC72DCFF0CFE4202000CFCFC72DCFF036
:10050000EC2DCCCA00EEF8E8E1EAE0202020200043
:10051000AD04B804C304CE04D904E404EF04FA041F
:1005200005053220EAEEEDF6E5E2E0FF003320EAD1
:10053000EEEDF6E5E2E0FF00EEF8E8E1EAE020208B
:1005400020200022052D053805E0EAF22BEFE0F12E
:10055000F12000E0EAF2E8E2EDE0FF2000EFE0F158
:10056000F1E8E2EDE0FF00EEF8E8E1EAE02020202B
:1005700000490553055D056705C7C0D93A00CFD0CE
:10058000CC3A00CFCC323A00CFD0C43A003F3F3F04
:100590003F2020202000CDE5E8F1EFF0202000CF23
:1005A000F0E5E4F3EFF02000C2FBE2E5E4E5ED2046
:1005B00000C3EEF2EEE220202000C2E2E5E4E5ED29
:1005C000202000D0E5F7FC2020202000D2E5F1F229
:1005D0003120202000D2E5F1F23220202000D2E5A7
:1005E000F1F23320202000A805B105BA05C305CCDF
:1005F00005D505A805BA05A805CC05D505DE05A8CD
:1006000005BA05CC05D505DE05C8F1F5EEE4ED2EFD
:100610002000CAEEEDF2F0EEEBFC00CFF3F1EA20A1
:1006200020202000D0E0E1EEF2E0202000CDE5E83F
:10063000F1EFF02E2000CF2EEDE5E8F1EFF000CE47
:10064000E6E8E4E0EDE8E500CDE0EB2EEFF3F1EADB
:10065000003F307830383F202000CDE5F220D0C771
:10066000202000D0E5F7FC202020200009061206FB
:100670001B0624062D0636063F06480651065A0676
:100680006306C8F1F5EEE4ED2E2000CFD0CC20CAF1
:10069000D7202000CFD0CC20CFC0202000CDE5F245
:1006A00020CAD7202000CDE5E8F1EFF02E2000CFC2
:1006B0002EEDE5E8F1EFF000CEE6E8E4E0EDE8E568
:1006C00000C1CBCA20CACC2020003F307830383F50
:1006D0002020003F307830393F202000D0E5F7FC63
:1006E000202020200082068B0694069D06A606AFD9
:1006F00006B806C106CA06D306DC06C8F1F5EEE464
:10070000ED2E2000CFD0C420CAD7202000CFD0C4E7
:1007100020CFC0202000CDE5F220CAD7202000CD78
:10072000E5E8F1EFF02E2000CF2EEDE5E8F1EFF057
:1007300000CEE6E8E4E0EDE8E5003F307830373F12
:100740002020003F307830383F202000D1E8F1F2FF
:10075000E5EC2E2000D0E5F7FC2020202000FB0651
:1007600004070D0716071F07280731073A07430735
:100770004C075507672D006C2D00C2E2EEE43A00ED
:10078000CFE0F0EEEBFC3A00CDEEE2FBE920EFE04B
:10079000F0EEEBFC3A00C7EDE0F7E5EDE8E53A20D6
:1007A000003F3F3F3F00E2FBEAEB2E00E2EAEB2E88
:1007B00000A607AC07A107C4E8E0EFE0E7EEED3ADA
:1007C0002000E2EAEB2FE2FBEAEB00E2EAEB2FE2A9
:1007D000FBEAEB00302E2E3500E2EAEB2FE2FBEADB
:1007E000EB00302E2E323200302E2E323200302EE0
:1007F0002E313000C207CB07D407D907E207E8073C
:10080000EE07CFF0EEF8E8E2EAE020502D55535025
:10081000202000CFF0EEF8E8E2EAE02041542D5528
:1008200053502000CFF0EEF8E8E2EAE020445350C5
:100830002D55535000C4EEEFEEEBED2E20EFE0F01F
:10084000E0ECE5F2F0FB00C2E8E420EFE0F0E0ECE1
:10085000E5F2F0E00002081308240835084708C54F
:10086000F1F2FC00CDE5F200F1F2E0EDE4E0F0F2AF
:100870000048455800710868082020202020457253
:10088000726F7220202020202000D3F1F2E0EDEEE4
:10089000E2E8F2E520F7E0F1FB2000CDE5E8F1EF3A
:1008A000F02EF7F22E20464C41534800CDE5E8F1FA
:1008B000EFF02EE7E0EF2E464C41534800CDE5E83F
:1008C000F1EFF02EF7F22E20504C49532000CDE5E9
:1008D000E8F1EFF02EE7E0EF2E504C49532000CD29
:1008E000E5E8F1EFF02EE7E0EF2E3252414D200027
:1008F000CDE5E8F1EFF02E445350203252414D2027
:1009000000CDE5E8F1EFF02EF7F22E203252414D06
:100910002000D3F1F2E0EDEEE2E8F2E520F7E0F1BD
:10092000FB2000CDE8E7EAEEE520EDE0EFF02EE277
:10093000FBF52E00C2FBF1EEEAEEE520EDE0EFF074
:100940002EE2FBF5009B08AC08BD08CE08DF087955
:100950000879087908F0080109120923093409798E
:100960000879087908CDE5F220E1EBEEEAE020C154
:10097000D1C720202000CDE5E8F1EFF02EE2E5F030
:10098000F12EC1D1C72000CDE5E8F1EFF02EEFE563
:10099000F0E5EAEB2E202000CDE5E8F1EFF02EE7C0
:1009A000E0EF2E20C1D1C72000CDE5E8F1EFF02E19
:1009B000E2F5EEE42ECFD3D1CA00CDE5E8F1EFF0B9
:1009C0002EE2F5EEE42ED1D2CECF00CDE5E8F1EF68
:1009D000F02EF6E5EFFC2EC2DBD52000CDE5E8F1E8
:1009E000EFF02EE7E0EF2E20C2DBD52000CDE5F2C0
:1009F00020F1E8E3EDE0EBE020D0C720200065091E
:100A00007609870998097908790879087908A90980
:100A1000BA097908CB097908DC09ED097908CDE82C
:100A2000E7EAE8E920F3F0EEE22E20D0C72000CD7F
:100A3000E5F220E1EBEEEAE020C1D1CA202020005F
:100A4000CDE5E8F1EFF02EE2E5F0F12EC1D1CA20BC
:100A500000CDE5E8F1EFF02EEDE5F220CAD7312028
:100A60002000CFF0E5E22EE4EB2DF1F2E82EEAEEE5
:100A7000EC2E00CDE5E8F1EFF02EE7E0EF2E20C1FF
:100A8000D1CA2000CDE5E8F1EFF02EE2FBEAEB2E33
:100A9000CAD1CA2000CDE5E8F1EFF02EE2EAEB2E54
:100AA00020CAD1CA2000CDE5E8F1EFF02EEAEEED44
:100AB000F2F02ECAD1CA00CFF0E5E4F3EFF02EED4C
:100AC000E5F220CAD7312000CFF0E8E5EC20E1EBD9
:100AD000EEEA2E20CAEEEC2E002F0A400A510A62DE
:100AE0000A7908790879087908730A840A950AA6A8
:100AF0000AB70A79087908C80AD1EDE8E62E20F38A
:100B0000F0EEE2EDFF20CFD0CC00CDE5F220E1EB1E
:100B1000EEEAE020C1D1CA20202000CDE5E8F1EFC7
:100B2000F02EE2E5F0F12EC1D1CA2000CDE5E8F1CA
:100B3000EFF02EF7F22EEAEEECE0EDE400CDE5E882
:100B4000F1EFF02EE2FBEAEB2ED2E5F1F200CDE57B
:100B5000E8F1EFF02EE2EAEB2E20D2E5F1F200CD43
:100B6000E5E8F1EFF02EE2F5EEE42ECAD1CA20005E
:100B70000A0B1B0B79087908790879087908790834
:100B80002C0B3D0B4E0B5F0B79087908790879081F
:100B9000C3F0313A00C3F0323A00C3F0F3EFEFE0B4
:100BA000203100C3F0F3EFEFE02032009A0BA30BEB
:100BB000E2FBEAEB00CAD73100CAD73200CAEEEC3A
:100BC0003100CAEEEC3200CAEEEC3300CAEEEC346F
:100BD00000CAEEEC3500CAEEEC3600CAEEEC370087
:100BE000CAEEEC3800B00BB50BB90BBD0BC20BC78E
:100BF0000BCC0BD10BD60BDB0BE00BE2FBEAEB00D3
:100C0000D0C73100D0C73200FB0B000C040CD2E57A
:100C1000F1F2203100D2E5F1F22032000E0C150C79
:100C2000C6F3F0EDE0EB2000F1EEE1FBF2E8E900C5
:100C3000E7E0F9E8F2FB00EFF0E8E5ECEDE8EAE0E8
:100C400000EFE5F0E5E4E0F2F7E8EAE000280C3038
:100C50000C370C410CD7F2E5EDE8E520E0F0F5E8C3
:100C6000E2E02E00CFCC00CFC400D1C100C7D90034
:100C70006A0C670C640C6D0CCEC1D90000CD2EE25D
:100C8000EAEB2EF2E5F1F22000CD2EE2FBEAEB2EAC
:100C9000F2E5F1F200CD2EE2F5EEE4E020CAD1CA91
:100CA00000CD2EE2EAEB2E20CAD1CA2000CD2EE2E2
:100CB000FBEAEB2E20CAD1CA00CD2EE7E0EF2E20B2
:100CC000C1D1CA2000CD2EEAEEEDF2F02EC1D1CA7C
:100CD00000CDE5F220E1EB2E20C1D1C700CEF82EE9
:100CE000E2E5F0F12EC1D1C700CD2EEFE5F0E5EA47
:100CF0002EC1D1C700CD2EEAEEED2EE2FBF52EF689
:100D000000CD2EE7E0EF2EE2FBF52EF600CDE5F26A
:100D100020F12E20CFD3D1CA00CDE5F220F12E2034
:100D2000D1D2CECF00CDE5F220F1E8E3ED2ED0C751
:100D300000CFE5F0E5E7E0EFF3F1EA2000C8E7ECEB
:100D40002EF0E5E6E8ECE02000C2EEF1F1F22E2014
:100D500031CAD72000C2EEF1F1F22E2032CAD720DC
:100D600000CDE5F22031CAD72035F12000CDE5F2E3
:100D70002032CAD72035F12000CD2EF0E0E1EEF28E
:100D80002E44535000C2EEF12EF0E0E12E445350B9
:100D900000CD2EF7F22E203252414D2000CD2EE70D
:100DA000E0EF2E203252414D00CD2EE2F0E5ECE591
:100DB000EDE8202000CD2EE7E0EF2E20504C4953E7
:100DC00000CD2EF7F22E20504C49532000CD2EF7A7
:100DD000F22E20464C41534800CD2EE7E0EF2E4640
:100DE0004C41534800CDE8E72EEDE0EF2EE2FBF555
:100DF00000C2FBF12EEDE0EF2EE2FBF5007C0C7D56
:100E00000C890C950CA10CAD0CB90CC50CD10CDDEA
:100E10000CE90CF50C010D0D0D190D250D310D3DD5
:100E20000D490D550D610D6D0D790D850D910D9DC2
:100E30000DA90DB50DC10DCD0DD90DE50DF10DCFE0
:100E4000E5F0E5E7E0EF2000CDE0F7E0EBEE200095
:100E5000CAEEEDE5F62000EAEEECE0EDE4FB002E54
:100E6000D1E1F0EEF120F1E2EEE5E3EE2E202020DC
:100E70002020002ECFF3F1EA20EDE0EBE0E42E207D
:100E8000E2EAEB2E2020002ECFF3F1EA20EDE0EB9A
:100E9000E0E42E20E2FBEAEB2E2000D1E1F0EEF1BF
:100EA00000CFF3F1EA00D1F2EEEF009B0EA10EA607
:100EB0000E5F00D1E2FFE7FC20F120CFCA002E0038
:050EC00030303030006D
:100EC6007701121B0A1B04021B02FA1A01F21A39D5
:100ED6000E1B04061B02FE1A01F61A190C1B04044B
:100EE6001B02FC1A01F41A09101B04081B02001B42
:100EF60001F81AFB0000D42E0800AD2BC32BD92B0A
:100F0600F82B172C362C552C742C0100132F0800A7
:100F1600EB2EF02EF52EFA2EFF2E042F092F0E2F74
:100F26003000A72F0B00702F752F7A2F7F2F842F5D
:100F3600892F8E2F932F982F9D2FA22F01000536D4
:100F46001600F93545367B369436D5363037623756
:100F560013387938C93883393037623713387938D6
:100F6600C938053605362B3A9E3A993B823D000034
:100F76000F3808009137A237B337BC37C537CE379D
:100F8600DD37E63730E042E007C050E0F801E40F15
:100F9600F51F5081350F43954217B8F3032F089577
:100FA600E2EEF3E02081206120830093250401E036
:100FB600009326041093270425E003E214E0E2DF01
:100FC60010E0EFE8F2E000831183EFE8F2E0008141
:100FD6000093280406E00E94B11508959A938A9317
:100FE600812FE2EEF3E01081106110830093250457
:100FF60080932604282F2C5F03E214E0C3DF10E061
:10100600EFE8F2E000831183EFE8F2E0008190E080
:10101600FC01ED5DFB4F04838B5F082F0E94B11529
:101026008991999108950150A1F00A95E9F00A95E0
:1010360069F10A9509F446C00A9509F47AC00A9539
:1010460009F493C00A9509F4ACC0025009F4B6C07D
:10105600D0C00091E703083018F40091E70301C0FF
:1010660008E000935E02C5C00091E703013050F02E
:101076000091E703033030F40091E7030A950093EB
:101086007B02B7C002E000937B02B3C00091E70386
:10109600043688F40091E7034AE00E941B3F005D96
:1010A60000937C020091E7034AE00E941B3F405DEB
:1010B60040937D029EC00FE300937C020FE30093F2
:1010C6007D0297C00091E703033188F40091E7039E
:1010D6004AE00E941B3F005D00935F020091E70318
:1010E6004AE00E941B3F405D4093600206C00FE34A
:1010F60000935F020FE3009360020091E80303315F
:1011060088F40091E8034AE00E941B3F005D0093CB
:1011160067020091E8034AE00E941B3F405D40934E
:10112600680267C00FE3009367020FE3009368024B
:1011360060C00091E703073388F40091E7034AE0B3
:101146000E941B3F005D009383020091E7034AE083
:101156000E941B3F405D409384024BC00FE3009307
:1011660083020FE30093840244C00091E703053134
:1011760088F40091E7034AE00E941B3F005D00935C
:101186006F020091E7034AE00E941B3F405D4093D7
:1011960070022FC00FE300936F020FE300937002FB
:1011A60028C00091E703033028F40091E703009379
:1011B6008B021FC003E000938B021BC00091E70364
:1011C600053188F40091E7034AE00E941B3F005D69
:1011D600009375020091E7034AE00E941B3F405DC1
:1011E6004093760206C00FE3009375020FE3009367
:1011F600760201E00093CF0401E00093CE04089547
:10120600015131F0025031F10A9509F440C014C081
:101216000091E7030B30B8F40091E7034AE00E941F
:101226001B3F005D009311020091E7034AE00E9414
:101236001B3F405D4093120201E00093CE0401E0A3
:101246000093CF0408950FE3009311020FE3009378
:101256001202F2CF00E00BC010E0F801ED51FC4F96
:10126600248110E0F801E95EFD4F208303950830E4
:1012760018F710E0F801ED51FC4F1481153660F3B4
:101286002FEF10E0F801E95EFD4F2083EFCF0091CC
:10129600E7030093270220E00BC030E3022F10E0A3
:1012A600119501951040F801E85DFD4F33832395B4
:1012B600243010F630912702422F01E010E00E9400
:1012C600313F3023332349F331E3022F10E01195E8
:1012D60001951040F801E85DFD4F3383E8CF0152D8
:1012E60061F00A9561F1025009F45DC00A9509F4AE
:1012F60083C00A9509F4A9C014C00091E7030B3016
:10130600B8F40091E7034AE00E941B3F005D00939A
:1013160033020091E7034AE00E941B3F405D409381
:10132600340201E00093CE0401E00093CF04089557
:101336000FE3009333020FE300933402F2CF0091E0
:10134600E703043130F10091E703053610F500910B
:10135600E703043651F401E30093390200E30093F6
:101366003A0200E300933B02DCCF00E3009339022C
:101376000091E7034AE00E941B3F005D00933A029A
:101386000091E7034AE00E941B3F405D40933B0209
:10139600C8CF0FE3009339020FE300933A020FE33D
:1013A60000933B02BECF0091E7030093400220E08A
:1013B6000BC030E3022F10E0119501951040F801A3
:1013C600EF5BFD4F33832395243008F0AACF30918D
:1013D6004002422F01E010E00E94313F30233323C8
:1013E60041F331E3022F10E0119501951040F80109
:1013F600EF5BFD4F3383E7CF0091E7030093F004E3
:1014060020E00BC030E3022F10E01195019510404B
:10141600F801EA5BFD4F33832395243008F081CF32
:101426003091F004422F01E010E00E94313F30235A
:10143600332341F331E3022F10E01195019510405B
:10144600F801EA5BFD4F3383E7CF0091E703009392
:10145600F10420E00BC030E3022F10E01195019556
:101466001040F801E55BFD4F37832395283008F0DF
:1014760058CF3091F104422F01E010E00E94313F35
:101486003023332341F331E3022F10E01195019508
:101496001040F801E55BFD4F3783E7CF9A938A93B7
:1014A60080E022C0482F50E003E010E00E94293F70
:1014B600F801ED51FC4F2581082F10E0000F111F98
:1014C600F801EF52FE4F2183482F50E003E010E071
:1014D6000E94293FF801ED51FC4F068190E0FC0186
:1014E600E652FE4F008383958430F8F5482F50E08E
:1014F60003E010E00E94293FF801ED51FC4F048102
:10150600063050F02EE4082F10E0000F111FF801EE
:10151600EF52FE4F208312C0482F50E003E010E048
:101526000E94293FF801ED51FC4F2481082F10E05D
:10153600000F111FF801EF52FE4F2083482F50E095
:1015460003E010E00E94293FF801ED51FC4F0581B0
:101556000B3008F4A7CF2EE4082F10E0000F111F60
:10156600F801EF52FE4F2183AFCF01E00093CE0486
:1015760001E00093CF0489919991089500E00BC092
:1015860010E0F801ED51FC4F248110E0F801EA5219
:10159600FB4F20830395043198F30091E204002366
:1015A60021F40091E304002321F001E000934605B5
:1015B60003C000E0009346050091E404002321F4F3
:1015C6000091E504002321F001E00093470503C0E4
:1015D60000E0009347050091D604002321F4009112
:1015E600D704002321F001E00093480503C000E082
:1015F600009348050091D804002321F40091D904F2
:10160600002321F001E00093490503C000E00093A8
:1016160049050091DA04002321F40091DB0400233C
:1016260021F001E000934A0503C000E000934A055B
:101636000091DC04002321F40091DD04002321F055
:1016460001E000934B0503C000E000934B050091B9
:10165600DE04002321F40091DF04002321F001E0E1
:1016660000934C0503C000E000934C050091E00494
:10167600002321F40091E104002321F001E000930E
:101686004D0503C000E000934D050091E6040023DC
:1016960021F40091E704002321F001E000934E05B8
:1016A60003C000E000934E050091E804002321F4F6
:1016B6000091E904002321F001E000934F0503C0E7
:1016C60000E000934F0501E00093CE0401E0009393
:1016D600CF0408959A938A930091E7030F70005DF3
:1016E600009322010091E70302950F70005D0093BD
:1016F60021010091E8030F70005D00931F01009126
:10170600E80302950F70005D00931E010091E90346
:101716000F70005D00931C010091E90302950F70A4
:10172600005D00931B010091EA030F70005D0093BA
:1017360025010091EA0302950F70005D00932401D4
:101746000091EB030F70005D009328010091EB03FD
:1017560002950F70005D009327010091EC030F7056
:10176600005D00932B010091EC0302950F70005D64
:1017760000932A0100E004C010E010939202039542
:101786000830C8F510E0F801E55EFE4F10811A3307
:1017960038F410E0F801E55EFE4F1081103368F46E
:1017A60010E0F801E55EFE4F10811E3231F0E1E9EE
:1017B600F2E010811395108303C010E0109391029C
:1017C60010E0F801EC5DFE4F10811A3338F410E09A
:1017D600F801EC5DFE4F1081103370F610E0F80151
:1017E600EC5DFE4F10811A3339F2E2E9F2E0108126
:1017F60013951083C4CF8091220190E0409121017E
:1018060050E00AE010E00E94293F800F911F8051AE
:101816009240843600E090072CF0E1E9F2E0008186
:101826000395008380911F0190E040911E0150E0D6
:101836000AE010E00E94293F800F911F80519240DC
:101846008D3090402CF0E1E9F2E0008103950083B1
:1018560080911C0190E040911B0150E00AE010E0ED
:101866000E94293F800F911F805192408032904004
:101876002CF0E1E9F2E000810395008380912501D7
:1018860090E04091240150E00AE010E00E94293FD8
:10189600800F911F80519240893190402CF0E2E9EF
:1018A600F2E00081039500838091280190E0409149
:1018B600270150E00AE010E00E94293F800F911FA7
:1018C600805192408D3300E090072CF0E2E9F2E07F
:1018D60000810395008380912B0190E040912A01BD
:1018E60050E00AE010E00E94293F800F911F8051CE
:1018F60092408D3300E090072CF0E2E9F2E000819F
:101906000395008300919102002301F100E3009307
:10191600220100E30093210100E300931F0100E38D
:1019260000931E0100E300931C0100E300931B01DA
:1019360000E00093910200E00330B8F420E010E0EC
:10194600F801E050FF4F20830395F6CF00E00BC06F
:1019560010E0F801ED51FC4F248110E0F801E05051
:10196600FF4F20830395033098F3009192020023E2
:1019760001F100E30093250100E30093240100E355
:101986000093280100E30093270100E300932B0155
:1019960000E300932A0100E00093920200E0033086
:1019A600B8F420E010E0F801E050FF4F23830395E0
:1019B600F6CF00E00BC010E0F801ED51FC4F278197
:1019C60010E0F801E050FF4F23830395033098F3AE
:1019D60001E00093CF0401E000930D0189919991F4
:1019E60008950E94B53FD801822F942F452E3A952F
:1019F600082F07C020E210E0FD01E00FF11F208351
:101A060003950930B8F300E8401658F00FEF40266A
:101A160043942DE2082F10E0FD01E00FF11F208313
:101A26008395042D10E0432F0E94313F402E03E69C
:101A36004016C8F44AE0042D0E941B3F005D282F83
:101A460030E0FD01E20FF31F008383954AE0042D89
:101A56000E941B3F405D082F10E0FD01E00FF11FC3
:101A66004083839510C02FE3082F10E0FD01E00F9F
:101A7600F11F208383952FE3082F10E0FD01E00F6F
:101A8600F11F20838395873008F48395923061F4A3
:101A960004EE90E0FD01E80FF91F0083839501EC49
:101AA60090E0A80FB91F0C93E5E00C94BF3F0E948D
:101AB600B43FD801422E542ECB016E817F813A95D8
:101AC600042D07C020E210E0FD01E00FF11F208386
:101AD60003950930B8F3432F8C010E94313FC801AA
:101AE6008617970708F067C0883E03E0900710F155
:101AF60048EE53E08C010E94373F202F042D10E062
:101B0600FD01E00FF11F2083042D10E0FD01E00F21
:101B1600F11F408150E008EE13E00E94293F801B30
:101B2600910B042D10E0FD01E00FF11F0081005D17
:101B360000834394843600E0900710F144E650E0B9
:101B46008C010E94373F202F042D10E0FD01E00F8D
:101B5600F11F2083042D10E0FD01E00FF11F4081ED
:101B660050E004E610E00E94293F801B910B042DF3
:101B760010E0FD01E00FF11F0081005D008343943A
:101B86004AE050E08C010E94373F005D242D30E092
:101B9600FD01E20FF31F008343944AE050E08C01FD
:101BA6000E94373F405D042D10E0FD01E00FF11F5C
:101BB6004083439410C02FE3042D10E0FD01E00F95
:101BC600F11F208343942FE3042D10E0FD01E00F65
:101BD600F11F2083439407E0401608F44394052D33
:101BE600015019F0025071F019C00CEE5524FD0198
:101BF600E40DF51D008300EC5524A40DB51DFD0173
:101C060001830CC00EEC5524FD01E40DF51D008387
:101C16000CEE5524A40DB51DFD010183E8E00C94DE
:101C2600BE3FBD01F801032F02950F703F700A30C9
:101C360040F0095C422F50E0DF01A40FB51F0C9362
:101C460007C0005D422F50E0DF01A40FB51F0C93C3
:101C56003A3038F0395C022F10E0E00FF11F318383
:101C660006C0305D022F10E0E00FF11F3183DB016B
:101C760008950091E703002309F0C4C07091E803BA
:101C860060E00091E90310E0600F711F683E03E019
:101C9600700710F067EE73E008EE13E01A930A93EC
:101CA60043E031E022E00DE211E001DF3091E8038C
:101CB60023E0E5ECF1E000811181B3DF3091E90327
:101CC60025E0E5ECF1E000811181ABDF7091EA03DC
:101CD60060E00091EB0310E0600F711F08EE13E067
:101CE6001A930A9341E031E023E007E311E0DFDED7
:101CF6003091EA0323E0E5ECF1E00281138191DF04
:101D06003091EB0325E0E5ECF1E00281138189DFF8
:101D16000091EC030436E8F40091ED030336C8F4B1
:101D26000091EC034AE00E941B3F005D00934301D3
:101D36000091EC034AE00E941B3F405D4093440142
:101D46000091ED034AE00E941B3F005D00934601AF
:101D560009C00FE3009343010FE3009344010FE32F
:101D6600009346013091EC0323E0E5ECF1E00481B9
:101D7600158157DF3091ED0325E0E5ECF1E00481B4
:101D860015814FDF5091EE0342E031E024E005E596
:101D960011E027DE5091EF0342E031E024E00FE549
:101DA60011E01FDE3091EE0323E0E5ECF1E0068161
:101DB600178137DF5091F00342E031E024E009E675
:101DC60011E00FDE5091F10342E031E024E003E739
:101DD60011E007DE3091F00323E0E5ECF1E0008549
:101DE60011851FDF5091F20342E031E023E00BE45E
:101DF60011E0F7DD3091F20323E0E5ECF1E0028536
:101E060013850FDF01E000930E0101E00093CF047C
:101E16000895065389F00A95E1F0025009F458C076
:101E26000A9509F463C00A9509F10A9509F49EC05A
:101E36000A9509F4EDC0F8C00091E703023028F4D2
:101E46000091E7030093E201EFC002E00093E20194
:101E5600EBC00091E703023028F40091E7030093FA
:101E6600E301E2C002E00093E301DEC00091E70374
:101E7600053608F50091E7030A30E8F00091E7031C
:101E8600043639F401E30093FD0100E30093FE01FB
:101E96000BC000E30093FD010091E7034AE00E94B6
:101EA6001B3F005D0093FE0100E30093FF0100E38A
:101EB60000930002B9C00FE30093FD010FE3009306
:101EC600FE010FE30093FF010FE300930002ACC095
:101ED6000091E703063030F40091E703005D0093BC
:101EE600E401A2C00FE30093E4019EC00091E70362
:101EF6000130D9F40091E8030B3088F40091E8032F
:101F06004AE00E941B3F005D009305020091E80332
:101F16004AE00E941B3F405D4093060206C00FE365
:101F2600009305020FE3009306020091E7030230D7
:101F360009F07AC00091E8030B3088F40091E803B9
:101F46004AE00E941B3F005D00930B020091E803EC
:101F56004AE00E941B3F405D40930C0265C00FE3C0
:101F660000930B020FE300930C025EC00091E7039F
:101F7600073138F00FE30093EB010FE30093EC0118
:101F860010C00091E7034AE00E941B3F005D0093EA
:101F9600EB010091E7034AE00E941B3F405D40933E
:101FA600EC010091E803073138F00FE30093F101EB
:101FB6000FE30093F20110C00091E8034AE00E948B
:101FC6001B3F005D0093F1010091E8034AE00E9487
:101FD6001B3F405D4093F2010091E903073138F061
:101FE6000FE30093F7010FE30093F8011DC0009182
:101FF600E9034AE00E941B3F005D0093F701009150
:10200600E9034AE00E941B3F405D4093F8010CC083
:102016000091E703023028F40091E7030093EA01F8
:1020260003C002E00093EA0101E00093CF0401E05F
:102036000093CE04089500E00093DE0100E00093D3
:10204600DF0100E00093E00100E00093E101E3EE30
:10205600F3E0048100FF04C001E00093DE011EC02E
:10206600E3EEF3E0048101FF04C002E00093DE0129
:1020760015C00091E803013088F002E00093DE010C
:10208600EEEDF1E00081039500830091E8030695EB
:102096000093E8030091E803002391F7E3EEF3E0F1
:1020A600048102FF04C001E00093DF0108C0E3EEF3
:1020B600F3E0048103FF03C002E00093DF01E3EED7
:1020C600F3E0078100FF04C001E00093E0011EC0B9
:1020D600E3EEF3E0078101FF04C002E00093E001B4
:1020E60015C00091EB03013088F002E00093E00197
:1020F600E0EEF1E00081039500830091EB03069585
:102106000093EB030091EB03002391F7E3EEF3E07A
:10211600078102FF04C001E00093E10108C0E3EE7D
:10212600F3E0078103FF03C002E00093E10101E051
:102136000093CF0401E00093CE04089501E01091CE
:10214600E703113021F401E000933C0501C000E0F3
:102156000091E803023021F408E000933F0501C036
:1021660000E00091E903023021F408E00093400505
:1021760001C000E00091EA03023021F408E0009378
:102186003E0501C000E00091EB03033039F403E0A3
:102196000093430508E000933D0501C000E000916F
:1021A600EC03013021F401E00093420501C000E098
:1021B6003091ED0320E00091EE0310E0200F311F77
:1021C600E7E0F1E0228333833091EF0320E00091D2
:1021D600F00310E0200F311FE7E0F1E024833583A0
:1021E60001E00093440504E00093220500E000931B
:1021F600240503E00093250502E00093260501E08F
:1022060000932705089540E001E00093CF0401E024
:102216000093CE040FE010E02091E50322952F7085
:1022260030E0021B130B2091230530E0F901EE5D2F
:10223600FA4F228130E00217130709F441E00091BA
:10224600E5030F700130D9F44423C9F00091E80387
:10225600002359F000E011E0E2E2F5E00783108781
:102266000091E70300932B050AC00091E70310E0F5
:10227600E2E2F5E00783108700E000932B0500916A
:10228600E5030F700230E1F4442379F000E00031F9
:10229600B8F410E0F801ED51FC4F248110E0F8018C
:1022A600EE5DFA4F22870395F2CF00E007C020E0EB
:1022B60010E0F801EE5DFA4F228703950031B8F37E
:1022C60008959A938A93802F282F2A9503EE13E078
:1022D6000E94C50710E0EFE8F2E000831183EFE803
:1022E600F2E02081318190E0FC01EE51FC4F00814B
:1022F60010E02017310719F0549A579A82C00091BE
:102306007304023001F502E00093930213C00091BA
:10231600930210E0F801ED51FC4F208100919302E9
:1023260010E0F801E652FD4F2083E3E9F2E0008178
:102336000395008300919302081748F303E0009386
:1023460073048093740400917304002309F059C048
:102356000091E503007F005039F0005151F0005123
:1023660069F0005181F038C00091E5030E9416081B
:1023760046C00091E5030E94030941C00091E503B0
:102386000E9472093CC00091E5030053A9F00A952A
:10239600A9F00A95A9F00250A9F00250A9F00A95F1
:1023A60099F0025089F0035079F00A9569F00A9580
:1023B60079F00A9579F023C071D821C0DFD81FC003
:1023C60089D91DC056DC1BC00091E50322DD17C06C
:1023D60032DE15C0B3DE13C00091E503015C71F077
:1023E6000A9561F00F5051F00A9541F00F5031F007
:1023F6000A9521F00F5011F00A9509F404DF549A5A
:10240600579A0E94B61500E0009375048991999138
:10241600089530E042E007C050E0F801E40FF51FF0
:102426005081350F43954217B8F3032F08959A93B9
:102436008A93812FE9E9F2E01081106110830093FD
:10244600DC028093DD02282F2C5F0AED12E0E1DF2B
:1024560010E0E4E9F2E000831183E4E9F2E00081B0
:1024660090E0FC01E652FD4F04838B5F082F0E942B
:102476007A16899199910895E9E9F2E0108110613F
:1024860010830093DC0202E00093DD0226E00AEDF1
:1024960012E0BFDF10E0E4E9F2E000831183E4E933
:1024A600F2E000810093E00207E00E947A160895A8
:1024B6009A938A93802F0E94871600FB4EF400E0C1
:1024C6000093DE0200E00093DF0201EED5DF44C197
:1024D60000919A02053509F035C100919B020A3A2E
:1024E60009F030C100919D0210E0E82FF0E0359729
:1024F6000E171F0751F000919D020093DE028550D2
:102506008093DF0203EEB8DF27C1282F2A950AE958
:1025160012E07FDF10E0E4E9F2E000831183E4E9F2
:10252600F2E02081318190E0FC01E756FD4F008109
:1025360010E02017310779F090E0FC01E756FD4FD7
:1025460000810093DE02E4E9F2E000810093DF02FD
:1025560002EE92DF01C100919C02023729F0009140
:102566009C02033709F0C2C000919C02023799F51C
:102576004091140550E008EE13E00E94293FC8017F
:102586004091150550E004E610E00E94293F800FB7
:10259600911F4091160550E00AE010E00E94293F85
:1025A600800F911F0091170510E0800F911F805535
:1025B600904DE7E9F2E080839183E7E9F2E011814B
:1025C600012F0093DE02E7E9F2E000810093DF02CB
:1025D60012E002E72CDF00919C02033709F078C075
:1025E60030919E0220E000919F0210E0200F311FE3
:1025F600E7E9F2E02083318348EE53E0E7E9F2E0D1
:10260600008111810E94373F005D0093140580917F
:10261600140590E0C09708EE13E0AC010E94293F34
:10262600E7E9F2E020813181201B310B20833183E1
:1026360044E650E0E7E9F2E0008111810E94373F6D
:10264600005D009315058091150590E0C09704E69E
:1026560010E0AC010E94293FE7E9F2E020813181D8
:10266600201B310B208331834AE050E0E7E9F2E09A
:10267600008111810E94373F005D0093160580910D
:10268600160590E0C0970AE010E0AC010E94293FD1
:10269600E7E9F2E020813181201B310B2083318371
:1026A600E7E9F2E00081005D0093170510E003E71B
:1026B600BEDE01E00093690400E010E0EFE6F4E01E
:1026C6000083118304E115E0EBE6F4E00083118357
:1026D6000FE00093060100919A00006100939A00B2
:1026E60000919A00006800939A0036C000E00093BB
:1026F60096021BC00091960210E0F801E656FD4FC7
:1027060020810091960210E0F801ED5DFB4F2083D9
:1027160000E02091960230E0F901E656FD4F008375
:10272600E6E9F2E00081039500830091960208171E
:1027360008F38093740401E0009373040FE00093A0
:1027460006010AC000919A00006100939A00009168
:102756009A00006800939A000E94941689919991B4
:1027660008950FEC09B91098119A1898199A0EE065
:102776000093950008E10AB9549A579A06B70D7F57
:1027860006BF07B7016007BF05E002BF04E003BF4D
:1027960005E5009323040AEA009324040895FA93B6
:1027A600EA935A934A933A932A931A930A934FB702
:1027B6005BB70CB15C9958C010916504105039F0A4
:1027C6001A9561F01A95A1F01A95C1F028C0053541
:1027D60009F04AC001E00093650446C00A3A21F4B4
:1027E60002E00093650440C000E0009365043CC02D
:1027F6000093E50303E00093650436C00093E60307
:102806000C3320F010E01093650403C014E010931D
:10281600650410916504100F1093660425C020917D
:10282600650430E0F901ED51FC4F00830091650429
:1028360010916604011798F001E00093750400E01A
:102846000093650454985798009166040395009385
:102856007604E2EEF3E000810860008305C0E5E659
:10286600F4E00081039500835BBF4FBF0991199186
:102876002991399149915991E991F9911895FA93CC
:10288600EA933A932A931A930A932FB73BB7009188
:10289600630410916404011784F400916304102FFB
:1028A600110F110BF801ED5DFB4F00810CB9E3E64A
:1028B600F4E00081039500830FC05398559800E01B
:1028C6000093640400E000936304549A579AE2EE7E
:1028D600F3E000810F7E00833BBF2FBF0991199162
:1028E60029913991E991F9911895BA93AA939A93F6
:1028F6008A93FA93EA933A922A921A920A927A93CE
:102906006A935A934A933A932A931A930A938FB7E0
:102916009BB72197A89505E002BF0091CA04003F26
:1029260009F045C000917304002309F040C00E94DD
:10293600C41A0093DF030091DF031091DE03011731
:1029460021F00091DF03003FD1F4E0EEF3E00081D7
:1029560011810F5F1F4F00831183E0EEF3E00081CA
:102966001181013921E0120784F000E911E0E0EE5F
:10297600F3E00083118300EF0093DE0306C000E05E
:1029860010E0E0EEF3E0008311830091DF03109185
:10299600DE03011761F00091DF03003F41F0009173
:1029A600DF030093CA040091DF030093DE03009166
:1029B600DC03053078F10091DD03013029F0E9E907
:1029C600F2E0008100FF22C000919A000F7E009382
:1029D6009A0000919A000F7700939A00E9E9F2E0D5
:1029E6000081086000830091D9030E945B1200E019
:1029F6000093DD0300E00093D90300919C00088357
:102A0600E9E9F2E000810F7E008309C00EE1009340
:102A1600DC0305C0ECEDF3E0008103950083E1994A
:102A260037C000916904013099F5EFE6F4E00081C2
:102A360011811FBB0EBB0091670410E0EBE6F4E0CA
:102A4600A081B181A00FB11F0C910DBBE29AE19A52
:102A5600E7E6F4E0008103950083EFE6F4E0008109
:102A660011810F5F1F4F008311830091670410E0EF
:102A7600ABE6B4E0ED91FC91E00FF11F31970081D8
:102A8600002331F400E00093690400E0009367043A
:102A9600E1994EC000916A04013009F049C0E1E7AE
:102AA600F4E0008111811FBB0EBBE09A2DB30091AB
:102AB600680410E0EDE6F4E0A081B181A00FB11F3B
:102AC6002C930091680410E0ADE6B4E0ED91FC9122
:102AD600E00FF11F00810F3F59F400E020916804D8
:102AE60030E0ADE6B4E0ED91FC91E20FF31F008318
:102AF600E1E7F4E0008111810F5F1F4F008311832E
:102B0600E8E6F4E00081039500830091680410E094
:102B1600ADE6B4E0ED91FC91E00FF11F3197008135
:102B2600002331F400E000936A0400E00093680497
:102B360021969BBF8FBF099119912991399149918E
:102B46005991699179910990199029903990E99153
:102B5600F99189919991A991B99118950093640475
:102B6600539A559A089500E00093E203089503E30B
:102B7600009399008A988B9A9298939A0EE0009304
:102B86009D0008E100939A0000919A00006100936D
:102B96009A0000919A00006800939A0005E5009358
:102BA600DA020AEA0093DB020895FA93EA934A935B
:102BB6003A932A931A930A933FB74BB721970091FA
:102BC6009B00102F14FF05C0E9E9F2E000810160C7
:102BD60000830091DD03002391F40091DC030E31A4
:102BE60070F001E00093DD0300E00093D90300E0FC
:102BF6000093DC03E9E9F2E00081006100830091C3
:102C0600DD03013011F50091DC030E31F0F4009183
:102C1600D903003448F0E9E9F2E00081016000835D
:102C260000919C0008830EC020919C000091D9035E
:102C360010E0F801E656FD4F2083E9EDF3E0008150
:102C46000395008300E00093DC0321964BBF3FBF52
:102C560009911991299139914991E991F99118951B
:102C6600FA93EA933A932A931A930A932FB73BB7A8
:102C76000091DA031091DB0301178CF40091DA035B
:102C8600102F110F110BF801E652FD4F0081009332
:102C96009C00EAEDF3E00081039500831FC00091DC
:102CA6009A00077F00939A0000919A000F7D009387
:102CB6009A0000E00093DB0300E00093DA03009142
:102CC6009A00006100939A0000919A0000680093B0
:102CD6009A00E9E9F2E000810F7E00833BBF2FBF37
:102CE6000991199129913991E991F99118950093D2
:102CF600DB0300919A00086000939A0000919A0005
:102D0600006200939A0008950091990210919A002A
:102D1600212F27FD026010919A00212F25FD0460C6
:102D2600089500E00093990208950FEF0ABB00E0B2
:102D36000BBB00E707BB00E208BB00E004BB00E0FA
:102D460005BB00E001BB00E002BB07B7006807BF98
:102D560000E004BD0AE003BD08E005BD05B5056059
:102D660005BD07B7046007BF00E00FBD00E00EBD5C
:102D760009EF0DBD05EE0CBD0895A89501B50061DE
:102D860001BD01B5087F01BD01B5006101BD01B5F9
:102D9600086001BD0895FA93EA933A932A931A9329
:102DA6000A932FB73BB70091C804015009F445C0F8
:102DB6000A9521F00A9509F452C07FC001E003BDCF
:102DC600C69AC59A0091C70410E0F801E958FB4F6E
:102DD60000810BBBC5980091C7040F3420F4009105
:102DE600C704039501C000E00093C7040091C7041F
:102DF600005039F0045161F0045189F00451B1F0EA
:102E06005CC000E80093C90401E00093C80455C003
:102E160000EC0093C90401E00093C8044EC004E925
:102E26000093C90401E00093C80447C004ED009371
:102E3600C90401E00093C80440C00091C9040130F0
:102E460011F400E201C001E003BDC698C59A0091E5
:102E5600C9040BBBC59802E00093C8042EC00091BC
:102E6600C70410E0000F111FF801E457FF4F04914B
:102E76000023E9F0C698C59A0091C70410E0000F38
:102E8600111FF801E457FF4F04910BBBC598009141
:102E9600C70410E0000F111FF801E357FF4F04911C
:102EA60003BDE7ECF4E000810395008306C002E071
:102EB6000093C80400E00093C7043BBF2FBF0991ED
:102EC600199129913991E991F9911895202F00E0EE
:102ED60064E1269F010E1BEE010E0CC010E0FA0104
:102EE600E00FF11F10811124F001E958FB4F108308
:102EF6000394039510E0FA01E00FF11F10811123EE
:102F060081F1313059F710E0FA01E00FF11F10811D
:102F1600103CD8F010E0FA01E00FF11F608170E07C
:102F2600603011E071078CF410E0FA01E00FF11F38
:102F3600608170E0FB01E452F04014911124F0012D
:102F4600E958FB4F10830394D4CF10E0FA01E00F49
:102F5600F11F10811124F001E958FB4F10830394EF
:102F6600C8CF089504E107C020E210E0F801E9584F
:102F7600FB4F208303950035B8F300E00093C704A8
:102F8600089500E00093C70403E00093C804089581
:102F960034E1039F010E0BEE000E10E008C000E2C4
:102FA6001124F001E958FB4F00830394139512177F
:102FB600B0F308959A938A93922F24E1029F802D6D
:102FC600810F855140E1092F0E941B3F282F30E0D9
:102FD600F901E958FB4F0083082F10E0F801E95882
:102FE600FB4F108100E1109F9019082F10E0F801A7
:102FF600E958FB4F918390E0FC01E958FB4F0081B3
:103006000A3040F090E0FC01E958FB4F0081095C72
:10301600008307C090E0FC01E958FB4F0081005D8A
:10302600008390E0FC01E958FB4F01810A3040F033
:1030360090E0FC01E958FB4F0181095C018307C060
:1030460090E0FC01E958FB4F0181005D0183899105
:10305600999108959A938A93922F24E1029F802D45
:10306600810F85514AE0092F0E941B3F005D282FE2
:1030760030E0F901E958FB4F0083082F10E0F80112
:10308600E958FB4F0081003309F083954AE0092F88
:103096000E941B3F1AE0019F9019905D082F10E0D7
:1030A600F801E958FB4F9083899199910895202F53
:1030B60000E064E1269F010E1BEE010E0CC010E03D
:1030C600FA01E00FF11F14911124F001E958FB4FAA
:1030D60010830394039510E0FA01E00FF11F149199
:1030E6001123D9F1313071F510E0FA01E00FF11F2B
:1030F6001491103CD8F010E0FA01E00FF11F649132
:1031060070E0603011E071078CF410E0FA01E00F16
:10311600F11F649170E0FB01E452F0401491112418
:10312600F001E958FB4F10830394D4CF10E0FA0165
:10313600E00FF11F14911124F001E958FB4F1083A1
:103146000394C8CF323009F0BACF10E21124F0014F
:10315600E958FB4F10830394BDCF089544E1049FC3
:10316600010E0BEE000E1124F001E958FB4F2083EF
:10317600089500E007C020E210E0F801E958FB4F8F
:10318600208303950035B8F308950E94B43F802F3D
:10319600D901412E855C982F28E2082F10E0F8010E
:1031A600E958FB4F208383950A2F0B2B21F0A13082
:1031B60001E0B00748F020E3082F10E0F801E958D5
:1031C600FB4F208383954FC055240FEF4016C9F45B
:1031D60022E3082F10E0F801E958FB4F208383957E
:1031E60025E3082F10E0F801E958FB4F208383956B
:1031F60026E3082F10E0F801E958FB4F208383955A
:1032060032C0439404E6401670F044E6042D0E9452
:103216001B3F502E252D205D082F10E0F801E958A0
:10322600FB4F208383950AE0401688F04AE0042D80
:103236000E941B3F1AE0519E502E501800E3500E7C
:10324600082F10E0F801E958FB4F508283954AE0B9
:10325600042D0E941B3F405D082F10E0F801E9583D
:10326600FB4F408383952FE2082F10E0F801E958C1
:10327600FB4F20838395A03001E0B007C9F422E319
:10328600082F10E0F801E958FB4F2083839525E3CA
:10329600082F10E0F801E958FB4F2083839526E3B9
:1032A600082F10E0F801E958FB4F208383953DC0B5
:1032B600A03001E0B00788F55524A43670F044E646
:1032C6000A2F0E941B3F502E252D205D082F10E04F
:1032D600F801E958FB4F20838395AA3088F04AE02D
:1032E6000A2F0E941B3F1AE0519E502E501800E3F1
:1032F600500E082F10E0F801E958FB4F50828395D5
:103306004AE00A2F0E941B3F405D082F10E0F8019B
:10331600E958FB4F4083839508C02FE3082F10E040
:10332600F801E958FB4F2083839529E2082F10E026
:10333600F801E958FB4F2083082F091B902F0AC07C
:103346008395282F822F00E230E0F901E958FB4FE0
:10335600008393959830A0F3E6E00C94BE3FBD0140
:10336600D90110E015C0202F30E0F901E958FB4FD4
:103376002081205D2083123048F40395402F042FCE
:103386002EE250E0FA01E958FB4F2083039513958E
:10339600133008F049C0112319F4FD01258507C033
:1033A600113019F4FD01268502C0FD012785322F53
:1033B60032953F70402F50E0FA01E958FB4F3083B9
:1033C600402F50E0FA01E958FB4F30813A3048F07F
:1033D600402F50E0FA01E958FB4F3081395C3083C9
:1033E60008C0402F50E0FA01E958FB4F3081305DAC
:1033F60030830395402F042F2F7050E0FA01E958CF
:10340600FB4F2083202F30E0F901E958FB4F208144
:103416002A3008F4A8CF202F30E0F901E958FB4FF5
:103426002081295C2083A7CFDB0108950E94B63F47
:10343600802F00E00BC08395482F842F1EE250E0BA
:10344600FA01E958FB4F108383950395033008F082
:1034560056C0002319F4F901138507C0013019F489
:10346600F901128502C0F9011185412F42954F706D
:1034760090E0FC01E958FB4F408390E0FC01E958DD
:10348600FB4F40814A3040F090E0FC01E958FB4F89
:103496004081495C408307C090E0FC01E958FB4F3E
:1034A6004081405D40838395482F842F1F7050E0F4
:1034B600FA01E958FB4F108390E0FC01E958FB4FF5
:1034C60010811A3040F090E0FC01E958FB4F108162
:1034D600195C108307C090E0FC01E958FB4F10818E
:1034E600105D1083023008F0A6CF8395482F842FF5
:1034F6001AE350E0FA01E958FB4F1083A5CFF90112
:10350600A781B0E0F901108500E0A00FB11FA83E29
:1035160003E0B00760F000E0033080F51FE390E0C1
:10352600FC01E958FB4F108383950395F5CF4AE0DC
:1035360050E08D010E94373F405D90E0FC01E95864
:10354600FB4F42834AE050E08D010E94373FD8018D
:103556004AE050E08D010E94373F405D90E0FC015B
:10356600E958FB4F41834AE050E08D010E94373F06
:10357600005D90E0FC01E958FB4F0083E4E00C9409
:10358600C03F01E004BB00E001C003950A30E8F348
:1035960003B312E014BB0E3FE1F400E001C0039553
:1035A6000A30E8F303B314E014BB0D3F91F400E0D6
:1035B60001C003950A30E8F303B318E014BB0B3FD0
:1035C60041F400E001C003950A30E8F303B310E0CC
:1035D60014BBE6ECF0E0FBBFFEE00C946C3F03E4AA
:1035E600089503E2089500E308950DE4089504E4C0
:1035F600089509E3089508E3089507E3089505E5A6
:10360600089506E3089505E3089504E3089505E49F
:10361600089503E3089502E3089501E3089500EF92
:10362600089500E02FE53EE0402F50E0440F551F7F
:10363600FA01EF5AFA4F2383348321E010E0F801B0
:10364600EF5AFA4F278320E010E0F801EF5AFA4FBD
:10365600208303951091D2011730C1F427E83EE08C
:10366600402F50E0440F551FFA01EF5AFA4F2383BB
:10367600348329E010E0F801EF5AFA4F278322E05D
:1036860010E0F801EF5AFA4F208317C023E73EE017
:10369600402F50E0440F551FFA01EF5AFA4F23838B
:1036A600348328E010E0F801EF5AFA4F278321E02F
:1036B60010E0F801EF5AFA4F208303950093530563
:1036C6000895BA93AA9331E04AE757E022E011E061
:1036D60004E00E945A182FE016E004E00E94CB177F
:1036E60031E00091190510E0000F111FADE1B5E0C2
:1036F600ED91FC91E00FF11F4591549122E017E006
:1037060004E00E945A180091CA04035409F10A956C
:1037160091F00A9591F1005109F0A4C000911C05A1
:1037260010911905011708F09DC0E9E1F5E0008147
:103736000A95008397C00091190510911B05011782
:1037460008F090C0E9E1F5E00081039500838AC0A6
:1037560000E0009305050E94B51701E00093CE0432
:1037660000E00093190500E000931B0500E00093BC
:103776001C0500E000931F0575C0009110010D3077
:1037860059F400911A05023009F05CC0E9E1F5E050
:1037960000810395008356C000911001033191F416
:1037A60000911A05033009F04DC000911905002358
:1037B60011F001E001C000E000938E0200E00093EA
:1037C6001F0540C000911001063149F400911A0509
:1037D60000931F05009120050093190533C0009141
:1037E60010010B3079F500911A05023049F4009169
:1037F6001905013028F0E9E1F5E000810395008321
:1038060000911A05013021F400911905023040F4A7
:1038160000911A050230B1F400911905013090F0BB
:103826000091D301043040F00091D501043020F01E
:103836000091D101043030F401E310E0EBEEF4E046
:103846000083118300911A0500931F050091190545
:10385600009320050E94B51701E00093CE0400E016
:103866000093050500EF0093CA04A991B991089544
:103876000E94B73F80910105A82FA95F9091CA04C5
:103886002FE016E004E00E94CB1731E04AE757E04C
:1038960022E011E004E00E945A1831E042E151E0D2
:1038A60022E017E004E00E94691700910105083044
:1038B60098F400911305013061F430E041EB5EE0CD
:1038C60022E01A2F04E00E945A1800E00093130524
:1038D60003C001E000931305903F09F480C29534BC
:1038E60009F0F0C000911105013009F08AC010916D
:1038F60018010AE0109F002D10911901010F0051C7
:10390600209115011AE0219F102D20911601120F0A
:103916001051309112012AE0329F802D209113011F
:10392600820F8051209118012295207F3091190134
:10393600230F2053209300011C3058F420911501C9
:103946002295207F30911601230F205320930101E9
:1039560004C011E021E020930101125049F01250F9
:1039660071F1125061F1135051F1125041F138C00A
:1039760044E00E941B3F442389F08D3158F40091A6
:1039860012010295007F10911301010F005300935D
:10399600020188C001E00093020184C08E3158F410
:1039A600009112010295007F10911301010F00533F
:1039B6000093020177C001E00093020173C08F31CA
:1039C60058F4009112010295007F10911301010F26
:1039D60000530093020166C001E00093020162C039
:1039E600803258F4009112010295007F1091130164
:1039F600010F00530093020155C001E0009302013C
:103A060051C000911105023009F04CC0109112010D
:103A16000AE0109F102D00911301100F10512091F4
:103A260015010AE0209F002D20911601020F00517A
:103A3600309118012AE0329F20911901020E20EFE1
:103A4600020E183158F4109112011295107F209130
:103A56001301120F10531093030103C010E01093CB
:103A660003010C3358F4009115010295007F109163
:103A76001601010F00530093040103C000E00093F8
:103A860004010CE3001658F4009118010295007F1A
:103A960010911901010F00530093050103C000E0C6
:103AA6000093050101E00093D20400E000930505B0
:103AB60080E024E111E004E00E94CB1701E00093CE
:103AC600CE0488C1933479F400E00093050500E044
:103AD6000093010524E111E004E00E94CB1701E008
:103AE6000093CE0477C1953551F4873008F4839559
:103AF600823019F0853009F06DC183956BC194341D
:103B060051F4813008F08A95823019F0853009F039
:103B160061C18A955FC1903308F45CC19A3308F09D
:103B260059C100911105013009F0EBC0082F005072
:103B360081F00A9509F448C0025009F473C00A9549
:103B460009F4A1C0025009F4CCC00A9509F4D1C009
:103B56003CC19033B1F4082F10E0F801EE5EFE4F41
:103B66009083839590E0FC01EE5EFE4F008100336A
:103B760009F02BC101E390E0FC01EE5EFE4F0083ED
:103B860024C1933340F4082F10E0F801EE5EFE4F97
:103B9600908383951AC1933309F017C1082F10E05B
:103BA600F801EE5EFE4F9083839590E0FC01EE5E99
:103BB600FE4F0081023308F408C100E390E0FC01E7
:103BC600EE5EFE4F008301C1903389F4082F10E0AA
:103BD600F801EF5EFE4F0081013308F4F6C0082FAE
:103BE60010E0F801EE5EFE4F90838395EEC09133B0
:103BF60041F4082F10E0F801EE5EFE4F90838395A6
:103C0600E4C0082F10E0F801EF5EFE4F0081033399
:103C160008F0DBC0082F10E0F801EE5EFE4F90833F
:103C26008395D3C09033B1F4082F10E0F801EE5E0F
:103C3600FE4F9083839590E0FC01EE5EFE4F00817F
:103C4600003309F0C2C001E390E0FC01EE5EFE4FD6
:103C56000083BBC0913309F0B8C0082F10E0F8010B
:103C6600EE5EFE4F9083839590E0FC01EE5EFE4F84
:103C76000081033308F4A9C000E390E0FC01EE5E86
:103C8600FE4F0083A2C0903389F4082F10E0F8019C
:103C9600EF5EFE4F0081013308F497C0082F10E055
:103CA600F801EE5EFE4F908383958FC0082F10E0DB
:103CB600F801EF5EFE4F0081013359F4933308F0AB
:103CC60084C0082F10E0F801EE5EFE4F90838395C6
:103CD6007CC0082F10E0F801EE5EFE4F90838395BE
:103CE60074C0082F10E0F801EE5EFE4F90838395B6
:103CF6006CC0082F10E0F801EE5EFE4F90838395AE
:103D060064C000911105023009F05FC0082F005011
:103D160079F00A9579F1025009F446C00A9509F43A
:103D26004DC0025009F440C00A9509F447C04DC081
:103D3600923340F4082F10E0F801EE5EFE4F9083B8
:103D4600839543C0923309F040C0082F10E0F80174
:103D5600EE5EFE4F9083839590E0FC01EE5EFE4F93
:103D66000081043390F100E390E0FC01EE5EFE4F2B
:103D760000832BC0943340F4082F10E0F801EE5E68
:103D8600FE4F9083839521C0082F10E0F801EF5E67
:103D9600FE4F00810233C8F4082F10E0F801EE5EF2
:103DA600FE4F9083839511C0963378F4082F10E068
:103DB600F801EE5EFE4F9083839507C0082F10E052
:103DC600F801EE5EFE4F90838395823011F08530C8
:103DD60009F483958093010500EF0093CA04E3E09C
:103DE6000C94C13F9A938A932FE016E004E00E9458
:103DF600CB17009110010530C9F400918C020230F6
:103E060041F431E040E857E022E011E004E00E948E
:103E16005A1800918C02013011F531E048E857E05C
:103E260022E011E004E00E945A1819C00091100126
:103E36000B3069F400918C02023049F431E040E81D
:103E460057E022E011E004E00E945A1808C031E071
:103E56004AE757E022E011E004E00E945A18009178
:103E66000105109102050117E8F500911105053AC3
:103E760061F000911105043941F000911105043AF1
:103E860021F000911105063AB9F40091CA040033F5
:103E960021F00091CA04013329F52091CA0400914A
:103EA600010510E0F801E850FB4F2083E1E0F5E062
:103EB60000810395008316C00091CA04003390F078
:103EC6000091CA040A3370F42091CA0400910105D6
:103ED60010E0F801E850FB4F2083E1E0F5E00081B7
:103EE600039500830091CA040332B9F400911001CE
:103EF6000D3098F000911001013178F4E3EFF4E011
:103F06000081039500830091F304023018F000E06D
:103F16000093F30401E00093CE0400910105109193
:103F26000205011708F04AC000911305013009F097
:103F360042C0009110010530E9F400918C02023074
:103F460051F430E041EB5EE022E010910105175F8D
:103F560004E00E945A1800918C02013041F530E0CD
:103F660041EB5EE022E010910105115F04E00E9442
:103F76005A181DC0009110010B3079F400918C0283
:103F8600023059F430E041EB5EE022E01091010589
:103F9600175F04E00E945A180AC030E041EB5EE069
:103FA60022E010910105195F04E00E945A1800E012
:103FB6000093130503C001E0009313050091CA04A2
:103FC600043489F400910105013068F0E1E0F5E080
:103FD60000810A95008300E02091010530E0F90197
:103FE600E850FB4F0083009110010530C9F40091A1
:103FF6008C02023041F431E048EF54E022E019E04F
:1040060004E00E94691700918C02013011F531E03D
:1040160048EF54E022E01FE004E00E94691719C04F
:10402600009110010B3069F400918C02023049F4C2
:1040360031E048EF54E022E019E004E00E946917FD
:1040460008C031E048EF54E022E017E004E00E94A7
:1040560069170091CA04033409F068C000918C0204
:10406600013019F402E000938C0200913C05002314
:1040760039F00091D101023019F400E00093EE040A
:1040860000913D05013058F00091D301013021F037
:104096000091D301023019F400E00093EE04009180
:1040A6003E05013038F00091D501023019F400E0E8
:1040B6000093EE040091EE04013019F401E0009340
:1040C600D50400E0009305050E94B51701E00093B2
:1040D600CE0400E0009301050DC000E0209101052B
:1040E60030E0F901E850FB4F0083E1E0F5E00081A4
:1040F6000395008300910105083078F300E00093F2
:10410600F30400E00093010500E00093020500E0DF
:104116000093060500E010E0E8E0F5E00083118377
:1041260000E010E0EAE0F5E000831183009111055C
:10413600053A69F000911105043949F0009111051D
:10414600043A29F000911105063A09F06BC0009176
:10415600010510910205011709F064C00091CA0417
:10416600053409F05FC000E0009305050E94B5170D
:1041760001E00093CE0400E010E0EEE0F5E00083FD
:10418600118300E00093200520E05091020512C043
:104196005A9530E0F901E850FB4F808190E0C097D6
:1041A6008C01452F0E94313FE0E2F5E01081100FAF
:1041B6001083239500910205201750F301E0009328
:1041C60012050091110500931F0500E000930105FB
:1041D6000DC000E02091010530E0F901E850FB4FE9
:1041E6000083E1E0F5E0008103950083009101057D
:1041F600083078F300E00093010500E00093020523
:1042060000E00093060500E00093110500E010E0D1
:10421600E8E0F5E00083118300E010E0EAE0F5E075
:10422600008311830091CA04053409F002C200918B
:104236001001023009F4FDC100911001053009F4A6
:10424600F8C1009110010B3009F4F3C1009111057A
:10425600053A09F4EEC100911105053109F4E9C1E9
:1042660000911105043909F4E4C100911105043ADD
:1042760009F4DFC100911105063A09F4DAC100E03C
:10428600009305050E94B51701E00093CE04009146
:104296000105015051F00A9509F443C00A9509F445
:1042A6008AC00A9509F4D2C022C10091F80410E030
:1042B600005310404091070550E00E944F3FECE04C
:1042C600F5E0008311830091070510E0ECE0F5E0CE
:1042D600408151810E94293FEEE0F5E00083118381
:1042E6000091F804005300931005EEE0F5E000811C
:1042F6001181EAE0F5E0208131810217130708F405
:10430600F6C0E8E0F5E000811181EEE0F5E02081FD
:1043160031810217130708F4EAC001E00093120581
:10432600E6C04091F80450E00AE010E00E94293F00
:104336002091F90430E0020F131F00511240409102
:10434600070550E00E944F3FECE0F5E00083118343
:104356000091070510E0ECE0F5E0408151810E94F4
:10436600293FEEE0F5E0008311830091F804029501
:10437600007F1091F904010F005300931005EEE041
:10438600F5E000811181EAE0F5E020813181021734
:10439600130708F4ACC0E8E0F5E000811181EEE017
:1043A600F5E0208131810217130708F4A0C001E06F
:1043B600009312059CC04091F80450E004E610E01A
:1043C6000E94293FC8014091F90450E00AE010E03C
:1043D6000E94293F800F911F0091FA0410E0800F80
:1043E600911F805D94418C014091070550E00E9429
:1043F6004F3FECE0F5E0008311830091070510E0E4
:10440600ECE0F5E0408151810E94293FEEE0F5E0C5
:1044160000831183EEE0F5E000811181EAE0F5E02A
:10442600208131810217130708F461C0E8E0F5E046
:1044360000811181EEE0F5E020813181021713073A
:1044460008F455C001E00093120551C04091F804EC
:1044560050E008EE13E00E94293FC8014091F9049C
:1044660050E004E610E00E94293F800F911F409122
:10447600FA0450E00AE010E00E94293F800F911FE5
:104486000091FB0410E0800F911F8055904D8C0128
:104496004091070550E00E944F3FECE0F5E00083B5
:1044A60011830091070510E0ECE0F5E040815181B1
:1044B6000E94293FEEE0F5E000831183EEE0F5E08F
:1044C60000811181EAE0F5E02081318102171307AE
:1044D60070F0E8E0F5E000811181EEE0F5E0208182
:1044E60031810217130718F001E0009312050091BD
:1044F6001205013009F070C000911105015909F447
:104506004DC00A9509F454C00A9509F451C00E50DD
:1045160009F444C00A9509F441C00450F9F10F5555
:1045260060F0035058F0005040F0035088F00F50F0
:10453600D1F00A9509F10A9541F148C0009111059B
:1045460000931F05EEE0F5E00081009320053EC0D4
:1045560000911105055000931F05EEE0F5E000817E
:104566000093200533C004E000931F05EEE0F5E05C
:104576000081009320052AC006E000931F05EEE0A7
:10458600F5E000810093200521C009E000931F0596
:10459600EEE0F5E000810093200518C000911105BA
:1045A60000931F05EEE0F5E00081009320050EC0A4
:1045B6000091110500931F054AE050E0EEE0F5E09A
:1045C600008111810E94373F0093200500E000938F
:1045D600110500E00093120500E0009301050DC0EF
:1045E60000E02091010530E0F901E850FB4F00831F
:1045F600E1E0F5E0008103950083009101050830B4
:1046060078F300E00093F30400E00093010500E076
:104616000093020500E00093060500E010E0E8E0E4
:10462600F5E00083118300E010E0EAE0F5E00083A6
:1046360011830091CA04053409F0FDC000910105FB
:10464600043009F0F8C000918C02013029F0009185
:104656008C02023009F0EFC000911001053029F0FC
:10466600009110010B3009F0E6C000E0009305054B
:104676000E94B51701E00093CE0400918C0202302F
:1046860009F089C000E00093010500E000938C0268
:104696001AC000918C0210E0F801E850FB4F20810F
:1046A60000918C0210E0F801EC5EFA4F00812017B1
:1046B60029F0E1E0F5E0008103950083ECE8F2E003
:1046C60000810395008300918C02043010F3009161
:1046D6000105002329F100E00093010500E00093A5
:1046E6008C021AC000918C0210E0F801E850FB4FD2
:1046F600208100918C0210E0F801E054F14F049102
:10470600201729F0E1E0F5E0008103950083ECE84D
:10471600F2E000810395008300918C02043010F3CF
:1047260000910105002339F401E000938C0201E0B9
:104736000093ED0456C002E000938C0200913C0504
:10474600002339F00091D101023019F400E0009302
:10475600EE0400913D05013058F00091D30101307F
:1047660021F00091D301023019F400E00093EE0429
:1047760000913E05013038F00091D501023019F460
:1047860000E00093EE040091EE04013051F501E0E3
:104796000093D50426C000918C02013011F50091DA
:1047A600F804009314050091F9040093150500918F
:1047B600FA04009316050091FB040093170501E027
:1047C6000093690400E010E0EFE6F4E00083118353
:1047D60004E115E0EBE6F4E00083118302E00093C8
:1047E6008C0200E0009301050DC000E02091010558
:1047F60030E0F901E850FB4F0083E1E0F5E000818D
:104806000395008300910105043078F300E00093DE
:10481600010500E00093020500E00093060500E0B4
:1048260010E0E8E0F5E00083118300E010E0EAE044
:10483600F5E00083118300EF0093CA040091D504CC
:10484600013031F405E40093CA0400E00093D50476
:1048560000918C02013039F4009110010B3019F4EB
:1048660005E40093CA0400918C02013071F40091B2
:104876001001053051F40091ED04013031F403E3E9
:104886000093CA0400E00093ED048991999108957C
:104896008A93802F05E1009310010E94B51700E06E
:1048A6000093F40402E00093F604815380932305F9
:1048B60000E010E0E2E2F5E00783108789910895B1
:1048C60004E0009310010E94B51700E00093F40481
:1048D60003E00093F60401E00093F50400E0009382
:1048E600380528E211E002E00E94CB1700E010E054
:1048F600E2E2F5E00783108701E00093CE04089515
:104906008A93802F8F3F69F40FE300931F020FE312
:10491600009320020FE3009321020FE3009322028B
:1049260023C0843669F401E300931F0200E3009379
:10493600200200E30093210200E30093220214C048
:1049460000E300931F024AE0082F0E941B3F005D10
:10495600009320024AE0082F0E941B3F405D4093CF
:10496600210200E300932202899108950E94B63F36
:1049760000911001013009F08CC00091CA04035265
:1049860009F47DC00F5031F1025009F448C00250BD
:1049960009F445C0025009F44DC00D5009F474C025
:1049A600085011F00C94D42E0E94B51702E0009323
:1049B600100101E00093CE0401E000930D0100E038
:1049C6000093F40402E00093F50403E00093F60478
:1049D6000C94D42E00918D02023040F000918D028D
:1049E600102F1A9510938D02102F04C006E0009325
:1049F6008D02102F00918D020093CB0401E00093ED
:104A0600690405E010E0EFE6F4E0008311830BECA7
:104A160014E0EBE6F4E0008311830C94D42E0091AD
:104A26000F01013011F402E001C001E000930F0113
:104A36000C94D42E00918D02063040F400918D0224
:104A4600102F139510938D02102F04C000E00093D1
:104A56008D02102F00918D020093CB0401E000938C
:104A6600690405E010E0EFE6F4E0008311830BEC47
:104A760014E0EBE6F4E0008311830C94D42E02E0FC
:104A86000093F2040C94D42E01E00093F2040C94EB
:104A9600D42E00911001023009F0EBC00091CA0437
:104AA600015309F458C00A9509F468C00A9509F437
:104AB6006FC00A9509F47FC00A9509F4B4C00A9537
:104AC60009F4C4C00D5041F00A9571F1095021F066
:104AD6000850A9F00C94D42E0E94B51701E000935B
:104AE6000D0101E00093100100E00093F40400E0E2
:104AF6000093F60401E00093F5040C94D42E009183
:104B0600F404013010F40C94D42E0E94B517E4EF8F
:104B1600F4E000810A95008301E00093CE0401E0F1
:104B2600009311010C94D42E0091F4041091F50415
:104B3600011710F00C94D42E0E94B517E4EFF4E0A0
:104B460000810395008301E00093CE0401E0009309
:104B560011010C94D42E0E94B51701E00093CE04E7
:104B660004E00093100100E00093F40401E00093D8
:104B7600F50403E00093F6040C94D42E0E94B517B6
:104B860001E00093CE0403E0009310010C94D42EB0
:104B96000E94B51701E00093CE0406E100931001D0
:104BA60000E00093F40400E00093F50403E00093B2
:104BB600F6040C94D42E0E94B51701E00093CE049F
:104BC60005E00093100100E00093F40403E0009375
:104BD600F60401E00093F50400913D05013038F03C
:104BE6000091D301043018F400E00093F50400911D
:104BF6003E05013038F00091D501043018F400E08C
:104C06000093F50400913C05002311F40C94D42E76
:104C16000091D101043010F00C94D42E00E00093E2
:104C2600F5040C94D42E0E94B51701E00093CE042F
:104C360006E00093100100E00093F40401E0009305
:104C4600F50403E00093F6040C94D42E0E94B517E5
:104C560001E00093CE0403E10093100100E000930D
:104C6600F40404E00093F50401E00093F6040C94C8
:104C7600D42E00911001033009F073C00091CA04CC
:104C8600015379F10A9509F44CC00151B9F00A5063
:104C960011F00C94D42E0E94B51701E000930D017B
:104CA60001E00093100100E00093F40400E000939B
:104CB600F60401E00093F5040C94D42E0E94B51777
:104CC60002E00093100101E00093CE0400E000939F
:104CD600F40402E00093F50403E00093F6040C9458
:104CE600D42E03E0009305050BE111E0E3E0F5E0C7
:104CF6000083118301E00093110501E0009307058D
:104D060000E0093010F00C94D42E10E0F801E55EB6
:104D1600FE4F208110E0F801EE5EFE4F20830395E2
:104D2600F0CF03E00093050504E211E0E3E0F5E0CF
:104D36000083118302E00093110501E0009307054B
:104D460000E0093010F00C94D42E10E0F801EC5D70
:104D5600FE4F208110E0F801EE5EFE4F20830395A2
:104D6600F0CF00911001043009F060C00091CA0430
:104D76000153045008F456C00E50D1F00A95E9F1DB
:104D8600095021F0085031F10C94D42E0E94B51729
:104D960001E000930D0101E00093100100E0009393
:104DA600F40400E00093F60401E00093F504F9C76B
:104DB6000E94B51702E00093100101E00093CE04B3
:104DC60000E00093F40402E00093F50403E000938E
:104DD600F604E7C70091F404013008F4E2C70E9424
:104DE600B517E4EFF4E000810A95008301E0009333
:104DF600CE0401E000931101D4C70091F404109190
:104E0600F504011708F0CDC70E94B517E4EFF4E0EA
:104E160000810395008301E00093CE0401E0009336
:104E26001101BFC70091CA0433DDBBC70091100151
:104E3600053009F0EFC00091CA04015309F45EC0C1
:104E46000A9509F46DC00A9509F47CC00A9509F41F
:104E5600C0C00F50C9F00A95E1F1095019F0085089
:104E660029F19FC70E94B51701E000930D0101E0EB
:104E76000093100100E00093F40400E00093F604B0
:104E860001E00093F5048DC70E94B51702E0009378
:104E9600100101E00093CE0400E00093F40402E068
:104EA6000093F50403E00093F6047BC70091F40435
:104EB600013008F476C70E94B517E4EFF4E00081EC
:104EC6000A95008301E00093CE0401E000931101EE
:104ED60068C70091F4041091F504011708F061C742
:104EE6000E94B517E4EFF4E000810395008301E02A
:104EF6000093CE0401E00093110153C70E94B51739
:104F060001E00093CE040BE00093100100E0009353
:104F1600F40400E00093F50401E00093F60441C7B1
:104F26000E94B51701E00093CE040CE00093100137
:104F360000E00093F40401E00093F50403E000931D
:104F4600F6042FC700918C020230F9F401E00093B9
:104F5600050504E00093020504E115E0E3E0F5E051
:104F66000083118300E00093060500E010E0E8E00E
:104F7600F5E00083118300E010E0EAE0F5E000834D
:104F8600118301E0009307050CC700918C020130E4
:104F960009F007C701E00093050504E00093020548
:104FA60004E115E0E3E0F5E00083118300E00093FF
:104FB600060500E010E0E8E0F5E00083118300E07C
:104FC60010E0EAE0F5E00083118301E000930705B5
:104FD600E8C60091D301043008F4E3C60091D50178
:104FE600043008F4DEC60091D101043008F4D9C6B5
:104FF6000E94B51701E00093CE0404E1009310016E
:1050060000E00093F40403E00093F60401E000934B
:10501600F504C7C600911001063109F091C0009150
:10502600CA04035209F4BDC60D5009F4BAC60351A9
:10503600E1F00A95D1F10A9509F4B3C6085019F0C2
:10504600085029F151C00E94B51701E000930D01E7
:1050560001E00093100100E00093F40400E00093E7
:10506600F60401E00093F5049CC60E94B51702E021
:105076000093100101E00093CE0400E00093F404D5
:1050860002E00093F50403E00093F6048AC600915B
:10509600F404013008F485C6E4EFF4E000810A95D3
:1050A600008301E00093CE047CC60091F6041091C3
:1050B6005305011708F075C64091F40450E020919D
:1050C600530530E00091F60410E0201B310B421727
:1050D60053070CF066C6E4EFF4E000810395008305
:1050E60001E00093CE045DC60091CA0401531091FD
:1050F6005305011708F055C612E710931A0510E07C
:10510600F801EF5AFA4F17811093200510E0F801C5
:10511600EF5AFA4F008110E0EAE0F5E000831183D0
:10512600E8E0F5E000831183009319050BEA1EE021
:10513600EDE1F5E00083118302E00093050531C639
:105146000091CA04035209F4FEC10E50D9F00A9523
:10515600B9F10A9509F452C00A9509F46DC00250D6
:1051660009F49AC00D5009F4C1C00A9509F494C116
:105176000A9509F402C2085009F4A6C0085009F4B9
:105186003AC10EC600911001065019F0065009F0FA
:1051960008C60E94B51701E00093CE04E0E1F1E0F5
:1051A60000810395008300E00093F40407E0009378
:1051B600F50401E00093F60400E00093F304F1C562
:1051C60000911001065019F0065009F0EAC50E9438
:1051D600B51701E00093CE0400E00093F40401E06B
:1051E6000093F60401E00093110102E00093F50438
:1051F600E0E1F1E000810E5F0083D3C5009110016C
:10520600065019F0065009F0CCC50E94B51701E00A
:105216000093CE0400E00093F40401E00093F6044A
:1052260001E00093110103E00093F504E0E1F1E0F1
:1052360000810D5F0083B5C500911001065039F05D
:105246000250C9F0045019F00250A9F0AAC50E94F4
:10525600B51701E00093CE0400E00093F40401E0EA
:105266000093F604E0E1F1E000810C5F008305E0C5
:105276000093F50496C50091F404013009F091C538
:1052860000911101023020F0009111010A9501C030
:1052960004E00093110185C500911001085019F032
:1052A600065009F07EC50091F404013009F079C575
:1052B60000911101043020F400911101039501C001
:1052C60001E0009311016DC50E94B51701E000933E
:1052D6000D0101E00093100100E00093F40400E0EA
:1052E6000093F60401E00093F5045BC500911001FC
:1052F6000650A9F0015090F0045018F10050B1F199
:105306000A95A1F1015050F0045008F457C002501C
:1053160031F00A9559F10A9509F46BC042C50E940D
:10532600B51702E00093100101E00093CE0400E0FF
:105336000093F40402E00093F50403E00093F604FE
:1053460030C50E94B51706E00093100101E00093F6
:10535600CE0400E00093F40401E00093110101E0A3
:105366000093F50403E00093F6041BC50E94B517ED
:1053760005E00093100101E00093CE0400E00093E5
:10538600F40403E00093F60401E00093F5040091B1
:10539600D301043018F400E00093F5040091D50120
:1053A600043018F400E00093F5040091D1010430B4
:1053B60008F0F7C400E00093F504F3C40E94B517A3
:1053C60001E00093CE040CE00093100100E000938E
:1053D600F40400E00093F30401E00093110101E0FE
:1053E6000093F50403E00093F60400E00093F30451
:1053F600D8C466DAD6C40091100106500550A0F054
:105406000A9591F00A9569F00A9571F00A9561F08E
:105416000A9539F0035041F00A9531F00A95B9F032
:10542600C0C400E00093F3040091F404013008F4D2
:10543600B8C4E4EFF4E000810A95008301E000932C
:10544600CE040E94B51701E000931101AAC4A9E297
:10545600B5E0ED91FC9132970CF4A3C40091F404ED
:10546600013030F0E4EFF4E000810A95008306C0D5
:10547600E2E2F5E007810A950093F40400E0009368
:10548600380528E211E002E00E94CB1728E01DE073
:1054960004E00E94CB1785C4009110010650055008
:1054A600A0F00A9591F00A9569F00A9571F00A95AF
:1054B60061F00A9539F0035041F00A9531F00A95EA
:1054C600C9F06FC400E00093F3040091F404109156
:1054D600F504011708F065C4E4EFF4E000810395D4
:1054E600008301E00093CE040E94B51701E000930B
:1054F600110157C4A9E2B5E0ED91FC9132970CF485
:1055060050C40091F40410E0E2E2F5E08781908552
:1055160001970817190734F4E4EFF4E000810395C6
:10552600008303C000E00093F40400E00093380514
:1055360028E211E002E00E94CB1728E01DE004E01B
:105546000E94CB172EC4009110010D3008F429C417
:1055560000911001013108F024C4E3EFF4E000816A
:10556600039500830091F304023018F000E00093E5
:10557600F30401E00093CE0414C4009110010B5013
:1055860099F0025009F4D9C00A9509F4C0C10A95E8
:1055960009F42AC20A9509F4B5C2035009F4A5C351
:1055A6000A9509F4C9C3FDC300918C02023031F596
:1055B6000091EE04002311F501E00093050504E0D7
:1055C6000093020504E115E0E3E0F5E000831183B2
:1055D60000E00093060500E010E0E8E0F5E0008357
:1055E600118300E010E0EAE0F5E00083118301E0BA
:1055F6000093070501E00093EE04D3C300918C02EB
:10560600013009F052C000E0009341050091D1013C
:10561600023021F00091D1010E3419F401E000931B
:1056260041050091D301023041F00091D3010130D0
:1056360021F00091D3010E3419F401E000934105E5
:105646000091D501023021F00091D5010E3419F4F4
:1056560001E00093410502E00093050501E0009397
:105666001A0500E00093190500E000931C0502E00E
:1056760000938C0200914105002351F001E0009354
:105686001B0503EF15E0EDE1F5E00083118309C08A
:1056960003E000931B050FEF15E0EDE1F5E0008355
:1056A600118300E00093EE047CC300E00093410503
:1056B6000091D101023039F00091D1010E3419F078
:1056C60001E0009341050091D301023059F00091A9
:1056D600D301013039F00091D3010E3419F001E005
:1056E600009341050091D501023039F00091D501B2
:1056F6000E3419F001E000934105009141050023A5
:10570600C1F002E00093050502E000931A0500E0EF
:105716000093190500E000931C0507EF15E0EDE185
:10572600F5E00083118302E000938C0202E000930F
:105736001B0500E00093EE0434C30091D101002361
:1057460009F02FC30091F404EAEFF0E0FBBFFEE09E
:105756000C946C3F02E00093050501E000931A05E6
:1057660000E00093190507E000931B0500E0009395
:105776001C0500E115E0EDE1F5E00083118311C39E
:1057860002E00093050502E000931A0500E000938D
:10579600190501E000931B0500E000931C0503E4D6
:1057A60015E0EDE1F5E000831183FBC201E0009313
:1057B600050502E00093020500E00093060503E6F6
:1057C60010E0E8E0F5E00083118300E010E0EAE095
:1057D600F5E00083118308E00093110501E00093D2
:1057E600070501E00093EF04DCC201E00093050524
:1057F60002E00093020500E00093060502E110E0D6
:10580600E8E0F5E00083118300E010E0EAE0F5E06F
:105816000083118309E00093110501E00093070559
:1058260001E00093EF04BDC201E00093050502E02C
:105836000093020500E00093060506E310E0E8E0A9
:10584600F5E00083118300E010E0EAE0F5E0008374
:1058560011830AE00093110502E00093070501E0B9
:105866000093EF049EC201E00093050502E0009359
:10587600020500E00093060504E110E0E8E0F5E02B
:105886000083118300E010E0EAE0F5E00083118375
:105896000BE10093110501E00093070501E0009379
:1058A600EF047FC201E00093050502E000930205C4
:1058B60000E00093060504E110E0E8E0F5E000836F
:1058C600118300E010E0EAE0F5E0008311830CE1CB
:1058D6000093110501E00093070501E00093EF0432
:1058E60060C202E00093050507E000931A0500E098
:1058F6000093190502E000931B0500E000931C05C8
:1059060001E715E0EDE1F5E0008311834AC200915D
:10591600D101002309F045C20091F404005031F092
:105926000A9519F10A9509F440C03BC201E00093BB
:10593600050502E00093020500E0009306050AE073
:1059460010E0E8E0F5E00083118300E010E0EAE013
:10595600F5E00083118301E90093110501E000934E
:10596600070501E00093EF041CC201E00093050562
:1059760004E00093020500E00093060508EE13E03C
:10598600E8E0F5E00083118300E010E0EAE0F5E0EE
:105996000083118303E90093110502E300930705D1
:1059A600009111010093EF04FCC101E0009305058D
:1059B60004E00093020500E00093060500E010E015
:1059C600E8E0F5E00083118300E010E0EAE0F5E0AE
:1059D6000083118304E90093110501E00093070594
:1059E60001E00093EF04DDC10091D101002309F02D
:1059F600D8C10091F404005049F00A9531F10A9596
:105A060009F442C00A9509F45EC0CBC101E00093D7
:105A1600050502E00093020500E0009306050AE092
:105A260010E0E8E0F5E00083118300E010E0EAE032
:105A3600F5E00083118301EA0093110501E000936C
:105A4600070501E00093EF04ACC101E000930505F2
:105A560003E00093020500E00093060504E610E06B
:105A6600E8E0F5E00083118304E110E0EAE0F5E008
:105A76000083118302EA0093110501E000930705F4
:105A860001E00093EF048DC101E00093050504E0F9
:105A96000093020500E00093060500E010E0E8E050
:105AA600F5E00083118300E010E0EAE0F5E0008312
:105AB600118305EA0093110501E00093070501E053
:105AC6000093EF046EC101E00093050504E0009326
