:020000020000FC
:100000000C94F43E18951895189518951895189510
:100010001895189518951895189518951895189578
:10002000189518950C947716189518951895189595
:1000300018951895189518950C949C2F1895189547
:100040000C942114189518950C947B130C94EB13B5
:100050001895189518951895189518951895189538
:100060001895189518951895189518951895189528
:1000700018951895189518950C9481150C94DC1505
:10008000189518951895189518951895303F3002C1
:10009000300338010C0101200201000041A042A1FF
:1000A000E045A3A4A5A64BA74D484FA8504354A98B
:1000B000AA58E1ABACE2ADAE62AFB0B161B2B3B4DD
:1000C000E365B6B7B8B9BABBBCBD6FBE7063BF79E4
:1000D000E478E5C0C1E6C2C3C4C5C6C7CDE5F22019
:1000E000F1E2FFE7E820F120C1D1CF20202020203D
:1000F000002020C8EDE8F6E8E0EBE8E7E0F6E8FFEE
:10010000202020202000312EC6F3F0EDE0EB2E0061
:10011000322EC4E0F2E02FE2F0E5ECFF2E00332EA9
:10012000D3EFF0E0E2EBE5EDE8E52E00342ED3F17D
:10013000F2E0EDEEE2E8F2FC2E00352ECFF0EEF12B
:10014000ECEEF2F020EFE0F0E0EC2E000601100102
:100150001E012C013A01312E20C4E0F2E02E2020B5
:100160002020202020202020202000322E20C2F01D
:10017000E5ECFF2E20202020202020202020200021
:10018000312ED0E5E6E8EC2E00322ECFE0F0E0ECA8
:10019000E5F2F0FB2E00332ECFE0F0EEEBFC2E006C
:1001A000342ED2E5F1F22E00800189019601A001E2
:1001B0002EC7E0F9E8F2E02E002ECFF0E8E5ECEDF6
:1001C000E8EA2E002ECFE5F0E5E4E0F2F7E8EA2ECB
:1001D000002ECEE1F9E8E52E00B001B901C401D14D
:1001E00001D2E8EF20E7E0F9E8F2FB202020202010
:1001F000202020202000D2E8EF20EBE8EDE8E820E6
:100200002020202020202020202000C4EEEF2E20BF
:10021000E2F0E5ECFF20E1E5E720ECE0ED2E200048
:10022000CAEEECEF2EE7E0E4E5F0E6EAE820E220B3
:10023000EBE8ED2E00CFE5F0E5EAF0FBF2E8E52093
:10024000E8ECEFF3EBFCF1EEE200C7E0E3F02EF7B1
:10025000F3E2F1F2E2E8F22E20D0C720202000CF16
:10026000EEF0EEE320CFD0C5C4D3CFD020EFEE2008
:10027000D0C72000E101F6010B02200235024A023C
:100280005F02F1EFE8F1EEEA00F1EFE8F1EEEA00EB
:10029000302E2E393900302E2E313800302E2E35AA
:1002A0003400302E2E323000302E2E3230008202BA
:1002B0008902900296029C02A202A802C2F0E5EC1A
:1002C000FF20E2EAEBFEF7E5EDE8FF20202020200A
:1002D00000C7E0E4E5F0E6EAE020EDE020E2FBEA3A
:1002E000EB2E203FEA00C1EBEEEA2E20EAEEECE036
:1002F000EDE4FB2020342E2E312000BC02D102E69A
:1003000002302E2E313000302E2E3130303000EDC4
:10031000E5F200010307030F03C2F0E5ECFF20E262
:10032000EAEBFEF7E5EDE8FF202020202000C4EBFB
:10033000E8F2E5EBFCEDEEF1F2FC20EAEEECE0EDAC
:10034000E4FB00C4EBE8F22E20EAEEECE0EDE4FB87
:100350002020342E2E312000C1EBEEEA2E20EAEED2
:10036000ECE0EDE4FB2020342E2E31200019032E8A
:100370000343035803302E2E31300032302E2E31FD
:100380003030000075037B0383038303D3E4E5F07F
:10039000E6E0EDE8E520F0E5EBE520CFD0CC00D3BA
:1003A000E4E5F0E6E0EDE8E520F0E5EBE520CFD090
:1003B000C400C2F0E5ECFF20EFE5F0E5E7E0EFF385
:1003C000F1EAE000CAEEEDF2F0EEEBFC20E2FBF524
:1003D0002EF1E8E3EDE0EBE000CFEEF0EEE320CF2E
:1003E000D0C5C4D3CFD020EFEE20CAD72000D3ECA5
:1003F000E5ED2EF3F1E8EBE5EDE8FF203120EAE052
:10040000ED2E008C039F03B203C403D903EE03C790
:10041000C0D900CFD0CC00CFCC3200CFD0C400C2E6
:10042000FBE2E5E42000C3EEF2EEE22000C2E2E5EA
:10043000E4E5ED00D0E5F7FC202000D2E5F1F23153
:100440002000D2E5F1F2322000D2E5F1F2332000B3
:100450001F0426042D0434043B04420449043F3F96
:100460003F3F00202020C7E0EFF3F1EA20F2E5F162
:10047000F2E02020202020002020CFEEE4EEE6E471
:10048000E8F2E5203F20F1E5EA20202000C4D4C7AF
:100490002DCFF0CFE4202000C4D4C72DCFF0ECCC7A
:1004A000CA3100C4D4C72DCFF0ECCCCA3200C4D4BA
:1004B000C72D4C363020202000CDC72DCFF0CFE403
:1004C00020202000CDC72DCFF0EC2DCCCA2000CFAE
:1004D000CFC72DCFF0CFE4202000CFCFC72DCFF056
:1004E000EC2DCCCA00EEF8E8E1EAE0202020200064
:1004F0008D049804A304AE04B904C404CF04DA0440
:10050000E5043220EAEEEDF6E5E2E0FF003320EA12
:10051000EEEDF6E5E2E0FF00EEF8E8E1EAE02020AB
:1005200020200002050D051805C7C0D93A00CFD01C
:10053000CC3A00CFCC323A00CFD0C43A003F3F3F54
:100540003F2020202000CDE5E8F1EFF0202000CF73
:10055000F0E5E4F3EFF02000C2FBE2E5E4E5ED2096
:1005600000C3EEF2EEE220202000C2E2E5E4E5ED79
:10057000202000D0E5F7FC2020202000D2E5F1F279
:100580003120202000D2E5F1F23220202000D2E5F7
:10059000F1F23320202000580561056A0573057CBF
:1005A00005850558056A0558057C0585058E05589D
:1005B000056A057C0585058E05C8F1F5EEE4ED2E8E
:1005C0002000CAEEEDF2F0EEEBFC00CFF3F1EA20F2
:1005D00020202000D0E0E1EEF2E0202000CDE5E890
:1005E000F1EFF02E2000CF2EEDE5E8F1EFF000CE98
:1005F000E6E8E4E0EDE8E500CDE0EB2EEFF3F1EA2C
:10060000003F307830383F202000CDE5F220D0C7C1
:10061000202000D0E5F7FC2020202000B905C205ED
:10062000CB05D405DD05E605EF05F80501060A064C
:100630001306C8F1F5EEE4ED2E2000CFD0CC20CA91
:10064000D7202000CFD0CC20CFC0202000CDE5F295
:1006500020CAD7202000CDE5E8F1EFF02E2000CF12
:100660002EEDE5E8F1EFF000CEE6E8E4E0EDE8E5B8
:1006700000C1CBCA20CACC2020003F307830383FA0
:100680002020003F307830393F202000D0E5F7FCB3
:10069000202020200032063B0644064D0656065F09
:1006A00006680671067A0683068C06C8F1F5EEE444
:1006B000ED2E2000CFD0C420CAD7202000CFD0C438
:1006C00020CFC0202000CDE5F220CAD7202000CDC9
:1006D000E5E8F1EFF02E2000CF2EEDE5E8F1EFF0A8
:1006E00000CEE6E8E4E0EDE8E5003F307830373F63
:1006F0002020003F307830383F202000D1E8F1F250
:10070000E5EC2E2000D0E5F7FC2020202000AB06F1
:10071000B406BD06C606CF06D806E106EA06F3060D
:10072000FC060507672D006C2D00C2E2EEE43A00DE
:10073000CFE0F0EEEBFC3A00CDEEE2FBE920EFE09B
:10074000F0EEEBFC3A00C7EDE0F7E5EDE8E53A2026
:10075000003F3F3F3F00E2FBEAEB2E00E2EAEB2ED8
:100760000056075C075107C4E8E0EFE0E7EEED3A1A
:100770002000E2EAEB2FE2FBEAEB00E2EAEB2FE2F9
:10078000FBEAEB00302E2E3500E2EAEB2FE2FBEA2B
:10079000EB00302E2E323200302E2E323200302E30
:1007A0002E31300072077B0784078907920798076C
:1007B0009E07CFF0EEF8E8E2EAE020502D555350C6
:1007C000202000CFF0EEF8E8E2EAE02041542D5579
:1007D00053502000CFF0EEF8E8E2EAE02044535016
:1007E0002D55535000C4EEEFEEEBED2E20EFE0F070
:1007F000E0ECE5F2F0FB00C2E8E420EFE0F0E0EC32
:10080000E5F2F0E000B207C307D407E507F707C534
:10081000F1F2FC00CDE5F200F1F2E0EDE4E0F0F2FF
:100820000048455800210818082020202020457243
:10083000726F7220202020202000D3F1F2E0EDEE34
:10084000E2E8F2E520F7E0F1FB2000CDE5E8F1EF8A
:10085000F02EF7F22E20464C41534800CDE5E8F14A
:10086000EFF02EE7E0EF2E464C41534800CDE5E88F
:10087000F1EFF02EF7F22E20504C49532000CDE539
:10088000E8F1EFF02EE7E0EF2E504C49532000CD79
:10089000E5E8F1EFF02EE7E0EF2E3252414D200077
:1008A000CDE5E8F1EFF02E445350203252414D2077
:1008B00000CDE5E8F1EFF02EF7F22E203252414D57
:1008C0002000D3F1F2E0EDEEE2E8F2E520F7E0F10E
:1008D000FB2000CDE8E7EAEEE520EDE0EFF02EE2C8
:1008E000FBF52E00C2FBF1EEEAEEE520EDE0EFF0C5
:1008F0002EE2FBF5004B085C086D087E088F082986
:100900000829082908A008B108C208D308E4082962
:100910000829082908CDE5F220E1EBEEEAE020C144
:10092000D1C720202000CDE5E8F1EFF02EE2E5F080
:10093000F12EC1D1C72000CDE5E8F1EFF02EEFE5B3
:10094000F0E5EAEB2E202000CDE5E8F1EFF02EE710
:10095000E0EF2E20C1D1C72000CDE5E8F1EFF02E69
:10096000E2F5EEE42ECFD3D1CA00CDE5E8F1EFF009
:100970002EE2F5EEE42ED1D2CECF00CDE5E8F1EFB8
:10098000F02EF6E5EFFC2EC2DBD52000CDE5E8F138
:10099000EFF02EE7E0EF2E20C2DBD52000CDE5F210
:1009A00020F1E8E3EDE0EBE020D0C72020001509BE
:1009B0002609370948092908290829082908590951
:1009C0006A0929087B0929088C099D092908CDE8AD
:1009D000E7EAE8E920F3F0EEE22E20D0C72000CDD0
:1009E000E5F220E1EBEEEAE020C1D1CA20202000B0
:1009F000CDE5E8F1EFF02EE2E5F0F12EC1D1CA200D
:100A000000CDE5E8F1EFF02EEDE5F220CAD7312078
:100A10002000CFF0E5E22EE4EB2DF1F2E82EEAEE35
:100A2000EC2E00CDE5E8F1EFF02EE7E0EF2E20C14F
:100A3000D1CA2000CDE5E8F1EFF02EE2FBEAEB2E83
:100A4000CAD1CA2000CDE5E8F1EFF02EE2EAEB2EA4
:100A500020CAD1CA2000CDE5E8F1EFF02EEAEEED94
:100A6000F2F02ECAD1CA00CFF0E5E4F3EFF02EED9C
:100A7000E5F220CAD7312000CFF0E8E5EC20E1EB29
:100A8000EEEA2E20CAEEEC2E00DF09F009010A1270
:100A90000A2908290829082908230A340A450A5678
:100AA0000A670A29082908780AD1EDE8E62E20F31A
:100AB000F0EEE2EDFF20CFD0CC00CDE5F220E1EB6F
:100AC000EEEAE020C1D1CA20202000CDE5E8F1EF18
:100AD000F02EE2E5F0F12EC1D1CA2000CDE5E8F11B
:100AE000EFF02EE2FBEAEB2ED2E5F1F200CDE5E8E5
:100AF000F1EFF02EE2EAEB2E20D2E5F1F200CDE5A7
:100B0000E8F1EFF02EE2F5EEE42ECAD1CA2000BAE9
:100B10000ACB0A29082908290829082908290829A7
:100B200008DC0AED0AFE0A2908290829082908C351
:100B3000F0313A00C3F0323A00C3F0F3EFEFE020B7
:100B40003100C3F0F3EFEFE0203200390B420BE24B
:100B5000FBEAEB00CAD73100CAD73200CAEEEC314B
:100B600000CAEEEC3200CAEEEC3300CAEEEC340000
:100B7000CAEEEC3500CAEEEC3600CAEEEC3700CA1D
:100B8000EEEC38004F0B540B580B5C0B610B660BF3
:100B90006B0B700B750B7A0B7F0BE2FBEAEB00D053
:100BA000C73100D0C732009A0B9F0BA30BD2E5F1DF
:100BB000F2203100D2E5F1F2203200AD0BB40BC6C9
:100BC000F3F0EDE0EB2000F1EEE1FBF2E8E900E705
:100BD000E0F9E8F2FB00EFF0E8E5ECEDE8EAE00030
:100BE000EFE5F0E5E4E0F2F7E8EAE000C70BCF0B51
:100BF000D60BE00BD7F2E5EDE8E520E0F0F5E8E212
:100C0000E02E00CFCC00CFC400D1C100C7D900096D
:100C10000C060C030C0C0CCEC1D90000CD2EE2EA60
:100C2000EB2EF2E5F1F22000CD2EE2FBEAEB2EF204
:100C3000E5F1F200CD2EE2F5EEE4E020CAD1CA00E3
:100C4000CD2EE2EAEB2E20CAD1CA2000CD2EE2FB47
:100C5000EAEB2E20CAD1CA00CD2EE7E0EF2E20C14C
:100C6000D1CA2000CD2EEAEEEDF2F02EC1D1CA009D
:100C7000CDE5F220E1EB2E20C1D1C700CEF82EE267
:100C8000E5F0F12EC1D1C700CD2EEFE5F0E5EA2E5B
:100C9000C1D1C700CD2EEAEEED2EE2FBF52EF60017
:100CA000CD2EE7E0EF2EE2FBF52EF600CDE5F220AB
:100CB000F12E20CFD3D1CA00CDE5F220F12E20D1E4
:100CC000D2CECF00CDE5F220F1E8E3ED2ED0C70083
:100CD000CFE5F0E5E7E0EFF3F1EA2000C8E7EC2E1E
:100CE000F0E5E6E8ECE02000C2EEF1F1F22E203172
:100CF000CAD72000C2EEF1F1F22E2032CAD720006E
:100D0000CDE5F22031CAD72035F12000CDE5F22023
:100D100032CAD72035F12000CD2EF0E0E1EEF22EE0
:100D200044535000C2EEF12EF0E0E12E4453500047
:100D3000CD2EF7F22E203252414D2000CD2EE7E08D
:100D4000EF2E203252414D00CD2EE2F0E5ECE5EDE4
:100D5000E8202000CD2EE7E0EF2E20504C49530034
:100D6000CD2EF7F22E20504C49532000CD2EF7F215
:100D70002E20464C41534800CD2EE7E0EF2E464C46
:100D800041534800CDE8E72EEDE0EF2EE2FBF50001
:100D9000C2FBF12EEDE0EF2EE2FBF5001B0C1C0C6C
:100DA000280C340C400C4C0C580C640C700C7C0C53
:100DB000880C940CA00CAC0CB80CC40CD00CDC0C43
:100DC000E80CF40C000D0C0D180D240D300D3C0D2D
:100DD000480D540D600D6C0D780D840D900DCFE510
:100DE000F0E5E7E0EF2000CDE0F7E0EBEE2000CA11
:100DF000EEEDE5F62000EAEEECE0EDE4FB002ED1AE
:100E0000E1F0EEF120F1E2EEE5E3EE2E20202020ED
:100E100020002ECFF3F1EA20EDE0EBE0E42E20E21B
:100E2000EAEB2E2020002ECFF3F1EA20EDE0EBE0FC
:100E3000E42E20E2FBEAEB2E2000D1E1F0EEF100FF
:100E4000CFF3F1EA00D1F2EEEF003A0E400E450E7C
:100E50005F00D1E2FFE7FC20F120CFCA002E003076
:100E6000303030007701BB1AB31A04AB1A02A31A50
:100E7000019B1A39B71A04AF1A02A71A019F1A194F
:100E8000B51A04AD1A02A51A019D1A09B91A04B1BE
:100E90001A02A91A01A11AFB0100042F0800DC2E76
:100EA000E12EE62EEB2EF02EF52EFA2EFF2E300040
:100EB000982F0B00612F662F6B2F702F752F7A2FB5
:100EC0007F2F842F892F8E2F932F0100F835160046
:100ED000EC3538366E368736C83623375537003806
:100EE0006638B63870392337553700386638B63823
:100EF000F835F835183A8B3A863B6F3D30E042E0E2
:100F000007C050E0F801E40FF51F5081350F4395FD
:100F10004217B8F3032F0895E1EEF3E0208120613A
:100F200020830093240401E00093250410932604F9
:100F300025E002E214E0E2DF10E0EEE8F2E00083F8
:100F40001183EEE8F2E000810093270406E00E949E
:100F50005A1508959A938A93812FE1EEF3E0108158
:100F6000106110830093240480932504282F2C5FA4
:100F700002E214E0C3DF10E0EEE8F2E00083118348
:100F8000EEE8F2E0008190E0FC01EE5DFB4F0483AF
:100F90008B5F082F0E945A158991999108950150ED
:100FA00089F00A95D1F00A9551F10A9509F443C0E8
:100FB0000A9509F477C00A9509F490C0035009F422
:100FC000A9C0C3C00091E603083018F40091E603FD
:100FD00001C008E000935E02B8C00091E603013052
:100FE00050F00091E603033030F40091E6030A95D7
:100FF00000937B02AAC002E000937B02A6C000918E
:10100000E603043688F40091E6034AE00E94083FB4
:10101000005D00937C020091E6034AE00E94083FD5
:10102000405D40937D0291C00FE300937C020FE38B
:1010300000937D028AC00091E603033188F4009199
:10104000E6034AE00E94083F005D00935F020091C2
:10105000E6034AE00E94083F405D4093600206C0FC
:101060000FE300935F020FE3009360020091E70338
:10107000033188F40091E7034AE00E94083F005DD5
:10108000009367020091E7034AE00E94083F405D39
:10109000409368025AC00FE3009367020FE3009386
:1010A000680253C00091E603073388F40091E60319
:1010B0004AE00E94083F005D009383020091E6032E
:1010C0004AE00E94083F405D409384023EC00FE327
:1010D000009383020FE30093840237C00091E6037C
:1010E000053188F40091E6034AE00E94083F005D64
:1010F00000936F020091E6034AE00E94083F405DC2
:101100004093700222C00FE300936F020FE300933D
:1011100070021BC00091E603053188F40091E603DC
:101120004AE00E94083F005D009375020091E603CB
:101130004AE00E94083F405D4093760206C00FE3FC
:10114000009375020FE30093760201E00093CE0452
:1011500001E00093CD040895015131F0025031F1C6
:101160000A9509F440C014C00091E6030B30B8F4AE
:101170000091E6034AE00E94083F005D00931102DF
:101180000091E6034AE00E94083F405D409312024E
:1011900001E00093CD0401E00093CE0408950FE335
:1011A000009311020FE300931202F2CF00E00BC094
:1011B00010E0F801EE51FC4F248110E0F801E95EE7
:1011C000FD4F20830395083018F710E0F801EE5129
:1011D000FC4F1481153660F32FEF10E0F801E95E43
:1011E000FD4F2083EFCF0091E6030093270220E01C
:1011F0000BC030E3022F10E0119501951040F8016B
:10120000E85DFD4F33832395243010F6309127029B
:10121000422F01E010E00E941E3F3023332349F3A8
:1012200031E3022F10E0119501951040F801E85DBF
:10123000FD4F3383E8CF015261F00A9561F102500E
:1012400009F45DC00A9509F483C00A9509F4A9C0A0
:1012500014C00091E6030B30B8F40091E6034AE0B5
:101260000E94083F005D009333020091E6034AE0CC
:101270000E94083F405D4093340201E00093CD049A
:1012800001E00093CE0408950FE3009333020FE3CF
:1012900000933402F2CF0091E603043130F1009163
:1012A000E603053610F50091E603043651F401E338
:1012B0000093390200E300933A0200E300933B02FB
:1012C000DCCF00E3009339020091E6034AE00E947C
:1012D000083F005D00933A020091E6034AE00E9455
:1012E000083F405D40933B02C8CF0FE300933902B3
:1012F0000FE300933A020FE300933B02BECF00914D
:10130000E6030093400220E00BC030E3022F10E020
:10131000119501951040F801EF5BFD4F3383239544
:10132000243008F0AACF30914002422F01E010E0B3
:101330000E941E3F3023332341F331E3022F10E09C
:10134000119501951040F801EF5BFD4F3383E7CF16
:101350000091E6030093EF0420E00BC030E3022F7E
:1013600010E0119501951040F801EA5BFD4F3383C1
:101370002395243008F081CF3091EF04422F01E013
:1013800010E00E941E3F3023332341F331E3022F4C
:1013900010E0119501951040F801EA5BFD4F338391
:1013A000E7CF0091E6030093F00420E00BC030E3A8
:1013B000022F10E0119501951040F801E55BFD4FFB
:1013C00037832395283008F058CF3091F004422F0E
:1013D00001E010E00E941E3F3023332341F331E34C
:1013E000022F10E0119501951040F801E55BFD4FCB
:1013F0003783E7CF9A938A9380E022C0482F50E04A
:1014000003E010E00E94163FF801EE51FC4F2581E9
:10141000082F10E0000F111FF801EF52FE4F21833B
:10142000482F50E003E010E00E94163FF801EE5113
:10143000FC4F068190E0FC01E652FE4F008383954D
:101440008430F8F5482F50E003E010E00E94163F8A
:10145000F801EE51FC4F0481063050F02EE4082FC5
:1014600010E0000F111FF801EF52FE4F208312C051
:10147000482F50E003E010E00E94163FF801EE51C3
:10148000FC4F2481082F10E0000F111FF801EF52CC
:10149000FE4F2083482F50E003E010E00E94163FEB
:1014A000F801EE51FC4F05810B3008F4A7CF2EE474
:1014B000082F10E0000F111FF801EF52FE4F21839B
:1014C000AFCF01E00093CD0401E00093CE048991F9
:1014D0009991089500E00BC010E0F801EE51FC4F27
:1014E000248110E0F801EB52FB4F20830395043177
:1014F00098F30091E104002321F40091E204002319
:1015000021F001E00093450503C000E0009345058C
:101510000091E304002321F40091E404002321F06E
:1015200001E00093460503C000E0009346050091EA
:10153000D504002321F40091D604002321F001E01A
:101540000093470503C000E0009347050091D704CE
:10155000002321F40091D804002321F001E000933E
:10156000480503C000E0009348050091D90400231A
:1015700021F40091DA04002321F001E000934905F1
:1015800003C000E0009349050091DB04002321F42F
:101590000091DC04002321F001E000934A0503C020
:1015A00000E000934A050091DD04002321F400913E
:1015B000DE04002321F001E000934B0503C000E0AE
:1015C00000934B050091DF04002321F40091E00417
:1015D000002321F001E000934C0503C000E00093DC
:1015E0004C050091E504002321F40091E60400235A
:1015F00021F001E000934D0503C000E000934D058C
:101600000091E704002321F40091E804002321F075
:1016100001E000934E0503C000E000934E0501E099
:101620000093CD0401E00093CE0408959A938A9329
:101630000091E6030F70005D009322010091E60324
:1016400002950F70005D009321010091E7030F7078
:10165000005D00931F010091E70302950F70005D8C
:1016600000931E010091E8030F70005D00931C01C0
:101670000091E80302950F70005D00931B0100913B
:10168000E9030F70005D009325010091E9030295C5
:101690000F70005D009324010091EA030F70005D5C
:1016A000009328010091EA0302950F70005D0093FA
:1016B00027010091EB030F70005D00932B01009157
:1016C000EB0302950F70005D00932A0100E004C057
:1016D00010E01093910203950830C8F510E0F8016E
:1016E000E55EFE4F10811A3338F410E0F801E55E34
:1016F000FE4F1081103368F410E0F801E55EFE4FF4
:1017000010811E3231F0E0E9F2E010811395108370
:1017100003C010E01093900210E0F801EC5DFE4F62
:1017200010811A3338F410E0F801EC5DFE4F10819F
:10173000103370F610E0F801EC5DFE4F10811A33A3
:1017400039F2E1E9F2E0108113951083C4CF809162
:10175000220190E04091210150E00AE010E00E9457
:10176000163F800F911F80519240843600E0900711
:101770002CF0E0E9F2E000810395008380911F01E5
:1017800090E040911E0150E00AE010E00E94163FF8
:10179000800F911F805192408D3090402CF0E0E9F5
:1017A000F2E000810395008380911C0190E040915C
:1017B0001B0150E00AE010E00E94163F800F911FCD
:1017C00080519240803290402CF0E0E9F2E00081BC
:1017D000039500838091250190E04091240150E021
:1017E0000AE010E00E94163F800F911F8051924046
:1017F000893190402CF0E1E9F2E00081039500830B
:101800008091280190E04091270150E00AE010E02B
:101810000E94163F800F911F805192408D3300E04F
:1018200090072CF0E1E9F2E00081039500838091BC
:101830002B0190E040912A0150E00AE010E00E9464
:10184000163F800F911F805192408D3300E090072A
:101850002CF0E1E9F2E00081039500830091900211
:10186000002301F100E30093220100E30093210132
:1018700000E300931F0100E300931E0100E30093C7
:101880001C0100E300931B0100E00093900200E0C4
:101890000330B8F420E010E0F801E050FF4F20835F
:1018A0000395F6CF00E00BC010E0F801EE51FC4FBD
:1018B000248110E0F801E050FF4F208303950330AE
:1018C00098F300919102002301F100E300932501B8
:1018D00000E30093240100E30093280100E3009358
:1018E000270100E300932B0100E300932A0100E0AD
:1018F0000093910200E00330B8F420E010E0F8011A
:10190000E050FF4F23830395F6CF00E00BC010E0BB
:10191000F801EE51FC4F278110E0F801E050FF4F35
:1019200023830395033098F301E00093CE0401E094
:1019300000930D018991999108950E94A23FD801C9
:10194000822F942F452E3A95082F07C020E210E0F1
:10195000FD01E00FF11F208303950930B8F300E883
:10196000401658F00FEF402643942DE2082F10E068
:10197000FD01E00FF11F20838395042D10E0432F1C
:101980000E941E3F402E03E64016C8F44AE0042D94
:101990000E94083F005D282F30E0FD01E20FF31F99
:1019A000008383954AE0042D0E94083F405D082F84
:1019B00010E0FD01E00FF11F4083839510C02FE37D
:1019C000082F10E0FD01E00FF11F208383952FE326
:1019D000082F10E0FD01E00FF11F20838395873071
:1019E00008F48395923061F404EE90E0FD01E80F75
:1019F000F91F0083839501EC90E0A80FB91F0C93A9
:101A0000E5E00C94AC3F0E94A13FD801422E542E39
:101A1000CB016E817F813A95042D07C020E210E052
:101A2000FD01E00FF11F208303950930B8F3432F28
:101A30008C010E941E3FC8018617970708F067C0F7
:101A4000883E03E0900710F148EE53E08C010E94BD
:101A5000243F202F042D10E0FD01E00FF11F208313
:101A6000042D10E0FD01E00FF11F408150E008EE71
:101A700013E00E94163F801B910B042D10E0FD0126
:101A8000E00FF11F0081005D00834394843600E085
:101A9000900710F144E650E08C010E94243F202F73
:101AA000042D10E0FD01E00FF11F2083042D10E054
:101AB000FD01E00FF11F408150E004E610E00E94BC
:101AC000163F801B910B042D10E0FD01E00FF11F6C
:101AD0000081005D008343944AE050E08C010E9445
:101AE000243F005D242D30E0FD01E20FF31F008351
:101AF00043944AE050E08C010E94243F405D042D55
:101B000010E0FD01E00FF11F4083439410C02FE36C
:101B1000042D10E0FD01E00FF11F208343942FE31B
:101B2000042D10E0FD01E00FF11F2083439407E036
:101B3000401608F44394052D015019F0025071F03D
:101B400019C00CEE5524FD01E40DF51D008300ECD9
:101B50005524A40DB51DFD0101830CC00EEC5524C8
:101B6000FD01E40DF51D00830CEE5524A40DB51DFB
:101B7000FD010183E8E00C94AB3FBD01F801032FA8
:101B800002950F703F700A3040F0095C422F50E020
:101B9000DF01A40FB51F0C9307C0005D422F50E07A
:101BA000DF01A40FB51F0C933A3038F0395C022FD7
:101BB00010E0E00FF11F318306C0305D022F10E00E
:101BC000E00FF11F3183DB0108950091E60300234C
:101BD00009F0C4C07091E70360E00091E80310E0F1
:101BE000600F711F683E03E0700710F067EE73E04E
:101BF00008EE13E01A930A9343E031E022E00DE28D
:101C000011E001DF3091E70323E0E5ECF1E0008132
:101C10001181B3DF3091E80325E0E5ECF1E00081CC
:101C20001181ABDF7091E90360E00091EA0310E0FD
:101C3000600F711F08EE13E01A930A9341E031E040
:101C400023E007E311E0DFDE3091E90323E0E5EC78
:101C5000F1E00281138191DF3091EA0325E0E5ECA8
:101C6000F1E00281138189DF0091EB030436E8F48F
:101C70000091EC030336C8F40091EB034AE00E94A4
:101C8000083F005D009343010091EB034AE00E948E
:101C9000083F405D409344010091EC034AE00E94FC
:101CA000083F005D0093460109C00FE30093430124
:101CB0000FE3009344010FE3009346013091EB03DF
:101CC00023E0E5ECF1E00481158157DF3091EC036E
:101CD00025E0E5ECF1E0048115814FDF5091ED0343
:101CE00042E031E024E005E511E027DE5091EE030B
:101CF00042E031E024E00FE511E01FDE3091ED031A
:101D000023E0E5ECF1E00681178137DF5091EF0326
:101D100042E031E024E009E611E00FDE5091F003EB
:101D200042E031E024E003E711E007DE3091EF0309
:101D300023E0E5ECF1E0008511851FDF5091F10310
:101D400042E031E023E00BE411E0F7DD3091F103F4
:101D500023E0E5ECF1E0028513850FDF01E000935D
:101D60000E0101E00093CE040895065389F00A9510
:101D7000E1F0025009F458C00A9509F463C00A95CD
:101D800009F10A9509F49EC00A9509F4EDC0F8C05E
:101D90000091E603023028F40091E6030093E2018B
:101DA000EFC002E00093E201EBC00091E6030230D5
:101DB00028F40091E6030093E301E2C002E00093FF
:101DC000E301DEC00091E603053608F50091E60365
:101DD0000A30E8F00091E603043639F401E3009399
:101DE000FD0100E30093FE010BC000E30093FD0141
:101DF0000091E6034AE00E94083F005D0093FE0167
:101E000000E30093FF0100E300930002B9C00FE379
:101E10000093FD010FE30093FE010FE30093FF0128
:101E20000FE300930002ACC00091E603063030F4EB
:101E30000091E603005D0093E401A2C00FE300936C
:101E4000E4019EC00091E6030130D9F40091E7035C
:101E50000B3088F40091E7034AE00E94083F005DE0
:101E6000009305020091E7034AE00E94083F405DAD
:101E70004093060206C00FE3009305020FE30093B0
:101E800006020091E603023009F07AC00091E703F0
:101E90000B3088F40091E7034AE00E94083F005DA0
:101EA00000930B020091E7034AE00E94083F405D67
:101EB00040930C0265C00FE300930B020FE3009305
:101EC0000C025EC00091E603073138F00FE3009387
:101ED000EB010FE30093EC0110C00091E6034AE030
:101EE0000E94083F005D0093EB010091E6034AE089
:101EF0000E94083F405D4093EC010091E7030731E9
:101F000038F00FE30093F1010FE30093F20110C0EA
:101F10000091E7034AE00E94083F005D0093F10151
:101F20000091E7034AE00E94083F405D4093F201C0
:101F30000091E803073138F00FE30093F7010FE356
:101F40000093F8011DC00091E8034AE00E94083F99
:101F5000005D0093F7010091E8034AE00E94083F0A
:101F6000405D4093F8010CC00091E603023028F474
:101F70000091E6030093EA0103C002E00093EA0146
:101F800001E00093CE0401E00093CD04089500E049
:101F90000093DE0100E00093DF0100E00093E00128
:101FA00000E00093E101E2EEF3E0048100FF04C0F1
:101FB00001E00093DE011EC0E2EEF3E0048101FFC8
:101FC00004C002E00093DE0115C00091E703013078
:101FD00088F002E00093DE01EEEDF1E00081039570
:101FE00000830091E70306950093E7030091E70360
:101FF000002391F7E2EEF3E0048102FF04C001E068
:102000000093DF0108C0E2EEF3E0048103FF03C0A8
:1020100002E00093DF01E2EEF3E0078100FF04C07D
:1020200001E00093E0011EC0E2EEF3E0078101FF52
:1020300004C002E00093E00115C00091EA03013002
:1020400088F002E00093E001E0EEF1E0008103950A
:1020500000830091EA0306950093EA030091EA03E6
:10206000002391F7E2EEF3E0078102FF04C001E0F4
:102070000093E10108C0E2EEF3E0078103FF03C033
:1020800002E00093E10101E00093CE0401E000933F
:10209000CD04089501E01091E603113021F401E030
:1020A00000933B0501C000E00091E703023021F4FA
:1020B00008E000933E0501C000E00091E803023013
:1020C00021F408E000933F0501C000E00091E9031E
:1020D000023021F408E000933D0501C000E00091CA
:1020E000EA03033039F403E00093420508E000936B
:1020F0003C0501C000E00091EB03013021F401E058
:102100000093410501C000E03091EC0320E0009114
:10211000ED0310E0200F311FE7E0F1E0228333836D
:102120003091EE0320E00091EF0310E0200F311F0B
:10213000E7E0F1E02483358301E00093430504E008
:102140000093210500E00093230503E0009324059C
:1021500002E00093250501E000932605089540E084
:1021600001E00093CE0401E00093CD040FE010E005
:102170002091E40322952F7030E0021B130B209175
:10218000220530E0F901EF5DFA4F228130E00217BD
:10219000130709F441E00091E4030F700130D9F412
:1021A0004423C9F00091E703002359F000E011E057
:1021B000E1E2F5E0078310870091E60300932A052A
:1021C0000AC00091E60310E0E1E2F5E00783108722
:1021D00000E000932A050091E4030F700230E1F45F
:1021E000442379F000E00031B8F410E0F801EE513A
:1021F000FC4F248110E0F801EF5DFA4F2287039530
:10220000F2CF00E007C020E010E0F801EF5DFA4FE8
:10221000228703950031B8F308959A938A93802F0B
:10222000282F2A9502EE13E00E947E0710E0EEE8C8
:10223000F2E000831183EEE8F2E02081318190E04A
:10224000FC01EF51FC4F008110E02017310719F01D
:10225000549A579A82C000917204023001F502E04C
:102260000093920213C00091920210E0F801EE5127
:10227000FC4F20810091920210E0F801E752FD4FDF
:102280002083E2E9F2E0008103950083009192024D
:10229000081748F303E000937204809373040091DD
:1022A0007204002309F059C00091E403007F00503C
:1022B00039F0005151F0005169F0005181F038C0FF
:1022C0000091E4030E94CF0746C00091E4030E94FE
:1022D000AC0841C00091E4030E941B093CC000917E
:1022E000E4030053A9F00A95A9F00A95A9F0025059
:1022F000A9F00250A9F00A9599F0025089F0035014
:1023000079F00A9569F00A9579F00A9579F023C079
:1023100071D821C0DFD81FC089D91DC056DC1BC0B1
:102320000091E40322DD17C032DE15C0B3DE13C016
:102330000091E403015C71F00A9561F00F5051F0D7
:102340000A9541F00F5031F00A9521F00F5011F02D
:102350000A9509F404DF549A579A0E945F1500E029
:102360000093740489919991089530E042E007C088
:1023700050E0F801E40FF51F5081350F43954217E7
:10238000B8F3032F08959A938A93812FE8E9F2E036
:102390001081106110830093DB028093DC02282FF0
:1023A0002C5F09ED12E0E1DF10E0E3E9F2E00083E9
:1023B0001183E3E9F2E0008190E0FC01E752FD4F78
:1023C00004838B5F082F0E942316899199910895A9
:1023D000E8E9F2E01081106110830093DB0202E073
:1023E0000093DC0226E009ED12E0BFDF10E0E3E934
:1023F000F2E000831183E3E9F2E000810093DF0261
:1024000007E00E94231608959A938A93802F0E94D2
:10241000301600FB4EF400E00093DD0200E0009374
:10242000DE0201EED5DF44C100919902053509F0C5
:1024300035C100919A020A3A09F030C100919C021C
:1024400010E0E82FF0E035970E171F0751F00091CC
:102450009C020093DD0285508093DE0203EEB8DF1C
:1024600027C1282F2A9509E912E07FDF10E0E3E970
:10247000F2E000831183E3E9F2E02081318190E012
:10248000FC01E856FD4F008110E02017310779F07C
:1024900090E0FC01E856FD4F00810093DD02E3E986
:1024A000F2E000810093DE0202EE92DF01C10091B2
:1024B0009B02023729F000919B02033709F0C2C04A
:1024C00000919B02023799F54091130550E008EE08
:1024D00013E00E94163FC8014091140550E004E645
:1024E00010E00E94163F800F911F4091150550E0AB
:1024F0000AE010E00E94163F800F911F0091160520
:1025000010E0800F911F8055904DE6E9F2E0808346
:102510009183E6E9F2E01181012F0093DD02E6E903
:10252000F2E000810093DE0212E002E72CDF00916E
:102530009B02033709F078C030919D0220E00091A2
:102540009E0210E0200F311FE6E9F2E02083318384
:1025500048EE53E0E6E9F2E0008111810E94243F59
:10256000005D009313058091130590E0C09708EE7D
:1025700013E0AC010E94163FE6E9F2E020813181D0
:10258000201B310B2083318344E650E0E6E9F2E082
:10259000008111810E94243F005D00931405809109
:1025A000140590E0C09704E610E0AC010E94163FCD
:1025B000E6E9F2E020813181201B310B2083318359
:1025C0004AE050E0E6E9F2E0008111810E94243FF8
:1025D000005D009315058091150590E0C0970AE015
:1025E00010E0AC010E94163FE6E9F2E02081318163
:1025F000201B310B20833183E6E9F2E00081005D8E
:102600000093160510E003E7BEDE01E000936804C6
:1026100000E010E0EEE6F4E00083118303E115E052
:10262000EAE6F4E0008311830FE0009306010091D5
:102630009A00006100939A0000919A00006800934C
:102640009A0036C000E0009395021BC000919502ED
:1026500010E0F801E756FD4F20810091950210E04F
:10266000F801EE5DFB4F208300E02091950230E001
:10267000F901E756FD4F0083E5E9F2E0008103959B
:10268000008300919502081708F38093730401E01A
:10269000009372040FE0009306010AC000919A00B3
:1026A000006100939A0000919A00006800939A00DC
:1026B0000E943D168991999108950FEC09B91098DF
:1026C000119A1898199A0EE00093950008E10AB93A
:1026D000549A579A06B70D7F06BF07B7016007BF28
:1026E00005E002BF04E003BF05E5009322040AEA07
:1026F000009323040895FA93EA935A934A933A93E2
:102700002A931A930A934FB75BB70CB15C9958C0E0
:1027100010916404105039F01A9561F01A95A1F0E7
:102720001A95C1F028C0053509F04AC001E00093B0
:10273000640446C00A3A21F402E00093640440C0F5
:1027400000E0009364043CC00093E40303E00093C2
:10275000640436C00093E5030C3320F010E01093BE
:10276000640403C014E01093640410916404100F17
:102770001093650425C02091640430E0F901EE5106
:10278000FC4F00830091640410916504011798F0D8
:1027900001E00093740400E0009364045498579897
:1027A00000916504039500937504E1EEF3E0008168
:1027B0000860008305C0E4E6F4E00081039500832F
:1027C0005BBF4FBF09911991299139914991599155
:1027D000E991F9911895FA93EA933A932A931A9307
:1027E0000A932FB73BB7009162041091630401175D
:1027F00084F400916204102F110F110BF801EE5DAB
:10280000FB4F00810CB9E2E6F4E000810395008300
:102810000FC05398559800E00093630400E00093C4
:102820006204549A579AE1EEF3E000810F7E008330
:102830003BBF2FBF0991199129913991E991F991E4
:102840001895BA93AA939A938A93FA93EA933A9231
:102850002A921A920A927A936A935A934A933A93D3
:102860002A931A930A938FB79BB72197A89505E0EF
:1028700002BF0091C904003F09F045C000917204F5
:10288000002309F040C00E946D1A0093DE030091FE
:10289000DE031091DD03011721F00091DE03003FFC
:1028A000D1F4EFEDF3E0008111810F5F1F4F008342
:1028B0001183EFEDF3E000811181013921E012076E
:1028C00084F000E911E0EFEDF3E00083118300EF05
:1028D0000093DD0306C000E010E0EFEDF3E00083BD
:1028E00011830091DE031091DD03011761F0009167
:1028F000DE03003F41F00091DE030093C904009124
:10290000DE030093DD030091DB03053078F10091D5
:10291000DC03013029F0E8E9F2E0008100FF22C089
:1029200000919A000F7E00939A0000919A000F7711
:1029300000939A00E8E9F2E00081086000830091CA
:10294000D8030E94041200E00093DC0300E000932F
:10295000D80300919C000883E8E9F2E000810F7E33
:10296000008309C00EE10093DB0305C0EBEDF3E04B
:10297000008103950083E19937C00091680401301C
:1029800099F5EEE6F4E0008111811FBB0EBB0091CA
:10299000660410E0EAE6F4E0A081B181A00FB11F67
:1029A0000C910DBBE29AE19AE6E6F4E00081039512
:1029B0000083EEE6F4E0008111810F5F1F4F00837A
:1029C00011830091660410E0AAE6B4E0ED91FC9159
:1029D000E00FF11F31970081002331F400E00093F4
:1029E000680400E000936604E1994EC00091690418
:1029F000013009F049C0E0E7F4E0008111811FBB1C
:102A00000EBBE09A2DB30091670410E0ECE6F4E011
:102A1000A081B181A00FB11F2C930091670410E039
:102A2000ACE6B4E0ED91FC91E00FF11F00810F3FA7
:102A300059F400E02091670430E0ACE6B4E0ED9199
:102A4000FC91E20FF31F0083E0E7F4E000811181C5
:102A50000F5F1F4F00831183E7E6F4E000810395C9
:102A600000830091670410E0ACE6B4E0ED91FC91C6
:102A7000E00FF11F31970081002331F400E0009353
:102A8000690400E00093670421969BBF8FBF099102
:102A900019912991399149915991699179910990A7
:102AA000199029903990E991F99189919991A99179
:102AB000B991189500936304539A559A089500E0CC
:102AC0000093E103089503E3009399008A988B9A99
:102AD0009298939A0EE000939D0008E100939A006B
:102AE00000919A00006100939A0000919A0000689A
:102AF00000939A0005E50093D9020AEA0093DA02EE
:102B00000895FA93EA934A933A932A931A930A936D
:102B10003FB74BB7219700919B00102F14FF05C0C2
:102B2000E8E9F2E00081016000830091DC0300230A
:102B300091F40091DB030E3170F001E00093DC03AF
:102B400000E00093D80300E00093DB03E8E9F2E043
:102B50000081006100830091DC03013011F50091D8
:102B6000DB030E31F0F40091D803003448F0E8E9BB
:102B7000F2E000810160008300919C0008830EC098
:102B800020919C000091D80310E0F801E756FD4F1A
:102B90002083E8EDF3E000810395008300E00093DB
:102BA000DB0321964BBF3FBF0991199129913991C0
:102BB0004991E991F9911895FA93EA933A932A93F6
:102BC0001A930A932FB73BB70091D9031091DA03F8
:102BD00001178CF40091D903102F110F110BF8017C
:102BE000E752FD4F008100939C00E9EDF3E0008186
:102BF000039500831FC000919A00077F00939A00FD
:102C000000919A000F7D00939A0000E00093DA0390
:102C100000E00093D90300919A00006100939A00AC
:102C200000919A00006800939A00E8E9F2E00081C0
:102C30000F7E00833BBF2FBF0991199129913991D4
:102C4000E991F99118950093DA0300919A000860D0
:102C500000939A0000919A00006200939A000895F0
:102C60000091980210919A00212F27FD0260109187
:102C70009A00212F25FD0460089500E0009398023A
:102C800008950FEF0ABB00E00BBB00E707BB00E2B3
:102C900008BB00E004BB00E005BB00E001BB00E0B6
:102CA00002BB07B7006807BF00E004BD0AE003BD30
:102CB00008E005BD05B5056005BD07B7046007BFA1
:102CC00000E00FBD00E00EBD09EF0DBD05EE0CBD2F
:102CD0000895A89501B5006101BD01B5087F01BD4A
:102CE00001B5006101BD01B5086001BD0895FA9309
:102CF000EA933A932A931A930A932FB73BB700911A
:102D0000C704015009F445C00A9521F00A9509F459
:102D100052C07FC001E003BDC69AC59A0091C604A7
:102D200010E0F801EA58FB4F00810BBBC5980091F9
:102D3000C6040F3420F40091C604039501C000E0DE
:102D40000093C6040091C604005039F0045161F0AC
:102D5000045189F00451B1F05CC000E80093C8044C
:102D600001E00093C70455C000EC0093C80401E0E3
:102D70000093C7044EC004E90093C80401E0009327
:102D8000C70447C004ED0093C80401E00093C704E2
:102D900040C00091C804013011F400E201C001E01C
:102DA00003BDC698C59A0091C8040BBBC59802E044
:102DB0000093C7042EC00091C60410E0000F111F3D
:102DC000F801E457FF4F04910023E9F0C698C59A33
:102DD0000091C60410E0000F111FF801E457FF4FE7
:102DE00004910BBBC5980091C60410E0000F111FA1
:102DF000F801E357FF4F049103BDE6ECF4E00081D6
:102E00000395008306C002E00093C70400E000932E
:102E1000C6043BBF2FBF0991199129913991E991BE
:102E2000F9911895202F00E064E1269F010E1BEE1A
:102E3000010E0CC010E0FA01E00FF11F1081112407
:102E4000F001EA58FB4F10830394039510E0FA0158
:102E5000E00FF11F1081112381F1313059F710E09B
:102E6000FA01E00FF11F1081103CD8F010E0FA01D8
:102E7000E00FF11F608170E0603011E071078CF4A9
:102E800010E0FA01E00FF11F608170E0FB01E452F5
:102E9000F04014911124F001EA58FB4F1083039481
:102EA000D4CF10E0FA01E00FF11F10811124F001DE
:102EB000EA58FB4F10830394C8CF089504E107C07C
:102EC00020E210E0F801EA58FB4F2083039500351B
:102ED000B8F300E00093C604089500E00093C60430
:102EE00003E00093C704089534E1039F010E0BEE45
:102EF000000E10E008C000E21124F001EA58FB4F78
:102F00000083039413951217B0F308959A938A934C
:102F1000922F24E1029F802D810F855140E1092FDE
:102F20000E94083F282F30E0F901EA58FB4F008348
:102F3000082F10E0F801EA58FB4F108100E1109FC4
:102F40009019082F10E0F801EA58FB4F918390E0A8
:102F5000FC01EA58FB4F00810A3040F090E0FC0190
:102F6000EA58FB4F0081095C008307C090E0FC0138
:102F7000EA58FB4F0081005D008390E0FC01EA58B5
:102F8000FB4F01810A3040F090E0FC01EA58FB4F12
:102F90000181095C018307C090E0FC01EA58FB4F06
:102FA0000181005D01838991999108959A938A9393
:102FB000922F24E1029F802D810F85514AE0092F35
:102FC0000E94083F005D282F30E0F901EA58FB4FCE
:102FD0000083082F10E0F801EA58FB4F008100330E
:102FE00009F083954AE0092F0E94083F1AE0019FEB
:102FF0009019905D082F10E0F801EA58FB4F90837C
:10300000899199910895202F00E064E1269F010E97
:103010001BEE010E0CC010E0FA01E00FF11F14913D
:103020001124F001EA58FB4F10830394039510E03C
:10303000FA01E00FF11F14911123D9F1313071F52C
:1030400010E0FA01E00FF11F1491103CD8F010E0ED
:10305000FA01E00FF11F649170E0603011E0710738
:103060008CF410E0FA01E00FF11F649170E0FB01B5
:10307000E452F04014911124F001EA58FB4F108300
:103080000394D4CF10E0FA01E00FF11F1491112442
:10309000F001EA58FB4F10830394C8CF323009F097
:1030A000BACF10E21124F001EA58FB4F10830394C9
:1030B000BDCF089544E1049F010E0BEE000E1124D4
:1030C000F001EA58FB4F2083089500E007C020E29A
:1030D00010E0F801EA58FB4F208303950035B8F360
:1030E00008950E94A13F802FD901412E855C982F21
:1030F00028E2082F10E0F801EA58FB4F208383955F
:103100000A2F0B2B21F0A13001E0B00748F020E39B
:10311000082F10E0F801EA58FB4F208383954FC039
:1031200055240FEF4016C9F422E3082F10E0F801F0
:10313000EA58FB4F2083839525E3082F10E0F80120
:10314000EA58FB4F2083839526E3082F10E0F8010F
:10315000EA58FB4F2083839532C0439404E640161F
:1031600070F044E6042D0E94083F502E252D205D6E
:10317000082F10E0F801EA58FB4F208383950AE0FE
:10318000401688F04AE0042D0E94083F1AE0519E44
:10319000502E501800E3500E082F10E0F801EA58A6
:1031A000FB4F508283954AE0042D0E94083F405D0A
:1031B000082F10E0F801EA58FB4F408383952FE277
:1031C000082F10E0F801EA58FB4F20838395A030C8
:1031D00001E0B007C9F422E3082F10E0F801EA5833
:1031E000FB4F2083839525E3082F10E0F801EA5870
:1031F000FB4F2083839526E3082F10E0F801EA585F
:10320000FB4F208383953DC0A03001E0B00788F5D7
:103210005524A43670F044E60A2F0E94083F502E31
:10322000252D205D082F10E0F801EA58FB4F208380
:103230008395AA3088F04AE00A2F0E94083F1AE0DE
:10324000519E502E501800E3500E082F10E0F80148
:10325000EA58FB4F508283954AE00A2F0E94083FAC
:10326000405D082F10E0F801EA58FB4F408383953A
:1032700008C02FE3082F10E0F801EA58FB4F208325
:10328000839529E2082F10E0F801EA58FB4F2083CC
:10329000082F091B902F0AC08395282F822F00E248
:1032A00030E0F901EA58FB4F008393959830A0F382
:1032B000E6E00C94AB3FBD01D90110E015C0202F12
:1032C00030E0F901EA58FB4F2081205D2083123065
:1032D00048F40395402F042F2EE250E0FA01EA58FB
:1032E000FB4F208303951395133008F049C0112339
:1032F00019F4FD01258507C0113019F4FD0126855B
:1033000002C0FD012785322F32953F70402F50E0DB
:10331000FA01EA58FB4F3083402F50E0FA01EA5897
:10332000FB4F30813A3048F0402F50E0FA01EA5824
:10333000FB4F3081395C308308C0402F50E0FA01E8
:10334000EA58FB4F3081305D30830395402F042FC6
:103350002F7050E0FA01EA58FB4F2083202F30E015
:10336000F901EA58FB4F20812A3008F4A8CF202F1A
:1033700030E0F901EA58FB4F2081295C2083A7CF78
:10338000DB0108950E94A33F802F00E00BC08395CE
:10339000482F842F1EE250E0FA01EA58FB4F1083B9
:1033A00083950395033008F056C0002319F4F90102
:1033B000138507C0013019F4F901128502C0F90123
:1033C0001185412F42954F7090E0FC01EA58FB4F68
:1033D000408390E0FC01EA58FB4F40814A3040F0C6
:1033E00090E0FC01EA58FB4F4081495C408307C0F4
:1033F00090E0FC01EA58FB4F4081405D408383959B
:10340000482F842F1F7050E0FA01EA58FB4F1083B9
:1034100090E0FC01EA58FB4F10811A3040F090E038
:10342000FC01EA58FB4F1081195C108307C090E043
:10343000FC01EA58FB4F1081105D1083023008F048
:10344000A6CF8395482F842F1AE350E0FA01EA585B
:10345000FB4F1083A5CFF901A781B0E0F9011085DA
:1034600000E0A00FB11FA83E03E0B00760F000E04D
:10347000033080F51FE390E0FC01EA58FB4F108316
:1034800083950395F5CF4AE050E08D010E94243FDB
:10349000405D90E0FC01EA58FB4F42834AE050E077
:1034A0008D010E94243FD8014AE050E08D010E9426
:1034B000243F405D90E0FC01EA58FB4F41834AE025
:1034C00050E08D010E94243F005D90E0FC01EA582D
:1034D000FB4F0083E4E00C94AD3F01E004BB00E04F
:1034E00001C003950A30E8F303B312E014BB0E3FAA
:1034F000E1F400E001C003950A30E8F303B314E0FF
:1035000014BB0D3F91F400E001C003950A30E8F3CD
:1035100003B318E014BB0B3F41F400E001C0039576
:103520000A30E8F303B310E014BBE4E6F0E0FBBFBD
:10353000FEE00C94593F03E4089503E2089500E38C
:1035400008950DE4089504E4089509E3089508E357
:10355000089507E3089505E5089506E3089505E352
:10356000089504E3089505E4089503E3089502E34C
:10357000089501E3089500EF089500E02EEF3DE087
:10358000402F50E0440F551FFA01E05BFA4F2383B0
:10359000348321E010E0F801E05BFA4F278320E05C
:1035A00010E0F801E05BFA4F208303951091D201FF
:1035B0001730C1F426E23EE0402F50E0440F551F83
:1035C000FA01E05BFA4F2383348329E010E0F8012D
:1035D000E05BFA4F278322E010E0F801E05BFA4F4E
:1035E000208317C022E13EE0402F50E0440F551FDA
:1035F000FA01E05BFA4F2383348328E010E0F801FE
:10360000E05BFA4F278321E010E0F801E05BFA4F1E
:1036100020830395009352050895BA93AA9331E04D
:103620004AE257E022E011E004E00E9403182FE094
:1036300016E004E00E94741731E00091180510E0D4
:10364000000F111FACE1B5E0ED91FC91E00FF11F0F
:103650004591549122E017E004E00E940318009184
:10366000C904035409F10A9591F00A9591F10051AA
:1036700009F09FC000911B0510911805011708F073
:1036800098C0E8E1F5E000810A95008392C00091BE
:10369000180510911A05011708F08BC0E8E1F5E054
:1036A00000810395008385C000E0009304050E941B
:1036B0005E1701E00093CD0400E00093180500E0E0
:1036C00000931A0500E000931B0500E000931E051F
:1036D00070C0009110010D3049F4009119050230BD
:1036E00029F4E8E1F5E000810395008300911001E1
:1036F000033181F400911905033061F4009118053C
:10370000002311F001E001C000E000938D0200E011
:1037100000931E0500911001063141F40091190536
:1037200000931E0500911F050093180500911001DC
:103730000B3079F500911905023049F40091180514
:10374000013028F0E8E1F5E0008103950083009165
:103750001905013021F400911805023040F4009160
:1037600019050230B1F400911805013090F0009174
:10377000D301043040F00091D501043020F00091D5
:10378000D101043030F401E310E0EAEEF4E000830C
:1037900011830091190500931E05009118050093EF
:1037A0001F050E945E1701E00093CD0400E0009326
:1037B000040500EF0093C904A991B99108950E94EE
:1037C000A43F80910005A82FA95F9091C9042FE024
:1037D00016E004E00E94741731E04AE257E022E06C
:1037E00011E004E00E94031831E042E151E022E0E0
:1037F00017E004E00E94121700910005083098F4C9
:1038000000911205013061F430E040E55EE022E015
:103810001A2F04E00E94031800E00093120503C071
:1038200001E000931205903F09F4D6C2953409F0E7
:10383000F0C000911005013009F08AC01091180104
:103840000AE0109F002D10911901010F00512091E5
:1038500015011AE0219F102D20911601120F105111
:10386000309112012AE0329F802D20911301820FA6
:103870008051209118012295207F30911901230F4A
:103880002053209300011C3058F4209115012295FB
:10389000207F30911601230F20532093010104C093
:1038A00011E021E020930101125049F0125071F112
:1038B000125061F1135051F1125041F138C044E0FF
:1038C0000E94083F442389F08D3158F40091120181
:1038D0000295007F10911301010F00530093020124
:1038E00088C001E00093020184C08E3158F4009139
:1038F00012010295007F10911301010F00530093F4
:10390000020177C001E00093020173C08F3158F4C7
:10391000009112010295007F10911301010F0053D5
:103920000093020166C001E00093020162C0803290
:1039300058F4009112010295007F10911301010FBC
:1039400000530093020155C001E00093020151C0F1
:1039500000911005023009F04CC0109112010AE0EC
:10396000109F102D00911301100F1051209115017F
:103970000AE0209F002D20911601020F0051309186
:1039800018012AE0329F20911901020E20EF020E49
:10399000183158F4109112011295107F20911301E3
:1039A000120F10531093030103C010E01093030192
:1039B0000C3358F4009115010295007F1091160107
:1039C000010F00530093040103C000E000930401C1
:1039D0000CE3001658F4009118010295007F109135
:1039E0001901010F00530093050103C000E000938B
:1039F000050101E00093D10400E00093040580E09C
:103A000024E111E004E00E94741701E00093CD046A
:103A1000DEC1933479F400E00093040500E00093E4
:103A2000000524E111E004E00E94741701E0009316
:103A3000CD04CDC1953551F4873008F4839582309B
:103A400019F0853009F0C3C18395C1C1943451F494
:103A5000813008F08A95823019F0853009F0B7C1BD
:103A60008A95B5C1903308F4B2C19A3308F0AFC15A
:103A700000911005013009F0EBC0082F005081F0D3
:103A80000A9509F448C0025009F473C00A9509F474
:103A9000A1C0025009F4CCC00A9509F4D1C092C16A
:103AA0009033B1F4082F10E0F801EE5EFE4F9083E2
:103AB000839590E0FC01EE5EFE4F0081003309F03B
:103AC00081C101E390E0FC01EE5EFE4F00837AC10C
:103AD000933340F4082F10E0F801EE5EFE4F908320
:103AE000839570C1933309F06DC1082F10E0F80180
:103AF000EE5EFE4F9083839590E0FC01EE5EFE4FFC
:103B00000081023308F45EC100E390E0FC01EE5E48
:103B1000FE4F008357C1903389F4082F10E0F8015D
:103B2000EF5EFE4F0081013308F44CC1082F10E016
:103B3000F801EE5EFE4F9083839544C1913341F4CA
:103B4000082F10E0F801EE5EFE4F908383953AC196
:103B5000082F10E0F801EF5EFE4F0081033308F0FC
:103B600031C1082F10E0F801EE5EFE4F908383957F
:103B700029C19033B1F4082F10E0F801EE5EFE4F3A
:103B80009083839590E0FC01EE5EFE4F0081003350
:103B900009F018C101E390E0FC01EE5EFE4F0083E6
:103BA00011C1913309F00EC1082F10E0F801EE5E4B
:103BB000FE4F9083839590E0FC01EE5EFE4F008106
:103BC000033308F4FFC000E390E0FC01EE5EFE4F1B
:103BD0000083F8C0903389F4082F10E0F801EF5EFD
:103BE000FE4F0081013308F4EDC0082F10E0F8010A
:103BF000EE5EFE4F90838395E5C0082F10E0F8013C
:103C0000EF5EFE4F0081013359F4933308F0DAC0C0
:103C1000082F10E0F801EE5EFE4F90838395D2C02E
:103C2000082F10E0F801EE5EFE4F90838395CAC026
:103C3000082F10E0F801EE5EFE4F90838395C2C01E
:103C4000082F10E0F801EE5EFE4F90838395BAC016
:103C500000911005023009F0B5C0082F005081F026
:103C60000A9509F448C0025009F473C00A9509F492
:103C700091C0025009F46DC00A9509F48BC0A2C02E
:103C80009033B1F4082F10E0F801EE5EFE4F908300
:103C9000839590E0FC01EE5EFE4F0081003309F059
:103CA00091C001E390E0FC01EE5EFE4F00838AC00C
:103CB000923340F4082F10E0F801EE5EFE4F90833F
:103CC000839580C0923309F07DC0082F10E0F80181
:103CD000EE5EFE4F9083839590E0FC01EE5EFE4F1A
:103CE0000081043308F46EC000E390E0FC01EE5E56
:103CF000FE4F008367C0903389F4082F10E0F8016D
:103D0000EF5EFE4F0081013308F45CC0082F10E025
:103D1000F801EE5EFE4F9083839554C0943340F4D7
:103D2000082F10E0F801EE5EFE4F908383954AC0A5
:103D3000082F10E0F801EF5EFE4F0081023308F01B
:103D400041C0082F10E0F801EE5EFE4F908383958E
:103D500039C09033A9F4082F10E0F801EE5EFE4F51
:103D60009083839590E0FC01EE5EFE4F008100336E
:103D700049F501E390E0FC01EE5EFE4F008322C0B6
:103D8000963300F5082F10E0F801EE5EFE4F9083A9
:103D9000839518C0903379F4082F10E0F801EF5E96
:103DA000FE4F0081013370F0082F10E0F801EE5E45
:103DB000FE4F908307C0082F10E0F801EE5EFE4F23
:103DC00090838395823011F0853009F48395809338
:103DD000000500EF0093C904E3E00C94AE3F9A9312
:103DE0008A932FE016E004E00E94741700911001FE
:103DF0000530C9F400918B02023041F431E040E318
:103E000057E022E011E004E00E94031800918B02C9
:103E1000013011F531E048E357E022E011E004E021
:103E20000E94031819C0009110010B3069F4009131
:103E30008B02023049F431E040E357E022E011E028
:103E400004E00E94031808C031E04AE257E022E093
:103E500011E004E00E940318009100051091010593
:103E60000117E8F500911005053A61F00091100581
:103E7000043941F000911005043A21F00091100539
:103E8000063AB9F40091C904003321F00091C90445
:103E9000013329F52091C9040091000510E0F801D3
:103EA000E950FB4F2083E0E0F5E0008103950083BB
:103EB00016C00091C904003390F00091C9040A3380
:103EC00070F42091C9040091000510E0F801E95058
:103ED000FB4F2083E0E0F5E0008103950083009133
:103EE000C9040332B9F4009110010D3098F000912B
:103EF0001001013178F4E2EFF4E0008103950083D2
:103F00000091F204023018F000E00093F20401E0A6
:103F10000093CD040091000510910105011708F0F0
:103F20004AC000911205013009F042C00091100111
:103F30000530E9F400918B02023051F430E040E5A5
:103F40005EE022E010910005175F04E00E94031874
:103F500000918B02013041F530E040E55EE022E067
:103F600010910005115F04E00E9403181DC000912C
:103F700010010B3079F400918B02023059F430E0DB
:103F800040E55EE022E010910005175F04E00E942A
:103F900003180AC030E040E55EE022E01091000521
:103FA000195F04E00E94031800E00093120503C0AB
:103FB00001E0009312050091C904043489F40091D2
:103FC0000005013068F0E0E0F5E000810A9500832B
:103FD00000E02091000530E0F901E950FB4F00833B
:103FE000009110010530C9F400918B02023041F4B8
:103FF00031E047EF54E022E019E004E00E9412179C
:1040000000918B02013011F531E047EF54E022E0DE
:104010001FE004E00E94121719C0009110010B303C
:1040200069F400918B02023049F431E047EF54E02B
:1040300022E019E004E00E94121708C031E047EFC7
:1040400054E022E017E004E00E9412170091C90436
:10405000033409F068C000918B02013019F402E0CA
:1040600000938B0200913B05002339F00091D101B0
:10407000023019F400E00093ED0400913C0501309A
:1040800058F00091D301013021F00091D3010230AA
:1040900019F400E00093ED0400913D05013038F083
:1040A0000091D501023019F400E00093ED04009175
:1040B000ED04013019F401E00093D40400E0009312
:1040C00004050E945E1701E00093CD0400E0009318
:1040D00000050DC000E02091000530E0F901E95035
:1040E000FB4F0083E0E0F5E0008103950083009141
:1040F0000005083078F300E00093F20400E000933C
:10410000000500E00093010500E00093050500E0D4
:1041100010E0E7E0F5E00083118300E010E0E9E063
:10412000F5E00083118300911005053A69F00091D4
:104130001005043949F000911005043A29F0009166
:104140001005063A09F06BC00091000510910105B9
:10415000011709F064C00091C904053409F05FC07B
:1041600000E0009304050E945E1701E00093CD0477
:1041700000E010E0EDE0F5E00083118300E0009343
:104180001F0520E05091010512C05A9530E0F90159
:10419000E950FB4F808190E0C0978C01452F0E9431
:1041A0001E3FEFE1F5E01081100F10832395009181
:1041B0000105201750F301E000931105009110054F
:1041C00000931E0500E0009300050DC000E0209163
:1041D000000530E0F901E950FB4F0083E0E0F5E035
:1041E00000810395008300910005083078F300E01A
:1041F0000093000500E00093010500E00093050531
:1042000000E00093100500E010E0E7E0F5E0008337
:10421000118300E010E0E9E0F5E0008311830091F4
:10422000C904053409F002C200911001023009F4FA
:10423000FDC100911001053009F4F8C10091100191
:104240000B3009F4F3C100911005053A09F4EEC1F1
:1042500000911005053109F4E9C1009110050439F8
:1042600009F4E4C100911005043A09F4DFC100919A
:104270001005063A09F4DAC100E0009304050E9433
:104280005E1701E00093CD0400910005015051F04C
:104290000A9509F443C00A9509F48AC00A9509F4FD
:1042A000D2C022C10091F70410E0005310404091A9
:1042B000060550E00E943C3FEBE0F5E000831183EF
:1042C0000091060510E0EBE0F5E0408151810E948D
:1042D000163FEDE0F5E0008311830091F7040053F1
:1042E00000930F05EDE0F5E000811181E9E0F5E0D4
:1042F000208131810217130708F4F6C0E7E0F5E0EA
:1043000000811181EDE0F5E0208131810217130772
:1043100008F4EAC001E000931105E6C04091F704FB
:1043200050E00AE010E00E94163F2091F80430E0CF
:10433000020F131F005112404091060550E00E94E9
:104340003C3FEBE0F5E0008311830091060510E0AF
:10435000EBE0F5E0408151810E94163FEDE0F5E091
:10436000008311830091F7040295007F1091F804F7
:10437000010F005300930F05EDE0F5E0008111817E
:10438000E9E0F5E0208131810217130708F4ACC0A1
:10439000E7E0F5E000811181EDE0F5E02081318179
:1043A0000217130708F4A0C001E0009311059CC098
:1043B0004091F70450E004E610E00E94163FC80167
:1043C0004091F80450E00AE010E00E94163F800F90
:1043D000911F0091F90410E0800F911F805D9441BE
:1043E0008C014091060550E00E943C3FEBE0F5E077
:1043F000008311830091060510E0EBE0F5E04081B9
:1044000051810E94163FEDE0F5E000831183EDE05D
:10441000F5E000811181E9E0F5E0208131810217AA
:10442000130708F461C0E7E0F5E000811181EDE0D9
:10443000F5E0208131810217130708F455C001E02F
:104440000093110551C04091F70450E008EE13E0CD
:104450000E94163FC8014091F80450E004E610E0C5
:104460000E94163F800F911F4091F90450E00AE02E
:1044700010E00E94163F800F911F0091FA0410E097
:10448000800F911F8055904D8C014091060550E0A2
:104490000E943C3FEBE0F5E00083118300910605AC
:1044A00010E0EBE0F5E0408151810E94163FEDE025
:1044B000F5E000831183EDE0F5E000811181E9E092
:1044C000F5E0208131810217130770F0E7E0F5E095
:1044D00000811181EDE0F5E02081318102171307A1
:1044E00018F001E00093110500911105013009F069
:1044F00070C000911005015909F44DC00A9509F4E6
:1045000054C00A9509F451C00E5009F444C00A95EC
:1045100009F441C00450F9F10F5560F0035058F010
:10452000005040F0035088F00F50D1F00A9509F187
:104530000A9541F148C00091100500931E05EDE079
:10454000F5E0008100931F053EC000911005055065
:1045500000931E05EDE0F5E0008100931F0533C0D8
:1045600004E000931E05EDE0F5E0008100931F05D7
:104570002AC006E000931E05EDE0F5E000810093FF
:104580001F0521C009E000931E05EDE0F5E0008164
:1045900000931F0518C00091100500931E05EDE063
:1045A000F5E0008100931F050EC0009110050093F7
:1045B0001E054AE050E0EDE0F5E0008111810E9427
:1045C000243F00931F0500E00093100500E00093D6
:1045D000110500E0009300050DC000E020910005EA
:1045E00030E0F901E950FB4F0083E0E0F5E00081A5
:1045F0000395008300910005083078F300E00093F4
:10460000F20400E00093000500E00093010500E0E3
:104610000093050500E010E0E7E0F5E0008311837A
:1046200000E010E0E9E0F5E0008311830091C904A7
:10463000053409F0FDC000910005043009F0F8C010
:1046400000918B02013029F000918B02023009F0B9
:10465000EFC000911001053029F0009110010B30DE
:1046600009F0E6C000E0009304050E945E1701E037
:104670000093CD0400918B02023009F089C000E064
:104680000093000500E000938B021AC000918B029A
:1046900010E0F801E950FB4F208100918B0210E0FF
:1046A000F801ED5EFA4F0081201729F0E0E0F5E017
:1046B000008103950083EBE8F2E00081039500831D
:1046C00000918B02043010F300910005002329F1C2
:1046D00000E00093000500E000938B021AC00091F7
:1046E0008B0210E0F801E950FB4F208100918B0212
:1046F00010E0F801E15AF14F0491201729F0E0E0B1
:10470000F5E0008103950083EBE8F2E0008103957A
:10471000008300918B02043010F300910005002308
:1047200039F401E000938B0201E00093EC0456C0E1
:1047300002E000938B0200913B05002339F00091C9
:10474000D101023019F400E00093ED0400913C0522
:10475000013058F00091D301013021F00091D301D4
:10476000023019F400E00093ED0400913D050130A2
:1047700038F00091D501023019F400E00093ED0407
:104780000091ED04013051F501E00093D40426C0FE
:1047900000918B02013011F50091F704009313058D
:1047A0000091F804009314050091F9040093150595
:1047B0000091FA040093160501E00093680400E0FC
:1047C00010E0EEE6F4E00083118303E115E0EAE691
:1047D000F4E00083118302E000938B0200E0009379
:1047E00000050DC000E02091000530E0F901E9501E
:1047F000FB4F0083E0E0F5E000810395008300912A
:104800000005043078F300E00093000500E0009319
:10481000010500E00093050500E010E0E7E0F5E0A9
:104820000083118300E010E0E9E0F5E000831183EC
:1048300000EF0093C9040091D404013031F405E481
:104840000093C90400E00093D40400918B0201306E
:1048500039F4009110010B3019F405E40093C904F8
:1048600000918B02013071F400911001053051F478
:104870000091EC04013031F403E30093C90400E03B
:104880000093EC048991999108958A93802F05E112
:10489000009310010E945E1700E00093F30402E011
:1048A0000093F50481538093220500E010E0E1E2DB
:1048B000F5E0078310878991089504E000931001C3
:1048C0000E945E1700E00093F30403E00093F504F8
:1048D00001E00093F40400E00093370528E211E0C2
:1048E00002E00E94741700E010E0E1E2F5E00783C7
:1048F000108701E00093CD0408958A93802F8F3FA5
:1049000069F40FE300931F020FE3009320020FE30B
:10491000009321020FE30093220223C0843669F43E
:1049200001E300931F0200E30093200200E30093E1
:10493000210200E30093220214C000E300931F024F
:104940004AE0082F0E94083F005D009320024AE0E1
:10495000082F0E94083F405D4093210200E300932E
:104960002202899108950E94A33F00911001013015
:1049700009F08CC00091C904035209F47DC00F50A6
:1049800031F1025009F448C0025009F445C0025008
:1049900009F44DC00D5009F474C0085011F00C9486
:1049A000C52E0E945E1702E00093100101E0009303
:1049B000CD0401E000930D0100E00093F30402E058
:1049C0000093F40403E00093F5040C94C52E0091C9
:1049D0008C02023040F000918C02102F1A95109337
:1049E0008C02102F04C006E000938C02102F00915F
:1049F0008C020093CA0401E00093680405E010E013
:104A0000EEE6F4E0008311830AEC14E0EAE6F4E059
:104A1000008311830C94C52E00910F01013011F415
:104A200002E001C001E000930F010C94C52E00913B
:104A30008C02063040F400918C02102F13951093D5
:104A40008C02102F04C000E000938C02102F009104
:104A50008C020093CA0401E00093680405E010E0B2
:104A6000EEE6F4E0008311830AEC14E0EAE6F4E0F9
:104A7000008311830C94C52E02E00093F1040C9482
:104A8000C52E01E00093F1040C94C52E0091100195
:104A9000023009F0EBC00091C904015309F458C079
:104AA0000A9509F468C00A9509F46FC00A9509F4DB
:104AB0007FC00A9509F4B4C00A9509F4C4C00D502A
:104AC00041F00A9571F1095021F00850A9F00C94B9
:104AD000C52E0E945E1701E000930D0101E00093D6
:104AE000100100E00093F30400E00093F50401E0FE
:104AF0000093F4040C94C52E0091F304013010F4DB
:104B00000C94C52E0E945E17E3EFF4E000810A9535
:104B1000008301E00093CD0401E0009311010C94A7
:104B2000C52E0091F3041091F404011710F00C94B9
:104B3000C52E0E945E17E3EFF4E000810395008329
:104B400001E00093CD0401E0009311010C94C52E07
:104B50000E945E1701E00093CD0404E00093100171
:104B600000E00093F30401E00093F40403E00093F9
:104B7000F5040C94C52E0E945E1701E00093CD044D
:104B800003E0009310010C94C52E0E945E1701E013
:104B90000093CD0406E10093100100E00093F304BC
:104BA00000E00093F40403E00093F5040C94C52E98
:104BB0000E945E1701E00093CD0405E00093100110
:104BC00000E00093F30403E00093F50401E0009398
:104BD000F40400913C05013038F00091D301043019
:104BE00018F400E00093F40400913D05013038F022
:104BF0000091D501043018F400E00093F404009112
:104C00003B05002311F40C94C52E0091D101043012
:104C100010F00C94C52E00E00093F4040C94C52E03
:104C20000E945E1701E00093CD0406E0009310019E
:104C300000E00093F30401E00093F40403E0009328
:104C4000F5040C94C52E0E945E1701E00093CD047C
:104C500003E10093100100E00093F30404E00093EB
:104C6000F40401E00093F5040C94C52E00911001AA
:104C7000033009F073C00091C904015379F10A951A
:104C800009F44CC00151B9F00A5011F00C94C52E32
:104C90000E945E1701E000930D0101E000931001F6
:104CA00000E00093F30400E00093F50401E00093BA
:104CB000F4040C94C52E0E945E1702E000931001CC
:104CC00001E00093CD0400E00093F30402E00093C0
:104CD000F40403E00093F5040C94C52E03E0009364
:104CE00004050BE111E0E2E0F5E00083118301E04F
:104CF0000093100501E00093060500E0093010F074
:104D00000C94C52E10E0F801E55EFE4F208110E006
:104D1000F801EE5EFE4F20830395F0CF03E0009391
:104D2000040504E211E0E2E0F5E00083118302E013
:104D30000093100501E00093060500E0093010F033
:104D40000C94C52E10E0F801EC5DFE4F208110E0C0
:104D5000F801EE5EFE4F20830395F0CF0091100125
:104D6000043009F060C00091C9040153045008F4F4
:104D700056C00E50D1F00A95E9F1095021F00850C3
:104D800031F10C94C52E0E945E1701E000930D01D5
:104D900001E00093100100E00093F30400E00093B1
:104DA000F50401E00093F404F0C70E945E1702E0EE
:104DB0000093100101E00093CD0400E00093F304A0
:104DC00002E00093F40403E00093F504DEC70091D1
:104DD000F304013008F4D9C70E945E17E3EFF4E052
:104DE00000810A95008301E00093CD0401E0009367
:104DF0001101CBC70091F3041091F404011708F0DE
:104E0000C4C70E945E17E3EFF4E0008103950083BE
:104E100001E00093CD0401E000931101B6C70091B9
:104E2000C90433DDB2C700911001053009F0EFC0AD
:104E30000091C904015309F45EC00A9509F46DC0DC
:104E40000A9509F47CC00A9509F4C0C00F50C9F056
:104E50000A95E1F1095019F0085029F196C70E940E
:104E60005E1701E000930D0101E00093100100E0E6
:104E70000093F30400E00093F50401E00093F404D0
:104E800084C70E945E1702E00093100101E00093C6
:104E9000CD0400E00093F30402E00093F40403E087
:104EA0000093F50472C70091F304013008F46DC754
:104EB0000E945E17E3EFF4E000810A95008301E0B1
:104EC0000093CD0401E0009311015FC70091F3044A
:104ED0001091F404011708F058C70E945E17E3EF21
:104EE000F4E000810395008301E00093CD0401E02C
:104EF000009311014AC70E945E1701E00093CD04A0
:104F00000BE00093100100E00093F30400E0009335
:104F1000F40401E00093F50438C70E945E1701E035
:104F20000093CD040CE00093100100E00093F30423
:104F300001E00093F40403E00093F50426C7009118
:104F40008B020230F9F401E00093040504E00093C1
:104F5000010503E115E0E2E0F5E00083118300E0E4
:104F60000093050500E010E0E7E0F5E00083118321
:104F700000E010E0E9E0F5E00083118301E0009338
:104F8000060503C700918B02013009F0FEC601E05F
:104F90000093040504E00093010503E115E0E2E05D
:104FA000F5E00083118300E00093050500E010E0C8
:104FB000E7E0F5E00083118300E010E0E9E0F5E0D0
:104FC0000083118301E000930605DFC60091D30141
:104FD000043008F4DAC60091D501043008F4D5C6CF
:104FE0000091D101043008F4D0C60E945E1701E0A0
:104FF0000093CD0404E10093100100E00093F3045A
:1050000003E00093F50401E00093F404BEC60091B0
:105010001001063109F091C00091C904035209F44E
:10502000B4C60D5009F4B1C60351E1F00A95D1F1AF
:105030000A9509F4AAC6085019F0085029F151C080
:105040000E945E1701E000930D0101E00093100142
:1050500000E00093F30400E00093F50401E0009306
:10506000F40493C60E945E1702E00093100101E071
:105070000093CD0400E00093F30402E00093F404F5
:1050800003E00093F50481C60091F304013008F4B5
:105090007CC6E3EFF4E000810A95008301E0009311
:1050A000CD0473C60091F50410915205011708F064
:1050B0006CC64091F30450E02091520530E000911D
:1050C000F50410E0201B310B421753070CF05DC6AE
:1050D000E3EFF4E000810395008301E00093CD0449
:1050E00054C60091C904015310915205011708F0EC
:1050F0004CC612E71093190510E0F801E05BFA4F77
:10510000178110931F0510E0F801E05BFA4F008152
:1051100010E0E9E0F5E000831183E7E0F5E00083CB
:105120001183009318050AE41EE0ECE1F5E000832A
:10513000118302E00093040528C60091C9040352BC
:1051400009F4FEC10E50D9F00A95B9F10A9509F497
:1051500052C00A9509F46DC0025009F49AC00D506E
:1051600009F4C1C00A9509F494C10A9509F402C270
:10517000085009F4A6C0085009F43AC105C60091C8
:105180001001065019F0065009F0FFC50E945E1785
:1051900001E00093CD04E0E1F1E00081039500839C
:1051A00000E00093F30406E00093F40401E00093B0
:1051B000F50400E00093F204E8C5009110010650E8
:1051C00019F0065009F0E1C50E945E1701E0009356
:1051D000CD0400E00093F30401E00093F50401E046
:1051E0000093110102E00093F404E0E1F1E000819A
:1051F0000E5F0083CAC500911001065019F00650D9
:1052000009F0C3C50E945E1701E00093CD0400E0E1
:105210000093F30401E00093F50401E00093110111
:1052200003E00093F404E0E1F1E000810D5F00830E
:10523000ACC500911001065039F00250C9F004507D
:1052400019F00250A9F0A1C50E945E1701E0009379
:10525000CD0400E00093F30401E00093F504E0E1E5
:10526000F1E000810C5F008305E00093F4048DC53C
:105270000091F304013009F088C50091110102305A
:1052800020F0009111010A9501C004E00093110182
:105290007CC500911001085019F0065009F075C541
:1052A0000091F304013009F070C500911101043040
:1052B00020F400911101039501C001E00093110158
:1052C00064C50E945E1701E000930D0101E00093A8
:1052D000100100E00093F30400E00093F50401E006
:1052E0000093F40452C5009110010650A9F001503A
:1052F00090F0045018F10050B1F10A95A1F101505D
:1053000050F0045008F457C0025031F00A9559F19A
:105310000A9509F46BC039C50E945E1702E000933C
:10532000100101E00093CD0400E00093F30402E0DB
:105330000093F40403E00093F50427C50E945E1770
:1053400006E00093100101E00093CD0400E000931B
:10535000F30401E00093110101E00093F40403E081
:105360000093F50412C50E945E1705E0009310013A
:1053700001E00093CD0400E00093F30403E0009308
:10538000F50401E00093F4040091D301043018F413
:1053900000E00093F4040091D501043018F400E01B
:1053A0000093F4040091D101043008F0EEC400E051
:1053B0000093F404EAC40E945E1701E00093CD0458
:1053C0000CE00093100100E00093F30400E0009370
:1053D000F20401E00093110101E00093F40403E002
:1053E0000093F50400E00093F204CFC466DACDC464
:1053F0000091100106500550A0F00A9591F00A9511
:1054000069F00A9571F00A9561F00A9539F0035038
:1054100041F00A9531F00A95B9F0B7C400E0009365
:10542000F2040091F304013008F4AFC4E3EFF4E0B8
:1054300000810A95008301E00093CD040E945E176D
:1054400001E000931101A1C4A8E2B5E0ED91FC9147
:1054500032970CF49AC40091F304013030F0E3EF7A
:10546000F4E000810A95008306C0E1E2F5E00781DF
:105470000A950093F30400E00093370528E211E059
:1054800002E00E94741728E01DE004E00E947417F7
:105490007CC40091100106500550A0F00A9591F0CF
:1054A0000A9569F00A9571F00A9561F00A9539F04C
:1054B000035041F00A9531F00A95C9F066C400E046
:1054C0000093F2040091F3041091F404011708F022
:1054D0005CC4E3EFF4E000810395008301E00093F6
:1054E000CD040E945E1701E0009311014EC4A8E2B2
:1054F000B5E0ED91FC9132970CF447C40091F304B0
:1055000010E0E1E2F5E0878190850197081719071F
:1055100034F4E3EFF4E000810395008303C000E07E
:105520000093F30400E00093370528E211E002E065
:105530000E94741728E01DE004E00E94741725C43F
:10554000009110010D3008F420C4009110010131C8
:1055500008F01BC4E2EFF4E00081039500830091A2
:10556000F204023018F000E00093F20401E000932E
:10557000CD040BC4009110010B5099F0025009F4B6
:10558000D9C00A9509F4B7C10A9509F421C20A9550
:1055900009F4ACC2035009F49CC30A9509F4C0C3D2
:1055A000F4C300918B02023031F50091ED04002329
:1055B00011F501E00093040504E00093010503E107
:1055C00015E0E2E0F5E00083118300E000930505BB
:1055D00000E010E0E7E0F5E00083118300E010E078
:1055E000E9E0F5E00083118301E00093060501E0A6
:1055F0000093ED04CAC300918B02013009F052C040
:1056000000E0009340050091D101023021F00091AB
:10561000D1010E3419F401E0009340050091D3014B
:10562000023041F00091D301013021F00091D3010B
:105630000E3419F401E0009340050091D5010230C9
:1056400021F00091D5010E3419F401E000934005DA
:1056500002E00093040501E00093190500E00093C7
:10566000180500E000931B0502E000938B020091F7
:105670004005002351F001E000931A0503EA15E00C
:10568000ECE1F5E00083118309C003E000931A0503
:105690000FEA15E0ECE1F5E00083118300E00093F0
:1056A000ED0473C300E0009340050091D101023086
:1056B00039F00091D1010E3419F001E0009340055A
:1056C0000091D301023059F00091D301013039F03B
:1056D0000091D3010E3419F001E0009340050091D0
:1056E000D501023039F00091D5010E3419F001E0F6
:1056F00000934005009140050023C1F002E00093B3
:10570000040502E00093190500E00093180500E08D
:1057100000931B0507EA15E0ECE1F5E00083118337
:1057200002E000938B0202E000931A0500E0009370
:10573000ED042BC30091D101002309F026C3009191
:10574000F304005089F00A9529F10A95C9F10A95E8
:1057500009F455C00A9509F471C00A9509F48DC081
:105760000A9509F4A9C011C302E00093040501E001
:105770000093190500E00093180507E000931A054F
:1057800000E000931B0500EF14E0ECE1F5E000837E
:105790001183FBC202E00093040502E000931905A7
:1057A00000E00093180501E000931A0500E0009363
:1057B0001B0503E215E0ECE1F5E000831183E5C28F
:1057C00001E00093040502E00093010500E000936E
:1057D000050503E610E0E7E0F5E00083118300E053
:1057E00010E0E9E0F5E00083118308E00093100584
:1057F00001E00093060501E00093EE04C6C201E05B
:105800000093040502E00093010500E00093050504
:1058100002E110E0E7E0F5E00083118300E010E032
:10582000E9E0F5E00083118309E00093100501E051
:105830000093060501E00093EE04A7C201E0009387
:10584000040502E00093010500E00093050506E36E
:1058500010E0E7E0F5E00083118300E010E0E9E00C
:10586000F5E0008311830AE00093100502E0009345
:10587000060501E00093EE0488C201E000930405F0
:1058800002E00093010500E00093050504E110E04B
:10589000E7E0F5E00083118300E010E0E9E0F5E0E7
:1058A000008311830BE10093100501E000930605CE
:1058B00001E00093EE0469C201E00093040502E0F8
:1058C0000093010500E00093050504E110E0E7E026
:1058D000F5E00083118300E010E0E9E0F5E00083EB
:1058E00011830CE10093100501E00093060501E02F
:1058F0000093EE044AC20091D101002309F045C291
:105900000091F304005031F00A9519F10A9509F459
:1059100040C03BC201E00093040502E00093010592
:1059200000E0009305050AE010E0E7E0F5E0008301
:10593000118300E010E0E9E0F5E00083118301E964
:105940000093100501E00093060501E00093EE04CA
:105950001CC201E00093040504E00093010500E08F
:105960000093050508EE13E0E7E0F5E000831183FE
:1059700000E010E0E9E0F5E00083118303E9009323
:10598000100502E300930605009111010093EE0457
:10599000FCC101E00093040504E00093010500E070
:1059A0000093050500E010E0E7E0F5E000831183D7
:1059B00000E010E0E9E0F5E00083118304E90093E2
:1059C000100501E00093060501E00093EE04DDC13F
:1059D0000091D101002309F0D8C10091F3040050D7
:1059E00049F00A9531F10A9509F442C00A9509F483
:1059F0005EC0CBC101E00093040502E00093010505
:105A000000E0009305050AE010E0E7E0F5E0008320
:105A1000118300E010E0E9E0F5E00083118301EA82
:105A20000093100501E00093060501E00093EE04E9
:105A3000ACC101E00093040503E00093010500E020
:105A40000093050504E610E0E7E0F5E0008311832C
:105A500004E110E0E9E0F5E00083118302EA00933D
:105A6000100501E00093060501E00093EE048DC1EE
:105A700001E00093040504E00093010500E00093B9
:105A8000050500E010E0E7E0F5E00083118300E0A9
:105A900010E0E9E0F5E00083118305EA00931005CA
:105AA00001E00093060501E00093EE046EC101E001
:105AB0000093040504E00093010500E00093050550
:105AC00000E010E0E7E0F5E00083118300E010E083
:105AD000E9E0F5E00083118304EA0093100501E09A
