:020000020000FC
:100000000C94024018951895189518951895189500
:100010001895189518951895189518951895189578
:10002000189518950C94C11618951895189518954B
:1000300018951895189518950C945430189518958E
:100040000C946214189518950C94BB130C942C14F2
:100050001895189518951895189518951895189538
:100060001895189518951895189518951895189528
:1000700018951895189518950C94C6150C9421167A
:10008000189518951895189518951895303F3002C1
:10009000300338010C0101200201000041A042A1FF
:1000A000E045A3A4A5A64BA74D484FA8504354A98B
:1000B000AA58E1ABACE2ADAE62AFB0B161B2B3B4DD
:1000C000E365B6B7B8B9BABBBCBD6FBE7063BF79E4
:1000D000E478E5C0C1E6C2C3C4C5C6C7CDE5F22019
:1000E000F1E2FFE7E820F120C1D1CF20202020203D
:1000F000002020C8EDE8F6E8E0EBE8E7E0F6E8FFEE
:10010000202020202000312EC6F3F0EDE0EB2E0061
:10011000322EC4E0F2E02FE2F0E5ECFF2E00332EA9
:10012000D3EFF0E0E2EBE5EDE8E52E00342ED3F17D
:10013000F2E0EDEEE2E8F2FC2E00352ECFF0EEF12B
:10014000ECEEF2F020EFE0F0E0EC2E000601100102
:100150001E012C013A01312E20C4E0F2E02E2020B5
:100160002020202020202020202000322E20C2F01D
:10017000E5ECFF2E20202020202020202020200021
:10018000312ED0E5E6E8EC2E00322ECFE0F0E0ECA8
:10019000E5F2F0FB2E00332ECFE0F0EEEBFC2E006C
:1001A000342ED2E5F1F22E00800189019601A001E2
:1001B0002EC7E0F9E8F2E02E002ECFF0E8E5ECEDF6
:1001C000E8EA2E002ECFE5F0E5E4E0F2F7E8EA2ECB
:1001D000002ECEE1F9E8E52E00B001B901C401D14D
:1001E00001D2E8EF20E7E0F9E8F2FB202020202010
:1001F000202020202000D2E8EF20EBE8EDE8E820E6
:100200002020202020202020202000C4EEEF2E20BF
:10021000E2F0E5ECFF20E1E5E720ECE0ED2E200048
:10022000CAEEECEF2EE7E0E4E5F0E6EAE820E220B3
:10023000EBE8ED2E00CFE5F0E5EAF0FBF2E8E52093
:10024000E8ECEFF3EBFCF1EEE200C7E0E3F02EF7B1
:10025000F3E2F1F2E2E8F22E20D0C720202000CF16
:10026000EEF0EEE320CFD0C5C4D3CFD020EFEE2008
:10027000D0C72000E101F6010B02200235024A023C
:100280005F02F1EFE8F1EEEA00F1EFE8F1EEEA00EB
:10029000302E2E393900302E2E313800302E2E35AA
:1002A0003400302E2E323000302E2E3230008202BA
:1002B0008902900296029C02A202A802C2F0E5EC1A
:1002C000FF20E2EAEBFEF7E5EDE8FF20202020200A
:1002D00000C7E0E4E5F0E6EAE020EDE020E2FBEA3A
:1002E000EB2E203FEA00C1EBEEEA2E20EAEEECE036
:1002F000EDE4FB2020342E2E312000BC02D102E69A
:1003000002302E2E313000302E2E3130303000EDC4
:10031000E5F200010307030F03C2F0E5ECFF20E262
:10032000EAEBFEF7E5EDE8FF202020202000C4EBFB
:10033000E8F2E5EBFCEDEEF1F2FC20EAEEECE0EDAC
:10034000E4FB00C4EBE8F22E20EAEEECE0EDE4FB87
:100350002020342E2E312000C1EBEEEA2E20EAEED2
:10036000ECE0EDE4FB2020342E2E31200019032E8A
:100370000343035803302E2E31300032302E2E31FD
:100380003030000075037B0383038303D3E4E5F07F
:10039000E6E0EDE8E520F0E5EBE520CFD0CC00D3BA
:1003A000E4E5F0E6E0EDE8E520F0E5EBE520CFD090
:1003B000C400C2F0E5ECFF20EFE5F0E5E7E0EFF385
:1003C000F1EAE000CAEEEDF2F0EEEBFC20E2FBF524
:1003D0002EF1E8E3EDE0EBE000CFEEF0EEE320CF2E
:1003E000D0C5C4D3CFD020EFEE20CAD72000D3ECA5
:1003F000E5ED2EF3F1E8EBE5EDE8FF203120EAE052
:10040000ED2E008C039F03B203C403D903EE03C790
:10041000C0D900CFD0CC00CFCC3200CFD0C400C2E6
:10042000FBE2E5E42000C3EEF2EEE22000C2E2E5EA
:10043000E4E5ED00D0E5F7FC202000D2E5F1F23153
:100440002000D2E5F1F2322000D2E5F1F2332000B3
:100450001F0426042D0434043B04420449043F3F96
:100460003F3F00202020C7E0EFF3F1EA20F2E5F162
:10047000F2E02020202020002020CFEEE4EEE6E471
:10048000E8F2E5203F20F1E5EA20202000C4D4C7AF
:100490002DCFF0CFE4202000C4D4C72DCFF0ECCC7A
:1004A000CA3100C4D4C72DCFF0ECCCCA3200C4D4BA
:1004B000C72D4C363020202000CDC72DCFF0CFE403
:1004C00020202000CDC72DCFF0EC2DCCCA2000CFAE
:1004D000CFC72DCFF0CFE4202000CFCFC72DCFF056
:1004E000EC2DCCCA00EEF8E8E1EAE0202020200064
:1004F0008D049804A304AE04B904C404CF04DA0440
:10050000E5043220EAEEEDF6E5E2E0FF003320EA12
:10051000EEEDF6E5E2E0FF00EEF8E8E1EAE02020AB
:1005200020200002050D051805C7C0D93A00CFD01C
:10053000CC3A00CFCC323A00CFD0C43A003F3F3F54
:100540003F2020202000CDE5E8F1EFF0202000CF73
:10055000F0E5E4F3EFF02000C2FBE2E5E4E5ED2096
:1005600000C3EEF2EEE220202000C2E2E5E4E5ED79
:10057000202000D0E5F7FC2020202000D2E5F1F279
:100580003120202000D2E5F1F23220202000D2E5F7
:10059000F1F23320202000580561056A0573057CBF
:1005A00005850558056A0558057C0585058E05589D
:1005B000056A057C0585058E05C8F1F5EEE4ED2E8E
:1005C0002000CAEEEDF2F0EEEBFC00CFF3F1EA20F2
:1005D00020202000D0E0E1EEF2E0202000CDE5E890
:1005E000F1EFF02E2000CF2EEDE5E8F1EFF000CE98
:1005F000E6E8E4E0EDE8E500CDE0EB2EEFF3F1EA2C
:10060000003F307830383F202000CDE5F220D0C7C1
:10061000202000D0E5F7FC2020202000B905C205ED
:10062000CB05D405DD05E605EF05F80501060A064C
:100630001306C8F1F5EEE4ED2E2000CFD0CC20CA91
:10064000D7202000CFD0CC20CFC0202000CDE5F295
:1006500020CAD7202000CDE5E8F1EFF02E2000CF12
:100660002EEDE5E8F1EFF000CEE6E8E4E0EDE8E5B8
:1006700000C1CBCA20CACC2020003F307830383FA0
:100680002020003F307830393F202000D0E5F7FCB3
:10069000202020200032063B0644064D0656065F09
:1006A00006680671067A0683068C06C8F1F5EEE444
:1006B000ED2E2000CFD0C420CAD7202000CFD0C438
:1006C00020CFC0202000CDE5F220CAD7202000CDC9
:1006D000E5E8F1EFF02E2000CF2EEDE5E8F1EFF0A8
:1006E00000CEE6E8E4E0EDE8E5003F307830373F63
:1006F0002020003F307830383F202000D1E8F1F250
:10070000E5EC2E2000D0E5F7FC2020202000AB06F1
:10071000B406BD06C606CF06D806E106EA06F3060D
:10072000FC060507672D006C2D00C2E2EEE43A00DE
:10073000CFE0F0EEEBFC3A00CDEEE2FBE920EFE09B
:10074000F0EEEBFC3A00C7EDE0F7E5EDE8E53A2026
:10075000003F3F3F3F00E2FBEAEB2E00E2EAEB2ED8
:100760000056075C075107C4E8E0EFE0E7EEED3A1A
:100770002000E2EAEB2FE2FBEAEB00E2EAEB2FE2F9
:10078000FBEAEB00302E2E3500E2EAEB2FE2FBEA2B
:10079000EB00302E2E323200302E2E323200302E30
:1007A0002E31300072077B0784078907920798076C
:1007B0009E07CFF0EEF8E8E2EAE020502D555350C6
:1007C000202000CFF0EEF8E8E2EAE02041542D5579
:1007D00053502000CFF0EEF8E8E2EAE02044535016
:1007E0002D55535000C4EEEFEEEBED2E20EFE0F070
:1007F000E0ECE5F2F0FB00C2E8E420EFE0F0E0EC32
:10080000E5F2F0E000B207C307D407E507F707C534
:10081000F1F2FC00CDE5F200F1F2E0EDE4E0F0F2FF
:100820000048455800210818082020202020457243
:10083000726F7220202020202000D3F1F2E0EDEE34
:10084000E2E8F2E520F7E0F1FB2000CDE5E8F1EF8A
:10085000F02EF7F22E20464C41534800CDE5E8F14A
:10086000EFF02EE7E0EF2E464C41534800CDE5E88F
:10087000F1EFF02EF7F22E20504C49532000CDE539
:10088000E8F1EFF02EE7E0EF2E504C49532000CD79
:10089000E5E8F1EFF02EE7E0EF2E3252414D200077
:1008A000CDE5E8F1EFF02E445350203252414D2077
:1008B00000CDE5E8F1EFF02EF7F22E203252414D57
:1008C0002000D3F1F2E0EDEEE2E8F2E520F7E0F10E
:1008D000FB2000CDE8E7EAEEE520EDE0EFF02EE2C8
:1008E000FBF52E00C2FBF1EEEAEEE520EDE0EFF0C5
:1008F0002EE2FBF5004B085C086D087E088F082986
:100900000829082908A008B108C208D308E4082962
:100910000829082908CDE5F220E1EBEEEAE020C144
:10092000D1C720202000CDE5E8F1EFF02EE2E5F080
:10093000F12EC1D1C72000CDE5E8F1EFF02EEFE5B3
:10094000F0E5EAEB2E202000CDE5E8F1EFF02EE710
:10095000E0EF2E20C1D1C72000CDE5E8F1EFF02E69
:10096000E2F5EEE42ECFD3D1CA00CDE5E8F1EFF009
:100970002EE2F5EEE42ED1D2CECF00CDE5E8F1EFB8
:10098000F02EF6E5EFFC2EC2DBD52000CDE5E8F138
:10099000EFF02EE7E0EF2E20C2DBD52000CDE5F210
:1009A00020F1E8E3EDE0EBE020D0C72020001509BE
:1009B0002609370948092908290829082908590951
:1009C0006A0929087B0929088C099D092908CDE8AD
:1009D000E7EAE8E920F3F0EEE22E20D0C72000CDD0
:1009E000E5F220E1EBEEEAE020C1D1CA20202000B0
:1009F000CDE5E8F1EFF02EE2E5F0F12EC1D1CA200D
:100A000000CDE5E8F1EFF02EEDE5F220CAD7312078
:100A10002000CFF0E5E22EE4EB2DF1F2E82EEAEE35
:100A2000EC2E00CDE5E8F1EFF02EE7E0EF2E20C14F
:100A3000D1CA2000CDE5E8F1EFF02EE2FBEAEB2E83
:100A4000CAD1CA2000CDE5E8F1EFF02EE2EAEB2EA4
:100A500020CAD1CA2000CDE5E8F1EFF02EEAEEED94
:100A6000F2F02ECAD1CA00CFF0E5E4F3EFF02EED9C
:100A7000E5F220CAD7312000CFF0E8E5EC20E1EB29
:100A8000EEEA2E20CAEEEC2E00DF09F009010A1270
:100A90000A2908290829082908230A340A450A5678
:100AA0000A670A29082908780AD1EDE8E62E20F31A
:100AB000F0EEE2EDFF20CFD0CC00CDE5F220E1EB6F
:100AC000EEEAE020C1D1CA20202000CDE5E8F1EF18
:100AD000F02EE2E5F0F12EC1D1CA2000CDE5E8F11B
:100AE000EFF02EE2FBEAEB2ED2E5F1F200CDE5E8E5
:100AF000F1EFF02EE2EAEB2E20D2E5F1F200CDE5A7
:100B0000E8F1EFF02EE2F5EEE42ECAD1CA2000BAE9
:100B10000ACB0A29082908290829082908290829A7
:100B200008DC0AED0AFE0A2908290829082908C351
:100B3000F0313A00C3F0323A00C3F0F3EFEFE020B7
:100B40003100C3F0F3EFEFE0203200390B420BE24B
:100B5000FBEAEB00CAD73100CAD73200CAEEEC314B
:100B600000CAEEEC3200CAEEEC3300CAEEEC340000
:100B7000CAEEEC3500CAEEEC3600CAEEEC3700CA1D
:100B8000EEEC38004F0B540B580B5C0B610B660BF3
:100B90006B0B700B750B7A0B7F0BE2FBEAEB00D053
:100BA000C73100D0C732009A0B9F0BA30BD2E5F1DF
:100BB000F2203100D2E5F1F2203200AD0BB40BC6C9
:100BC000F3F0EDE0EB2000F1EEE1FBF2E8E900E705
:100BD000E0F9E8F2FB00EFF0E8E5ECEDE8EAE00030
:100BE000EFE5F0E5E4E0F2F7E8EAE000C70BCF0B51
:100BF000D60BE00BD7F2E5EDE8E520E0F0F5E8E212
:100C0000E02E00CFCC00CFC400D1C100C7D900096D
:100C10000C060C030C0C0CCEC1D90000CD2EE2EA60
:100C2000EB2EF2E5F1F22000CD2EE2FBEAEB2EF204
:100C3000E5F1F200CD2EE2F5EEE4E020CAD1CA00E3
:100C4000CD2EE2EAEB2E20CAD1CA2000CD2EE2FB47
:100C5000EAEB2E20CAD1CA00CD2EE7E0EF2E20C14C
:100C6000D1CA2000CD2EEAEEEDF2F02EC1D1CA009D
:100C7000CDE5F220E1EB2E20C1D1C700CEF82EE267
:100C8000E5F0F12EC1D1C700CD2EEFE5F0E5EA2E5B
:100C9000C1D1C700CD2EEAEEED2EE2FBF52EF60017
:100CA000CD2EE7E0EF2EE2FBF52EF600CDE5F220AB
:100CB000F12E20CFD3D1CA00CDE5F220F12E20D1E4
:100CC000D2CECF00CDE5F220F1E8E3ED2ED0C70083
:100CD000CFE5F0E5E7E0EFF3F1EA2000C8E7EC2E1E
:100CE000F0E5E6E8ECE02000C2EEF1F1F22E203172
:100CF000CAD72000C2EEF1F1F22E2032CAD720006E
:100D0000CDE5F22031CAD72035F12000CDE5F22023
:100D100032CAD72035F12000CD2EF0E0E1EEF22EE0
:100D200044535000C2EEF12EF0E0E12E4453500047
:100D3000CD2EF7F22E203252414D2000CD2EE7E08D
:100D4000EF2E203252414D00CD2EE2F0E5ECE5EDE4
:100D5000E8202000CD2EE7E0EF2E20504C49530034
:100D6000CD2EF7F22E20504C49532000CD2EF7F215
:100D70002E20464C41534800CD2EE7E0EF2E464C46
:100D800041534800CDE8E72EEDE0EF2EE2FBF50001
:100D9000C2FBF12EEDE0EF2EE2FBF5001B0C1C0C6C
:100DA000280C340C400C4C0C580C640C700C7C0C53
:100DB000880C940CA00CAC0CB80CC40CD00CDC0C43
:100DC000E80CF40C000D0C0D180D240D300D3C0D2D
:100DD000480D540D600D6C0D780D840D900DCFE510
:100DE000F0E5E7E0EF2000CDE0F7E0EBEE2000CA11
:100DF000EEEDE5F62000EAEEECE0EDE4FB002ED1AE
:100E0000E1F0EEF120F1E2EEE5E3EE2E20202020ED
:100E100020002ECFF3F1EA20EDE0EBE0E42E20E21B
:100E2000EAEB2E2020002ECFF3F1EA20EDE0EBE0FC
:100E3000E42E20E2FBEAEB2E2000D1E1F0EEF100FF
:100E4000CFF3F1EA00D1F2EEEF003A0E400E450E7C
:100E50005F00D1E2FFE7FC20F120CFCA002E003076
:100E6000303030007701491B411B04391B02311B14
:100E700001291B39451B043D1B02351B012D1B1984
:100E8000431B043B1B02331B012B1B09471B043F65
:100E90001B02371B012F1BFB0100BC2F0800942FE6
:100EA000992F9E2FA32FA82FAD2FB22FB72F300031
:100EB00050300B0019301E30233028302D303230A6
:100EC00037303C30413046304B300100793E16001F
:100ED000CA36D7360E3727376937C737FA37A938B2
:100EE00011396339223AC737FA37A93811396339CA
:100EF000793E793ECD3A443B453C3E3EA80100E078
:100F000062E0621740F470E0FA01E60FF71F10810B
:100F1000010F6395F6CF08959A938A93902F812FAE
:100F2000E1EEF3E00081006100839093240401E08E
:100F3000009325048093260425E002E214E0DEDF1E
:100F400010E0EEE8F2E000831183EEE8F2E00081C9
:100F500011810093270406E00E949F1589919991C1
:100F600008959A938A93902F812FE1EEF3E0008108
:100F7000006100839093240480932504282F2C5F24
:100F800002E214E0BBDF10E0EEE8F2E00083118340
:100F9000EEE8F2E000811181202F082F10E0F80127
:100FA000EE5DFB4F2483082F0B5F0E949F158991F4
:100FB000999108958A93802F082F015089F00A95FE
:100FC000D1F00A9551F10A9509F443C00A9509F444
:100FD00077C00A9509F490C0035009F4A9C0C3C0B2
:100FE0000091E603083018F40091E60301C008E020
:100FF00000935E02B8C00091E603013050F000910A
:10100000E603033030F40091E6030A9500937B0277
:10101000AAC002E000937B02A6C00091E60304365A
:1010200088F40091E6034AE00E941640005D0093B8
:101030007C020091E6034AE00E941640405D409326
:101040007D0291C00FE300937C020FE300937D02C9
:101050008AC00091E603033188F40091E6034AE078
:101060000E941640005D00935F020091E6034AE093
:101070000E941640405D4093600206C00FE300935B
:101080005F020FE3009360020091E703033188F4ED
:101090000091E7034AE00E941640005D009367025A
:1010A0000091E7034AE00E941640405D40936802C9
:1010B0005AC00FE3009367020FE30093680253C026
:1010C0000091E603073388F40091E6034AE00E94AA
:1010D0001640005D009383020091E6034AE00E94FF
:1010E0001640405D409384023EC00FE300938302AC
:1010F0000FE30093840237C00091E603053188F4C2
:101100000091E6034AE00E941640005D00936F02E2
:101110000091E6034AE00E941640405D4093700251
:1011200022C00FE300936F020FE3009370021BC015
:101130000091E603053188F40091E6034AE00E943D
:101140001640005D009375020091E6034AE00E949C
:101150001640405D4093760206C00FE3009375028F
:101160000FE30093760201E00093A70401E00093EF
:10117000A604899108958A93802F082F015129F0A0
:101180000250F9F00A95D9F162C00091E6030B30E4
:1011900088F40091E6034AE00E941640005D009347
:1011A00011020091E6034AE00E941640405D409320
:1011B00012024DC00FE3009311020FE300931202DD
:1011C00046C000E0083008F042C010E0F801EE51DF
:1011D000FC4F1481153638F02FEF10E0F801E95E6E
:1011E000FD4F20830AC010E0F801EE51FC4F24812E
:1011F00010E0F801E95EFD4F20830395E3CF0091F5
:10120000E6030093270220E0243008F530912702FE
:10121000422F01E010E00E942C403023332359F08C
:1012200031E3022F10E0119501951040F801E85DBF
:10123000FD4F33830AC030E3022F10E01195019572
:101240001040F801E85DFD4F33832395DDCF01E0C9
:101250000093A60401E00093A704899108958A935E
:10126000802F082F015261F00A9531F1025009F4E4
:1012700057C00A9509F47DC00A9509F4A3C0CAC0F5
:101280000091E6030B3088F40091E6034AE00E94E7
:101290001640005D009333020091E6034AE00E948D
:1012A0001640405D40933402B5C00FE30093330213
:1012B0000FE300933402AEC00091E603043130F135
:1012C0000091E603053610F50091E603043651F46B
:1012D00001E30093390200E300933A0200E3009334
:1012E0003B0298C000E3009339020091E6034AE014
:1012F0000E941640005D00933A020091E6034AE026
:101300000E941640405D40933B0284C00FE300936F
:1013100039020FE300933A020FE300933B027AC0D5
:101320000091E6030093400220E0243008F072C0F0
:1013300030914002422F01E010E00E942C40302307
:10134000332359F031E3022F10E01195019510403D
:10135000F801EF5BFD4F33830AC030E3022F10E04A
:10136000119501951040F801EF5BFD4F33832395F4
:10137000DCCF0091E6030093C80420E0243008F09D
:1013800049C03091C804422F01E010E00E942C4077
:101390003023332359F031E3022F10E011950195EA
:1013A0001040F801EA5BFD4F33830AC030E3022F9F
:1013B00010E0119501951040F801EA5BFD4F338371
:1013C0002395DCCF0091E6030093C90420E0283088
:1013D00008F53091C904422F01E010E00E942C4032
:1013E0003023332359F031E3022F10E0119501959A
:1013F0001040F801E55BFD4F37830AC030E3022F50
:1014000010E0119501951040F801E55BFD4F378321
:101410002395DDCF01E00093A60401E00093A7042B
:10142000899108959A938A9380E0843008F061C08E
:10143000482F50E003E010E00E942440F801EE51F4
:10144000FC4F0481063050F02EE4082F10E0000F0E
:10145000111FF801EF52FE4F208312C0482F50E0B9
:1014600003E010E00E942440F801EE51FC4F24817B
:10147000082F10E0000F111FF801EF52FE4F2083DC
:10148000482F50E003E010E00E942440F801EE51A4
:10149000FC4F05810B3050F02EE4082F10E0000FB8
:1014A000111FF801EF52FE4F218312C0482F50E068
:1014B00003E010E00E942440F801EE51FC4F25812A
:1014C000082F10E0000F111FF801EF52FE4F21838B
:1014D000482F50E003E010E00E942440F801EE5154
:1014E000FC4F068190E0FC01E652FE4F008383959D
:1014F0009CCF01E00093A60401E00093A70489912A
:101500009991089500E0043160F410E0F801EE5183
:10151000FC4F248110E0F801E255FB4F2083039536
:10152000F2CF0091BA04002321F40091BB04002300
:1015300021F001E000931E0503C000E000931E05AA
:101540000091BC04002321F40091BD04002321F08C
:1015500001E000931F0503C000E000931F05009108
:10156000AE04002321F40091AF04002321F001E038
:101570000093200503C000E0009320050091B00413
:10158000002321F40091B104002321F001E0009335
:10159000210503C000E0009321050091B20400235F
:1015A00021F40091B304002321F001E0009322050F
:1015B00003C000E0009322050091B404002321F44D
:1015C0000091B504002321F001E00093230503C03E
:1015D00000E0009323050091B604002321F400915C
:1015E000B704002321F001E00093240503C000E0CC
:1015F000009324050091B804002321F40091B9045C
:10160000002321F001E00093250503C000E00093D2
:1016100025050091BE04002321F40091BF0400239E
:1016200021F001E00093260503C000E000932605A9
:101630000091C004002321F40091C104002321F093
:1016400001E00093270503C000E00093270501E0B7
:101650000093A60401E00093A70408959A938A9347
:101660000091E6030F70005D009322010091E603F4
:1016700002950F70005D009321010091E7030F7048
:10168000005D00931F010091E70302950F70005D5C
:1016900000931E010091E8030F70005D00931C0190
:1016A0000091E80302950F70005D00931B0100910B
:1016B000E9030F70005D009325010091E903029595
:1016C0000F70005D009324010091EA030F70005D2C
:1016D000009328010091EA0302950F70005D0093CA
:1016E00027010091EB030F70005D00932B01009127
:1016F000EB0302950F70005D00932A0100E00830B3
:10170000F0F510E0F801E55EFE4F10811A3338F471
:1017100010E0F801E55EFE4F1081103368F410E030
:10172000F801E55EFE4F10811E3231F0E0E9F2E093
:1017300010811395108303C010E01093900210E005
:10174000F801EC5DFE4F10811A3338F410E0F80117
:10175000EC5DFE4F1081103368F410E0F801EC5D91
:10176000FE4F10811A3331F0E1E9F2E01081139558
:10177000108303C010E0109391020395C0CF8091B5
:10178000220190E04091210150E00AE010E00E9427
:101790002440800F911F80519240843600E09007D2
:1017A0002CF0E0E9F2E000810395008380911F01B5
:1017B00090E040911E0150E00AE010E00E942440B9
:1017C000800F911F805192408D3090402CF0E0E9C5
:1017D000F2E000810395008380911C0190E040912C
:1017E0001B0150E00AE010E00E942440800F911F8E
:1017F00080519240803290402CF0E0E9F2E000818C
:10180000039500838091250190E04091240150E0F0
:101810000AE010E00E942440800F911F8051924006
:10182000893190402CF0E1E9F2E0008103950083DA
:101830008091280190E04091270150E00AE010E0FB
:101840000E942440800F911F805192408D3300E010
:1018500090072CF0E1E9F2E000810395008380918C
:101860002B0190E040912A0150E00AE010E00E9434
:101870002440800F911F805192408D3300E09007EB
:101880002CF0E1E9F2E000810395008300919002E1
:10189000002301F100E30093220100E30093210102
:1018A00000E300931F0100E300931E0100E3009397
:1018B0001C0100E300931B0100E00093900200E094
:1018C0000330B8F420E010E0F801E050FF4F20832F
:1018D0000395F6CF00E0033060F410E0F801EE511C
:1018E000FC4F248110E0F801E050FF4F2083039566
:1018F000F2CF00919102002301F100E30093250152
:1019000000E30093240100E30093280100E3009327
:10191000270100E300932B0100E300932A0100E07C
:101920000093910200E00330B8F420E010E0F801E9
:10193000E050FF4F23830395F6CF00E0033060F4BF
:1019400010E0F801EE51FC4F278110E0F801E05063
:10195000FF4F23830395F2CF01E00093A70401E03A
:1019600000930D018991999108950E94B440280136
:10197000A22FB32F642E852FBA959A2F993048F451
:1019800020E2092F10E0F201E00FF11F2083939570
:10199000F5CF803858F00FEF802783952DE20A2F7E
:1019A00010E0F201E00FF11F2083A395082F10E053
:1019B0004B2F0E942C40802F8336C8F44AE0082F1A
:1019C0000E941640005D2A2F30E0F201E20FF31F63
:1019D0000083A3954AE0082F0E941640405D0A2F1D
:1019E00010E0F201E00FF11F4083A39510C02FE338
:1019F0000A2F10E0F201E00FF11F2083A3952FE3DF
:101A00000A2F10E0F201E00FF11F2083A395A73009
:101A100008F4A39502E0601679F424EE0A2F10E092
:101A2000F201E00FF11F2083A39521EC0A2F10E0B3
:101A3000F201E00FF11F2083E7E00C94C4400E9404
:101A4000B1402801822F832E942EDB016A847B848F
:101A50008A94982F993048F420E2092F10E0F2017F
:101A6000E00FF11F20839395F5CF482D8D010E9443
:101A70002C40D801A615B70508F067C0A83E03E0C2
:101A8000B00710F148EE53E08D010E943240202F44
:101A9000082F10E0F201E00FF11F2083082F10E063
:101AA000F201E00FF11F408150E008EE13E00E94C8
:101AB0002440A01BB10B082F10E0F201E00FF11F32
:101AC0000081005D00838395A43600E0B00710F12B
:101AD00044E650E08D010E943240202F082F10E094
:101AE000F201E00FF11F2083082F10E0F201E00F58
:101AF000F11F408150E004E610E00E942440A01B4A
:101B0000B10B082F10E0F201E00FF11F0081005D22
:101B1000008383954AE050E08D010E943240005DD1
:101B2000282F30E0F201E20FF31F008383954AE093
:101B300050E08D010E943240405D082F10E0F2011C
:101B4000E00FF11F4083839510C02FE3082F10E0B2
:101B5000F201E00FF11F208383952FE3082F10E09F
:101B6000F201E00FF11F20838395873008F48395FD
:101B7000092D015019F0025081F01DC02CEE082FE4
:101B800010E0F201E00FF11F208320EC082F10E09D
:101B9000F201E00FF11F21830EC02EEC082F10E0A0
:101BA000F201E00FF11F20832CEE082F10E0F2016C
:101BB000E00FF11F2183ECE00C94C140432F342F40
:101BC00032953F70532F342F3F70632F5A3040F0BF
:101BD000752F795C30E0F801E20FF31F708307C0C6
:101BE000752F705D30E0F801E20FF31F70836A30EB
:101BF00040F0762F795C30E0F801E20FF31F71833B
:101C00000895762F705D30E0F801E20FF31F7183C5
:101C100008959A938A930091E603002309F0C8C0BF
:101C20003091E70320E00091E80310E0200F311F1E
:101C3000C901883E03E0900710F087EE93E008EEBC
:101C400013E01A930A93BC0143E031E022E00DE275
:101C500011E0F5DE3091E70323E0E5ECF1E00081EF
:101C60001181ACDF3091E80325E0E5ECF1E0008183
:101C70001181A4DF3091E90320E00091EA0310E034
:101C8000200F311FC90108EE13E01A930A93BC011B
:101C900041E031E023E007E311E0D1DE3091E903D8
:101CA00023E0E5ECF1E00281138188DF3091EA0363
:101CB00025E0E5ECF1E00281138180DF0091EB0388
:101CC0000436E8F40091EC030336C8F40091EB030A
:101CD0004AE00E941640005D009343010091EB032F
:101CE0004AE00E941640405D409344010091EC039D
:101CF0004AE00E941640005D0093460109C00FE3D0
:101D0000009343010FE3009344010FE30093460166
:101D10003091EB0323E0E5ECF1E0048115814EDF27
:101D20003091EC0325E0E5ECF1E00481158146DF1C
:101D30005091ED0342E031E024E005E511E015DECD
:101D40005091EE0342E031E024E00FE511E00DDEBA
:101D50003091ED0323E0E5ECF1E0068117812EDF01
:101D60005091EF0342E031E024E009E611E0FDDDAF
:101D70005091F00342E031E024E003E711E0F5DDAB
:101D80003091EF0323E0E5ECF1E00085118516DFEB
:101D90005091F10342E031E023E00BE411E0E5DD96
:101DA0003091F10323E0E5ECF1E00285138506DFD5
:101DB00001E000930E0101E00093A704899199913D
:101DC00008958A93802F082F065389F00A95E1F031
:101DD000025009F458C00A9509F463C00A9509F144
:101DE0000A9509F49EC00A9509F4EDC0F8C0009167
:101DF000E603023028F40091E6030093E201EFC00D
:101E000002E00093E201EBC00091E603023028F407
:101E10000091E6030093E301E2C002E00093E301D6
:101E2000DEC00091E603053608F50091E6030A30AE
:101E3000E8F00091E603043639F401E30093FD0174
:101E400000E30093FE010BC000E30093FD0100914D
:101E5000E6034AE00E941640005D0093FE0100E3A5
:101E60000093FF0100E300930002B9C00FE3009369
:101E7000FD010FE30093FE010FE30093FF010FE369
:101E800000930002ACC00091E603063030F40091EC
:101E9000E603005D0093E401A2C00FE30093E401B8
:101EA0009EC00091E6030130D9F40091E7030B30A6
:101EB00088F40091E7034AE00E941640005D009319
:101EC00005020091E7034AE00E941640405D4093FE
:101ED000060206C00FE3009305020FE3009306021B
:101EE0000091E603023009F07AC00091E7030B305D
:101EF00088F40091E7034AE00E941640005D0093D9
:101F00000B020091E7034AE00E941640405D4093B7
:101F10000C0265C00FE300930B020FE300930C0269
:101F20005EC00091E603073138F00FE30093EB0148
:101F30000FE30093EC0110C00091E6034AE00E9419
:101F40001640005D0093EB010091E6034AE00E9419
:101F50001640405D4093EC010091E703073138F0F3
:101F60000FE30093F1010FE30093F20110C0009121
:101F7000E7034AE00E941640005D0093F1010091E2
:101F8000E7034AE00E941640405D4093F201009151
:101F9000E803073138F00FE30093F7010FE30093F4
:101FA000F8011DC00091E8034AE00E941640005D60
:101FB0000093F7010091E8034AE00E941640405D5B
:101FC0004093F8010CC00091E603023028F4009120
:101FD000E6030093EA0103C002E00093EA0101E096
:101FE0000093A70401E00093A6048991089500E0FE
:101FF0000093DE0100E00093DF0100E00093E001C8
:1020000000E00093E101E2EEF3E0048100FF04C090
:1020100001E00093DE011EC0E2EEF3E0048101FF67
:1020200004C002E00093DE0115C00091E703013017
:1020300088F002E00093DE01EEEDF1E0008103950F
:1020400000830091E70306950093E7030091E703FF
:10205000002391F7E2EEF3E0048102FF04C001E007
:102060000093DF0108C0E2EEF3E0048103FF03C048
:1020700002E00093DF01E2EEF3E0078100FF04C01D
:1020800001E00093E0011EC0E2EEF3E0078101FFF2
:1020900004C002E00093E00115C00091EA030130A2
:1020A00088F002E00093E001E0EEF1E000810395AA
:1020B00000830091EA0306950093EA030091EA0386
:1020C000002391F7E2EEF3E0078102FF04C001E094
:1020D0000093E10108C0E2EEF3E0078103FF03C0D3
:1020E00002E00093E10101E00093A70401E0009306
:1020F000A604089501E01091E603113021F411E0E7
:102100001093140501C000E01091E703123021F490
:1021100018E01093170501C000E01091E803123099
:1021200021F418E01093180501C000E01091E903B4
:10213000123021F418E01093160501C000E0109150
:10214000EA03133039F413E010931B0518E01093E1
:10215000150501C000E01091EB03113021F411E0EE
:1021600010931A0501C000E05091EC0340E020916B
:10217000ED0330E0420F531FE7E0F1E04283538369
:102180005091EE0340E02091EF0330E0420F531FE7
:10219000E7E0F1E04483558301E000931C0514E07F
:1021A0001093FA0410E01093FC0413E01093FD0464
:1021B00012E01093FE0411E01093FF04089520E054
:1021C00001E00093A70401E00093A6040FE010E0F3
:1021D0004091E40342954F7050E0041B150B409171
:1021E000FB0450E0FA01E650FB4F428150E0041737
:1021F000150709F421E00091E4030F700130D9F4D0
:102200002223C9F00091E703002359F000E011E018
:10221000EAEFF4E0078310870091E60300930305DB
:102220000AC00091E60310E0EAEFF4E007831087AC
:1022300000E0009303050091E4030F700230E1F425
:10224000222379F000E00031B8F410E0F801EE51FB
:10225000FC4F348110E0F801E650FB4F32870395C4
:10226000F2CF00E0003140F430E010E0F801E65039
:10227000FB4F32870395F6CF08959A938A93802F68
:10228000282F2A9502EE13E00E947E0710E0EEE868
:10229000F2E000831183EEE8F2E02081318190E0EA
:1022A000FC01EF51FC4F008110E02017310719F0BD
:1022B000549A579A84C000914B04023001F502E011
:1022C00000939202009192020817A0F400919202EA
:1022D00010E0F801EE51FC4F20810091920210E0D5
:1022E000F801E752FD4F2083E2E9F2E00081039517
:1022F0000083E8CF03E000934B0480934C040091EB
:102300004B04002309F05BC00091E40310E0007F60
:102310001070005039F0005151F0005169F0005137
:1023200081F038C00091E4030E94DA0746C00091B2
:10233000E4030E94BB0841C00091E4030E942F09FE
:102340003CC00091E4030053A9F00A95A9F00A9556
:10235000A9F00250A9F00250A9F00A9599F0025094
:1023600089F0035079F00A9569F00A9579F00A9599
:1023700079F023C057D821C0C5D81FC06FD91DC060
:1023800048DC1BC00091E4031CDD17C030DE15C023
:10239000B1DE13C00091E403015C71F00A9561F0B5
:1023A0000F5051F00A9541F00F5031F00A9521F08D
:1023B0000F5011F00A9509F402DF549A579A0E94BF
:1023C000A41500E000934D04899199910895A80106
:1023D00000E062E0621740F470E0FA01E60FF71FD8
:1023E0001081010F6395F6CF08959A938A93902FE9
:1023F000812FE8E9F2E00081006100839093DB0225
:102400008093DC02282F2C5F09ED12E0E0DF10E062
:10241000E3E9F2E000831183E3E9F2E00081118156
:10242000202F082F10E0F801E752FD4F2483082FDA
:102430000B5F0E9468168991999108958A93802F65
:10244000E8E9F2E00081006100838093DB0202E0B2
:102450000093DC0226E009ED12E0B9DF10E0E3E9C9
:10246000F2E000831183E3E9F2E00081118100933F
:10247000DF0207E00E946816899108950E94B74024
:10248000802F0E94751600FB4EF400E00093DD02E1
:1024900000E00093DE0201EED1DF4AC10091990213
:1024A000053509F03BC100919A020A3A09F036C19C
:1024B00000919C0210E0E82FF0E035970E171F07FF
:1024C00059F000919C020093DD02082F0550009303
:1024D000DE0203EEB3DF2CC1282F2A9509E912E0B2
:1024E00076DF10E0E3E9F2E000831183E3E9F2E054
:1024F0002081318190E0FC01E856FD4F008110E021
:102500002017310781F090E0FC01E856FD4F008173
:102510000093DD02E3E9F2E0008111810093DE0225
:1025200002EE8CDF05C100919B02023729F0009179
:102530009B02033709F0C6C000919B020237B1F538
:102540004091EC0450E008EE13E00E942440D801D2
:102550004091ED0450E004E610E00E942440A00FFA
:10256000B11F4091EE0450E00AE010E00E942440C8
:10257000A00FB11F0091EF0410E0A00FB11FA055F4
:10258000B04DE6E9F2E0A083B183E6E9F2E0008134
:102590001181012F10E00093DD02E6E9F2E00081F5
:1025A00011810093DE0212E002E71FDF00919B021F
:1025B000033709F079C030919D0220E000919E021E
:1025C00010E0200F311FE6E9F2E02083318348EE6E
:1025D00053E0E6E9F2E0008111810E943240005DA3
:1025E0000093EC04E091EC04F0E0F09748EE53E047
:1025F0008F010E942440E6E9F2E020813181201B16
:10260000310B2083318344E650E0E6E9F2E00081BB
:1026100011810E943240005D0093ED04E091ED04D1
:10262000F0E0F09744E650E08F010E942440E6E994
:10263000F2E020813181201B310B208331834AE07D
:1026400050E0E6E9F2E0008111810E943240005D35
:102650000093EE04E091EE04F0E0F0974AE050E0E1
:102660008F010E942440E6E9F2E020813181201BA5
:10267000310B20833183E6E9F2E000811181005DB6
:102680000093EF0410E003E7B0DE01E000934104A3
:1026900000E010E0E7E4F4E0008311830CEE14E0C6
:1026A000E3E4F4E0008311830FE00093060100915E
:1026B0009A00006100939A0000919A0000680093CC
:1026C0009A0036C000E00093950200919502081729
:1026D000E0F40091950210E0F801E756FD4F2081EB
:1026E0000091950210E0F801EE5DFB4F208300E0C1
:1026F0002091950230E0F901E756FD4F0083E5E9AE
:10270000F2E0008103950083E0CF80934C0401E068
:1027100000934B040FE0009306010AC000919A0059
:10272000006100939A0000919A00006800939A005B
:102730000E948716E4E00C94C7400FEC09B910988A
:10274000119A1898199A0EE00093950008E10AB9B9
:10275000549A579A06B70D7F06BF07B7016007BFA7
:1027600005E002BF04E003BF05E5009322040AEA86
:10277000009323040895FA93EA935A934A933A9361
:102780002A931A930A934FB75BB71CB1012F5C9938
:1027900058C010913D04105039F01A9561F01A9507
:1027A000A1F01A95C1F028C0053509F04AC011E022
:1027B00010933D0446C00A3A21F412E010933D0400
:1027C00040C010E010933D043CC00093E40313E0CC
:1027D00010933D0436C00093E5030C3320F010E065
:1027E00010933D0403C014E010933D0410913D0488
:1027F000100F10933E0425C020913D0430E0F901F4
:10280000EE51FC4F008310913D0420913E041217BD
:1028100098F011E010934D0410E010933D0454988B
:10282000579810913E04139510934E04E1EEF3E097
:1028300010811860108305C0EDE3F4E0108113955A
:1028400010835BBF4FBF099119912991399149912B
:102850005991E991F9911895FA93EA933A932A9349
:102860001A930A932FB73BB700913B0410913C0495
:10287000011784F400913B04102F110F110BF80184
:10288000EE5DFB4F00810CB9EBE3F4E000810395B2
:1028900000830FC05398559800E000933C0400E07B
:1028A00000933B04549A579AE1EEF3E000810F7EC7
:1028B00000833BBF2FBF0991199129913991E9916B
:1028C000F9911895BA93AA939A938A93FA93EA93F3
:1028D0003A922A921A920A927A936A935A934A9354
:1028E0003A932A931A930A938FB79BB72197A89587
:1028F00005E002BF0091A204003F09F045C000912D
:102900004B04002309F040C00E94F51A0093DE0337
:102910000091DE031091DD03011721F00091DE0329
:10292000003FD1F4EFEDF3E0008111810F5F1F4F05
:1029300000831183EFEDF3E000811181013921E083
:10294000120784F000E911E0EFEDF3E0008311835A
:1029500000EF0093DD0306C000E010E0EFEDF3E0D0
:10296000008311830091DE031091DD03011761F0F4
:102970000091DE03003F41F00091DE030093A204CA
:102980000091DE030093DD030091DB03053078F155
:102990000091DC03013029F0E8E9F2E0008100FF5A
:1029A00022C000919A000F7E00939A0000919A0035
:1029B0000F7700939A00E8E9F2E000810860008355
:1029C0000091D8030E943E1200E00093DC0300E077
:1029D0000093D80300919C000883E8E9F2E00081AD
:1029E0000F7E008309C00EE10093DB0305C0EBED11
:1029F000F3E0008103950083E19938C00091410420
:102A00000130A1F5E7E4F4E0008111811FBB0EBBAA
:102A100000913F0410E0E3E4F4E0A081B181A00F55
:102A2000B11F0C910DBBE29AE19AEFE3F4E0008153
:102A300003950083E7E4F4E0008111810F5F1F4FED
:102A40000083118300913F0410E0A3E4B4E0ED9112
:102A5000FC911197E00FF11F31970081002331F4B1
:102A600000E00093410400E000933F04E19951C06D
:102A700000914204013009F04CC0E9E4F4E0008127
:102A800011811FBB0EBBE09A2DB30091400410E0F2
:102A9000E5E4F4E0A081B181A00FB11F2C93009177
:102AA000400410E0A5E4B4E0ED91FC911197E00F33
:102AB000F11F00810F3F61F400E02091400430E0FD
:102AC000A5E4B4E0ED91FC911197E20FF31F0083B0
:102AD000E9E4F4E0008111810F5F1F4F008311834F
:102AE000E0E4F4E00081039500830091400410E0ED
:102AF000A5E4B4E0ED91FC911197E00FF11F31973F
:102B00000081002331F400E00093420400E00093D0
:102B1000400421969BBF8FBF09911991299139914A
:102B20004991599169917991099019902990399019
:102B3000E991F99189919991A991B9911895009389
:102B40003C04539A559A089500E00093E1030895D8
:102B500003E3009399008A988B9A9298939A0EE0D7
:102B600000939D0008E100939A0000919A00006193
:102B700000939A0000919A00006800939A0005E57E
:102B80000093D9020AEA0093DA020895FA93EA93CD
:102B90004A933A932A931A930A933FB74BB72197D4
:102BA00000919B00102F14FF05C0E8E9F2E00081BE
:102BB000016000830091DC03002391F40091DB03AA
:102BC0000E3170F001E00093DC0300E00093D803C5
:102BD00000E00093DB03E8E9F2E00081006100839C
:102BE0000091DC03013011F50091DB030E31F0F4AC
:102BF0000091D803003448F0E8E9F2E00081016078
:102C0000008300919C0008830EC020919C000091DD
:102C1000D80310E0F801E756FD4F2083E8EDF3E01C
:102C200000810395008300E00093DB0321964BBFF6
:102C30003FBF09911991299139914991E991F991F0
:102C40001895FA93EA933A932A931A930A932FB713
:102C50003BB70091D9031091DA0301178CF400916E
:102C6000D903102F110F110BF801E752FD4F00810E
:102C700000939C00E9EDF3E00081039500831FC001
:102C800000919A00077F00939A0000919A000F7DAF
:102C900000939A0000E00093DA0300E00093D90368
:102CA00000919A00006100939A0000919A000068D8
:102CB00000939A00E8E9F2E000810F7E00833BBFB9
:102CC0002FBF0991199129913991E991F99118959D
:102CD0000093DA0310919A00186010939A001091F3
:102CE0009A00106210939A00089510919802012F93
:102CF00010919A00212F27FF02C0026011E010916D
:102D00009A00212F25FF02C0046011E0089500E021
:102D10000093980208950FEF0ABB00E00BBB00E799
:102D200007BB00E208BB00E004BB00E005BB00E01D
:102D300001BB00E002BB07B7006807BF00E004BDAD
:102D40000AE003BD08E005BD05B5056005BD07B790
:102D5000046007BF00E00FBD00E00EBD09EF0DBD30
:102D600005EE0CBD0895A89501B5006101BD01B542
:102D7000087F01BD01B5006101BD01B5086001BD5D
:102D80000895FA93EA933A932A931A930A932FB7E2
:102D90003BB70091A004015009F445C00A9521F009
:102DA0000A9509F452C07FC001E003BDC69AC59AD6
:102DB00000919F0410E0F801E15BFB4F00810BBB29
:102DC000C59800919F040F3420F400919F0403954F
:102DD00001C000E000939F0400919F04005039F06F
:102DE000045161F0045189F00451B1F05CC000E875
:102DF0000093A10401E00093A00455C000EC0093EF
:102E0000A10401E00093A0044EC004E90093A104D2
:102E100001E00093A00447C004ED0093A10401E089
:102E20000093A00440C00091A104013011F400E21D
:102E300001C001E003BDC698C59A0091A1040BBB77
:102E4000C59802E00093A0042EC000919F0410E0FA
:102E5000000F111FF801E457FF4F04910023E9F020
:102E6000C698C59A00919F0410E0000F111FF80149
:102E7000E457FF4F04910BBBC59800919F0410E0ED
:102E8000000F111FF801E357FF4F049103BDEFE955
:102E9000F4E000810395008306C002E00093A004E3
:102EA00000E000939F043BBF2FBF09911991299126
:102EB0003991E991F99118951C01602F80E074E136
:102EC000679F010E7BEE070E002D90E0FA01E80FE0
:102ED000F91F7081772309F441C0313089F590E002
:102EE000FA01E80FF91F7081703CE8F090E0FA01F8
:102EF000E80FF91F0080112470E0071671E0170633
:102F000094F490E0FA01E80FF91F00801124F00119
:102F1000E452F0407491002E1124F001E15BFB4F6C
:102F20007083039519C090E0FA01E80FF91F7081D2
:102F3000002E1124F001E15BFB4F708303950CC060
:102F400090E0FA01E80FF91F7081002E1124F001C2
:102F5000E15BFB4F708303958395B7CFC101089563
:102F600004E1003540F420E210E0F801E15BFB4FA2
:102F700020830395F6CF00E000939F04089500E0BE
:102F800000939F0403E00093A004089534E1039F9D
:102F9000010E3BEE030E402D60E0621748F430E274
:102FA00050E0FA01E15BFB4F308343956395F5CF29
:102FB00008950E94B740B02FA12F922F04E1B09F37
:102FC0000A0E0BEE000E802D40E1092F0E941640E4
:102FD000282F30E0F901E15BFB4F0083082F10E060
:102FE000F801E15BFB4F108100E1109F292F2019B0
:102FF000082F10E0F801E15BFB4F2183082F10E060
:10300000F801E15BFB4F00810A3048F0082F10E027
:10301000F801E15BFB4F0081095C008308C0082FC9
:1030200010E0F801E15BFB4F0081005D0083082F99
:1030300010E0F801E15BFB4F01810A3048F0082FF6
:1030400010E0F801E15BFB4F0181095C018308C0DE
:10305000082F10E0F801E15BFB4F0181005D018367
:10306000E4E00C94C7400E94B740B02F912FA22FEC
:1030700004E1B09F090E0BEE000E802D4AE00A2FEE
:103080000E941640005D282F30E0F901E15BFB4F04
:103090000083082F10E0F801E15BFB4F0081003353
:1030A00009F083954AE00A2F0E9416401AE0019F1A
:1030B0002A2F2019205D082F10E0F801E15BFB4F5B
:1030C0002083E4E00C94C7401C01602F80E074E191
:1030D000679F010E7BEE070E002D90E0FA01E80FCE
:1030E000F91F7491772309F44CC0313089F590E0D1
:1030F000FA01E80FF91F7491703CE8F090E0FA01D2
:10310000E80FF91F0490112470E0071671E017060C
:1031100094F490E0FA01E80FF91F04901124F001F3
:10312000E452F0407491002E1124F001E15BFB4F5A
:103130007083039524C090E0FA01E80FF91F7491A1
:10314000002E1124F001E15BFB4F7083039517C043
:10315000323049F470E2002E1124F001E15BFB4FA4
:10316000708303950CC090E0FA01E80FF91F749189
:10317000002E1124F001E15BFB4F708303958395D2
:10318000ACCFC101089554E1059F010E5BEE050E21
:10319000402D622F50E0FA01E15BFB4F6083089500
:1031A00000E0003540F420E210E0F801E15BFB4F65
:1031B00020830395F6CF08950E94B440802FD90153
:1031C000512E855C482E28E2082F10E0F801E15BC3
:1031D000FB4F208383950A2F0B2B21F0A13001E0B8
:1031E000B00748F020E3082F10E0F801E15BFB4F47
:1031F000208383954FC090E00FEF5016C9F422E36F
:10320000082F10E0F801E15BFB4F2083839525E355
:10321000082F10E0F801E15BFB4F2083839526E344
:10322000082F10E0F801E15BFB4F2083839532C04B
:10323000539404E6501670F044E6052D0E941640A3
:10324000902F292F205D082F10E0F801E15BFB4F44
:10325000208383950AE0501688F04AE0052D0E94ED
:1032600016401AE0919F902F9019292F205D082F6A
:1032700010E0F801E15BFB4F208383954AE0052DC8
:103280000E941640405D082F10E0F801E15BFB4F03
:10329000408383952FE2082F10E0F801E15BFB4F9C
:1032A00020838395A03001E0B007C9F422E3082F02
:1032B00010E0F801E15BFB4F2083839525E3082FA5
:1032C00010E0F801E15BFB4F2083839526E3082F94
:1032D00010E0F801E15BFB4F2083839541C0A030F3
:1032E00001E0B007A8F590E00A2F602E04E6601612
:1032F00070F044E6062D0E941640902F292F205D85
:10330000082F10E0F801E15BFB4F208383950AE072
:10331000601688F04AE0062D0E9416401AE0919F40
:10332000902F9019292F205D082F10E0F801E15B04
:10333000FB4F208383954AE0062D0E941640405D96
:10334000082F10E0F801E15BFB4F4083839508C034
:103350002FE3082F10E0F801E15BFB4F20838395FA
:1033600029E2082F10E0F801E15BFB4F2083082FD2
:103370000419402E08E0401658F48395282F822F18
:1033800000E230E0F901E15BFB4F00834394F2CFB0
:10339000E7E00C94C440BD01D90110E0133008F0FF
:1033A00062C0112321F4FD013585232F09C011309E
:1033B00021F4FD013685232F03C0FD013785232F1E
:1033C000322F32953F70402F50E0FA01E15BFB4F06
:1033D0003083402F50E0FA01E15BFB4F30813A30FF
:1033E00048F0402F50E0FA01E15BFB4F3081395C3F
:1033F000308308C0402F50E0FA01E15BFB4F308181
:10340000305D30830395402F042F322F3F7050E002
:10341000FA01E15BFB4F3083402F50E0FA01E15BA2
:10342000FB4F30813A3048F0402F50E0FA01E15B29
:10343000FB4F3081395C308308C0402F50E0FA01E7
:10344000E15BFB4F3081305D3083123048F40395EF
:10345000402F042F3EE250E0FA01E15BFB4F308346
:10346000039513959BCFDB0108950E94B440802FF4
:10347000D901662403E0601608F06EC0662021F4CE
:10348000FD010385902F0AC001E0601621F4FD01C3
:103490000285902F03C0FD010185902F292F2295D1
:1034A0002F70082F10E0F801E15BFB4F2083082FFD
:1034B00010E0F801E15BFB4F00810A3048F0082F73
:1034C00010E0F801E15BFB4F0081095C008308C05C
:1034D000082F10E0F801E15BFB4F0081005D0083E5
:1034E0008395282F822F092F0F7030E0F901E15BBF
:1034F000FB4F0083082F10E0F801E15BFB4F0081D8
:103500000A3048F0082F10E0F801E15BFB4F008122
:10351000095C008308C0082F10E0F801E15BFB4F55
:103520000081005D008302E0601650F48395282F2F
:10353000822F0AE330E0F901E15BFB4F008309C011
:103540008395282F822F0EE230E0F901E15BFB4FDB
:103550000083839563948ECFFD01278130E0FD01C8
:10356000108500E0200F311F290108EE401603E00E
:10357000500670F0662403E06016A0F52FE3082FD4
:1035800010E0F801E15BFB4F208383956394F3CF58
:103590004AE050E082010E943240405D082F10E076
:1035A000F801E15BFB4F42834AE050E082010E9458
:1035B000324028014AE050E082010E943240405DE2
:1035C000082F10E0F801E15BFB4F41834AE050E037
:1035D00082010E943240005D282F30E0F901E15B5A
:1035E000FB4F0083E7E00C94C4408A9301E004BBE6
:1035F00080E08A3010F48395FCCF03B3802F02E083
:1036000004BB8E3FF9F480E08A3010F48395FCCF40
:1036100003B3802F04E004BB8D3FA1F480E08A3027
:1036200010F48395FCCF03B3802F08E004BB8B3FDD
:1036300049F480E08A3010F48395FCCF03B3802FE7
:1036400000E004BB082FE4E6F0E0FBBFFEE00C94D2
:10365000674083E41FC083E21DC080E31BC08DE48C
:1036600019C084E417C089E315C088E313C087E359
:1036700011C085E50FC086E30DC085E30BC084E370
:1036800009C085E407C083E305C082E303C081E38A
:1036900001C080EF082F8991089500E02EEF3DE0F2
:1036A000402F50E0440F551FFA01E75DFA4F238386
:1036B000348321E010E0F801E75DFA4F278320E032
:1036C00010E0F801E75DFA4F208303951091D201D5
:1036D0001730C1F426E23EE0402F50E0440F551F62
:1036E000FA01E75DFA4F2383348329E010E0F80103
:1036F000E75DFA4F278322E010E0F801E75DFA4F1B
:10370000208317C022E13EE0402F50E0440F551FB8
:10371000FA01E75DFA4F2383348328E010E0F801D3
:10372000E75DFA4F278321E010E0F801E75DFA4FEB
:103730002083039500932B050895BA93AA9331E053
:103740004AE257E022E011E004E00E9464182FE012
:1037500016E004E00E94C61731E00091F10410E089
:10376000000F111FA5EFB4E0ED91FC911197E00F50
:10377000F11F45915491319722E017E004E00E9437
:1037800064180091A204035409F10A9591F00A9576
:1037900091F1005109F09FC00091F4041091F104DF
:1037A000011708F098C0E1EFF4E000810A9500836A
:1037B00092C00091F1041091F304011708F08BC03E
:1037C000E1EFF4E000810395008385C000E0009301
:1037D000DD040E94B01701E00093A60400E000930E
:1037E000F10400E00093F30400E00093F40400E02F
:1037F0000093F70470C0009110010D3049F400915E
:10380000F204023029F4E1EFF4E000810395008333
:1038100000911001033181F40091F204033061F44E
:103820000091F104002311F001E001C000E00093D9
:103830008D0200E00093F70400911001063141F47D
:103840000091F2040093F7040091F8040093F1044E
:10385000009110010B3079F50091F204023049F427
:103860000091F104013028F0E1EFF4E000810395CC
:1038700000830091F204013021F40091F104023040
:1038800040F40091F2040230B1F40091F1040130EF
:1038900090F00091D301043040F00091D501043044
:1038A00020F00091D101043030F401E310E0E3ECAA
:1038B000F4E0008311830091F2040093F704009177
:1038C000F1040093F8040E94B01701E00093A604ED
:1038D00000E00093DD0400EF0093A204A991B991E8
:1038E00008950E94B5400091D904802F082F095FE8
:1038F000A02F0091A204902F2FE016E004E00E9478
:10390000C61731E04AE257E022E011E004E00E94ED
:10391000641831E042E151E022E017E004E00E9447
:103920005C170091D904083098F40091EB04013041
:1039300061F430E040E55EE022E01A2F04E00E94EE
:10394000641800E00093EB0403C001E00093EB0473
:10395000903F09F4EDC2953409F0F9C00091E904F3
:10396000013009F091C0109118010AE0109F0091F8
:103970001901000E00EF000E502C109115010AE005
:10398000109F00911601000E00EF000E402C1091C8
:1039900012010AE0109F00911301000E00EF000ECB
:1039A000B02D009118010295007F10911901010FAF
:1039B0000053009300010CE0401658F400911501EB
:1039C0000295007F10911601010F00530093010131
:1039D00005C04424439401E000930101042D0250EA
:1039E00049F0025079F1025069F1035059F1025047
:1039F00049F139C044E0052D0E941640442389F066
:103A0000BD3158F4009112010295007F109113010D
:103A1000010F0053009302018AC001E000930201EC
:103A200086C0BE3158F4009112010295007F1091BA
:103A30001301010F00530093020179C001E00093CC
:103A4000020175C0BF3158F4009112010295007F48
:103A500010911301010F00530093020168C001E0AF
:103A60000093020164C0B03258F400911201029533
:103A7000007F10911301010F00530093020157C002
:103A800001E00093020153C00091E904023009F003
:103A90004EC0409112010AE0409F00911301000EB8
:103AA00000EF000E102D409115010AE0409F00919B
:103AB0001601000E00EF000E202D409118010AE0C3
:103AC000409F00911901000E00EF000E302D1831BB
:103AD00058F4009112010295007F40911301040FE8
:103AE00000530093030103C000E0009303012C3353
:103AF00058F4009115010295007F40911601040FC2
:103B000000530093040103C000E0009304013C3320
:103B100058F4009118010295007F40911901040F9B
:103B200000530093050103C000E00093050101E08C
:103B30000093AA0400E00093DD0480E024E111E09A
:103B400004E00E94C61701E00093A604ECC1933480
:103B500079F400E00093DD0400E00093D90424E14F
:103B600011E004E00E94C61701E00093A604DBC147
:103B7000953551F4873008F48395823019F08530FB
:103B800009F0D1C18395CFC1943451F4813008F04C
:103B90008A95823019F0853009F0C5C18A95C3C174
:103BA000903308F4C0C19A3308F0BDC10091E90414
:103BB000013009F0F3C0082F005081F00A9509F494
:103BC0004CC0025009F477C00A9509F4A9C002500C
:103BD00009F4D4C00A9509F4D9C0A0C19033C1F446
:103BE000082F10E0F801EE5EFE4F90838395082FBA
:103BF00010E0F801EE5EFE4F0081003309F08EC147
:103C000021E3082F10E0F801EE5EFE4F208386C10D
:103C1000933340F4082F10E0F801EE5EFE4F9083DE
:103C200083957CC1933309F079C1082F10E0F80126
:103C3000EE5EFE4F90838395082F10E0F801EE5E54
:103C4000FE4F0081023308F469C120E3082F10E021
:103C5000F801EE5EFE4F208361C1903389F4082F96
:103C600010E0F801EF5EFE4F0081013308F456C109
:103C7000082F10E0F801EE5EFE4F908383954EC151
:103C8000913341F4082F10E0F801EE5EFE4F90836F
:103C9000839544C1082F10E0F801EF5EFE4F0081CC
:103CA000033308F03BC1082F10E0F801EE5EFE4F31
:103CB0009083839533C19033C1F4082F10E0F8014D
:103CC000EE5EFE4F90838395082F10E0F801EE5EC4
:103CD000FE4F0081003309F021C121E3082F10E0DD
:103CE000F801EE5EFE4F208319C1913309F016C131
:103CF000082F10E0F801EE5EFE4F90838395082FA9
:103D000010E0F801EE5EFE4F0081033308F406C1B7
:103D100020E3082F10E0F801EE5EFE4F2083FEC086
:103D2000903389F4082F10E0F801EF5EFE4F008118
:103D3000013308F4F3C0082F10E0F801EE5EFE4FE7
:103D400090838395EBC0082F10E0F801EF5EFE4FE3
:103D50000081013359F4933308F0E0C0082F10E0DC
:103D6000F801EE5EFE4F90838395D8C0082F10E0D7
:103D7000F801EE5EFE4F90838395D0C0082F10E0CF
:103D8000F801EE5EFE4F90838395C8C0082F10E0C7
:103D9000F801EE5EFE4F90838395C0C00091E90468
:103DA000023009F0BBC0082F005081F00A9509F4D9
:103DB0004CC0025009F477C00A9509F497C002502C
:103DC00009F471C00A9509F491C0A8C09033C1F4F8
:103DD000082F10E0F801EE5EFE4F90838395082FC8
:103DE00010E0F801EE5EFE4F0081003309F096C04E
:103DF00021E3082F10E0F801EE5EFE4F20838EC015
:103E0000923340F4082F10E0F801EE5EFE4F9083ED
:103E1000839584C0923309F081C0082F10E0F80127
:103E2000EE5EFE4F90838395082F10E0F801EE5E62
:103E3000FE4F0081043308F471C020E3082F10E026
:103E4000F801EE5EFE4F208369C0903389F4082F9D
:103E500010E0F801EF5EFE4F0081013308F45EC010
:103E6000082F10E0F801EE5EFE4F9083839556C058
:103E7000943340F4082F10E0F801EE5EFE4F90837B
:103E800083954CC0082F10E0F801EF5EFE4F0081D3
:103E9000023308F043C0082F10E0F801EE5EFE4F39
:103EA000908383953BC09033B9F4082F10E0F8015C
:103EB000EE5EFE4F90838395082F10E0F801EE5ED2
:103EC000FE4F0081003351F521E3082F10E0F80187
:103ED000EE5EFE4F208322C0963300F5082F10E0DF
:103EE000F801EE5EFE4F9083839518C0903379F40D
:103EF000082F10E0F801EF5EFE4F0081013370F0F3
:103F0000082F10E0F801EE5EFE4F908307C0082FE7
:103F100010E0F801EE5EFE4F90838395823011F041
:103F2000853009F483958093D90400EF0093A204AF
:103F3000E6E00C94C5409A938A932FE016E004E0E3
:103F40000E94C617009110010530C9F400918B0240
:103F5000023041F431E040E357E022E011E004E0B8
:103F60000E94641800918B02013011F531E048E3A2
:103F700057E022E011E004E00E94641819C00091AB
:103F800010010B3069F400918B02023049F431E0EA
:103F900040E357E022E011E004E00E94641808C00A
:103FA00031E04AE257E022E011E004E00E946418A8
:103FB0000091D9041091DA040117E8F50091E904A1
:103FC000053A61F00091E904043941F00091E904F7
:103FD000043A21F00091E904063AB9F40091A204F0
:103FE000003321F00091A204013329F52091A204AD
:103FF0000091D90410E0F801E053FB4F2083E9ED74
:10400000F4E000810395008316C00091A204003300
:1040100090F00091A2040A3370F42091A204009160
:10402000D90410E0F801E053FB4F2083E9EDF4E000
:104030000081039500830091A2040332B9F400913A
:1040400010010D3098F000911001013178F4EBEC83
:10405000F4E00081039500830091CB04023018F056
:1040600000E00093CB0401E00093A6040091D90482
:104070001091DA04011708F04AC00091EB040130F6
:1040800009F042C0009110010530E9F400918B0263
:10409000023051F430E040E55EE022E01091D904B6
:1040A000175F04E00E94641800918B02013041F513
:1040B00030E040E55EE022E01091D904115F04E0B9
:1040C0000E9464181DC0009110010B3079F400911A
:1040D0008B02023059F430E040E55EE022E01091BE
:1040E000D904175F04E00E9464180AC030E040E57C
:1040F0005EE022E01091D904195F04E00E94641888
:1041000000E00093EB0403C001E00093EB04009196
:10411000A204043489F40091D904013068F0E9ED77
:10412000F4E000810A95008300E02091D90430E09A
:10413000F901E053FB4F0083009110010530C9F4F1
:1041400000918B02023041F431E040ED54E022E076
:1041500019E004E00E945C1700918B02013011F518
:1041600031E040ED54E022E01FE004E00E945C17E3
:1041700019C0009110010B3069F400918B020230DC
:1041800049F431E040ED54E022E019E004E00E94FF
:104190005C1708C031E040ED54E022E017E004E095
:1041A0000E945C170091A204033409F068C00091DA
:1041B0008B02013019F402E000938B020091140588
:1041C000002339F00091D101023019F400E000938E
:1041D000C60400911505013058F00091D30101305B
:1041E00021F00091D301023019F400E00093C604DD
:1041F00000911605013038F00091D501023019F414
:1042000000E00093C6040091C604013019F401E0F7
:104210000093AD0400E00093DD040E94B01701E0BC
:104220000093A60400E00093D9040091D90408305B
:1042300070F400E02091D90430E0F901E053FB4F25
:104240000083E9EDF4E0008103950083EECF00E008
:104250000093CB0400E00093D90400E00093DA045B
:1042600000E00093DE0400E010E0E0EEF4E0008304
:10427000118300E010E0E2EEF4E00083118300918E
:10428000E904053A69F00091E904043949F0009124
:10429000E904043A29F00091E904063A09F06CC0F7
:1042A0000091D9041091DA04011709F065C000915A
:1042B000A204053409F060C000E00093DD040E9410
:1042C000B01701E00093A60400E010E0E6EEF4E091
:1042D0000083118300E00093F80420E00091DA04E9
:1042E000502F0091DA04201798F45A9530E0F90124
:1042F000E053FB4F808190E0C0978C01452F0E94D6
:104300002C40E8EFF4E01081100F10832395E9CFE3
:1043100001E00093EA040091E9040093F70400E04F
:104320000093D9040091D904083070F400E0209182
:10433000D90430E0F901E053FB4F0083E9EDF4E0EC
:10434000008103950083EECF00E00093D90400E0E4
:104350000093DA0400E00093DE0400E00093E90437
:1043600000E010E0E0EEF4E00083118300E010E0F4
:10437000E2EEF4E0008311830091A204053409F019
:1043800009C200911001023009F404C20091100129
:10439000053009F4FFC1009110010B3009F4FAC196
:1043A0000091E904053A09F4F5C10091E9040531E9
:1043B00009F4F0C10091E904043909F4EBC100915A
:1043C000E904043A09F4E6C10091E904063A09F463
:1043D000E1C100E00093DD040E94B01701E000930A
:1043E000A6040091D904015051F00A9509F443C084
:1043F0000A9509F48AC00A9509F4D2C022C1009135
:10440000D00410E0005310404091DF0450E00E94BF
:104410004A40E4EEF4E0008311830091DF0410E0F1
:10442000E4EEF4E0408151810E942440E6EEF4E0A5
:10443000008311830091D00400530093E804E6EE5A
:10444000F4E000811181E2EEF4E020813181021775
:10445000130708F4F6C0E0EEF4E000811181E6EE07
:10446000F4E0208131810217130708F4EAC001E06B
:104470000093EA04E6C04091D00450E00AE010E066
:104480000E9424402091D10430E0020F131F0051FC
:1044900012404091DF0450E00E944A40E4EEF4E014
:1044A000008311830091DF0410E0E4EEF4E040812A
:1044B00051810E942440E6EEF4E0008311830091D4
:1044C000D0040295007F1091D104010F0053009396
:1044D000E804E6EEF4E000811181E2EEF4E02081F0
:1044E00031810217130708F4ACC0E0EEF4E000815C
:1044F0001181E6EEF4E0208131810217130708F400
:10450000A0C001E00093EA049CC04091D00450E0B8
:1045100004E610E00E942440C8014091D10450E01C
:104520000AE010E00E942440800F911F0091D20405
:1045300010E0800F911F805D94418C014091DF0459
:1045400050E00E944A40E4EEF4E0008311830091C1
:10455000DF0410E0E4EEF4E0408151810E94244049
:10456000E6EEF4E000831183E6EEF4E000811181D1
:10457000E2EEF4E0208131810217130708F461C0F4
:10458000E0EEF4E000811181E6EEF4E0208131817B
:104590000217130708F455C001E00093EA0451C064
:1045A0004091D00450E008EE13E00E942440C8017E
:1045B0004091D10450E004E610E00E942440800FB6
:1045C000911F4091D20450E00AE010E00E94244084
:1045D000800F911F0091D30410E0800F911F805530
:1045E000904D8C014091DF0450E00E944A40E4EE7F
:1045F000F4E0008311830091DF0410E0E4EEF4E0C6
:10460000408151810E942440E6EEF4E00083118352
:10461000E6EEF4E000811181E2EEF4E020813181E8
:104620000217130770F0E0EEF4E000811181E6EE6E
:10463000F4E0208131810217130718F001E00093A4
:10464000EA040091EA04013009F077C00091E9041E
:10465000015909F453C00A9509F45BC00A9509F49D
:1046600058C00E5009F44AC00A9509F447C00450D6
:1046700009F444C00F5560F0035058F0005040F06A
:10468000035090F00F50E1F00A9521F10A9561F185
:104690004EC00091E9040093F704E6EEF4E00081D7
:1046A00011810093F80443C00091E9040550009380
:1046B000F704E6EEF4E0008111810093F80437C0BE
:1046C00004E00093F704E6EEF4E00081118100932A
:1046D000F8042DC006E00093F704E6EEF4E0008154
:1046E00011810093F80423C009E00093F704E6EE7B
:1046F000F4E0008111810093F80419C00091E904ED
:104700000093F704E6EEF4E0008111810093F804D1
:104710000EC00091E9040093F7044AE050E0E6EE91
:10472000F4E0008111810E9432400093F80400E01F
:104730000093E90400E00093EA0400E00093D90448
:104740000091D904083070F400E02091D90430E0E1
:10475000F901E053FB4F0083E9EDF4E0008103959C
:104760000083EECF00E00093CB0400E00093D90477
:1047700000E00093DA0400E00093DE0400E010E0C3
:10478000E0EEF4E00083118300E010E0E2EEF4E0FC
:10479000008311830091A204053409F0FDC000914B
:1047A000D904043009F0F8C000918B02013029F0DF
:1047B00000918B02023009F0EFC00091100105302A
:1047C00029F0009110010B3009F0E6C000E00093E1
:1047D000DD040E94B01701E00093A60400918B0253
:1047E000023009F089C000E00093D90400E0009392
:1047F0008B0200918B020430D8F400918B0210E000
:10480000F801E053FB4F208100918B0210E0F8018A
:10481000E451FB4F0081201729F0E9EDF4E000811D
:1048200003950083EBE8F2E0008103950083E1CF7C
:104830000091D904002329F100E00093D90400E09D
:1048400000938B0200918B020430D8F400918B020C
:1048500010E0F801E053FB4F208100918B0210E043
:10486000F801E15AF14F0491201729F0E9EDF4E045
:10487000008103950083EBE8F2E00081039500835B
:10488000E1CF0091D904002339F401E000938B02B9
:1048900001E00093C50456C002E000938B02009132
:1048A0001405002339F00091D101023019F400E021
:1048B0000093C60400911505013058F00091D30112
:1048C000013021F00091D301023019F400E000938F
:1048D000C60400911605013038F00091D501023070
:1048E00019F400E00093C6040091C604013051F5AC
:1048F00001E00093AD0426C000918B02013011F558
:104900000091D0040093EC040091D1040093ED04D5
:104910000091D2040093EE040091D3040093EF04BD
:1049200001E00093410400E010E0E7E4F4E00083DC
:1049300011830CEE14E0E3E4F4E00083118302E061
:1049400000938B0200E00093D9040091D904043055
:1049500070F400E02091D90430E0F901E053FB4FFE
:104960000083E9EDF4E0008103950083EECF00E0E1
:104970000093D90400E00093DA0400E00093DE0421
:1049800000E010E0E0EEF4E00083118300E010E0CE
:10499000E2EEF4E00083118300EF0093A2040091A3
:1049A000AD04013031F405E40093A20400E000936B
:1049B000AD0400918B02013039F4009110010B30ED
:1049C00019F405E40093A20400918B02013071F404
:1049D00000911001053051F40091C504013031F40B
:1049E00003E30093A20400E00093C5048991999128
:1049F00008958A93802F05E1009310010E94B0175B
:104A000000E00093CC0402E00093CE04082F015391
:104A10000093FB0400E010E0EAEFF4E00783108766
:104A20008991089504E0009310010E94B01700E0FE
:104A30000093CC0403E00093CE0401E00093CD0486
:104A400000E00093100528E211E002E00E94C61782
:104A500000E010E0EAEFF4E00783108701E0009344
:104A6000A60408958A93802F8F3F69F40FE3009383
:104A70001F020FE3009320020FE3009321020FE3D4
:104A80000093220223C0843669F401E300931F02DD
:104A900000E30093200200E30093210200E300936F
:104AA000220214C000E300931F024AE0082F0E9474
:104AB0001640005D009320024AE0082F0E94164035
:104AC000405D4093210200E3009322028991089502
:104AD0000E94B74000911001013009F08CC0009194
:104AE000A204035209F47DC00F5031F1025009F4C1
:104AF00048C0025009F445C0025009F44DC00D50A1
:104B000009F474C0085011F00C947D2F0E94B01766
:104B100002E00093100101E00093A60401E000937D
:104B20000D0100E00093CC0402E00093CD0403E00B
:104B30000093CE040C947D2F00918C02023040F043
:104B400000918C02102F1A9510938C02102F04C024
:104B500006E000938C02102F00918C020093A304B6
:104B600001E00093410405E010E0E7E4F4E0008395
:104B7000118303EA14E0E3E4F4E0008311830C946E
:104B80007D2F00910F01013011F402E001C001E01E
:104B900000930F010C947D2F00918C02063040F49D
:104BA00000918C02102F139510938C02102F04C0CB
:104BB00000E000938C02102F00918C020093A3045C
:104BC00001E00093410405E010E0E7E4F4E0008335
:104BD000118303EA14E0E3E4F4E0008311830C940E
:104BE0007D2F02E00093CA040C947D2F01E0009316
:104BF000CA040C947D2F00911001023009F0EBC023
:104C00000091A204015309F458C00A9509F468C040
:104C10000A9509F46FC00A9509F47FC00A9509F452
:104C2000B4C00A9509F4C4C00D5041F00A9571F161
:104C3000095021F00850A9F00C947D2F0E94B01764
:104C400001E000930D0101E00093100100E00093EA
:104C5000CC0400E00093CE0401E00093CD040C945A
:104C60007D2F0091CC04013010F40C947D2F0E9414
:104C7000B017ECECF4E000810A95008301E00093AA
:104C8000A60401E0009311010C947D2F0091CC0447
:104C90001091CD04011710F00C947D2F0E94B017D5
:104CA000ECECF4E000810395008301E00093A6049E
:104CB00001E0009311010C947D2F0E94B01701E0D8
:104CC0000093A60404E00093100100E00093CC04DC
:104CD00001E00093CD0403E00093CE040C947D2FFB
:104CE0000E94B01701E00093A60403E000931001B6
:104CF0000C947D2F0E94B01701E00093A60406E1FA
:104D00000093100100E00093CC0400E00093CD0478
:104D100003E00093CE040C947D2F0E94B01701E0B5
:104D20000093A60405E00093100100E00093CC047A
:104D300003E00093CE0401E00093CD04009115053B
:104D4000013038F00091D301043018F400E00093F2
:104D5000CD0400911605013038F00091D5010430E2
:104D600018F400E00093CD0400911405002311F421
:104D70000C947D2F0091D101043010F00C947D2F04
:104D800000E00093CD040C947D2F0E94B01701E049
:104D90000093A60406E00093100100E00093CC0409
:104DA00001E00093CD0403E00093CE040C947D2F2A
:104DB0000E94B01701E00093A60403E100931001E4
:104DC00000E00093CC0404E00093CD0401E00093E4
:104DD000CE040C947D2F00911001033009F073C0B4
:104DE0000091A204015379F10A9509F44CC00151D4
:104DF000B9F00A5011F00C947D2F0E94B01701E019
:104E000000930D0101E00093100100E00093CC0439
:104E100000E00093CE0401E00093CD040C947D2FBC
:104E20000E94B01702E00093100101E00093A60475
:104E300000E00093CC0402E00093CD0403E0009373
:104E4000CE040C947D2F03E00093DD040BE111E010
:104E5000EBEDF4E00083118301E00093E90401E04D
:104E60000093DF0400E0093010F00C947D2F10E077
:104E7000F801E55EFE4F208110E0F801EE5EFE4F86
:104E800020830395F0CF03E00093DD0404E211E0FA
:104E9000EBEDF4E00083118302E00093E90401E00C
:104EA0000093DF0400E0093010F00C947D2F10E037
:104EB000F801EC5DFE4F208110E0F801EE5EFE4F40
:104EC00020830395F0CF00911001043009F05FC0FA
:104ED0000091A2040153045008F456C00E50D1F0C2
:104EE0000A95E9F1095021F0085031F10C947D2F19
:104EF0000E94B01701E000930D0101E00093100142
:104F000000E00093CC0400E00093CE0401E00093A5
:104F1000CD04F3C70E94B01702E00093100101E036
:104F20000093A60400E00093CC0402E00093CD04BB
:104F300003E00093CE04E1C70091CC04013008F4F3
:104F4000DCC70E94B017ECECF4E000810A95008306
:104F500001E00093A60401E000931101CEC7009187
:104F6000CC041091CD04011708F0C7C70E94B017F8
:104F7000ECECF4E000810395008301E00093A604CB
:104F800001E000931101B9C701E333DDB6C7009119
:104F90001001053009F0EFC00091A204015309F49B
:104FA0005EC00A9509F46DC00A9509F47CC00A95A3
:104FB00009F4C0C00F50C9F00A95E1F1095019F089
:104FC000085029F19AC70E94B01701E000930D0123
:104FD00001E00093100100E00093CC0400E0009396
:104FE000CE0401E00093CD0488C70E94B01702E010
:104FF0000093100101E00093A60400E00093CC04AC
:1050000002E00093CD0403E00093CE0476C7009144
:10501000CC04013008F471C70E94B017ECECF4E046
:1050200000810A95008301E00093A60401E000934B
:10503000110163C70091CC041091CD04011708F051
:105040005CC70E94B017ECECF4E00081039500838C
:1050500001E00093A60401E0009311014EC70E94F5
:10506000B01701E00093A6040BE00093100100E0EC
:105070000093CC0400E00093CD0401E00093CE0443
:105080003CC70E94B01701E00093A6040CE0009317
:10509000100100E00093CC0401E00093CD0403E094
:1050A0000093CE042AC700918B020230F9F401E08C
:1050B0000093DD0404E00093DA040CEE14E0EBED61
:1050C000F4E00083118300E00093DE0400E010E0D0
:1050D000E0EEF4E00083118300E010E0E2EEF4E0A3
:1050E0000083118301E00093DF0407C700918B0266
:1050F000013009F002C701E00093DD0404E00093F1
:10510000DA040CEE14E0EBEDF4E00083118300E030
:105110000093DE0400E010E0E0EEF4E00083118391
:1051200000E010E0E2EEF4E00083118301E0009380
:10513000DF04E3C60091D301043008F4DEC6009119
:10514000D501043008F4D9C60091D101043008F427
:10515000D4C60E94B01701E00093A60404E10093B6
:10516000100100E00093CC0403E00093CE0401E0C2
:105170000093CD04C2C600911001063109F092C01F
:105180000091A204035209F4B8C60D5009F4B5C643
:105190000351E1F00A95D1F10A9509F4AEC6085021
:1051A00019F0085029F151C00E94B01701E0009396
:1051B0000D0101E00093100100E00093CC0400E039
:1051C0000093CE0401E00093CD0497C60E94B0176F
:1051D00002E00093100101E00093A60400E00093B8
:1051E000CC0402E00093CD0403E00093CE0485C616
:1051F0000091CC04013008F480C6ECECF4E00081AE
:105200000A95008301E00093A60477C60091CE04BE
:1052100010912B05011708F070C64091CC0450E0A6
:1052200020912B0530E00091CE0410E0201B310BC3
:10523000421753070CF061C6ECECF4E000810395D3
:10524000008301E00093A60458C60091A204015314
:10525000202F00912B05201708F04FC602E700937E
:10526000F20430E0F901E75DFA4F07810093F8049A
:1052700030E0F901E75DFA4F008110E0E2EEF4E082
:1052800000831183E0EEF4E0008311830093F104C6
:105290000AE41EE0E5EFF4E00083118302E00093EE
:1052A000DD042BC60091A204035209F401C20E5082
:1052B000D9F00A95B9F10A9509F452C00A9509F492
:1052C0006DC0025009F49AC00D5009F4C1C00A958E
:1052D00009F496C10A9509F405C2085009F4A6C05C
:1052E000085009F43AC108C600911001065019F09F
:1052F000065009F002C60E94B01701E00093A60410
:10530000E0E1F1E000810395008300E00093CC042C
:1053100006E00093CD0401E00093CE0400E000938A
:10532000CB04EBC500911001065019F0065009F0AE
:10533000E4C50E94B01701E00093A60400E00093CA
:10534000CC0401E00093CE0401E00093110102E0DF
:105350000093CD04E0E1F1E000810E5F0083CDC554
:1053600000911001065019F0065009F0C6C50E94C0
:10537000B01701E00093A60400E00093CC0401E024
:105380000093CE0401E00093110103E00093CD04EB
:10539000E0E1F1E000810D5F0083AFC500911001F5
:1053A000065039F00250C9F0045019F00250A9F02B
:1053B000A4C50E94B01701E00093A60400E000938A
:1053C000CC0401E00093CE04E0E1F1E000810C5F49
:1053D000008305E00093CD0490C50091CC0401301A
:1053E00009F08BC500911101023020F000911101EC
:1053F0000A9501C004E0009311017FC500911001DE
:10540000085019F0065009F078C50091CC0401301D
:1054100009F073C500911101043020F400911101CD
:10542000039501C001E00093110167C50E94B01708
:1054300001E000930D0101E00093100100E00093F2
:10544000CC0400E00093CE0401E00093CD0455C5E8
:10545000009110010650A9F0015090F0045018F18D
:105460000050B1F10A95A1F1015050F0045008F438
:1054700057C0025031F00A9559F10A9509F46BC0F2
:105480003CC50E94B01702E00093100101E00093B8
:10549000A60400E00093CC0402E00093CD0403E0F6
:1054A0000093CE042AC50E94B01706E000931001B5
:1054B00001E00093A60400E00093CC0401E0009317
:1054C000110101E00093CD0403E00093CE0415C563
:1054D0000E94B01705E00093100101E00093A604BC
:1054E00000E00093CC0403E00093CE0401E00093BD
:1054F000CD040091D301043018F400E00093CD04F2
:105500000091D501043018F400E00093CD0400911F
:10551000D101043008F0F1C400E00093CD04EDC4E3
:105520000E94B01701E00093A6040CE00093100164
:1055300000E00093CC0400E00093CB0401E0009372
:10554000110101E00093CD0403E00093CE0400E0DC
:105550000093CB04D2C466DAD0C400911001065087
:105560000550A0F00A9591F00A9569F00A9571F03E
:105570000A9561F00A9539F0035041F00A9531F02F
:105580000A95B9F0BAC400E00093CB040091CC04B2
:10559000013008F4B2C4ECECF4E000810A95008319
:1055A00001E00093A6040E94B01701E000931101EE
:1055B000A4C4A1E0B5E0ED91FC91119732970CF4F1
:1055C0009CC40091CC04013030F0ECECF4E000819C
:1055D0000A95008307C0EAEFF4E0078110850A9579
:1055E0000093CC0400E00093100528E211E002E0F3
:1055F0000E94C61728E01DE004E00E94C6177DC483
:105600000091100106500550A0F00A9591F00A95FE
:1056100069F00A9571F00A9561F00A9539F0035026
:1056200041F00A9531F00A95C9F067C400E0009393
:10563000CB040091CC041091CD04011708F05DC497
:10564000ECECF4E000810395008301E00093A604F4
:105650000E94B01701E0009311014FC4A1E0B5E032
:10566000ED91FC91119732970CF447C40091CC0452
:1056700010E0EAEFF4E08781908501970817190799
:1056800034F4ECECF4E000810395008303C000E007
:105690000093CC0400E00093100528E211E002E042
:1056A0000E94C61728E01DE004E00E94C61725C42A
:1056B000009110010D3008F420C400911001013157
:1056C00008F01BC4EBECF4E000810395008300912B
:1056D000CB04023018F000E00093CB0401E000930B
:1056E000A6040BC4009110010B5099F0025009F46C
:1056F000D9C00A9509F4B7C10A9509F421C20A95DF
:1057000009F4ACC2035009F49CC30A9509F4C0C360
:10571000F4C300918B02023031F50091C6040023DE
:1057200011F501E00093DD0404E00093DA040CEECF
:1057300014E0EBEDF4E00083118300E00093DE045D
:1057400000E010E0E0EEF4E00083118300E010E000
:10575000E2EEF4E00083118301E00093DF0401E056
:105760000093C604CAC300918B02013009F052C0F5
:1057700000E0009319050091D101023021F0009161
:10578000D1010E3419F401E0009319050091D30101
:10579000023041F00091D301013021F00091D3019A
:1057A0000E3419F401E0009319050091D50102307F
:1057B00021F00091D5010E3419F401E00093190590
:1057C00002E00093DD0401E00093F20400E00093A6
:1057D000F10400E00093F40402E000938B020091D6
:1057E0001905002351F001E00093F30403EA15E0EA
:1057F000E5EFF4E00083118309C003E00093F304B4
:105800000FEA15E0E5EFF4E00083118300E0009378
:10581000C60473C300E0009319050091D101023062
:1058200039F00091D1010E3419F001E0009319050F
:105830000091D301023059F00091D301013039F0C9
:105840000091D3010E3419F001E000931905009185
:10585000D501023039F00091D5010E3419F001E084
:1058600000931905009119050023C1F002E000938F
:10587000DD0402E00093F20400E00093F10400E094
:105880000093F40407EA15E0E5EFF4E000831183E8
:1058900002E000938B0202E00093F30400E0009327
:1058A000C6042BC30091D101002309F026C3009147
:1058B000CC04005089F00A9529F10A95C9F10A959E
:1058C00009F455C00A9509F471C00A9509F48DC010
:1058D0000A9509F4A9C011C302E00093DD0401E0B8
:1058E0000093F20400E00093F10407E00093F30456
:1058F00000E00093F40400EF14E0E5EFF4E000832F
:105900001183FBC202E00093DD0402E00093F20485
:1059100000E00093F10401E00093F30400E0009341
:10592000F40403E215E0E5EFF4E000831183E5C23F
:1059300001E00093DD0402E00093DA0400E000934C
:10594000DE0403E610E0E0EEF4E00083118300E003
:1059500010E0E2EEF4E00083118308E00093E90434
:1059600001E00093DF0401E00093C704C6C201E038
:105970000093DD0402E00093DA0400E00093DE040B
:1059800002E110E0E0EEF4E00083118300E010E0BB
:10599000E2EEF4E00083118309E00093E90401E002
:1059A0000093DF0401E00093C704A7C201E0009365
:1059B000DD0402E00093DA0400E00093DE0406E375
:1059C00010E0E0EEF4E00083118300E010E0E2EE8E
:1059D000F4E0008311830AE00093E90402E00093FD
:1059E000DF0401E00093C70488C201E00093DD04F6
:1059F00002E00093DA0400E00093DE0404E110E02A
:105A0000E0EEF4E00083118300E010E0E2EEF4E069
:105A1000008311830BE10093E90401E00093DF04AC
:105A200001E00093C70469C201E00093DD0402E0D5
:105A30000093DA0400E00093DE0404E110E0E0EEFD
:105A4000F4E00083118300E010E0E2EEF4E0008374
:105A500011830CE10093E90401E00093DF0401E00D
:105A60000093C7044AC20091D101002309F045C246
:105A70000091CC04005031F00A9519F10A9509F40F
:105A800040C03BC201E00093DD0402E00093DA0471
:105A900000E00093DE040AE010E0E0EEF4E00083B2
:105AA000118300E010E0E2EEF4E00083118301E9ED
:105AB0000093E90401E00093DF0401E00093C704D0
:105AC0001CC201E00093DD0404E00093DA0400E06E
:105AD0000093DE0408EE13E0E0EEF4E000831183AF
