:020000020000FC
:100000000C94283F189518951895189518951895DB
:100010001895189518951895189518951895189578
:10002000189518950C94EC16189518951895189520
:1000300018951895189518950C94BC2F1895189527
:100040000C948D14189518950C94E6130C94571471
:100050001895189518951895189518951895189538
:100060001895189518951895189518951895189528
:1000700018951895189518950C94F1150C944C1624
:10008000189518951895189518951895303F3002C1
:10009000300338010C0101200201000041A042A1FF
:1000A000E045A3A4A5A64BA74D484FA8504354A98B
:1000B000AA58E1ABACE2ADAE62AFB0B161B2B3B4DD
:1000C000E365B6B7B8B9BABBBCBD6FBE7063BF79E4
:1000D000E478E5C0C1E6C2C3C4C5C6C7CDE5F22019
:1000E000F1E2FFE7E820F120C1D1CF20202020203D
:1000F000002020C8EDE8F6E8E0EBE8E7E0F6E8FFEE
:10010000202020202000312EC6F3F0EDE0EB2E0061
:10011000322EC4E0F2E02FE2F0E5ECFF2E00332EA9
:10012000D3F1F2E0EDEEE2E8F2FC2E00342ECFF057
:10013000EEF1ECEEF2F020EFE0F0E0EC2E00060144
:1001400010011E012C01312E20C4E0F2E02E2020EF
:100150002020202020202020202000322E20C2F02D
:10016000E5ECFF2E20202020202020202020200031
:10017000312ED0E5E6E8EC2E00322ECFE0F0E0ECB8
:10018000E5F2F0FB2E00332ECFE0F0EEEBFC2E007C
:10019000342ED2E5F1F22E00700179018601900132
:1001A0002EC7E0F9E8F2E02E002ECFF0E8E5ECED06
:1001B000E8EA2E002ECFE5F0E5E4E0F2F7E8EA2EDB
:1001C000002ECEE1F9E8E52E00A001A901B401C19D
:1001D00001D2E8EF20E7E0F9E8F2FB202020202020
:1001E000202020202000D2E8EF20EBE8EDE8E820F6
:1001F0002020202020202020202000C4EEEF2E20D0
:10020000E2F0E5ECFF20E1E5E720ECE0ED2E200058
:10021000CAEEECEF2EE7E0E4E5F0E6EAE820E220C3
:10022000EBE8ED2E00CFE5F0E5EAF0FBF2E8E520A3
:10023000E8ECEFF3EBFCF1EEE200C7E0E3F02EF7C1
:10024000F3E2F1F2E2E8F22E20D0C720202000CF26
:10025000EEF0EEE320CFD0C5C4D3CFD020EFEE2018
:10026000D0C72000D101E601FB01100225023A02AD
:100270004F02F1EFE8F1EEEA00F1EFE8F1EEEA000B
:10028000302E2E393900302E2E313800302E2E35BA
:100290003400302E2E323000302E2E3230007202DA
:1002A0007902800286028C0292029802C2F0E5EC8A
:1002B000FF20E2EAEBFEF7E5EDE8FF20202020201A
:1002C00000C7E0E4E5F0E6EAE020EDE020E2FBEA4A
:1002D000EB2E203FEA00C1EBEEEA2E20EAEEECE046
:1002E000EDE4FB2020342E2E312000AC02C102D6DA
:1002F00002302E2E313000302E2E3130303000EDD5
:10030000E5F200F102F702FF02C2F0E5ECFF20E2A5
:10031000EAEBFEF7E5EDE8FF202020202000C4EB0B
:10032000E8F2E5EBFCEDEEF1F2FC20EAEEECE0EDBC
:10033000E4FB00C4EBE8F22E20EAEEECE0EDE4FB97
:100340002020342E2E312000C1EBEEEA2E20EAEEE2
:10035000ECE0EDE4FB2020342E2E31200009031EBA
:100360000333034803302E2E31300032302E2E312D
:100370003030000065036B0373037303D3E4E5F0CF
:10038000E6E0EDE8E520F0E5EBE520CFD0CC00D3CA
:10039000E4E5F0E6E0EDE8E520F0E5EBE520CFD0A0
:1003A000C400C2F0E5ECFF20EFE5F0E5E7E0EFF395
:1003B000F1EAE000CAEEEDF2F0EEEBFC20E2FBF534
:1003C0002EF1E8E3EDE0EBE000CFEEF0EEE320CF3E
:1003D000D0C5C4D3CFD020EFEE20CAD72000D3ECB5
:1003E000E5ED2EF3F1E8EBE5EDE8FF203120EAE062
:1003F000ED2E007C038F03A203B403C903DE03C701
:10040000C0D900CFD0CC00CFCC3200CFD0C400C2F6
:10041000FBE2E5E42000C3EEF2EEE22000C2E2E5FA
:10042000E4E5ED00D0E5F7FC202000D2E5F1F23163
:100430002000D2E5F1F2322000D2E5F1F2332000C3
:100440000F0416041D0424042B04320439043F3F16
:100450003F3F00202020C7E0EFF3F1EA20F2E5F172
:10046000F2E02020202020002020CFEEE4EEE6E481
:10047000E8F2E5203F20F1E5EA20202000C4D4C7BF
:100480002DCFF0CFE4202000C4D4C72DCFF0ECCC8A
:10049000CA3100C4D4C72DCFF0ECCCCA3200C4D4CA
:1004A000C72D4C363020202000CDC72DCFF0CFE413
:1004B00020202000CDC72DCFF0EC2DCCCA2000CFBE
:1004C000CFC72DCFF0CFE4202000CFCFC72DCFF066
:1004D000EC2DCCCA00EEF8E8E1EAE0202020200074
:1004E0007D04880493049E04A904B404BF04CA04D0
:1004F000D5043220EAEEEDF6E5E2E0FF003320EA33
:10050000EEEDF6E5E2E0FF00EEF8E8E1EAE02020BB
:10051000202000F204FD040805C7C0D93A00CFD05E
:10052000CC3A00CFCC323A00CFD0C43A003F3F3F64
:100530003F2020202000CDE5E8F1EFF0202000CF83
:10054000F0E5E4F3EFF02000C2FBE2E5E4E5ED20A6
:1005500000C3EEF2EEE220202000C2E2E5E4E5ED89
:10056000202000D0E5F7FC2020202000D2E5F1F289
:100570003120202000D2E5F1F23220202000D2E507
:10058000F1F23320202000480551055A0563056C1F
:1005900005750548055A0548056C0575057E05482D
:1005A000055A056C0575057E05C8F1F5EEE4ED2EDE
:1005B0002000CAEEEDF2F0EEEBFC00CFF3F1EA2002
:1005C00020202000D0E0E1EEF2E0202000CDE5E8A0
:1005D000F1EFF02E2000CF2EEDE5E8F1EFF000CEA8
:1005E000E6E8E4E0EDE8E5003F307830373F2020F2
:1005F000003F307830383F202000CDE5F220D0C7D2
:10060000202000D0E5F7FC2020202000A905B2051D
:10061000BB05C405CD05D605DF05E805F105FA05DE
:100620000306C8F1F5EEE4ED2E2000CFD0CC20CAB1
:10063000D7202000CFD0CC20CFC0202000CDE5F2A5
:1006400020CAD7202000CDE5E8F1EFF02E2000CF22
:100650002EEDE5E8F1EFF000CEE6E8E4E0EDE8E5C8
:1006600000C1CBCA20CACC2020003F307830383FB0
:100670002020003F307830393F202000D0E5F7FCC3
:10068000202020200022062B0634063D0646064F79
:1006900006580661066A0673067C06C8F1F5EEE4A4
:1006A000ED2E2000CFD0C420CAD7202000CFD0C448
:1006B00020CFC0202000CDE5F220CAD7202000CDD9
:1006C000E5E8F1EFF02E2000CF2EEDE5E8F1EFF0B8
:1006D00000CEE6E8E4E0EDE8E5003F307830373F73
:1006E0002020003F307830383F202000D1E8F1F260
:1006F000E5EC2E2000D0E5F7FC20202020009B0612
:10070000A406AD06B606BF06C806D106DA06E3069D
:10071000EC06F506672D006C2D00C2E2EEE43A000F
:10072000CFE0F0EEEBFC3A00CDEEE2FBE920EFE0AB
:10073000F0EEEBFC3A00C7EDE0F7E5EDE8E53A2036
:10074000003F3F3F3F00E2FBEAEB2E00E2EAEB2EE8
:100750000046074C074107C4E8E0EFE0E7EEED3A5A
:100760002000E2EAEB2FE2FBEAEB00E2EAEB2FE209
:10077000FBEAEB00302E2E3500E2EAEB2FE2FBEA3B
:10078000EB00302E2E323200302E2E323200302E40
:100790002E31300062076B077407790782078807DC
:1007A0008E07CFF0EEF8E8E2EAE020502D555350E6
:1007B000202000CFF0EEF8E8E2EAE02041542D5589
:1007C00053502000CFF0EEF8E8E2EAE02044535026
:1007D0002D55535000C4EEEFEEEBED2E20EFE0F080
:1007E000E0ECE5F2F0FB00C2E8E420EFE0F0E0EC42
:1007F000E5F2F0E000A207B307C407D507E707C595
:10080000F1F2FC00CDE5F200F1F2E0EDE4E0F0F20F
:100810000048455800110808082020202020457273
:10082000726F7220202020202000D3F1F2E0EDEE44
:10083000E2E8F2E520F7E0F1FB2000CDE5E8F1EF9A
:10084000F02EF7F22E20464C41534800CDE5E8F15A
:10085000EFF02EE7E0EF2E464C41534800CDE5E89F
:10086000F1EFF02EF7F22E20504C49532000CDE549
:10087000E8F1EFF02EE7E0EF2E504C49532000CD89
:10088000E5E8F1EFF02EE7E0EF2E3252414D200087
:10089000CDE5E8F1EFF02E445350203252414D2087
:1008A00000CDE5E8F1EFF02EF7F22E203252414D67
:1008B0002000D3F1F2E0EDEEE2E8F2E520F7E0F11E
:1008C000FB2000CDE8E7EAEEE520EDE0EFF02EE2D8
:1008D000FBF52E00C2FBF1EEEAEEE520EDE0EFF0D5
:1008E0002EE2FBF5003B084C085D086E087F0819F6
:1008F00008190819089008A108B208C308D40819F3
:100900000819081908CDE5F220E1EBEEEAE020C174
:10091000D1C720202000CDE5E8F1EFF02EE2E5F090
:10092000F12EC1D1C72000CDE5E8F1EFF02EEFE5C3
:10093000F0E5EAEB2E202000CDE5E8F1EFF02EE720
:10094000E0EF2E20C1D1C72000CDE5E8F1EFF02E79
:10095000E2F5EEE42ECFD3D1CA00CDE5E8F1EFF019
:100960002EE2F5EEE42ED1D2CECF00CDE5E8F1EFC8
:10097000F02EF6E5EFFC2EC2DBD52000CDE5E8F148
:10098000EFF02EE7E0EF2E20C2DBD52000CDE5F220
:1009900020F1E8E3EDE0EBE020D0C72020000509DE
:1009A00016092709380919081908190819084909E1
:1009B0005A0919086B0919087C098D091908CDE82D
:1009C000E7EAE8E920F3F0EEE22E20D0C72000CDE0
:1009D000E5F220E1EBEEEAE020C1D1CA20202000C0
:1009E000CDE5E8F1EFF02EE2E5F0F12EC1D1CA201D
:1009F00000CDE5E8F1EFF02EEDE5F220CAD7312089
:100A00002000CFF0E5E22EE4EB2DF1F2E82EEAEE45
:100A1000EC2E00CDE5E8F1EFF02EE7E0EF2E20C15F
:100A2000D1CA2000CDE5E8F1EFF02EE2FBEAEB2E93
:100A3000CAD1CA2000CDE5E8F1EFF02EE2EAEB2EB4
:100A400020CAD1CA2000CDE5E8F1EFF02EEAEEEDA4
:100A5000F2F02ECAD1CA00CFF0E5E4F3EFF02EEDAC
:100A6000E5F220CAD7312000CFF0E8E5EC20E1EB39
:100A7000EEEA2E20CAEEEC2E00CF09E009F10902C1
:100A80000A1908190819081908130A240A350A4608
:100A90000A570A19081908680AD1EDE8E62E20F36A
:100AA000F0EEE2EDFF20CFD0CC00CDE5F220E1EB7F
:100AB000EEEAE020C1D1CA20202000CDE5E8F1EF28
:100AC000F02EE2E5F0F12EC1D1CA2000CDE5E8F12B
:100AD000EFF02EE2FBEAEB2ED2E5F1F200CDE5E8F5
:100AE000F1EFF02EE2EAEB2E20D2E5F1F200CDE5B7
:100AF000E8F1EFF02EE2F5EEE42ECAD1CA2000AA0A
:100B00000ABB0A1908190819081908190819081937
:100B100008CC0ADD0AEE0A1908190819081908C3D1
:100B2000F0313A00C3F0323A00C3F0F3EFEFE020C7
:100B30003100C3F0F3EFEFE0203200290B320BE27B
:100B4000FBEAEB00CAD73100CAD73200CAEEEC315B
:100B500000CAEEEC3200CAEEEC3300CAEEEC340010
:100B6000CAEEEC3500CAEEEC3600CAEEEC3700CA2D
:100B7000EEEC38003F0B440B480B4C0B510B560B63
:100B80005B0B600B650B6A0B6F0BE2FBEAEB00D0B3
:100B9000C73100D0C732008A0B8F0B930BD2E5F11F
:100BA000F2203100D2E5F1F22032009D0BA40BC6F9
:100BB000F3F0EDE0EB2000F1EEE1FBF2E8E900E715
:100BC000E0F9E8F2FB00EFF0E8E5ECEDE8EAE00040
:100BD000EFE5F0E5E4E0F2F7E8EAE000B70BBF0B81
:100BE000C60BD00BD7F2E5EDE8E520E0F0F5E8E242
:100BF000E02E00CFCC00CFC400D1C100C7D900F98E
:100C00000BF60BF30BFC0BCEC1D90000CD2EE2EAA4
:100C1000EB2EF2E5F1F22000CD2EE2FBEAEB2EF214
:100C2000E5F1F200CD2EE2F5EEE4E020CAD1CA00F3
:100C3000CD2EE2EAEB2E20CAD1CA2000CD2EE2FB57
:100C4000EAEB2E20CAD1CA00CD2EE7E0EF2E20C15C
:100C5000D1CA2000CD2EEAEEEDF2F02EC1D1CA00AD
:100C6000CDE5F220E1EB2E20C1D1C700CEF82EE277
:100C7000E5F0F12EC1D1C700CD2EEFE5F0E5EA2E6B
:100C8000C1D1C700CD2EEAEEED2EE2FBF52EF60027
:100C9000CD2EE7E0EF2EE2FBF52EF600CDE5F220BB
:100CA000F12E20CFD3D1CA00CDE5F220F12E20D1F4
:100CB000D2CECF00CDE5F220F1E8E3ED2ED0C70093
:100CC000CFE5F0E5E7E0EFF3F1EA2000C8E7EC2E2E
:100CD000F0E5E6E8ECE02000C2EEF1F1F22E203182
:100CE000CAD72000C2EEF1F1F22E2032CAD720007E
:100CF000CDE5F22031CAD72035F12000CDE5F22034
:100D000032CAD72035F12000CD2EF0E0E1EEF22EF0
:100D100044535000C2EEF12EF0E0E12E4453500057
:100D2000CD2EF7F22E203252414D2000CD2EE7E09D
:100D3000EF2E203252414D00CD2EE2F0E5ECE5EDF4
:100D4000E8202000CD2EE7E0EF2E20504C49530044
:100D5000CD2EF7F22E20504C49532000CD2EF7F225
:100D60002E20464C41534800CD2EE7E0EF2E464C56
:100D700041534800CDE8E72EEDE0EF2EE2FBF50011
:100D8000C2FBF12EEDE0EF2EE2FBF5000B0C0C0C9C
:100D9000180C240C300C3C0C480C540C600C6C0CE3
:100DA000780C840C900C9C0CA80CB40CC00CCC0CD3
:100DB000D80CE40CF00CFC0C080D140D200D2C0DBF
:100DC000380D440D500D5C0D680D740D800DCFE590
:100DD000F0E5E7E0EF2000CDE0F7E0EBEE2000CA21
:100DE000EEEDE5F62000EAEEECE0EDE4FB005F005E
:100DF000D1E2FFE7FC20F120CFCA002E00303030D6
:100E000030007701741B6C1B04641B025C1B0154D3
:100E10001B39701B04681B02601B01581B196E1BD9
:100E200004661B025E1B01561B09721B046A1B022F
:100E3000621B015A1BFB0100242F0800FC2E012F0E
:100E4000062F0B2F102F152F1A2F1F2F3000B82F02
:100E50000B00812F862F8B2F902F952F9A2F9F2F4E
:100E6000A42FA92FAE2FB32F01009F3D15002836C8
:100E700035366C368536C7362537583707386F38DC
:100E8000C13880392537583707386F38C1389F3D0A
:100E90009F3D2B3AA23AA73BA80100E062E062170F
:100EA00040F470E0FA01E60FF71F1081010F63951F
:100EB000F6CF08959A938A93902F812FE3EEF3E073
:100EC0000081006100839093260401E000932704D1
:100ED0008093280425E004E214E0DEDF10E0EEE871
:100EE000F2E000831183EEE8F2E0008111810093CB
:100EF000290406E00E94CA158991999108959A9350
:100F00008A93902F812FE3EEF3E00081006100834C
:100F10009093260480932704282F2C5F04E214E08A
:100F2000BBDF10E0EEE8F2E000831183EEE8F2E0D0
:100F300000811181202F082F10E0F801EC5DFB4F9C
:100F40002483082F0B5F0E94CA15899199910895F7
:100F50008A93802F082F015089F00A95D1F00A95C5
:100F600051F10A9509F443C00A9509F477C00A952E
:100F700009F490C0035009F4A9C0C3C00091E8036C
:100F8000083018F40091E80301C008E000935E0205
:100F9000B8C00091E803013050F00091E80303303D
:100FA00030F40091E8030A9500937B02AAC002E0A6
:100FB00000937B02A6C00091E803043688F40091F8
:100FC000E8034AE00E943C3F005D00937C020091F0
:100FD000E8034AE00E943C3F405D40937D0291C09F
:100FE0000FE300937C020FE300937D028AC000911F
:100FF000E803033188F40091E8034AE00E943C3F93
:10100000005D00935F020091E8034AE00E943C3FCC
:10101000405D4093600206C00FE300935F020FE360
:10102000009360020091E903033188F40091E90321
:101030004AE00E943C3F005D009367020091E90393
:101040004AE00E943C3F405D409368025AC00FE373
:10105000009367020FE30093680253C00091E80316
:10106000073388F40091E8034AE00E943C3F005DAA
:10107000009383020091E8034AE00E943C3F405DF8
:10108000409384023EC00FE3009383020FE300937A
:10109000840237C00091E803053188F40091E80329
:1010A0004AE00E943C3F005D00936F020091E8031C
:1010B0004AE00E943C3F405D4093700222C00FE333
:1010C00000936F020FE3009370021BC00091E803CE
:1010D000053188F40091E8034AE00E943C3F005D3E
:1010E000009375020091E8034AE00E943C3F405D96
:1010F0004093760206C00FE3009375020FE300935E
:10110000760201E00093A90401E00093A80489910C
:1011100008958A93802F082F015129F00250F9F089
:101120000A95D9F162C00091E8030B3088F4009170
:10113000E8034AE00E943C3F005D009311020091E9
:10114000E8034AE00E943C3F405D409312024DC0DC
:101150000FE3009311020FE30093120246C000E078
:10116000083008F042C010E0F801EC51FC4F148147
:10117000153638F02FEF10E0F801E95EFD4F2083BF
:101180000AC010E0F801EC51FC4F248110E0F80196
:10119000E95EFD4F20830395E3CF0091E8030093C0
:1011A000270220E0243008F530912702422F01E089
:1011B00010E00E94523F3023332359F031E3022FD5
:1011C00010E0119501951040F801E85DFD4F338363
:1011D0000AC030E3022F10E0119501951040F8018C
:1011E000E85DFD4F33832395DDCF01E00093A80434
:1011F00001E00093A904899108958A93802F082F14
:10120000015261F00A9531F1025009F457C00A9574
:1012100009F47DC00A9509F4A3C0CAC00091E8038F
:101220000B3088F40091E8034AE00E943C3F005DE7
:10123000009333020091E8034AE00E943C3F405D86
:1012400040933402B5C00FE3009333020FE30093E1
:101250003402AEC00091E803043130F10091E8039C
:10126000053610F50091E803043651F401E30093CC
:10127000390200E300933A0200E300933B0298C076
:1012800000E3009339020091E8034AE00E943C3FEA
:10129000005D00933A020091E8034AE00E943C3F5F
:1012A000405D40933B0284C00FE3009339020FE39B
:1012B00000933A020FE300933B027AC00091E803E7
:1012C0000093400220E0243008F072C030914002C8
:1012D000422F01E010E00E94523F3023332359F0A7
:1012E00031E3022F10E0119501951040F801EF5BFA
:1012F000FD4F33830AC030E3022F10E011950195B2
:101300001040F801EF5BFD4F33832395DCCF009154
:10131000E8030093CA0420E0243008F049C030916B
:10132000CA04422F01E010E00E94523F30233323D1
:1013300059F031E3022F10E0119501951040F801AA
:10134000EA5BFD4F33830AC030E3022F10E01195B2
:1013500001951040F801EA5BFD4F33832395DCCF04
:101360000091E8030093CB0420E0283008F5309189
:10137000CB04422F01E010E00E94523F3023332380
:1013800059F031E3022F10E0119501951040F8015A
:10139000E55BFD4F37830AC030E3022F10E0119563
:1013A00001951040F801E55BFD4F37832395DDCFB4
:1013B00001E00093A80401E00093A9048991089535
:1013C00000E00093930200919302043008F070C093
:1013D0004091930250E003E010E00E944A3FF80180
:1013E000EC51FC4F0481063058F02EE4009193023A
:1013F00010E0000F111FF801EF52FE4F208314C0C0
:101400004091930250E003E010E00E944A3FF8014F
:10141000EC51FC4F24810091930210E0000F111F4A
:10142000F801EF52FE4F20834091930250E003E019
:1014300010E00E944A3FF801EC51FC4F05810B304F
:1014400058F02EE40091930210E0000F111FF801F4
:10145000EF52FE4F218314C04091930250E003E00D
:1014600010E00E944A3FF801EC51FC4F25810091A9
:10147000930210E0000F111FF801EF52FE4F21837D
:101480004091930250E003E010E00E944A3FF801CF
:10149000EC51FC4F26810091930210E0F801E652D6
:1014A000FE4F2083E3E9F2E00081039500838BCFB8
:1014B00001E00093A80401E00093A904089500E06E
:1014C00000939302009193020431A0F400919302DF
:1014D00010E0F801EC51FC4F24810091930210E0E0
:1014E000F801E055FB4F2083E3E9F2E0008103952A
:1014F0000083E8CF0091BC04002321F40091BD04D7
:10150000002321F001E00093200503C000E00093D8
:1015100020050091BE04002321F40091BF040023A4
:1015200021F001E00093210503C000E000932105B4
:101530000091B004002321F40091B104002321F0B4
:1015400001E00093220503C000E000932205009112
:10155000B204002321F40091B304002321F001E040
:101560000093230503C000E0009323050091B40419
:10157000002321F40091B504002321F001E0009341
:10158000240503C000E0009324050091B604002365
:1015900021F40091B704002321F001E00093250518
:1015A00003C000E0009325050091B804002321F456
:1015B0000091B904002321F001E00093260503C047
:1015C00000E0009326050091BA04002321F4009165
:1015D000BB04002321F001E00093270503C000E0D5
:1015E000009327050091C004002321F40091C10459
:1015F000002321F001E00093280503C000E00093E0
:1016000028050091C204002321F40091C3040023A3
:1016100021F001E00093290503C000E000932905B3
:1016200001E00093A80401E00093A90408959A93AF
:101630008A930091E8030F70005D009322010091EE
:10164000E80302950F70005D009321010091E9030A
:101650000F70005D00931F010091E90302950F7068
:10166000005D00931E010091EA030F70005D00937E
:101670001C010091EA0302950F70005D00931B01AD
:101680000091EB030F70005D009325010091EB03C7
:1016900002950F70005D009324010091EC030F7020
:1016A000005D009328010091EC0302950F70005D2E
:1016B000009327010091ED030F70005D00932B0153
:1016C0000091ED0302950F70005D00932A0100E088
:1016D0000093920200919202083008F04EC00091EF
:1016E000920210E0F801E55EFE4F00810A3348F4F3
:1016F0000091920210E0F801E55EFE4F0081003398
:1017000078F40091920210E0F801E55EFE4F00814E
:101710000E3231F0E0E9F2E000810395008303C06E
:1017200000E0009390020091920210E0F801EC5D5D
:10173000FE4F00810A3348F40091920210E0F80154
:10174000EC5DFE4F0081003378F40091920210E0CE
:10175000F801EC5DFE4F00810A3331F0E1E9F2E07F
:1017600000810395008303C000E000939102E2E949
:10177000F2E0008103950083ADCF8091220190E0DB
:101780004091210150E00AE010E00E944A3F800FA2
:10179000911F80519240843600E090072CF0E0E9E0
:1017A000F2E000810395008380911F0190E0409159
:1017B0001E0150E00AE010E00E944A3F800F911F96
:1017C000805192408D3090402CF0E0E9F2E00081B1
:1017D0000395008380911C0190E040911B0150E033
:1017E0000AE010E00E944A3F800F911F8051924012
:1017F000803290402CF0E0E9F2E000810395008314
:101800008091250190E04091240150E00AE010E031
:101810000E944A3F800F911F805192408931904031
:101820002CF0E1E9F2E0008103950083809128012A
:1018300090E04091270150E00AE010E00E944A3F0A
:10184000800F911F805192408D3300E090072CF063
:10185000E1E9F2E000810395008380912B0190E0A3
:1018600040912A0150E00AE010E00E944A3F800FB8
:10187000911F805192408D3300E090072CF0E1E9F8
:10188000F2E000810395008300919002002351F162
:1018900000E30093220100E30093210100E30093A1
:1018A0001F0100E300931E0100E300931C0100E30D
:1018B00000931B0100E00093900200E0009392026D
:1018C00000919202033048F500E02091920230E04E
:1018D000F901E050FF4F0083E2E9F2E00081039557
:1018E0000083EECF00E00093920200919202033059
:1018F000A0F40091920210E0F801EC51FC4F248119
:101900000091920210E0F801E050FF4F2083E2E9DD
:10191000F2E0008103950083E8CF0091910200235B
:1019200051F100E30093250100E30093240100E35B
:101930000093280100E30093270100E300932B01AB
:1019400000E300932A0100E00093910200E000937D
:10195000920200919202033048F500E02091920239
:1019600030E0F901E050FF4F0383E2E9F2E000814B
:1019700003950083EECF00E0009392020091920263
:101980000330A0F40091920210E0F801EC51FC4FFA
:1019900027810091920210E0F801E050FF4F23836D
:1019A000E2E9F2E0008103950083E8CF01E00093D3
:1019B000A90401E000930D018991999108950E9475
:1019C000DA3F2801A22FB32F642E852FBA959A2FC4
:1019D000993048F420E2092F10E0F201E00FF11FE6
:1019E00020839395F5CF803858F00FEF80278395AB
:1019F0002DE20A2F10E0F201E00FF11F2083A395E2
:101A0000082F10E04B2F0E94523F802F8336C8F4DE
:101A10004AE0082F0E943C3F005D2A2F30E0F2018F
:101A2000E20FF31F0083A3954AE0082F0E943C3F7A
:101A3000405D0A2F10E0F201E00FF11F4083A395F3
:101A400010C02FE30A2F10E0F201E00FF11F2083F6
:101A5000A3952FE30A2F10E0F201E00FF11F20837E
:101A6000A395A73008F4A39502E0601679F424EE5C
:101A70000A2F10E0F201E00FF11F2083A39521EC63
:101A80000A2F10E0F201E00FF11F2083E7E00C9431
:101A9000EA3F0E94D73F2801822F832E942EDB013C
:101AA0006A847B848A94982F993048F420E2092F25
:101AB00010E0F201E00FF11F20839395F5CF482D40
:101AC0008D010E94523FD801A615B70508F067C0E6
:101AD000A83E03E0B00710F148EE53E08D010E94EC
:101AE000583F202F082F10E0F201E00FF11F208354
:101AF000082F10E0F201E00FF11F408150E008EEE6
:101B000013E00E944A3FA01BB10B082F10E0F20126
:101B1000E00FF11F0081005D00838395A43600E093
:101B2000B00710F144E650E08D010E94583F202F8D
:101B3000082F10E0F201E00FF11F2083082F10E0C2
:101B4000F201E00FF11F408150E004E610E00E9436
:101B50004A3FA01BB10B082F10E0F201E00FF11F6C
:101B60000081005D008383954AE050E08D010E9472
:101B7000583F005D282F30E0F201E20FF31F008391
:101B800083954AE050E08D010E94583F405D082F48
:101B900010E0F201E00FF11F4083839510C02FE3A6
:101BA000082F10E0F201E00FF11F208383952FE34F
:101BB000082F10E0F201E00FF11F2083839587309A
:101BC00008F48395092D015019F0025081F01DC0D1
:101BD0002CEE082F10E0F201E00FF11F208320EC23
:101BE000082F10E0F201E00FF11F21830EC02EEC50
:101BF000082F10E0F201E00FF11F20832CEE082FD8
:101C000010E0F201E00FF11F2183ECE00C94E73FBC
:101C1000432F342F32953F70532F342F3F70632F53
:101C20005A3040F0752F795C30E0F801E20FF31F75
:101C3000708307C0752F705D30E0F801E20FF31F6D
:101C400070836A3040F0762F795C30E0F801E20F63
:101C5000F31F71830895762F705D30E0F801E20F75
:101C6000F31F718308959A938A930091E8030023E8
:101C700009F0C8C03091E90320E00091EA0310E0C8
:101C8000200F311FC901883E03E0900710F087EE56
:101C900093E008EE13E01A930A93BC0143E031E0AD
:101CA00022E00DE211E0F5DE3091E90323E0E5ECFE
:101CB000F1E000811181ACDF3091EA0325E0E5EC31
:101CC000F1E000811181A4DF3091EB0320E000916D
:101CD000EC0310E0200F311FC90108EE13E01A9346
:101CE0000A93BC0141E031E023E007E311E0D1DEDB
:101CF0003091EB0323E0E5ECF1E00281138188DF12
:101D00003091EC0325E0E5ECF1E00281138180DF06
:101D10000091ED030436E8F40091EE030336C8F4B5
:101D20000091ED034AE00E943C3F005D00934301B7
:101D30000091ED034AE00E943C3F405D4093440126
:101D40000091EE034AE00E943C3F005D0093460193
:101D500009C00FE3009343010FE3009344010FE335
:101D6000009346013091ED0323E0E5ECF1E00481BE
:101D700015814EDF3091EE0325E0E5ECF1E00481C2
:101D8000158146DF5091EF0342E031E024E005E5A4
:101D900011E015DE5091F00342E031E024E00FE560
:101DA00011E00DDE3091EF0323E0E5ECF1E0068178
:101DB00017812EDF5091F10342E031E024E009E683
:101DC00011E0FDDD5091F20342E031E024E003E751
:101DD00011E0F5DD3091F10323E0E5ECF1E0008561
:101DE000118516DF5091F30342E031E023E00BE46C
:101DF00011E0E5DD3091F30323E0E5ECF1E002854D
:101E0000138506DF01E000930E0101E00093A904B1
:101E10008991999108958A93802F082F065389F00C
:101E20000A95E1F0025009F458C00A9509F463C01C
:101E30000A9509F10A9509F49EC00A9509F4EDC0C6
:101E4000F8C00091E803023028F40091E803009301
:101E5000E201EFC002E00093E201EBC00091E80371
:101E6000023028F40091E8030093E301E2C002E0AD
:101E70000093E301DEC00091E803053608F5009108
:101E8000E8030A30E8F00091E803043639F401E38E
:101E90000093FD0100E30093FE010BC000E30093FB
:101EA000FD010091E8034AE00E943C3F005D009381
:101EB000FE0100E30093FF0100E300930002B9C0BC
:101EC0000FE30093FD010FE30093FE010FE3009386
:101ED000FF010FE300930002ACC00091E80306305D
:101EE00030F40091E803005D0093E401A2C00FE329
:101EF0000093E4019EC00091E8030130D9F4009101
:101F0000E9030B3088F40091E9034AE00E943C3F6A
:101F1000005D009305020091E9034AE00E943C3F06
:101F2000405D4093060206C00FE3009305020FE3F5
:101F3000009306020091E803023009F07AC0009194
:101F4000E9030B3088F40091E9034AE00E943C3F2A
:101F5000005D00930B020091E9034AE00E943C3FC0
:101F6000405D40930C0265C00FE300930B020FE34A
:101F700000930C025EC00091E803073138F00FE3D4
:101F80000093EB010FE30093EC0110C00091E80314
:101F90004AE00E943C3F005D0093EB010091E803A2
:101FA0004AE00E943C3F405D4093EC010091E90310
:101FB000073138F00FE30093F1010FE30093F201D2
:101FC00010C00091E9034AE00E943C3F005D00938D
:101FD000F1010091E9034AE00E943C3F405D4093DB
:101FE000F2010091EA03073138F00FE30093F701A3
:101FF0000FE30093F8011DC00091EA034AE00E943C
:102000003C3F005D0093F7010091EA034AE00E9423
:102010003C3F405D4093F8010CC00091E803023062
:1020200028F40091E8030093EA0103C002E0009362
:10203000EA0101E00093A90401E00093A80489915A
:10204000089500E00093DE0100E00093DF0100E06E
:102050000093E00100E00093E101E4EEF3E004818D
:1020600000FF04C001E00093DE011EC0E4EEF3E0D7
:10207000048101FF04C002E00093DE0115C000915D
:10208000E903013088F002E00093DE01EEEDF1E0BB
:102090000081039500830091E90306950093E9030D
:1020A0000091E903002391F7E4EEF3E0048102FFDD
:1020B00004C001E00093DF0108C0E4EEF3E0048116
:1020C00003FF03C002E00093DF01E4EEF3E00781C9
:1020D00000FF04C001E00093E0011EC0E4EEF3E065
:1020E000078101FF04C002E00093E00115C00091E8
:1020F000EC03013088F002E00093E001E0EEF1E053
:102100000081039500830091EC0306950093EC0396
:102110000091EC03002391F7E4EEF3E0078102FF66
:1021200004C001E00093E10108C0E4EEF3E00781A0
:1021300003FF03C002E00093E10101E00093A90462
:1021400001E00093A804089501E01091E803113024
:1021500021F411E01093160501C000E01091E9038D
:10216000123021F418E01093190501C000E010911D
:10217000EA03123021F418E010931A0501C000E0C0
:102180001091EB03123021F418E01093180501C0F0
:1021900000E01091EC03133039F413E010931D05A7
:1021A00018E01093170501C000E01091ED03113005
:1021B00021F411E010931C0501C000E05091EE03E2
:1021C00040E02091EF0330E0420F531FE7E0F1E0E1
:1021D000428353835091F00340E02091F10330E0BB
:1021E000420F531FE7E0F1E04483558301E0009381
:1021F0001E0514E01093FC0410E01093FE0413E09D
:102200001093FF0412E01093000511E010930105F4
:10221000089520E001E00093A90401E00093A804E0
:102220000FE010E04091E60342954F7050E0041B30
:10223000150B4091FD0450E0FA01E450FB4F428140
:1022400050E00417150709F421E00091E6030F7030
:102250000130D9F42223C9F00091E903002359F099
:1022600000E011E0ECEFF4E0078310870091E80351
:10227000009305050AC00091E80310E0ECEFF4E0DC
:102280000783108700E0009305050091E6030F70B7
:102290000230E1F4222379F000E00031B8F410E0DC
:1022A000F801EC51FC4F348110E0F801E450FB4F91
:1022B00032870395F2CF00E0003140F430E010E0C7
:1022C000F801E450FB4F32870395F6CF08959A93B7
:1022D0008A93802F282F2A9504EE13E00E944C0742
:1022E00010E0EEE8F2E000831183EEE8F2E02081F6
:1022F000318190E0FC01ED51FC4F008110E020178E
:10230000310719F0549A579A85C000914D04023054
:1023100001F502E000939402009194020817A0F4E2
:102320000091940210E0F801EC51FC4F20810091E3
:10233000940210E0F801E552FD4F2083E4E9F2E059
:10234000008103950083E8CF03E000934D04809360
:102350004E0400914D04002309F05CC00091E60397
:1023600010E0007F1070005039F0005151F0005122
:1023700069F0005181F039C00091E6030E94A8077E
:1023800047C00091E6030E94890842C00091E6031D
:102390000E94FD083DC00091E6030053A9F00A9594
:1023A000B1F00A95B1F00250B1F00250B1F00A95C7
:1023B000A1F0025091F0035081F00A9571F00A9556
:1023C00081F00A9581F024C00E94E00921C077D8ED
:1023D0001FC02DD91DC047DC1BC00091E6031BDDCB
:1023E00017C02FDE15C0B0DE13C00091E603015CFC
:1023F00071F00A9561F00F5051F00A9541F00F50BD
:1024000031F00A9521F00F5011F00A9509F401DF1F
:10241000549A579A0E94CF1500E000934F04899177
:1024200099910895A80100E062E0621740F470E01D
:10243000FA01E60FF71F1081010F6395F6CF08959B
:102440009A938A93902F812FEAE9F2E0008100614C
:1024500000839093DD028093DE02282F2C5F0BED2A
:1024600012E0E0DF10E0E5E9F2E000831183E5E946
:10247000F2E000811181202F082F10E0F801E552D1
:10248000FD4F2483082F0B5F0E9493168991999129
:1024900008958A93802FEAE9F2E0008100610083C9
:1024A0008093DD0202E00093DE0226E00BED12E0F5
:1024B000B9DF10E0E5E9F2E000831183E5E9F2E03D
:1024C000008111810093E10207E00E949316899137
:1024D00008950E94DD3F802F0E94A01600FB4EF45D
:1024E00000E00093DF0200E00093E00201EED1DFA4
:1024F0004AC100919B02053509F03BC100919C0245
:102500000A3A09F036C100919E0210E0E82FF0E08F
:1025100035970E171F0759F000919E020093DF02B6
:10252000082F05500093E00203EEB3DF2CC1282FE3
:102530002A950BE912E076DF10E0E5E9F2E000838E
:102540001183E5E9F2E02081318190E0FC01E6565B
:10255000FD4F008110E02017310781F090E0FC0171
:10256000E656FD4F00810093DF02E5E9F2E00081CD
:1025700011810093E00202EE8CDF05C100919D0203
:10258000023729F000919D02033709F0C6C000917F
:102590009D020237B1F54091EE0450E008EE13E0E1
:1025A0000E944A3FD8014091EF0450E004E610E059
:1025B0000E944A3FA00FB11F4091F00450E00AE092
:1025C00010E00E944A3FA00FB11F0091F10410E0FB
:1025D000A00FB11FA055B04DE8E9F2E0A083B18390
:1025E000E8E9F2E000811181012F10E00093DF02A1
:1025F000E8E9F2E0008111810093E00212E002E7D5
:102600001FDF00919D02033709F079C030919F02CE
:1026100020E00091A00210E0200F311FE8E9F2E075
:102620002083318348EE53E0E8E9F2E00081118134
:102630000E94583F005D0093EE04E091EE04F0E04C
:10264000F09748EE53E08F010E944A3FE8E9F2E03C
:1026500020813181201B310B2083318344E650E0FF
:10266000E8E9F2E0008111810E94583F005D00938B
:10267000EF04E091EF04F0E0F09744E650E08F01C2
:102680000E944A3FE8E9F2E020813181201B310BB2
:10269000208331834AE050E0E8E9F2E000811181D3
:1026A0000E94583F005D0093F004E091F004F0E0D8
:1026B000F0974AE050E08F010E944A3FE8E9F2E0DB
:1026C00020813181201B310B20833183E8E9F2E046
:1026D00000811181005D0093F10410E003E7B0DE9A
:1026E00001E00093430400E010E0E9E4F4E000833B
:1026F00011830EEE14E0E5E4F4E0008311830FE0B3
:102700000093060100919A00006100939A000091E5
:102710009A00006800939A0036C000E00093970288
:10272000009197020817E0F40091970210E0F80179
:10273000E556FD4F20810091970210E0F801EC5D15
:10274000FB4F208300E02091970230E0F901E5562D
:10275000FD4F0083E7E9F2E0008103950083E0CFBD
:1027600080934E0401E000934D040FE000930601B6
:102770000AC000919A00006100939A0000919A00AB
:10278000006800939A000E94B216E4E00C94ED3FBA
:102790000FEC09B91098119A1898199A0EE0009345
:1027A000950008E10AB9549A579A06B70D7F06BFFB
:1027B00007B7016007BF05E002BF04E003BF05E5FE
:1027C000009324040AEA009325040895FA93EA93F7
:1027D0005A934A933A932A931A930A934FB75BB743
:1027E0001CB1012F5C9958C010913F04105039F072
:1027F0001A9561F01A95A1F01A95C1F028C0053517
:1028000009F04AC011E010933F0446C00A3A21F48F
:1028100012E010933F0440C010E010933F043CC00E
:102820000093E60313E010933F0436C00093E703E0
:102830000C3320F010E010933F0403C014E0109319
:102840003F0410913F04100F1093400425C02091C5
:102850003F0430E0F901EC51FC4F008310913F043C
:1028600020914004121798F011E010934F0410E0EB
:1028700010933F0454985798109140041395109367
:102880005004E3EEF3E010811860108305C0EFE31D
:10289000F4E01081139510835BBF4FBF099119912C
:1028A0002991399149915991E991F9911895FA93A2
:1028B000EA933A932A931A930A932FB73BB700915E
:1028C0003D0410913E04011784F400913D04102F43
:1028D000110F110BF801EC5DFB4F00810CB9EDE31A
:1028E000F4E00081039500830FC05398559800E0F1
:1028F00000933E0400E000933D04549A579AE3EE9F
:10290000F3E000810F7E00833BBF2FBF0991199137
:1029100029913991E991F9911895BA93AA939A93CB
:102920008A93FA93EA933A922A921A920A927A93A3
:102930006A935A934A933A932A931A930A938FB7B6
:102940009BB72197A89505E002BF0091A404003F22
:1029500009F045C000914D04002309F040C00E94D9
:10296000201B0093E0030091E0031091DF030117A7
:1029700021F00091E003003FD1F4E1EEF3E00081AB
:1029800011810F5F1F4F00831183E1EEF3E000819F
:102990001181013921E0120784F000E911E0E1EE34
:1029A000F3E00083118300EF0093DF0306C000E033
:1029B00010E0E1EEF3E0008311830091E003109159
:1029C000DF03011761F00091E003003F41F0009147
:1029D000E0030093A4040091E0030093DF0300915F
:1029E000DD03053078F10091DE03013029F0EAE9DA
:1029F000F2E0008100FF22C000919A000F7E009358
:102A00009A0000919A000F7700939A00EAE9F2E0A9
:102A10000081086000830091DA030E94691200E0DF
:102A20000093DE0300E00093DA0300919C0008832A
:102A3000EAE9F2E000810F7E008309C00EE1009315
:102A4000DD0305C0EDEDF3E0008103950083E1991E
:102A500038C0009143040130A1F5E9E4F4E00081BD
:102A600011811FBB0EBB0091410410E0E5E4F4E0CE
:102A7000A081B181A00FB11F0C910DBBE29AE19A28
:102A8000E1E4F4E0008103950083E9E4F4E00081EF
:102A900011810F5F1F4F008311830091410410E0EB
:102AA000A5E4B4E0ED91FC911197E00FF11F31978F
:102AB0000081002331F400E00093430400E0009320
:102AC0004104E19951C000914404013009F04CC027
:102AD000EBE4F4E0008111811FBB0EBBE09A2DB343
:102AE0000091420410E0E7E4F4E0A081B181A00F7E
:102AF000B11F2C930091420410E0A7E4B4E0ED91E3
:102B0000FC911197E00FF11F00810F3F61F400E08D
:102B10002091420430E0A7E4B4E0ED91FC911197DC
:102B2000E20FF31F0083EBE4F4E0008111810F5FFB
:102B30001F4F00831183E2E4F4E0008103950083DA
:102B40000091420410E0A7E4B4E0ED91FC911197EC
:102B5000E00FF11F31970081002331F400E0009372
:102B6000440400E00093420421969BBF8FBF09916B
:102B700019912991399149915991699179910990C6
:102B8000199029903990E991F99189919991A99198
:102B9000B991189500933E04539A559A089500E010
:102BA0000093E303089503E3009399008A988B9AB6
:102BB0009298939A0EE000939D0008E100939A008A
:102BC00000919A00006100939A0000919A000068B9
:102BD00000939A0005E50093DB020AEA0093DC0209
:102BE0000895FA93EA934A933A932A931A930A938D
:102BF0003FB74BB7219700919B00102F14FF05C0E2
:102C0000EAE9F2E00081016000830091DE03002325
:102C100091F40091DD030E3170F001E00093DE03CA
:102C200000E00093DA0300E00093DD03EAE9F2E05C
:102C30000081006100830091DE03013011F50091F5
:102C4000DD030E31F0F40091DA03003448F0EAE9D4
:102C5000F2E000810160008300919C0008830EC0B7
:102C600020919C000091DA0310E0F801E556FD4F39
:102C70002083EAEDF3E000810395008300E00093F8
:102C8000DD0321964BBF3FBF0991199129913991DD
:102C90004991E991F9911895FA93EA933A932A9315
:102CA0001A930A932FB73BB70091DB031091DC0313
:102CB00001178CF40091DB03102F110F110BF80199
:102CC000E552FD4F008100939C00EBEDF3E00081A5
:102CD000039500831FC000919A00077F00939A001C
:102CE00000919A000F7D00939A0000E00093DC03AE
:102CF00000E00093DB0300919A00006100939A00CA
:102D000000919A00006800939A00EAE9F2E00081DD
:102D10000F7E00833BBF2FBF0991199129913991F3
:102D2000E991F99118950093DC0310919A001860CD
:102D300010939A0010919A00106210939A000895CF
:102D400010919A02012F10919A00212F27FF02C0A3
:102D5000026011E010919A00212F25FF02C004604B
:102D600011E0089500E000939A0208950FEF0ABB66
:102D700000E00BBB00E707BB00E208BB00E004BBC0
:102D800000E005BB00E001BB00E002BB07B7006844
:102D900007BF00E004BD0AE003BD08E005BD05B5BE
:102DA000056005BD07B7046007BF00E00FBD00E088
:102DB0000EBD09EF0DBD05EE0CBD0895A89501B53A
:102DC000006101BD01B5087F01BD01B5006101BD14
:102DD00001B5086001BD0895FA93EA933A932A93E6
:102DE0001A930A932FB73BB70091A204015009F43C
:102DF00045C00A9521F00A9509F452C07FC001E050
:102E000003BDC69AC59A0091A10410E0F801EF5ADB
:102E1000FB4F00810BBBC5980091A1040F3420F437
:102E20000091A104039501C000E00093A10400916A
:102E3000A104005039F0045161F0045189F00451AB
:102E4000B1F05CC000E80093A30401E00093A20489
:102E500055C000EC0093A30401E00093A2044EC00F
:102E600004E90093A30401E00093A20447C004ED29
:102E70000093A30401E00093A20440C00091A304C6
:102E8000013011F400E201C001E003BDC698C59A0B
:102E90000091A3040BBBC59802E00093A2042EC0CE
:102EA0000091A10410E0000F111FF801E457FF4F3B
:102EB00004910023E9F0C698C59A0091A10410E09E
:102EC000000F111FF801E457FF4F04910BBBC59889
:102ED0000091A10410E0000F111FF801E357FF4F0C
:102EE000049103BDE1EAF4E000810395008306C08C
:102EF00002E00093A20400E00093A1043BBF2FBFB7
:102F00000991199129913991E991F99118951C012B
:102F1000602F80E074E1679F010E7BEE070E002DAD
:102F200090E0FA01E80FF91F7081772309F441C09E
:102F3000313089F590E0FA01E80FF91F7081703C9B
:102F4000E8F090E0FA01E80FF91F0080112470E02A
:102F5000071671E0170694F490E0FA01E80FF91FE4
:102F600000801124F001E452F0407491002E1124ED
:102F7000F001EF5AFB4F7083039519C090E0FA01FE
:102F8000E80FF91F7081002E1124F001EF5AFB4F5A
:102F9000708303950CC090E0FA01E80FF91F70816F
:102FA000002E1124F001EF5AFB4F70830395839597
:102FB000B7CFC101089504E1003540F420E210E0EC
:102FC000F801EF5AFB4F20830395F6CF00E0009302
:102FD000A104089500E00093A10403E00093A2047B
:102FE000089534E1039F010E3BEE030E402D60E097
:102FF000621748F430E250E0FA01EF5AFB4F308399
:1030000043956395F5CF08950E94DD3FB02FA12F22
:10301000922F04E1B09F0A0E0BEE000E802D40E1CE
:10302000092F0E943C3F282F30E0F901EF5AFB4F57
:103030000083082F10E0F801EF5AFB4F108100E1E8
:10304000109F292F2019082F10E0F801EF5AFB4F8D
:103050002183082F10E0F801EF5AFB4F00810A305E
:1030600048F0082F10E0F801EF5AFB4F0081095C8F
:10307000008308C0082F10E0F801EF5AFB4F0081D1
:10308000005D0083082F10E0F801EF5AFB4F01812B
:103090000A3048F0082F10E0F801EF5AFB4F018189
:1030A000095C018308C0082F10E0F801EF5AFB4FBC
:1030B0000181005D0183E4E00C94ED3F0E94DD3F5F
:1030C000B02F912FA22F04E1B09F090E0BEE000E3E
:1030D000802D4AE00A2F0E943C3F005D282F30E0FF
:1030E000F901EF5AFB4F0083082F10E0F801EF5A67
:1030F000FB4F0081003309F083954AE00A2F0E94BC
:103100003C3F1AE0019F2A2F2019205D082F10E074
:10311000F801EF5AFB4F2083E4E00C94ED3F1C01D3
:10312000602F80E074E1679F010E7BEE070E002D9B
:1031300090E0FA01E80FF91F7491772309F44CC06D
:10314000313089F590E0FA01E80FF91F7491703C75
:10315000E8F090E0FA01E80FF91F0490112470E004
:10316000071671E0170694F490E0FA01E80FF91FD2
:1031700004901124F001E452F0407491002E1124C7
:10318000F001EF5AFB4F7083039524C090E0FA01E1
:10319000E80FF91F7491002E1124F001EF5AFB4F34
:1031A0007083039517C0323049F470E2002E112469
:1031B000F001EF5AFB4F708303950CC090E0FA01C9
:1031C000E80FF91F7491002E1124F001EF5AFB4F04
:1031D000708303958395ACCFC101089554E1059F99
:1031E000010E5BEE050E402D622F50E0FA01EF5A02
:1031F000FB4F6083089500E0003540F420E210E0CA
:10320000F801EF5AFB4F20830395F6CF08950E94F3
:10321000DA3F802FD901512E855C482E28E2082FF5
:1032200010E0F801EF5AFB4F208383950A2F0B2BF8
:1032300021F0A13001E0B00748F020E3082F10E0B2
:10324000F801EF5AFB4F208383954FC090E00FEFBA
:103250005016C9F422E3082F10E0F801EF5AFB4F93
:103260002083839525E3082F10E0F801EF5AFB4FE8
:103270002083839526E3082F10E0F801EF5AFB4FD7
:103280002083839532C0539404E6501670F044E6D0
:10329000052D0E943C3F902F292F205D082F10E024
:1032A000F801EF5AFB4F208383950AE0501688F00F
:1032B0004AE0052D0E943C3F1AE0919F902F901903
:1032C000292F205D082F10E0F801EF5AFB4F2083D3
:1032D00083954AE0052D0E943C3F405D082F10E099
:1032E000F801EF5AFB4F408383952FE2082F10E03F
:1032F000F801EF5AFB4F20838395A03001E0B0071F
:10330000C9F422E3082F10E0F801EF5AFB4F2083A5
:10331000839525E3082F10E0F801EF5AFB4F208337
:10332000839526E3082F10E0F801EF5AFB4F208326
:10333000839541C0A03001E0B007A8F590E00A2FC6
:10334000602E04E6601670F044E6062D0E943C3FB5
:10335000902F292F205D082F10E0F801EF5AFB4F26
:10336000208383950AE0601688F04AE0062D0E94CB
:103370003C3F1AE0919F902F9019292F205D082F34
:1033800010E0F801EF5AFB4F208383954AE0062DA9
:103390000E943C3F405D082F10E0F801EF5AFB4FC0
:1033A0004083839508C02FE3082F10E0F801EF5AFF
:1033B000FB4F2083839529E2082F10E0F801EF5A94
:1033C000FB4F2083082F0419402E08E0401658F4C4
:1033D0008395282F822F00E230E0F901EF5AFB4F4E
:1033E00000834394F2CFE7E00C94EA3FBD01D9019A
:1033F00010E0133008F062C0112321F4FD0135857F
:10340000232F09C0113021F4FD013685232F03C07D
:10341000FD013785232F322F32953F70402F50E02A
:10342000FA01EF5AFB4F3083402F50E0FA01EF5A78
:10343000FB4F30813A3048F0402F50E0FA01EF5A0C
:10344000FB4F3081395C308308C0402F50E0FA01D7
:10345000EF5AFB4F3081305D30830395402F042FAE
:10346000322F3F7050E0FA01EF5AFB4F3083402F6C
:1034700050E0FA01EF5AFB4F30813A3048F0402FCC
:1034800050E0FA01EF5AFB4F3081395C308308C0BD
:10349000402F50E0FA01EF5AFB4F3081305D30830E
:1034A000123048F40395402F042F3EE250E0FA0119
:1034B000EF5AFB4F3083039513959BCFDB010895A3
:1034C0000E94DA3F802FD901662403E0601608F0DD
:1034D0006EC0662021F4FD010385902F0AC001E033
:1034E000601621F4FD010285902F03C0FD010185C6
:1034F000902F292F22952F70082F10E0F801EF5AF6
:10350000FB4F2083082F10E0F801EF5AFB4F00819A
:103510000A3048F0082F10E0F801EF5AFB4F008105
:10352000095C008308C0082F10E0F801EF5AFB4F38
:103530000081005D00838395282F822F092F0F7053
:1035400030E0F901EF5AFB4F0083082F10E0F8013B
:10355000EF5AFB4F00810A3048F0082F10E0F801C5
:10356000EF5AFB4F0081095C008308C0082F10E070
:10357000F801EF5AFB4F0081005D008302E0601606
:1035800050F48395282F822F0AE330E0F901EF5A97
:10359000FB4F008309C08395282F822F0EE230E075
:1035A000F901EF5AFB4F0083839563948ECFFD01A1
:1035B000278130E0FD01108500E0200F311F290137
:1035C00008EE401603E0500670F0662403E0601633
:1035D000A0F52FE3082F10E0F801EF5AFB4F2083EE
:1035E00083956394F3CF4AE050E082010E94583FF4
:1035F000405D082F10E0F801EF5AFB4F42834AE08C
:1036000050E082010E94583F28014AE050E08201C8
:103610000E94583F405D082F10E0F801EF5AFB4F21
:1036200041834AE050E082010E94583F005D282F0C
:1036300030E0F901EF5AFB4F0083E7E00C94EA3FDA
:103640008A9301E004BB80E08A3010F48395FCCFBC
:1036500003B3802F02E004BB8E3FF9F480E08A3090
:1036600010F48395FCCF03B3802F04E004BB8D3F9F
:10367000A1F480E08A3010F48395FCCF03B3802F4F
:1036800008E004BB8B3F49F480E08A3010F4839556
:10369000FCCF03B3802F00E004BB082FE2E0F0E092
:1036A000FBBFFEE00C948D3F83E41FC083E21DC08E
:1036B00080E31BC08DE419C084E417C089E315C002
:1036C00088E313C087E311C085E50FC086E30DC012
:1036D00085E30BC084E309C085E407C083E305C02C
:1036E00082E303C081E301C080EF082F8991089530
:1036F000BA93AA9331E04AE157E022E011E004E0F6
:103700000E948F182FE016E004E00E94F11731E0CC
:103710000091F30410E0000F111FA7EFB4E0ED914A
:10372000FC911197E00FF11F45915491319722E0E0
:1037300017E004E00E948F180091A404035409F1DB
:103740000A9591F00A9591F1005109F098C0009105
:10375000F6041091F304011708F091C0E3EFF4E0D0
:1037600000810A9500838BC00091F3041091F50449
:10377000011708F084C0E3EFF4E0008103950083B3
:103780007EC000E00093DF040E94DB1701E000939D
:10379000A80400E00093F30400E00093F50400E0C7
:1037A0000093F60400E00093F90469C00091100151
:1037B0000D3049F40091F404023029F4E3EFF4E011
:1037C000008103950083009110010B3069F4009192
:1037D000F404023049F40091F304013028F0E3EFDF
:1037E000F4E00081039500830091F4040093F90450
:1037F0000091F3040093FA0400911001033189F45D
:103800000091F404033099F50091F304002311F0C2
:1038100001E001C000E000938D0200E00093F90494
:1038200026C0009110010B3011F50091F404013015
:1038300021F40091F304023040F40091F4040230CA
:10384000B1F40091F304013090F00091D301043001
:1038500040F00091D501043020F00091D1010430F6
:1038600030F401E310E0E5ECF4E0008311830E9402
:10387000DB1701E00093A80400E00093DF0400EFF1
:103880000093A404A991B99108950E94DB3F00918F
:10389000DB04802F082F095FA02F0091A404902F34
:1038A0002FE016E004E00E94F11731E04AE157E012
:1038B00022E011E004E00E948F1831E042E151E083
:1038C00022E017E004E00E9487170091DB04083033
:1038D00098F40091ED04013061F430E04EEE5DE0CB
:1038E00022E01A2F04E00E948F1800E00093ED04FC
:1038F00003C001E00093ED04903F09F4EDC295345C
:1039000009F0F9C00091EB04013009F091C0109169
:1039100018010AE0109F00911901000E00EF000E3F
:10392000502C109115010AE0109F00911601000E15
:1039300000EF000E402C109112010AE0109F009140
:103940001301000E00EF000EB02D0091180102953A
:10395000007F10911901010F0053009300010CE04A
:10396000401658F4009115010295007F1091160140
:10397000010F00530093010105C04424439401E06A
:1039800000930101042D025049F0025079F10250D8
:1039900069F1035059F1025049F139C044E0052D55
:1039A0000E943C3F442389F0BD3158F4009112013C
:1039B0000295007F10911301010F00530093020143
:1039C0008AC001E00093020186C0BE3158F4009124
:1039D00012010295007F10911301010F0053009313
:1039E000020179C001E00093020175C0BF3158F4B3
:1039F000009112010295007F10911301010F0053F5
:103A00000093020168C001E00093020164C0B0327B
:103A100058F4009112010295007F10911301010FDB
:103A200000530093020157C001E00093020153C00C
:103A30000091EB04023009F04EC0409112010AE0FF
:103A4000409F00911301000E00EF000E102D4091D9
:103A500015010AE0409F00911601000E00EF000ED4
:103A6000202D409118010AE0409F00911901000E9D
:103A700000EF000E302D183158F40091120102951C
:103A8000007F40911301040F00530093030103C012
:103A900000E0009303012C3358F4009115010295C6
:103AA000007F40911601040F00530093040103C0EE
:103AB00000E0009304013C3358F400911801029592
:103AC000007F40911901040F00530093050103C0CA
:103AD00000E00093050101E00093AC0400E00093D6
:103AE000DF0480E024E111E004E00E94F11701E02E
:103AF0000093A804ECC1933479F400E00093DF0450
:103B000000E00093DB0424E111E004E00E94F117DF
:103B100001E00093A804DBC1953551F4873008F427
:103B20008395823019F0853009F0D1C18395CFC1DA
:103B3000943451F4813008F08A95823019F0853040
:103B400009F0C5C18A95C3C1903308F4C0C19A3346
:103B500008F0BDC10091EB04013009F0F3C0082F5B
:103B6000005081F00A9509F44CC0025009F477C066
:103B70000A9509F4A9C0025009F4D4C00A9509F4C1
:103B8000D9C0A0C19033C1F4082F10E0F801EE5E57
:103B9000FE4F90838395082F10E0F801EE5EFE4FF4
:103BA0000081003309F08EC121E3082F10E0F801F5
:103BB000EE5EFE4F208386C1933340F4082F10E061
:103BC000F801EE5EFE4F908383957CC1933309F03C
:103BD00079C1082F10E0F801EE5EFE4F90838395C7
:103BE000082F10E0F801EE5EFE4F0081023308F46A
:103BF00069C120E3082F10E0F801EE5EFE4F20833C
:103C000061C1903389F4082F10E0F801EF5EFE4F98
:103C10000081013308F456C1082F10E0F801EE5E70
:103C2000FE4F908383954EC1913341F4082F10E0ED
:103C3000F801EE5EFE4F9083839544C1082F10E09B
:103C4000F801EF5EFE4F0081033308F03BC1082FFF
:103C500010E0F801EE5EFE4F9083839533C1903300
:103C6000C1F4082F10E0F801EE5EFE4F90838395BB
:103C7000082F10E0F801EE5EFE4F0081003309F0DE
:103C800021C121E3082F10E0F801EE5EFE4F2083F2
:103C900019C1913309F016C1082F10E0F801EE5E4A
:103CA000FE4F90838395082F10E0F801EE5EFE4FE3
:103CB0000081033308F406C120E3082F10E0F80167
:103CC000EE5EFE4F2083FEC0903389F4082F10E093
:103CD000F801EF5EFE4F0081013308F4F3C0082FB6
:103CE00010E0F801EE5EFE4F90838395EBC0082F45
:103CF00010E0F801EF5EFE4F0081013359F4933379
:103D000008F0E0C0082F10E0F801EE5EFE4F90834F
:103D10008395D8C0082F10E0F801EE5EFE4F908327
:103D20008395D0C0082F10E0F801EE5EFE4F90831F
:103D30008395C8C0082F10E0F801EE5EFE4F908317
:103D40008395C0C00091EB04023009F0BBC0082F7E
:103D5000005081F00A9509F44CC0025009F477C074
:103D60000A9509F497C0025009F471C00A9509F444
:103D700091C0A8C09033C1F4082F10E0F801EE5EA6
:103D8000FE4F90838395082F10E0F801EE5EFE4F02
:103D90000081003309F096C021E3082F10E0F801FC
:103DA000EE5EFE4F20838EC0923340F4082F10E069
:103DB000F801EE5EFE4F9083839584C0923309F044
:103DC00081C0082F10E0F801EE5EFE4F90838395CE
:103DD000082F10E0F801EE5EFE4F0081043308F476
:103DE00071C020E3082F10E0F801EE5EFE4F208343
:103DF00069C0903389F4082F10E0F801EF5EFE4FA0
:103E00000081013308F45EC0082F10E0F801EE5E77
:103E1000FE4F9083839556C0943340F4082F10E0F2
:103E2000F801EE5EFE4F908383954CC0082F10E0A2
:103E3000F801EF5EFE4F0081023308F043C0082F07
:103E400010E0F801EE5EFE4F908383953BC0903307
:103E5000B9F4082F10E0F801EE5EFE4F90838395D1
:103E6000082F10E0F801EE5EFE4F0081003351F59F
:103E700021E3082F10E0F801EE5EFE4F208322C000
:103E8000963300F5082F10E0F801EE5EFE4F9083A8
:103E9000839518C0903379F4082F10E0F801EF5E95
:103EA000FE4F0081013370F0082F10E0F801EE5E44
:103EB000FE4F908307C0082F10E0F801EE5EFE4F22
:103EC00090838395823011F0853009F48395809337
:103ED000DB0400EF0093A404E6E00C94EB3F9A931C
:103EE0008A932FE016E004E00E94F1170091100180
:103EF0000530C9F400918B02023041F431E040E218
:103F000057E022E011E004E00E948F1800918B023C
:103F1000013011F531E048E257E022E011E004E021
:103F20000E948F1819C0009110010B3069F40091A4
:103F30008B02023049F431E040E257E022E011E028
:103F400004E00E948F1808C031E04AE157E022E007
:103F500011E004E00E948F180091DB041091DC0452
:103F60000117E8F50091EB04053A61F00091EB04CC
:103F7000043941F00091EB04043A21F00091EB0484
:103F8000063AB9F40091A404003321F00091A4048E
:103F9000013329F52091A4040091DB0410E0F8011D
:103FA000EE52FB4F2083EBEDF4E00081039500839C
:103FB00016C00091A404003390F00091A4040A33C9
:103FC00070F42091A4040091DB0410E0F801EE529B
:103FD000FB4F2083EBEDF4E000810395008300911B
:103FE000A4040332B9F4009110010D3098F000914F
:103FF0001001013178F4EDECF4E0008103950083C9
:104000000091CD04023018F000E00093CD0401E0EF
:104010000093A8040091DB041091DC04011708F060
:104020004AC00091ED04013009F042C00091100136
:104030000530E9F400918B02023051F430E04EEE8D
:104040005DE022E01091DB04175F04E00E948F180E
:1040500000918B02013041F530E04EEE5DE022E050
:104060001091DB04115F04E00E948F181DC00091C5
:1040700010010B3079F400918B02023059F430E0DA
:104080004EEE5DE022E01091DB04175F04E00E9439
:104090008F180AC030E04EEE5DE022E01091DB04A4
:1040A000195F04E00E948F1800E00093ED0403C044
:1040B00001E00093ED040091A404043489F400911C
:1040C000DB04013068F0EBEDF4E000810A95008339
:1040D00000E02091DB0430E0F901EE52FB4F008359
:1040E000009110010530C9F400918B02023041F4B7
:1040F00031E042ED54E022E019E004E00E9487172D
:1041000000918B02013011F531E042ED54E022E0E4
:104110001FE004E00E94871719C0009110010B30C6
:1041200069F400918B02023049F431E042ED54E031
:1041300022E019E004E00E94871708C031E042ED58
:1041400054E022E017E004E00E9487170091A404E5
:10415000033409F068C000918B02013019F402E0C9
:1041600000938B0200911605002339F00091D101D4
:10417000023019F400E00093C804009117050130E3
:1041800058F00091D301013021F00091D3010230A9
:1041900019F400E00093C80400911805013038F0CC
:1041A0000091D501023019F400E00093C804009199
:1041B000C804013019F401E00093AF0400E000935B
:1041C000DF040E94DB1701E00093A80400E00093E5
:1041D000DB040091DB04083070F400E02091DB0484
:1041E00030E0F901EE52FB4F0083EBEDF4E000818B
:1041F00003950083EECF00E00093CD0400E0009330
:10420000DB0400E00093DC0400E00093E00400E045
:1042100010E0E2EEF4E00083118300E010E0E4EE51
:10422000F4E0008311830091EB04053A69F00091FA
:10423000EB04043949F00091EB04043A29F00091B1
:10424000EB04063A09F06CC00091DB041091DC0429
:10425000011709F065C00091A404053409F060C09D
:1042600000E00093DF040E94DB1701E00093A80444
:1042700000E010E0E8EEF4E00083118300E000933A
:10428000FA0420E00091DC04502F0091DC04201798
:1042900098F45A9530E0F901EE52FB4F808190E09E
:1042A000C0978C01452F0E94523FEAEFF4E0108145
:1042B000100F10832395E9CF01E00093EC040091E7
:1042C000EB040093F90400E00093DB040091DB04AD
:1042D000083070F400E02091DB0430E0F901EE5288
:1042E000FB4F0083EBEDF4E0008103950083EECFFC
:1042F00000E00093DB0400E00093DC0400E00093A6
:10430000E00400E00093EB0400E010E0E2EEF4E0F3
:104310000083118300E010E0E4EEF4E000831183F9
:104320000091A404053409F009C200911001023083
:1043300009F404C200911001053009F4FFC1009195
:1043400010010B3009F4FAC10091EB04053A09F4AD
:10435000F5C10091EB04053109F4F0C10091EB04C3
:10436000043909F4EBC10091EB04043A09F4E6C105
:104370000091EB04063A09F4E1C100E00093DF0488
:104380000E94DB1701E00093A8040091DB040150B8
:1043900051F00A9509F443C00A9509F48AC00A95B8
:1043A00009F4D2C022C10091D20410E000531040A1
:1043B0004091E10450E00E94703FE6EEF4E000839B
:1043C00011830091E10410E0E6EEF4E040815181B8
:1043D0000E944A3FE8EEF4E0008311830091D2048A
:1043E00000530093EA04E8EEF4E000811181E4EE6A
:1043F000F4E0208131810217130708F4F6C0E2EEE1
:10440000F4E000811181E8EEF4E0208131810217AF
:10441000130708F4EAC001E00093EC04E6C0409101
:10442000D20450E00AE010E00E944A3F2091D304F9
:1044300030E0020F131F005112404091E10450E0A0
:104440000E94703FE6EEF4E0008311830091E104E6
:1044500010E0E6EEF4E0408151810E944A3FE8EE30
:10446000F4E0008311830091D2040295007F109143
:10447000D304010F00530093EA04E8EEF4E0008156
:104480001181E4EEF4E0208131810217130708F472
:10449000ACC0E2EEF4E000811181E8EEF4E02081AE
:1044A00031810217130708F4A0C001E00093EC0467
:1044B0009CC04091D20450E004E610E00E944A3FC4
:1044C000C8014091D30450E00AE010E00E944A3F46
:1044D000800F911F0091D40410E0800F911F805D28
:1044E00094418C014091E10450E00E94703FE6EE5F
:1044F000F4E0008311830091E10410E0E6EEF4E0C3
:10450000408151810E944A3FE8EEF4E0008311832C
:10451000E8EEF4E000811181E4EEF4E020813181E5
:104520000217130708F461C0E2EEF4E00081118184
:10453000E8EEF4E0208131810217130708F455C03A
:1045400001E00093EC0451C04091D20450E008EE29
:1045500013E00E944A3FC8014091D30450E004E6B2
:1045600010E00E944A3F800F911F4091D40450E018
:104570000AE010E00E944A3F800F911F0091D5048D
:1045800010E0800F911F8055904D8C014091E10407
:1045900050E00E94703FE6EEF4E00083118300914A
:1045A000E10410E0E6EEF4E0408151810E944A3FD0
:1045B000E8EEF4E000831183E8EEF4E0008111817D
:1045C000E4EEF4E0208131810217130770F0E2EE8F
:1045D000F4E000811181E8EEF4E0208131810217DE
:1045E000130718F001E00093EC040091EC04013093
:1045F00009F077C00091EB04015909F453C00A9502
:1046000009F45BC00A9509F458C00E5009F44AC079
:104610000A9509F447C0045009F444C00F5560F0EE
:10462000035058F0005040F0035090F00F50E1F06C
:104630000A9521F10A9561F14EC00091EB040093B7
:10464000F904E8EEF4E0008111810093FA0443C01C
:104650000091EB0405500093F904E8EEF4E00081CA
:1046600011810093FA0437C004E00093F904E8EEE6
:10467000F4E0008111810093FA042DC006E000935C
:10468000F904E8EEF4E0008111810093FA0423C0FC
:1046900009E00093F904E8EEF4E000811181009351
:1046A000FA0419C00091EB040093F904E8EEF4E079
:1046B000008111810093FA040EC00091EB04009375
:1046C000F9044AE050E0E8EEF4E0008111810E9434
:1046D000583F0093FA0400E00093EB0400E00093DD
:1046E000EC0400E00093DB040091DB04083070F47C
:1046F00000E02091DB0430E0F901EE52FB4F008333
:10470000EBEDF4E0008103950083EECF00E0009331
:10471000CD0400E00093DB0400E00093DC0400E043
:104720000093E00400E010E0E2EEF4E00083118387
:1047300000E010E0E4EEF4E0008311830091A404B3
:10474000053409F0FDC00091DB04043009F0F8C025
:1047500000918B02013029F000918B02023009F0A8
:10476000EFC000911001053029F0009110010B30CD
:1047700009F0E6C000E00093DF040E94DB1701E0CF
:104780000093A80400918B02023009F089C000E078
:104790000093DB0400E000938B0200918B02043055
:1047A000D8F400918B0210E0F801EE52FB4F20810B
:1047B00000918B0210E0F801E251FB4F00812017BD
:1047C00029F0EBEDF4E0008103950083EBE8F2E0E3
:1047D000008103950083E1CF0091DB04002329F1E0
:1047E00000E00093DB0400E000938B0200918B0259
:1047F0000430D8F400918B0210E0F801EE52FB4F28
:10480000208100918B0210E0F801E350F24F0491F7
:10481000201729F0EBEDF4E0008103950083EBE82D
:10482000F2E0008103950083E1CF0091DB040023D7
:1048300039F401E000938B0201E00093C70456C0F5
:1048400002E000938B0200911605002339F00091DD
:10485000D101023019F400E00093C804009117055B
:10486000013058F00091D301013021F00091D301C3
:10487000023019F400E00093C804009118050130DB
:1048800038F00091D501023019F400E00093C8041B
:104890000091C804013051F501E00093AF0426C037
:1048A00000918B02013011F50091D2040093EE04C7
:1048B0000091D3040093EF040091D4040093F0041A
:1048C0000091D5040093F10401E00093430400E05B
:1048D00010E0E9E4F4E0008311830EEE14E0E5E477
:1048E000F4E00083118302E000938B0200E0009368
:1048F000DB040091DB04043070F400E02091DB0461
:1049000030E0F901EE52FB4F0083EBEDF4E0008163
:1049100003950083EECF00E00093DB0400E00093FA
:10492000DC0400E00093E00400E010E0E2EEF4E0DC
:104930000083118300E010E0E4EEF4E000831183D3
:1049400000EF0093A4040091AF04013031F405E4BA
:104950000093A40400E00093AF0400918B020130A7
:1049600039F4009110010B3019F405E40093A4040C
:1049700000918B02013071F400911001053051F467
:104980000091C704013031F403E30093A40400E074
:104990000093C7048991999108958A93802F05E126
:1049A000009310010E94DB1700E00093CE0402E0A8
:1049B0000093D004082F01530093FD0400E010E0A1
:1049C000ECEFF4E0078310878991089504E00093E9
:1049D00010010E94DB1700E00093CE0403E0009377
:1049E000D00401E00093CF0400E00093120528E218
:1049F00011E002E00E94F11700E010E0ECEFF4E0BB
:104A00000783108701E00093A80408958A93802FFC
:104A10008F3F69F40FE300931F020FE3009320021E
:104A20000FE3009321020FE30093220223C0843698
:104A300069F401E300931F0200E30093200200E306
:104A40000093210200E30093220214C000E30093CC
:104A50001F024AE0082F0E943C3F005D00932002A5
:104A60004AE0082F0E943C3F405D4093210200E352
:104A700000932202899108950E94DD3F0091100168
:104A8000013009F08CC00091A404035209F47DC0E8
:104A90000F5031F1025009F448C0025009F445C0EA
:104AA000025009F44DC00D5009F474C0085011F0C3
:104AB0000C94E52E0E94DB1702E00093100101E048
:104AC0000093A80401E000930D0100E00093CE04E0
:104AD00001E00093CF0403E00093D0040C94E52E92
:104AE00000918C02023040F000918C02102F1A9538
:104AF00010938C02102F04C006E000938C02102F3C
:104B000000918C020093A50401E00093430405E0AA
:104B100010E0E9E4F4E00083118305EA14E0E5E441
:104B2000F4E0008311830C94E52E00910F01013015
:104B300011F402E001C001E000930F010C94E52E96
:104B400000918C02063040F400918C02102F1395D6
:104B500010938C02102F04C000E000938C02102FE1
:104B600000918C020093A50401E00093430405E04A
:104B700010E0E9E4F4E00083118305EA14E0E5E4E1
:104B8000F4E0008311830C94E52E02E00093CC0442
:104B90000C94E52E01E00093CC040C94E52E0091DA
:104BA0001001023009F0EBC00091A404015309F494
:104BB00058C00A9509F468C00A9509F46FC00A95AF
:104BC00009F47FC00A9509F4B4C00A9509F4C4C079
:104BD0000D5041F00A9571F1095021F00850A9F0EB
:104BE0000C94E52E0E94DB1701E000930D0101E01B
:104BF0000093100100E00093CE0400E00093D00485
:104C000001E00093CF040C94E52E0091CE04013016
:104C100010F40C94E52E0E94DB17EEECF4E000811A
:104C20000A95008301E00093A80401E000931101BC
:104C30000C94E52E0091CE041091CF04011710F0D2
:104C40000C94E52E0E94DB17EEECF4E00081039556
:104C5000008301E00093A80401E0009311010C948B
:104C6000E52E0E94DB1701E00093A80404E0009306
:104C7000100100E00093CE0401E00093CF0403E0B4
:104C80000093D0040C94E52E0E94DB1701E0009302
:104C9000A80403E0009310010C94E52E0E94DB179A
:104CA00001E00093A80406E10093100100E00093E6
:104CB000CE0400E00093CF0403E00093D0040C94F2
:104CC000E52E0E94DB1701E00093A80405E00093A5
:104CD000100100E00093CE0403E00093D00401E053
:104CE0000093CF0400911705013038F00091D301F3
:104CF000043018F400E00093CF040091180501304F
:104D000038F00091D501043018F400E00093CF048E
:104D100000911605002311F40C94E52E0091D101A9
:104D2000043010F00C94E52E00E00093CF040C94B6
:104D3000E52E0E94DB1701E00093A80406E0009333
:104D4000100100E00093CE0401E00093CF0403E0E3
:104D50000093D0040C94E52E0E94DB1701E0009331
:104D6000A80403E10093100100E00093CE0404E0E6
:104D70000093CF0401E00093D0040C94E52E009141
:104D80001001033009F070C00091A404015371F1C7
:104D90000A9509F44AC00151B9F00A5011F00C9477
:104DA000E52E0E94DB1701E000930D0101E0009366
:104DB000100100E00093CE0400E00093D00401E075
:104DC0000093CF040C94E52E0E94DB1702E00093C1
:104DD000100101E00093A80400E00093CE0401E07C
:104DE0000093CF0403E00093D004EFC703E00093E7
:104DF000DF040BE111E0EDEDF4E00083118301E04D
:104E00000093EB0401E00093E10400E0093008F0B6
:104E1000DCC710E0F801E55EFE4F208110E0F801EC
:104E2000EE5EFE4F20830395F1CF03E00093DF0495
:104E300004E211E0EDEDF4E00083118302E0009361
:104E4000EB0401E00093E10400E0093008F0BDC785
:104E500010E0F801EC5DFE4F208110E0F801EE5EFD
:104E6000FE4F20830395F1CF00911001043009F02B
:104E70005EC00091A4040153045008F455C00E50C4
:104E8000C9F00A95E1F1095019F0085029F19DC7C0
:104E90000E94DB1701E000930D0101E00093100177
:104EA00000E00093CE0400E00093D00401E0009302
:104EB000CF048BC70E94DB1702E00093100101E0D2
:104EC0000093A80400E00093CE0401E00093CF0417
:104ED00003E00093D00479C70091CE04013008F4B8
:104EE00074C70E94DB17EEECF4E000810A950083A2
:104EF00001E00093A80401E00093110166C700914E
:104F0000CE041091CF04011708F05FC70E94DB1791
:104F1000EEECF4E000810395008301E00093A80427
:104F200001E00093110151C701E337DD4EC7009145
:104F30001001053009F0EFC00091A404015309F4F9
:104F40005EC00A9509F46DC00A9509F47CC00A9503
:104F500009F4C0C00F50C9F00A95E1F1095019F0E9
:104F6000085029F132C70E94DB1701E000930D01C0
:104F700001E00093100100E00093CE0400E00093F4
:104F8000D00401E00093CF0420C70E94DB1702E0A9
:104F90000093100101E00093A80400E00093CE0408
:104FA00001E00093CF0403E00093D0040EC700910A
:104FB000CE04013008F409C70E94DB17EEECF4E0E0
:104FC00000810A95008301E00093A80401E00093AA
:104FD0001101FBC60091CE041091CF04011708F017
:104FE000F4C60E94DB17EEECF4E000810395008329
:104FF00001E00093A80401E000931101E6C60E94BD
:10500000DB1701E00093A8040BE00093100100E01F
:105010000093CE0400E00093CF0401E00093D0049D
:10502000D4C60E94DB1701E00093A8040CE00093B3
:10503000100100E00093CE0401E00093CF0403E0F0
:105040000093D004C2C600918B020230F9F401E053
:105050000093DF0404E00093DC040EEE14E0EDEDB9
:10506000F4E00083118300E00093E00400E010E02E
:10507000E2EEF4E00083118300E010E0E4EEF4E0FF
:105080000083118301E00093E1049FC600918B022D
:10509000013009F09AC601E00093DF0404E00093B8
:1050A000DC040EEE14E0EDEDF4E00083118300E08B
:1050B0000093E00400E010E0E2EEF4E000831183EE
:1050C00000E010E0E4EEF4E00083118301E00093DF
:1050D000E1047BC60091D301043008F476C6009148
:1050E000D501043008F471C60091D101043008F4F0
:1050F0006CC60E94DB1701E00093A80404E1009352
:10510000100100E00093CE0403E00093D00401E01E
:105110000093CF045AC600911001063159F5009151
:10512000A4040354A9F00A5009F04FC60E94DB17EB
:1051300001E000930D0101E00093100100E00093F5
:10514000CE0400E00093D00401E00093CF043DC6FC
:105150000E94DB1702E00093100101E00093A80415
:1051600000E00093CE0401E00093CF0403E000933D
:10517000D0042BC60091A404035209F401C20E50BE
:10518000D9F00A95B9F10A9509F452C00A9509F4C3
:105190006DC0025009F49AC00D5009F4C1C00A95BF
:1051A00009F496C10A9509F405C2085009F4A6C08D
:1051B000085009F43AC108C600911001065019F0D0
:1051C000065009F002C60E94DB1701E00093A80414
:1051D000E0E1F1E000810395008300E00093CE045C
:1051E00006E00093CF0401E00093D00400E00093B8
:1051F000CD04EBC500911001065019F0065009F0DE
:10520000E4C50E94DB1701E00093A80400E00093CE
:10521000CE0401E00093D00401E00093110102E00C
:105220000093CF04E0E1F1E000810E5F0083CDC583
:1052300000911001065019F0065009F0C6C50E94F1
:10524000DB1701E00093A80400E00093CE0401E026
:105250000093D00401E00093110103E00093CF0418
:10526000E0E1F1E000810D5F0083AFC50091100126
:10527000065039F00250C9F0045019F00250A9F05C
:10528000A4C50E94DB1701E00093A80400E000938E
:10529000CE0401E00093D004E0E1F1E000810C5F76
:1052A000008305E00093CF0490C50091CE04013047
:1052B00009F08BC500911101023020F0009111011D
:1052C0000A9501C004E0009311017FC5009110010F
:1052D000085019F0065009F078C50091CE0401304D
:1052E00009F073C500911101043020F400911101FF
:1052F000039501C001E00093110167C50E94DB170F
:1053000001E000930D0101E00093100100E0009323
:10531000CE0400E00093D00401E00093CF0455C513
:10532000009110010650A9F0015090F0045018F1BE
:105330000050B1F10A95A1F1015050F0045008F469
:1053400057C0025031F00A9559F10A9509F46BC023
:105350003CC50E94DB1702E00093100101E00093BE
:10536000A80400E00093CE0401E00093CF0403E022
:105370000093D0042AC50E94DB1706E000931001B9
:1053800001E00093A80400E00093CE0401E0009344
:10539000110101E00093CF0403E00093D00415C590
:1053A0000E94DB1705E00093100101E00093A804C0
:1053B00000E00093CE0403E00093D00401E00093EA
:1053C000CF040091D301043018F400E00093CF041F
:1053D0000091D501043018F400E00093CF0400914F
:1053E000D101043008F0F1C400E00093CF04EDC413
:1053F0000E94DB1701E00093A8040CE00093100169
:1054000000E00093CE0400E00093CD0401E000939F
:10541000110101E00093CF0403E00093D00400E009
:105420000093CD04D2C4D2DAD0C40091100106504A
:105430000550A0F00A9591F00A9569F00A9571F06F
:105440000A9561F00A9539F0035041F00A9531F060
:105450000A95B9F0BAC400E00093CD040091CE04DF
:10546000013008F4B2C4EEECF4E000810A95008348
:1054700001E00093A8040E94DB1701E000931101F2
:10548000A4C4A3E0B5E0ED91FC91119732970CF420
:105490009CC40091CE04013030F0EEECF4E00081C9
:1054A0000A95008307C0ECEFF4E0078110850A95A8
:1054B0000093CE0400E00093120528E211E002E020
:1054C0000E94F11728E01DE004E00E94F1177DC45E
:1054D0000091100106500550A0F00A9591F00A9530
:1054E00069F00A9571F00A9561F00A9539F0035058
:1054F00041F00A9531F00A95C9F067C400E00093C5
:10550000CD040091CE041091CF04011708F05DC4C2
:10551000EEECF4E000810395008301E00093A80421
:105520000E94DB1701E0009311014FC4A3E0B5E036
:10553000ED91FC91119732970CF447C40091CE0481
:1055400010E0ECEFF4E087819085019708171907C8
:1055500034F4EEECF4E000810395008303C000E036
:105560000093CE0400E00093120528E211E002E06F
:105570000E94F11728E01DE004E00E94F11725C405
:10558000009110010D3008F420C400911001013188
:1055900008F01BC4EDECF4E000810395008300915A
:1055A000CD04023018F000E00093CD0401E0009338
:1055B000A8040BC4009110010B5099F0025009F49B
:1055C000D9C00A9509F4B7C10A9509F421C20A9510
:1055D00009F4ACC2035009F49CC30A9509F4C0C392
:1055E000F4C300918B02023031F50091C80400230E
:1055F00011F501E00093DF0404E00093DC040EEEFB
:1056000014E0EDEDF4E00083118300E00093E0048A
:1056100000E010E0E2EEF4E00083118300E010E02F
:10562000E4EEF4E00083118301E00093E10401E083
:105630000093C804CAC300918B02013009F052C024
:1056400000E000931B050091D101023021F0009190
:10565000D1010E3419F401E000931B050091D30130
:10566000023041F00091D301013021F00091D301CB
:105670000E3419F401E000931B050091D5010230AE
:1056800021F00091D5010E3419F401E000931B05BF
:1056900002E00093DF0401E00093F40400E00093D3
:1056A000F30400E00093F60402E000938B02009103
:1056B0001B05002351F001E00093F50403E915E018
:1056C000E7EFF4E00083118309C003E00093F504E1
:1056D0000FE915E0E7EFF4E00083118300E00093A9
:1056E000C80473C300E000931B050091D101023090
:1056F00039F00091D1010E3419F001E000931B053F
:105700000091D301023059F00091D301013039F0FA
:105710000091D3010E3419F001E000931B050091B4
:10572000D501023039F00091D5010E3419F001E0B5
:1057300000931B0500911B050023C1F002E00093BC
:10574000DF0402E00093F40400E00093F30400E0BF
:105750000093F60407E915E0E7EFF4E00083118316
:1057600002E000938B0202E00093F50400E0009356
:10577000C8042BC30091D101002309F026C3009176
:10578000CE04005089F00A9529F10A95C9F10A95CD
:1057900009F455C00A9509F471C00A9509F48DC041
:1057A0000A9509F4A9C011C302E00093DF0401E0E7
:1057B0000093F40400E00093F30407E00093F50481
:1057C00000E00093F60400EE14E0E7EFF4E000835D
:1057D0001183FBC202E00093DF0402E00093F404B3
:1057E00000E00093F30401E00093F50400E000936F
:1057F000F60403E115E0E7EFF4E000831183E5C26E
:1058000001E00093DF0402E00093DC0400E0009379
:10581000E00403E610E0E2EEF4E00083118300E030
:1058200010E0E4EEF4E00083118308E00093EB0461
:1058300001E00093E10401E00093C904C6C201E065
:105840000093DF0402E00093DC0400E00093E00436
:1058500002E110E0E2EEF4E00083118300E010E0EA
:10586000E4EEF4E00083118309E00093EB0401E02F
:105870000093E10401E00093C904A7C201E0009392
:10588000DF0402E00093DC0400E00093E00406E3A0
:1058900010E0E2EEF4E00083118300E010E0E4EEBB
:1058A000F4E0008311830AE00093EB0402E000932C
:1058B000E10401E00093C90488C201E00093DF0421
:1058C00002E00093DC0400E00093E00404E110E057
:1058D000E2EEF4E00083118300E010E0E4EEF4E097
:1058E000008311830BE10093EB0401E00093E104DA
:1058F00001E00093C90469C201E00093DF0402E003
:105900000093DC0400E00093E00404E110E0E2EE28
:10591000F4E00083118300E010E0E4EEF4E00083A3
:1059200011830CE10093EB0401E00093E10401E03A
:105930000093C9044AC20091D101002309F045C275
:105940000091CE04005031F00A9519F10A9509F43E
:1059500040C03BC201E00093DF0402E00093DC049E
:1059600000E00093E0040AE010E0E2EEF4E00083DF
:10597000118300E010E0E4EEF4E00083118301E91C
:105980000093EB0401E00093E10401E00093C904FB
:105990001CC201E00093DF0404E00093DC0400E09B
:1059A0000093E00408EE13E0E2EEF4E000831183DC
:1059B00000E010E0E4EEF4E00083118303E90093DB
:1059C000EB0402E30093E104009111010093C90488
:1059D000FCC101E00093DF0404E00093DC0400E07C
:1059E0000093E00400E010E0E2EEF4E000831183B5
:1059F00000E010E0E4EEF4E00083118304E900939A
:105A0000EB0401E00093E10401E00093C904DDC16F
:105A10000091D101002309F0D8C10091CE040050BB
:105A200049F00A9531F10A9509F442C00A9509F442
:105A30005EC0CBC101E00093DF0402E00093DC0410
:105A400000E00093E0040AE010E0E2EEF4E00083FE
:105A5000118300E010E0E4EEF4E00083118301EA3A
:105A60000093EB0401E00093E10401E00093C9041A
:105A7000ACC101E00093DF0403E00093DC0400E02C
:105A80000093E00404E610E0E2EEF4E0008311830A
:105A900004E110E0E4EEF4E00083118302EA0093F5
:105AA000EB0401E00093E10401E00093C9048DC11F
:105AB00001E00093DF0404E00093DC0400E00093C5
:105AC000E00400E010E0E2EEF4E00083118300E087
:105AD00010E0E4EEF4E00083118305EA0093EB04A8
