:020000020000FC
:100000000C94EB4118951895189518951895189516
:100010001895189518951895189518951895189578
:10002000189518950C9431181895189518951895D9
:1000300018951895189518950C947532189518956B
:100040000C94DF15189518950C943A150C94A91575
:100050001895189518951895189518951895189538
:100060001895189518951895189518951895189528
:1000700018951895189518950C943B170C9496178D
:10008000189518951895189518951895303F3002C1
:10009000300338010C0101200201000041A042A1FF
:1000A000E045A3A4A5A64BA74D484FA8504354A98B
:1000B000AA58E1ABACE2ADAE62AFB0B161B2B3B4DD
:1000C000E365B6B7B8B9BABBBCBD6FBE7063BF79E4
:1000D000E478E5C0C1E6C2C3C4C5C6C7CDE5F22019
:1000E000F1E2FFE7E820F120C1D1CF20202020203D
:1000F000002020C8EDE8F6E8E0EBE8E7E0F6E8FFEE
:10010000202020202000312EC6F3F0EDE0EB2E0061
:10011000322EC4E0F2E02FE2F0E5ECFF2E00332EA9
:10012000D3EFF0E0E2EBE5EDE8E52E00342ED3F17D
:10013000F2E0EDEEE2E8F2FC2E00352ECFF0EEF12B
:10014000ECEEF2F020EFE0F0E0EC2E000601100102
:100150001E012C013A01312E20C4E0F2E02E2020B5
:100160002020202020202020202000322E20C2F01D
:10017000E5ECFF2E20202020202020202020200021
:10018000312ED0E5E6E8EC2E00322ECFE0F0E0ECA8
:10019000E5F2F0FB2E00332ECFE0F0EEEBFC2E006C
:1001A000342ED2E5F1F22E00800189019601A001E2
:1001B0002EC7E0F9E8F2E02E002ECFF0E8E5ECEDF6
:1001C000E8EA2E002ECFE5F0E5E4E0F2F7E8EA2ECB
:1001D000002ECEE1F9E8E52E00B001B901C401D14D
:1001E00001D2E8EF20E7E0F9E8F2FB202020202010
:1001F000202020202000D2E8EF20EBE8EDE8E820E6
:100200002020202020202020202000C4EEEF2E20BF
:10021000E2F0E5ECFF20E1E5E720ECE0ED2E200048
:10022000CAEEECEF2EE7E0E4E5F0E6EAE820E220B3
:10023000EBE8ED2E00CFE5F0E5EAF0FBF2E8E52093
:10024000E8ECEFF3EBFCF1EEE200C7E0E3F02EF7B1
:10025000F3E2F1F2E2E8F22E20D0C720202000CF16
:10026000EEF0EEE320CFD0C5C4D3CFD020EFEE2008
:10027000D0C72000D2E8EF20EFF0E8E5ECEDE8EAA7
:10028000E02020202020202000E101F6010B0220A8
:100290000235024A025F027402F1EFE8F1EEEA0071
:1002A000F1EFE8F1EEEA00302E2E393900302E2E33
:1002B000313800302E2E353400302E2E32300030C2
:1002C0002E2E323000F1EFE8F1EEEA009902A002A2
:1002D000A702AD02B302B902BF02C502C2F0E5EC4B
:1002E000FF20E2EAEBFEF7E5EDE8FF2020202020EA
:1002F00000C7E0E4E5F0E6EAE020EDE020E2FBEA1A
:10030000EB2E203FEA00C1EBEEEA2E20EAEEECE015
:10031000EDE4FB2020342E2E312000DC02F1020619
:1003200003302E2E313000302E2E3130303000EDA3
:10033000E5F200210327032F03C2F0E5ECFF20E2E2
:10034000EAEBFEF7E5EDE8FF202020202000C4EBDB
:10035000E8F2E5EBFCEDEEF1F2FC20EAEEECE0ED8C
:10036000E4FB00C4EBE8F22E20EAEEECE0EDE4FB67
:100370002020342E2E312000C1EBEEEA2E20EAEEB2
:10038000ECE0EDE4FB2020342E2E31200039034E2A
:100390000363037803302E2E31300032302E2E319D
:1003A0003030000095039B03A303A303D3E4E5F0DF
:1003B000E6E0EDE8E520F0E5EBE520CFD0CC00D39A
:1003C000E4E5F0E6E0EDE8E520F0E5EBE520CFD070
:1003D000C400C2F0E5ECFF20EFE5F0E5E7E0EFF365
:1003E000F1EAE000CAEEEDF2F0EEEBFC20E2FBF504
:1003F0002EF1E8E3EDE0EBE000CFEEF0EEE320CF0E
:10040000D0C5C4D3CFD020EFEE20CAD72000D3EC84
:10041000E5ED2EF3F1E8EBE5EDE8FF203120EAE031
:10042000ED2E00CAEEF0F0E5EAF6E8FF20EDE0EF91
:10043000F0FFE6E5EDE8FF00CAEEF0F0E5EAF6E8E9
:10044000FF20F2EEEAE000AC03BF03D203E403F9BD
:10045000030E0423043804C7C0D900CFD0CC00CF8A
:10046000CC3200CFD0C400C2FBE2E5E42000C3EEF2
:10047000F2EEE22000C2E2E5E4E5ED00D0E5F7FCB3
:10048000202000D2E5F1F2312000D2E5F1F2322055
:1004900000D2E5F1F233200067046E0475047C0499
:1004A00083048A0491043F3F3F3F00202020C7E09F
:1004B000EFF3F1EA20F2E5F1F2E020202020200025
:1004C0002020CFEEE4EEE6E4E8F2E5203F20F1E57F
:1004D000EA20202000C4D4C72DCFF0CFE420200094
:1004E000C4D4C72DCFF0ECCCCA3100C4D4C72DCFB3
:1004F000F0ECCCCA3200C4D4C72D4C3630202020BA
:1005000000CDC72DCFF0CFE420202000CDC72DCFC8
:10051000F0EC2DCCCA2000CFCFC72DCFF0CFE420F8
:100520002000CFCFC72DCFF0EC2DCCCA00EEF8E8DD
:10053000E1EAE02020202000D504E004EB04F604EA
:1005400001050C05170522052D053220EAEEEDF612
:10055000E5E2E0FF003320EAEEEDF6E5E2E0FF0041
:10056000EEF8E8E1EAE020202020004A0555056089
:1005700005E0EAF22BEFE0F1F12000E0EAF2E8E238
:10058000EDE0FF2000EFE0F1F1E8E2EDE0FF00EE4A
:10059000F8E8E1EAE02020200071057B0585058F61
:1005A00005C7C0D93A00CFD0CC3A00CFCC323A0000
:1005B000CFD0C43A003F3F3F3F2020202000CDE570
:1005C000E8F1EFF0202000CFF0E5E4F3EFF02000B9
:1005D000C2FBE2E5E4E5ED2000C3EEF2EEE220200E
:1005E0002000C2E2E5E4E5ED202000D0E5F7FC20A4
:1005F00020202000D2E5F1F23120202000D2E5F1C8
:10060000F23220202000D2E5F1F23320202000D069
:1006100005D905E205EB05F405FD05D005E205D099
:1006200005F405FD050606D005E205F405FD050601
:1006300006C8F1F5EEE4ED2E2000CAEEEDF2F0EE84
:10064000EBFC00CFF3F1EA2020202000D0E0E1EE27
:10065000F2E0202000CDE5E8F1EFF02E2000CF2ED3
:10066000EDE5E8F1EFF000CEE6E8E4E0EDE8E500E6
:10067000CDE0EB2EEFF3F1EA003F307830383F2049
:100680002000CDE5F220D0C7202000D0E5F7FC20E7
:100690002020200031063A0643064C0655065E0629
:1006A00067067006790682068B06C8F1F5EEE4ED62
:1006B0002E2000CFD0CC20CAD7202000CFD0CC20F5
:1006C000CFC0202000CDE5F220CAD7202000CDE504
:1006D000E8F1EFF02E2000CF2EEDE5E8F1EFF0008D
:1006E000CEE6E8E4E0EDE8E500C1CBCA20CACC20C4
:1006F00020003F307830383F2020003F30783039BC
:100700003F202000D0E5F7FC2020202000AA06B3DF
:1007100006BC06C506CE06D706E006E906F206FBCD
:10072000060407C8F1F5EEE4ED2E2000CFD0C4207A
:10073000CAD7202000CFD0C420CFC0202000CDE5D4
:10074000F220CAD7202000CDE5E8F1EFF02E2000FE
:10075000CF2EEDE5E8F1EFF000CEE6E8E4E0EDE8DD
:10076000E5003F307830373F2020003F3078303888
:100770003F202000D1E8F1F2E5EC2E2000D0E5F793
:10078000FC202020200023072C0735073E074707C1
:100790005007590762076B0774077D07672D006CC8
:1007A0002D00C2E2EEE43A00CFE0F0EEEBFC3A00BE
:1007B000CDEEE2FBE920EFE0F0EEEBFC3A00C7ED16
:1007C000E0F7E5EDE8E53A20003F3F3F3F00E2FB80
:1007D000EAEB2E00E2EAEB2E00CE07D407C907C4ED
:1007E000E8E0EFE0E7EEED3A2000E2EAEB2FE2FB93
:1007F000EAEB00E2EAEB2FE2FBEAEB00302E2E35CB
:1008000000E2EAEB2FE2FBEAEB00302E2E32320060
:10081000302E2E3232002D39392E2E393900302E1D
:100820002E39393900EA07F307FC0701080A0810D6
:100830000816081E08CFF0EEF8E8E2EAE020502D96
:10084000555350202000CFF0EEF8E8E2EAE02041D6
:10085000542D5553502000CFF0EEF8E8E2EAE020A6
:100860004453502D55535000C4EEEFEEEBED2E20C7
:10087000EFE0F0E0ECE5F2F0FB00C2E8E420EFE0AE
:10088000F0E0ECE5F2F0E0003508460857086808AB
:100890007A08C5F1F2FC00CDE5F200F1F2E0EDE4FA
:1008A000E0F0F20048455800A4089B0820202020D2
:1008B000204572726F7220202020202000D3F1F298
:1008C000E0EDEEE2E8F2E520F7E0F1FB2000CDE517
:1008D000E8F1EFF02EF7F22E20464C41534800CDC0
:1008E000E5E8F1EFF02EE7E0EF2E464C41534800EB
:1008F000CDE5E8F1EFF02EF7F22E20504C495320D1
:1009000000CDE5E8F1EFF02EE7E0EF2E504C495333
:100910002000CDE5E8F1EFF02EE7E0EF2E32524176
:100920004D2000CDE5E8F1EFF02E44535020325237
:10093000414D2000CDE5E8F1EFF02EF7F22E203208
:1009400052414D2000D3F1F2E0EDEEE2E8F2E52075
:10095000F7E0F1FB2000CDE8E7EAEEE520EDE0EF7F
:10096000F02EE2FBF52E00C2FBF1EEEAEEE520ED03
:10097000E0EFF02EE2FBF500CE08DF08F0080109F9
:100980001209AC08AC08AC0823093409450956091A
:100990006709AC08AC08AC08CDE5F220E1EBEEEA63
:1009A000E020C1D1C720202000CDE5E8F1EFF02EF6
:1009B000E2E5F0F12EC1D1C72000CDE5E8F1EFF07E
:1009C0002EEFE5F0E5EAEB2E202000CDE5E8F1EF93
:1009D000F02EE7E0EF2E20C1D1C72000CDE5E8F1F1
:1009E000EFF02EE2F5EEE42ECFD3D1CA00CDE5E84C
:1009F000F1EFF02EE2F5EEE42ED1D2CECF00CDE530
:100A0000E8F1EFF02EF6E5EFFC2EC2DBD52000CDAD
:100A1000E5E8F1EFF02EE7E0EF2E20C2DBD5200075
:100A2000CDE5F220F1E8E3EDE0EBE020D0C72020B7
:100A3000009809A909BA09CB09AC08AC08AC08AC04
:100A400008DC09ED09AC08FE09AC080F0A200AAC65
:100A500008CDE8E7EAE8E920F3F0EEE22E20D0C77F
:100A60002000CDE5F220F1E8E3EDE0EBE020CCC0A2
:100A7000CD2000CDE5F220E1EBEEEAE020C1D1CAC5
:100A800020202000CDE5E8F1EFF02EE2E5F0F12E98
:100A9000C1D1CA2000CDE5E8F1EFF02EEDE5F2205E
:100AA000CAD731202000CFF0E5E22EE4EB2DF1F2A1
:100AB000E82EEAEEEC2E00CDE5E8F1EFF02EE7E0CF
:100AC000EF2E20C1D1CA2000CDE5E8F1EFF02EE2F3
:100AD000FBEAEB2ECAD1CA2000CDE5E8F1EFF02EFB
:100AE000E2EAEB2E20CAD1CA2000CDE5E8F1EFF012
:100AF0002EEAEEEDF2F02ECAD1CA00CFF0E5E4F313
:100B0000EFF02EEDE5F220CAD7312000CFF0E8E576
:100B1000EC20E1EBEEEA2E20CAEEEC2E00730A8404
:100B20000A950AA60AAC08AC08AC08AC08B70AC813
:100B30000AD90AEA0AFB0AAC08AC080C0BD1EDE8AA
:100B4000E62E20F3F0EEE2EDFF20CFD0CC00CDE595
:100B5000F220E1EBEEEAE020C1D1CA20202000CD56
:100B6000E5E8F1EFF02EE2E5F0F12EC1D1CA200068
:100B7000CDE5E8F1EFF02EF7F22EEAEEECE0EDE451
:100B800000CDE5E8F1EFF02EE2FBEAEB2ED2E5F145
:100B9000F200CDE5E8F1EFF02EE2EAEB2E20D2E50F
:100BA000F1F200CDE5E8F1EFF02EE2F5EEE42ECA29
:100BB000D1CA20004E0B5F0BAC08AC08AC08AC08E7
:100BC000AC08AC08700B810B920BA30BAC08AC0803
:100BD000AC08AC08C3F0313A00C3F0323A00C3F0BD
:100BE000F3EFEFE0203100C3F0F3EFEFE02032004D
:100BF000DE0BE70BE2FBEAEB00CAD73100CAD732C3
:100C000000CAEEEC3100CAEEEC3200CAEEEC330062
:100C1000CAEEEC3400CAEEEC3500CAEEEC3600CA7F
:100C2000EEEC3700CAEEEC3800F40BF90BFD0B01CB
:100C30000C060C0B0C100C150C1A0C1F0C240CE2DF
:100C4000FBEAEB00D0C73100D0C732003F0C440CA8
:100C5000480CD2E5F1F2203100D2E5F1F220320069
:100C6000520C590CC6F3F0EDE0EB2000F1EEE1FB85
:100C7000F2E8E900E7E0F9E8F2FB00EFF0E8E5EC84
:100C8000EDE8EAE000EFE5F0E5E4E0F2F7E8EAE0BD
:100C9000006C0C740C7B0C850CD7F2E5EDE8E520BC
:100CA000E0F0F5E8E2E02E00CFCC00CFC400D1C1E7
:100CB00000C7D900AE0CAB0CA80CB10CCEC1D9004A
:100CC00000CD2EE2EAEB2EF2E5F1F22000CD2EE28D
:100CD000FBEAEB2EF2E5F1F200CD2EE2F5EEE4E0D8
:100CE00020CAD1CA00CD2EE2EAEB2E20CAD1CA20FA
:100CF00000CD2EE2FBEAEB2E20CAD1CA00CD2EE7B2
:100D0000E0EF2E20C1D1CA2000CD2EEAEEEDF2F0A8
:100D10002EC1D1CA00CDE5F220E1EB2E20C1D1C712
:100D200000CEF82EE2E5F0F12EC1D1C700CD2EEFB6
:100D3000E5F0E5EA2EC1D1C700CD2EEAEEED2EE2B8
:100D4000FBF52EF600CD2EE7E0EF2EE2FBF52EF6BA
:100D500000CDE5F220F12E20CFD3D1CA00CDE5F2AF
:100D600020F12E20D1D2CECF00CDE5F220F1E8E364
:100D7000ED2ED0C700CFE5F0E5E7E0EFF3F1EA2094
:100D800000C8E7EC2EF0E5E6E8ECE02000C2EEF16A
:100D9000F1F22E2031CAD72000C2EEF1F1F22E205E
:100DA00032CAD72000CDE5F22031CAD72035F12054
:100DB00000CDE5F22032CAD72035F12000CD2EF04B
:100DC000E0E1EEF22E44535000C2EEF12EF0E0E1ED
:100DD0002E44535000CD2EF7F22E203252414D209A
:100DE00000CD2EE7E0EF2E203252414D00CD2EE215
:100DF000F0E5ECE5EDE8202000CD2EE7E0EF2E2039
:100E0000504C495300CD2EF7F22E20504C49532020
:100E100000CD2EF7F22E20464C41534800CD2EE750
:100E2000E0EF2E464C41534800CDE8E72EEDE0EFD1
:100E30002EE2FBF500C2FBF12EEDE0EF2EE2FBF51A
:100E400000C00CC10CCD0CD90CE50CF10CFD0C094B
:100E50000D150D210D2D0D390D450D510D5D0D6932
:100E60000D750D810D8D0D990DA50DB10DBD0DC922
:100E70000DD50DE10DED0DF90D050E110E1D0E290F
:100E80000E350ECFE5F0E5E7E0EF2000CDE0F7E02E
:100E9000EBEE2000CAEEEDE5F62000EAEEECE0ED28
:100EA000E4FB002ED1E1F0EEF120F1E2EEE5E3EE1D
:100EB0002E2020202020002ECFF3F1EA20EDE0EBC1
:100EC000E0E42E20E2EAEB2E2020002ECFF3F1EA20
:100ED00020EDE0EBE0E42E20E2FBEAEB2E2000D157
:100EE000E1F0EEF100CFF3F1EA00D1F2EEEF00DF36
:100EF0000EE50EEA0E5F00D1E2FFE7FC20F120CF05
:090F0000CA002E00303030300030
:100F0A0030007013100049134C134F13511353132D
:100F1A00701355135513701355137013701355131B
:100F2A00551359135B1377015E1C561C044E1C02A1
:100F3A00461C013E1C395A1C04521C024A1C01421E
:100F4A001C19581C04501C02481C01401C095C1C3A
:100F5A0004541C024C1C01441CFB0000A431080070
:100F6A00742E8A2EA02EBF2EDE2EFD2E1C2F3B2F76
:100F7A000100E3310800BB31C031C531CA31CF317C
:100F8A00D431D931DE31300071320B003A323F327E
:100F9A00443249324E32533258325D32623267320B
:100FAA006C320000693508001C34213426342B3495
:100FBA003034303435343534010067401600F238A5
:100FCA00FF3834394C398C39E739183AC93A2F3B4A
:100FDA007F3B303CE739183AC93A2F3B7F3B6740A1
:100FEA006740D83C4A3D453E2E400000C53A0800BD
:100FFA00473A583A693A723A7B3A843A933A9C3A6F
:10100A0000002C3C0800AE3BBF3BD03BD93BEA3B3F
:10101A00F33B023C0B3C30E042E007C050E0F801F1
:10102A00E40FF51F5081350F43954217B8F3032F8C
:10103A000895E2EEF3E020812061208300932504E5
:10104A0001E0009326041093270425E003E214E04C
:10105A00E2DF10E000938F021093900200918F025A
:10106A000093280406E00E94141708959A938A931D
:10107A00812FE2EEF3E010811061108300932504C2
:10108A0080932604282F2C5F03E214E0C4DF10E0CB
:10109A0000938F021093900200918F0290E0FC015E
:1010AA00ED5DFB4F04838B5F082F0E941417899113
:1010BA00999108950150A1F00A95E9F00A9569F10C
:1010CA000A9509F446C00A9509F47AC00A9509F402
:1010DA0093C00A9509F4ACC0025009F4B6C0D0C056
:1010EA000091E703083018F40091E70301C008E013
:1010FA0000935E02C5C00091E703002351F00091FE
:10110A00E703033030F40091E7030A9500937B026A
:10111A00B7C002E000937B02B3C00091E703043634
:10112A0088F40091E7034AE00E94FF41005D0093C2
:10113A007C020091E7034AE00E94FF41405D409330
:10114A007D029EC00FE300937C020FE300937D02B1
:10115A0097C00091E703033188F40091E7034AE05E
:10116A000E94FF41005D00935F020091E7034AE09D
:10117A000E94FF41405D4093600206C00FE3009366
:10118A005F020FE3009360020091E803033188F4E1
:10119A000091E8034AE00E94FF41005D0093670264
:1011AA000091E8034AE00E94FF41405D40936802D3
:1011BA0067C00FE3009367020FE30093680260C001
:1011CA000091E703073388F40091E7034AE00E949D
:1011DA00FF41005D009383020091E7034AE00E9409
:1011EA00FF41405D409384024BC00FE300938302AA
:1011FA000FE30093840244C00091E703053188F4A9
:10120A000091E7034AE00E94FF41005D00936F02EC
:10121A000091E7034AE00E94FF41405D409370025B
:10122A002FC00FE300936F020FE30093700228C0F0
:10123A000091E703033028F40091E70300938B023F
:10124A001FC003E000938B021BC00091E703053126
:10125A0088F40091E7034AE00E94FF41005D009391
:10126A0075020091E7034AE00E94FF41405D409306
:10127A00760206C00FE3009375020FE3009376022D
:10128A0001E00093CF0401E00093CE0408950151D8
:10129A0029F00250F9F00A95D1F161C00091E703F3
:1012AA000B3088F40091E7034AE00E94FF41005D99
:1012BA00009311020091E7034AE00E94FF41405D5A
:1012CA00409312024CC00FE3009311020FE3009304
:1012DA00120245C000E00BC010E0F801ED51FC4FCE
:1012EA00248110E0F801E95EFD4F20830395083060
:1012FA00B0F510E0F801ED51FC4F1481153660F39A
:10130A002FEF10E0F801E95EFD4F2083EFCF009147
:10131A00E7030093270220E00BC030E3022F10E01E
:10132A00119501951040F801E85DFD4F338323952F
:10133A002430A8F430912702422F01E010E00E94E5
:10134A0027423023332349F331E3022F10E011956A
:10135A0001951040F801E85DFD4F3383E8CF01E0C5
:10136A000093CE0401E00093CF040895015261F086
:10137A000A9531F1025009F454C00A9509F47AC069
:10138A000A9509F49FC0C6C00091E7030B3088F4A0
:10139A000091E7034AE00E94FF41005D0093330297
:1013AA000091E7034AE00E94FF41405D4093340206
:1013BA00B1C00FE3009333020FE300933402AAC0D3
:1013CA000091E7030451013510F50091E703043653
:1013DA0051F401E30093390200E300933A0200E377
:1013EA0000933B0297C000E3009339020091E703A0
:1013FA004AE00E94FF41005D00933A020091E70330
:10140A004AE00E94FF41405D40933B0283C00FE3E4
:10141A00009339020FE300933A020FE300933B0271
:10142A0079C00091E7030093400220E00BC030E34B
:10143A00022F10E0119501951040F801EF5BFD4F66
:10144A00338323952430A8F430914002422F01E0DF
:10145A0010E00E9427423023332349F331E3022F5D
:10146A0010E0119501951040F801EF5BFD4F3383B1
:10147A00E8CF50C00091E7030093060520E00BC0B7
:10148A0030E3022F10E0119501951040F801EA5B54
:10149A00FD4F338323952430E8F530910605422F1A
:1014AA0001E010E00E9427423023332349F331E35D
:1014BA00022F10E0119501951040F801EA5BFD4FEB
:1014CA003383E8CF0091E7030093070520E00BC0C0
:1014DA0030E3022F10E0119501951040F801E55B09
:1014EA00FD4F378323952830A8F430910705422F02
:1014FA0001E010E00E9427423023332349F331E30D
:10150A00022F10E0119501951040F801E55BFD4F9F
:10151A003783E8CF01E00093CE0401E00093CF04C3
:10152A00089540E020C050E003E010E00E941D4210
:10153A00F801ED51FC4F2581042F10E0000F111F17
:10154A00F801EF52FE4F218350E003E010E00E94C1
:10155A001D42F801ED51FC4F068150E0FA01E652B6
:10156A00FE4F008343954430E0F550E003E010E07D
:10157A000E941D42F801ED51FC4F0481063050F0E3
:10158A002EE4042F10E0000F111FF801EF52FE4F56
:10159A00208311C050E003E010E00E941D42F801D0
:1015AA00ED51FC4F2481042F10E0000F111FF801A8
:1015BA00EF52FE4F208350E003E010E00E941D42EC
:1015CA00F801ED51FC4F05810B3008F4ACCF2EE445
:1015DA00042F10E0000F111FF801EF52FE4F218374
:1015EA00B3CF01E00093CE0401E00093CF04089545
:1015FA0000E00BC010E0F801ED51FC4F248110E02F
:10160A00F801EA52FB4F20830395043198F30091C5
:10161A00E204002321F40091E304002321F001E015
:10162A0000935E0503C000E000935E050091E404A8
:10163A00002321F40091E504002321F001E0009346
:10164A005F0503C000E000935F050091D604002304
:10165A0021F40091D704002321F001E000936005F2
:10166A0003C000E0009360050091D804002321F430
:10167A000091D904002321F001E00093610503C021
:10168A0000E0009361050091DA04002321F400913F
:10169A00DB04002321F001E00093620503C000E0AF
:1016AA00009362050091DC04002321F40091DD041B
:1016BA00002321F001E00093630503C000E00093DA
:1016CA0063050091DE04002321F40091DF04002366
:1016DA0021F001E00093640503C000E00093640573
:1016EA000091E004002321F40091E104002321F099
:1016FA0001E00093650503C000E0009365050091D1
:10170A00E604002321F40091E704002321F001E01C
:10171A000093660503C000E0009366050091E804A3
:10172A00002321F40091E904002321F001E0009351
:10173A00670503C000E00093670501E00093CE044B
:10174A0001E00093CF040895392F682F0091E70331
:10175A000F70005D009322010091E70302950F705C
:10176A00005D009321010091E8030F70005D009372
:10177A001F010091E80302950F70005D00931E019E
:10178A000091E9030F70005D00931C010091E903C9
:10179A0002950F70005D00931B010091EA030F7020
:1017AA00005D009325010091EA0302950F70005D28
:1017BA00009324010091EB030F70005D0093280150
:1017CA000091EB0302950F70005D009327010091D1
:1017DA00EC030F70005D00932B010091EC0302955E
:1017EA000F70005D00932A0100E004C010E010931E
:1017FA0092020395083068F510E0F801E55EFE4FA5
:10180A00108110531A3068F010E0F801E55EFE4FBF
:10181A0010811E3231F010919102139510939102AA
:10182A0003C010E01093910210E0F801EC5DFE4F46
:10183A00108110531A30D0F210E0F801EC5DFE4F1F
:10184A0010811A3399F21091920213951093920211
:10185A00D0CF8091220190E04091210150E00AE02E
:10186A0010E00E941D42800F911F805192408436E1
:10187A0000E090072CF000919102039500939102E9
:10188A0080911F0190E040911E0150E00AE010E0B3
:10189A000E941D42800F911F805192408D309040CE
:1018AA002CF00091910203950093910280911C0102
:1018BA0090E040911B0150E00AE010E00E941D42B6
:1018CA00800F911F80519240803290402CF00091FD
:1018DA0091020395009391028091250190E0409135
:1018EA00240150E00AE010E00E941D42800F911F7F
:1018FA0080519240893190402CF0009192020395D8
:10190A00009392028091280190E04091270150E0D3
:10191A000AE010E00E941D42800F911F8051924000
:10192A008D3300E090072CF000919202039500930A
:10193A00920280912B0190E040912A0150E00AE046
:10194A0010E00E941D42800F911F805192408D33FA
:10195A0000E090072CF00091920203950093920206
:10196A0000919102002301F100E30093220100E3B8
:10197A000093210100E300931F0100E300931E017D
:10198A0000E300931C0100E300931B0100E00093B5
:10199A00910200E00330B8F420E010E0F801E050D2
:1019AA00FF4F20830395F6CF00E00BC010E0F8014B
:1019BA00ED51FC4F248110E0F801E050FF4F2083E5
:1019CA000395033098F300919202002301F100E39A
:1019DA000093250100E30093240100E3009328010A
:1019EA0000E30093270100E300932B0100E3009337
:1019FA002A0100E00093920200E00330B8F420E0EC
:101A0A0010E0F801E050FF4F23830395F6CF00E082
:101A1A000BC010E0F801ED51FC4F278110E0F801EE
:101A2A00E050FF4F23830395033098F301E00093BE
:101A3A00CF0401E000930D01862F932F08950E9491
:101A4A00A842D801822F942F452E3A95082F07C015
:101A5A0020E210E0FD01E00FF11F20830395093019
:101A6A00B8F300E8401658F00FEF402643942DE2F1
:101A7A00082F10E0FD01E00FF11F20838395042D4C
:101A8A0010E0432F0E942742402E03E64016C8F476
:101A9A004AE0042D0E94FF41005D282F30E0FD013D
:101AAA00E20FF31F008383954AE0042D0E94FF4151
:101ABA00405D082F10E0FD01E00FF11F4083839580
:101ACA0010C02FE3082F10E0FD01E00FF11F208363
:101ADA0083952FE3082F10E0FD01E00FF11F20830B
:101AEA008395873008F48395923061F404EE90E090
:101AFA00FD01E80FF91F0083839501EC90E0A80F20
:101B0A00B91F0C93E5E00C94B2420E94A742D80197
:101B1A00422E542ECB016E817F813A95042D07C047
:101B2A0020E210E0FD01E00FF11F20830395093048
:101B3A00B8F3432F8C010E942742C80186179707E2
:101B4A0008F067C0883E03E0900710F148EE53E0C2
:101B5A008C010E942A42202F042D10E0FD01E00F83
:101B6A00F11F2083042D10E0FD01E00FF11F4081D9
:101B7A0050E008EE13E00E941D42801B910B042DD9
:101B8A0010E0FD01E00FF11F0081005D0083439426
:101B9A00843600E0900710F144E650E08C010E9480
:101BAA002A42202F042D10E0FD01E00FF11F2083AF
:101BBA00042D10E0FD01E00FF11F408150E004E622
:101BCA0010E00E941D42801B910B042D10E0FD01C4
:101BDA00E00FF11F0081005D008343944AE050E06A
:101BEA008C010E942A42005D242D30E0FD01E20FA3
:101BFA00F31F008343944AE050E08C010E942A427A
:101C0A00405D042D10E0FD01E00FF11F4083439475
:101C1A0010C02FE3042D10E0FD01E00FF11F208317
:101C2A0043942FE3042D10E0FD01E00FF11F208300
:101C3A00439407E0401608F44394052D015019F027
:101C4A00025071F019C00CEE5524FD01E40DF51D8A
:101C5A00008300EC5524A40DB51DFD0101830CC0C1
:101C6A000EEC5524FD01E40DF51D00830CEE552400
:101C7A00A40DB51DFD010183E8E00C94B142BD013C
:101C8A00F801032F02950F703F700A3040F0095C8B
:101C9A00422F50E0DF01A40FB51F0C9307C0005D6F
:101CAA00422F50E0DF01A40FB51F0C933A3038F0F1
:101CBA00395C022F10E0E00FF11F318306C0305D5E
:101CCA00022F10E0E00FF11F3183DB0108959A9390
:101CDA008A930091E703002309F0E2C07091E803B8
:101CEA0060E00091E90310E0600F711F683E03E0B5
:101CFA00700710F067EE73E008EE13E01A930A9388
:101D0A0043E031E022E00DE211E0FFDE3091E8032A
:101D1A0023E00091C5011091C601B1DF3091E903BA
:101D2A0025E00091C5011091C601A9DF7091EA036F
:101D3A0060E00091EB0310E0600F711F60930405EF
:101D4A007093050508EE13E01A930A9341E031E017
:101D5A0023E007E311E0D9DE3091EA0323E00091A2
:101D6A00C7011091C8018BDF3091EB0325E0009188
:101D7A00C7011091C80183DF0091EC03043688F58E
:101D8A000091ED03033668F50091EC034AE00E94E6
:101D9A00FF41005D009343010091EC034AE00E9479
:101DAA00FF41405D409344010091ED034AE00E94E7
:101DBA00FF41005D009346014091EC0350E00AE0C8
:101DCA0010E00E941D42C8010091ED034AE00E9402
:101DDA00FF4110E0800F911F809302059093030545
:101DEA000FC00FE3009343010FE3009344010FE395
:101DFA000093460100E010E00093020510930305EA
:101E0A003091EC0323E00091C9011091CA0137DF38
:101E1A003091ED0325E00091C9011091CA012FDF2D
:101E2A005091EE0342E031E024E005E511E007DEDF
:101E3A005091EF0342E031E024E00FE511E0FFDDCD
:101E4A003091EE0323E00091CB011091CC0117DF12
:101E5A005091F00342E031E024E009E611E0EFDDC1
:101E6A005091F10342E031E024E003E711E0E7DDBD
:101E7A003091F00323E00091CD011091CE01FFDEF5
:101E8A005091F20342E031E023E00BE411E0D7DDA8
:101E9A003091F20323E00091CF011091D001EFDEDF
:101EAA0001E000930E0101E00093CF04899199911A
:101EBA000895065389F00A95E1F0025009F455C0D5
:101ECA000A9509F460C00A9509F10A9509F49AC0BD
:101EDA000A9509F4E9C0F4C00091E703023028F436
:101EEA000091E7030093E201EBC002E00093E201F4
:101EFA00E7C00091E703023028F40091E70300935A
:101F0A00E301DEC002E00093E301DAC00091E703D7
:101F1A000A500B35E8F40091E703043639F401E37B
:101F2A000093FD0100E30093FE010BC000E3009360
:101F3A00FD010091E7034AE00E94FF41005D009322
:101F4A00FE0100E30093FF0100E300930002B8C022
:101F5A000FE30093FD010FE30093FE010FE30093EB
:101F6A00FF010FE300930002ABC00091E7030630C4
:101F7A0030F40091E703005D0093E401A1C00FE390
:101F8A000093E4019DC00091E7030130D9F4009168
:101F9A00E8030B3088F40091E8034AE00E94FF410D
:101FAA00005D009305020091E8034AE00E94FF41A8
:101FBA00405D4093060206C00FE3009305020FE35B
:101FCA00009306020091E7030230D9F40091E80376
:101FDA000B3088F40091E8034AE00E94FF41005D5B
:101FEA0000930B020091E8034AE00E94FF41405D22
:101FFA0040930C0265C00FE300930B020FE30093BA
:10200A000C025EC00091E703073138F00FE300933A
:10201A00EB010FE30093EC0110C00091E7034AE0E3
:10202A000E94FF41005D0093EB010091E7034AE043
:10203A000E94FF41405D4093EC010091E8030731A3
:10204A0038F00FE30093F1010FE30093F20110C09F
:10205A000091E8034AE00E94FF41005D0093F1010C
:10206A000091E8034AE00E94FF41405D4093F2017B
:10207A000091E903073138F00FE30093F7010FE30A
:10208A000093F8011DC00091E9034AE00E94FF4154
:10209A00005D0093F7010091E9034AE00E94FF41C5
:1020AA00405D4093F8010CC00091E703023028F428
:1020BA000091E7030093EA0103C002E00093EA01FA
:1020CA0001E00093CF0401E00093CE04089500E0FC
:1020DA000093DE0100E00093DF0100E00093E001DD
:1020EA0000E00093E101E3EEF3E0048100FF04C0A5
:1020FA0001E00093DE011EC0E3EEF3E0048101FF7C
:10210A0004C002E00093DE0115C00091E803002339
:10211A0089F002E00093DE010091DE01039500934D
:10212A00DE010091E80306950093E8030091E803B5
:10213A00002391F7E3EEF3E0048102FF04C001E01B
:10214A000093DF0108C0E3EEF3E0048103FF03C05C
:10215A0002E00093DF01E3EEF3E0078100FF04C031
:10216A0001E00093E0011EC0E3EEF3E0078101FF06
:10217A0004C002E00093E00115C00091EB030023C4
:10218A0089F002E00093E0010091E00103950093D9
:10219A00E0010091EB0306950093EB030091EB033A
:1021AA00002391F7E3EEF3E0078102FF04C001E0A8
:1021BA000093E10108C0E3EEF3E0078103FF03C0E7
:1021CA0002E00093E10101E00093CF0401E00093F3
:1021DA00CE04089501E01091E703113021F401E0E3
:1021EA000093540501C000E00091E803023021F495
:1021FA0008E00093570501C000E00091E9030230AE
:10220A0021F408E00093580501C000E00091EA03B8
:10221A00023021F408E00093560501C000E0009165
:10222A00EB03033039F403E000935B0508E0009305
:10223A00550501C000E00091EC03013021F401E0F2
:10224A0000935A0501C000E03091ED0320E00091AF
:10225A00EE0310E0200F311F2093090130930A0189
:10226A003091EF0320E00091F00310E0200F311FBE
:10227A0020930B0130930C0101E000935C0504E00C
:10228A0000933A0500E000933C0503E000933D0506
:10229A0002E000933E0501E000933F05089540E007
:1022AA0001E00093CF0401E00093CE040FE010E0B8
:1022BA002091E50322952F7030E0021B130B209129
:1022CA003B0530E0F901E65CFA4F228130E0021763
:1022DA00130709F441E00091E5030F700130D9F4C6
:1022EA004423C9F00091E803002359F000E011E00B
:1022FA0000934105109342050091E70300934305BB
:10230A000AC00091E70310E00093410510934205CB
:10231A0000E0009343050091E5030F700230E1F4F9
:10232A00442379F000E00031B8F410E0F801ED51EF
:10233A00FC4F248110E0F801E65CFA4F22870395EE
:10234A00F2CF00E007C020E010E0F801E65CFA4FA7
:10235A00228703950031B8F308950E94A742A0E0AE
:10236A00B0E09091E7038091E80300E010E0009369
:10237A00F7041093F804092F0D59073C20F4082F8D
:10238A00065A053B50F00FE30093F0040FE3009365
:10239A00F10400E00093F20480C04424092F082BC2
:1023AA000078002319F00DE2502E02C00BE2502EE5
:1023BA00042D10E0F801E051FB4F50824394992319
:1023CA001AF49195092F01C0092F902F88231AF426
:1023DA008195082F01C0082F802F4AE0082F0E94FC
:1023EA000D42802F992359F4882349F4A0E0B0E0E4
:1023FA0000E30093F00400E00093F1044EC0492F7B
:10240A00542F550F550B0AE010E00E941D42D801C7
:10241A00082F102F110F110BA00FB11F0DE250162C
:10242A0019F4B195A195B040A093F704B093F804BC
:10243A009A3084F04AE0092F0E940D42005D55242B
:10244A00F201E051FB4F008343944AE0092F0E94B6
:10245A000D42942F905D5524F201E051FB4F908379
:10246A0043940EE25524F201E051FB4F008343945A
:10247A00805D5524F201E051FB4F8083439402ECC6
:10248A005524F201E051FB4F0083439400E05524A8
:10249A00F201E051FB4F00834394B091E903A0E0BD
:1024AA000091EA0310E0A00FB11F00E010E00093D2
:1024BA000005109301058D0109511C4F0F3C27E0BF
:1024CA00120750F00FE30093F9040FE30093FA04A4
:1024DA0000E00093FB046BC00A2F0B2B39F400E3D6
:1024EA000093F90400E00093FA0461C04424A09325
:1024FA000005B0930105242D422E4394A13000E03B
:10250A00B00714F00BE201C00DE230E0F901E0512E
:10251A00FB4F0187BB231AF4B195A195B040A436AD
:10252A0000E0B00794F044E650E08D010E94424278
:10253A00005D5524F201E051FB4F0187439444E6C4
:10254A0050E08D010E944242DA01AA3000E0B00751
:10255A0094F04AE050E08D010E944242005D552409
:10256A00F201E051FB4F018743944AE050E08D01AC
:10257A000E944242DA01A05D5524F201E051FB4F6C
:10258A00A18743940CEE5524F201E051FB4F0187D9
:10259A00439400EC5524F201E051FB4F0187439428
:1025AA0000E05524F201E051FB4F01874394E6E035
:1025BA000C94B1429A938A93802F282F2A9503EE7E
:1025CA0013E00E94100810E000938F02109390020B
:1025DA0020918F023091900290E0FC01EE51FC4F65
:1025EA00008110E02017310719F0549A579A75C0E4
:1025FA0000917304023001F502E00093930213C0C4
:10260A000091930210E0F801ED51FC4F20810091F6
:10261A00930210E0F801E652FD4F208300919302E5
:10262A0003950093930200919302081748F303E07D
:10263A00009373048093740400917304002309F0D7
:10264A004CC00091E503007F005039F0005151F071
:10265A00005169F0005181F02BC00091E5030E94FE
:10266A005F0839C00091E5030E944C0934C000910B
:10267A00E5030E94BB092FC00091E503EAE0F0E000
:10268A00FBBFFFE00C945F420E94960A24C00E949E
:10269A00FD0A21C059D81FC060DE1DC018DB1BC04F
:1026AA000091E50306DC17C012DD15C093DD13C0E7
:1026BA000091E503015C71F00A9561F00F5051F049
:1026CA000A9541F00F5031F00A9521F00F5011F0A0
:1026DA000A9509F4E4DD549A579A0E94191700E002
:1026EA000093750489919991089530E042E007C0FA
:1026FA0050E0F801E40FF51F5081350F439542175A
:10270A00B8F3032F08959A938A93812FE9E9F2E0A7
:10271A001081106110830093DC028093DD02282F60
:10272A002C5F0AED12E0E1DF10E0009394021093AF
:10273A0095020091940290E0FC01E652FD4F048359
:10274A008B5F082F0E94DD17899199910895E9E915
:10275A00F2E01081106110830093DC0202E0009322
:10276A00DD0226E00AED12E0C0DF10E000939402D9
:10277A0010939502009194020093E00207E00E94F0
:10278A00DD1708959A938A93802F0E94EA1700FB17
:10279A004EF400E00093DE0200E00093DF0201EE57
:1027AA00D6DF40C100919A02053509F031C1009186
:1027BA009B020A3A09F02CC100919D0210E0E82F11
:1027CA00F0E035970E171F0751F000919D02009314
:1027DA00DE0285508093DF0203EEB9DF23C1282F82
:1027EA002A950AE912E081DF10E00093940210931F
:1027FA009502209194023091950290E0FC01E756EF
:10280A00FD4F008110E02017310771F090E0FC01C4
:10281A00E756FD4F00810093DE0200919402009377
:10282A00DF0202EE94DFFEC000919C02043729F019
:10283A0000919C02033709F0BFC000919C02043743
:10284A0089F540912A0550E008EE13E00E941D42E6
:10285A00980140912B0550E004E610E00E941D42C9
:10286A00200F311F40912C0550E00AE010E00E9431
:10287A001D42200F311F00912D0510E0200F311F3E
:10288A002055304D20939702309398021091980268
:10289A00012F0093DE02009197020093DF0212E0FB
:1028AA0002E731DF00919C02033709F077C03091CB
:1028BA009E0220E000919F0210E0200F311F20931A
:1028CA0097023093980248EE53E0009197021091D4
:1028DA0098020E942A42005D00932A0580912A05E7
:1028EA0090E0C09708EE13E0AC010E941D42E7E9B0
:1028FA00F2E020813181201B310B2083318344E6B1
:10290A0050E000919702109198020E942A42005DBD
:10291A0000932B0580912B0590E0C09704E610E008
:10292A00AC010E941D42E7E9F2E020813181201BBF
:10293A00310B208331834AE050E0009197021091D5
:10294A0098020E942A42005D00932C0580912C0572
:10295A0090E0C0970AE010E0AC010E941D42E7E94E
:10296A00F2E020813181201B310B208331830091D9
:10297A009702005D00932D0510E003E7C4DE01E035
:10298A000093690400E010E000936F041093700450
:10299A000AE215E000936B0410936C040FE00093B5
:1029AA00060100919A00006100939A0000919A0032
:1029BA00006800939A0036C000E0009396021BC09C
:1029CA000091960210E0F801E656FD4F2081009131
:1029DA00960210E0F801ED5DFB4F208300E02091A4
:1029EA00960230E0F901E656FD4F00830091960207
:1029FA0003950093960200919602081708F38093B4
:102A0A00740401E0009373040FE0009306010AC006
:102A1A0000919A00006100939A0000919A00006860
:102A2A0000939A000E94F7178991999108950FECE3
:102A3A0009B91098119A1898199A0EE000939500FE
:102A4A0008E10AB9549A579A06B70D7F06BF07B725
:102A5A00016007BF05E002BF04E003BF05E500937C
:102A6A0023040AEA009324040895FA93EA935A93F2
:102A7A004A933A932A931A930A934FB75BB70CB1C6
:102A8A005C9957C010916504105039F01A9559F0A5
:102A9A001A9599F01A95B9F027C0053519F401E08D
:102AAA000093650446C00A3A21F402E000936504E3
:102ABA0040C000E0009365043CC00093E50303E0D6
:102ACA000093650436C00093E6030C3320F010E04F
:102ADA001093650403C014E0109365041091650413
:102AEA00100F1093660425C02091650430E0F901A7
:102AFA00ED51FC4F008300916504109166040117A3
:102B0A0098F001E00093750400E00093650454987E
:102B1A00579800916604039500937604E2EEF3E079
:102B2A0000810860008305C0009165040395009345
:102B3A0065045BBF4FBF0991199129913991499158
:102B4A005991E991F9911895FA93EA933A932A934C
:102B5A001A930A932FB73BB7009163041091640448
:102B6A00011784F400916304102F110F110BF8015F
:102B7A00ED5DFB4F00810CB900916304039500934E
:102B8A0063040FC05398559800E00093640400E072
:102B9A0000936304549A579AE2EEF3E000810F7EA1
:102BAA0000833BBF2FBF0991199129913991E9916E
:102BBA00F99118959A938A93FA93EA933A922A92F8
:102BCA001A920A927A936A935A934A933A932A9355
:102BDA001A930A938FB79BB72197A89505E002BF6E
:102BEA000091CA04003F09F045C000917304002314
:102BFA0009F040C00E94101C0093DF030091DF031C
:102C0A001091DE03011721F00091DF03003FD1F498
:102C1A00E0EEF3E0008111810F5F1F4F0083118303
:102C2A000091E0031091E103013921E0120784F0D9
:102C3A0000E911E00093E0031093E10300EF009331
:102C4A00DE0306C000E010E00093E0031093E10306
:102C5A000091DF031091DE03011761F00091DF0399
:102C6A00003F41F00091DF030093CA040091DF03A3
:102C7A000093DE030091DC03053078F10091DD0357
:102C8A00013029F0E9E9F2E0008100FF22C0009159
:102C9A009A000F7E00939A0000919A000F77009392
:102CAA009A00E9E9F2E00081086000830091D90303
:102CBA000E94C71300E00093DD0300E00093D903EC
:102CCA0000919C000883E9E9F2E000810F7E00830D
:102CDA0009C00EE10093DC0305C00091DC030395F3
:102CEA000093DC03E19937C000916904013099F53A
:102CFA0000916F04109170041FBB0EBB0091670412
:102D0A0010E0E0916B04F0916C04E00FF11F008178
:102D1A000DBBE29AE19A0091670403950093670458
:102D2A00EFE6F4E0008111810F5F1F4F00831183EA
:102D3A000091670410E0E0916B04F0916C04E00FDD
:102D4A00F11F31970081002331F400E000936904F8
:102D5A0000E000936704E1994EC000916A040130D3
:102D6A0009F049C000917104109172041FBB0EBB97
:102D7A00E09A2DB30091680410E0E0916D04F0919F
:102D8A006E04E00FF11F20830091680410E0E091C7
:102D9A006D04F0916E04E00FF11F00810F3F59F4AA
:102DAA0000E02091680430E0E0916D04F0916E0437
:102DBA00E20FF31F0083E1E7F4E0008111810F5F66
:102DCA001F4F0083118300916804039500936804E0
:102DDA000091680410E0E0916D04F0916E04E00F38
:102DEA00F11F31970081002331F400E000936A0457
:102DFA0000E00093680421969BBF8FBF0991199147
:102E0A00299139914991599169917991099019902A
:102E1A0029903990E991F99189919991189500939E
:102E2A006404539A559A089500E00093E2030895C2
:102E3A0003E3009399008A988B9A9298939A0EE0EA
:102E4A0000939D0008E100939A0000919A000061A6
:102E5A0000939A0000919A00006800939A0005E591
:102E6A000093DA020AEA0093DB020895FA93EA93DE
:102E7A004A933A932A931A930A933FB74BB72197E7
:102E8A0000919B00102F14FF05C0E9E9F2E00081D0
:102E9A00016000830091DD03002391F40091DC03BB
:102EAA000E3170F001E00093DD0300E00093D903D6
:102EBA0000E00093DC03E9E9F2E0008100610083AD
:102ECA000091DD03013011F50091DC030E31F0F4BD
:102EDA000091D903003448F0E9E9F2E00081016089
:102EEA00008300919C0008830EC020919C000091F1
:102EFA00D90310E0F801E656FD4F20830091D9036B
:102F0A0003950093D90300E00093DC0321964BBF9D
:102F1A003FBF09911991299139914991E991F99103
:102F2A001895FA93EA933A932A931A930A932FB726
:102F3A003BB70091DA031091DB0301178CF400917F
:102F4A00DA03102F110F110BF801E652FD4F008121
:102F5A0000939C000091DA0303950093DA031FC0E3
:102F6A0000919A00077F00939A0000919A000F7DC2
:102F7A0000939A0000E00093DB0300E00093DA0379
:102F8A0000919A00006100939A0000919A000068EB
:102F9A0000939A00E9E9F2E000810F7E00833BBFCB
:102FAA002FBF0991199129913991E991F9911895B0
:102FBA000093DB0300919A00086000939A00009145
:102FCA009A00006200939A00089500919902109164
:102FDA009A00212F27FD026010919A00212F25FDCA
:102FEA000460089500E00093990208950FEF0ABB68
:102FFA0000E00BBB00E707BB00E208BB00E004BB34
:10300A0000E005BB00E001BB00E002BB07B70068B7
:10301A0007BF00E004BD0AE003BD08E005BD05B531
:10302A00056005BD07B7046007BF00E00FBD00E0FB
:10303A000EBD09EF0DBD05EE0CBD0895A89501B5AD
:10304A00006101BD01B5087F01BD01B5006101BD87
:10305A0001B5086001BD0895FA93EA933A932A9359
:10306A001A930A932FB73BB70091C804015009F489
:10307A0045C00A9521F00A9509F452C07FC001E0C3
:10308A0003BDC69AC59A0091C70410E0F801E95831
:10309A00FB4F00810BBBC5980091C7040F3420F485
:1030AA000091C704039501C000E00093C704009192
:1030BA00C704005039F0045161F0045189F00451F9
:1030CA00B1F05CC000E80093C90401E00093C804B1
:1030DA0055C000EC0093C90401E00093C8044EC037
:1030EA0004E90093C90401E00093C80447C004ED51
:1030FA000093C90401E00093C80440C00091C904C8
:10310A00013011F400E201C001E003BDC698C59A7E
:10311A000091C9040BBBC59802E00093C8042EC0F5
:10312A000091C70410E0000F111FF801E457FF4F88
:10313A0004910023E9F0C698C59A0091C70410E0EB
:10314A00000F111FF801E457FF4F04910BBBC598FC
:10315A000091C70410E0000F111FF801E357FF4F59
:10316A00049103BD0091C70403950093C70406C0E8
:10317A0002E00093C80400E00093C7043BBF2FBFDE
:10318A000991199129913991E991F9911895202F6D
:10319A0000E064E1269F010E1BEE010E0CC010E058
:1031AA00FA01E00FF11F10811124F001E958FB4FD9
:1031BA0010830394039510E0FA01E00FF11F1081C8
:1031CA00112331F1313059F710E0FA01E00FF11F04
:1031DA001081103C88F010E0FA01E00FF11F6081C5
:1031EA0070E0FB01E452F04014911124F001E95817
:1031FA00FB4F10830394DECF10E0FA01E00FF11FBA
:10320A0010811124F001E958FB4F10830394D2CFA7
:10321A00089504E107C020E210E0F801E958FB4FE5
:10322A00208303950035B8F300E00093C70408959E
:10323A0000E00093C70403E00093C804089534E152
:10324A00039F010E0BEE000E10E008C000E21124ED
:10325A00F001E958FB4F0083039413951217B0F35A
:10326A0008959A938A93922F24E1029F802D810FC9
:10327A00855140E1092F0E94FF41282F30E0F901D2
:10328A00E958FB4F0083082F10E0F801E958FB4F7B
:10329A00108100E1109F9019082F10E0F801E958F9
:1032AA00FB4F918390E0FC01E958FB4F00810A3003
:1032BA0040F090E0FC01E958FB4F0081095C008373
:1032CA0007C090E0FC01E958FB4F0081005D0083D4
:1032DA0090E0FC01E958FB4F01810A3040F090E090
:1032EA00FC01E958FB4F0181095C018307C090E0AA
:1032FA00FC01E958FB4F0181005D01838991999195
:10330A0008959A938A93922F24E1029F802D810F28
:10331A0085514AE0092F0E94FF41005D282F30E0C5
:10332A00F901E958FB4F0083082F10E0F801E9582A
:10333A00FB4F0081003309F083954AE0092F0E9470
:10334A00FF411AE0019F9019905D082F10E0F801E3
:10335A00E958FB4F9083899199910895202F00E0B5
:10336A0064E1269F010E1BEE010E0CC010E0FA016B
:10337A00E00FF11F14911124F001E958FB4F10835B
:10338A000394039510E0FA01E00FF11F1491112341
:10339A0081F1313021F510E0FA01E00FF11F1491AB
:1033AA00103C88F010E0FA01E00FF11F649170E020
:1033BA00FB01E452F04014911124F001E958FB4F4B
:1033CA0010830394DECF10E0FA01E00FF11F14918D
:1033DA001124F001E958FB4F10830394D2CF323005
:1033EA0029F610E21124F001E958FB4F10830394E7
:1033FA00C8CF089544E1049F010E0BEE000E11247C
:10340A00F001E958FB4F2083089500E007C020E24D
:10341A0010E0F801E958FB4F208303950035B8F313
:10342A0008950E94A742802FD901412E855C982FCA
:10343A0028E2082F10E0F801E958FB4F2083839512
:10344A000A2F0B2B21F0A13001E0B00748F020E34E
:10345A00082F10E0F801E958FB4F208383954FC0ED
:10346A0055240FEF4016C9F422E3082F10E0F801A3
:10347A00E958FB4F2083839525E3082F10E0F801D4
:10348A00E958FB4F2083839526E3082F10E0F801C3
:10349A00E958FB4F2083839532C0439404E64016D3
:1034AA0070F044E6042D0E94FF41502E252D205D28
:1034BA00082F10E0F801E958FB4F208383950AE0B2
:1034CA00401688F04AE0042D0E94FF411AE0519EFE
:1034DA00502E501800E3500E082F10E0F801E9585A
:1034EA00FB4F508283954AE0042D0E94FF41405DC4
:1034FA00082F10E0F801E958FB4F408383952FE22B
:10350A00082F10E0F801E958FB4F20838395A0307B
:10351A0001E0B007C9F422E3082F10E0F801E958E6
:10352A00FB4F2083839525E3082F10E0F801E95823
:10353A00FB4F2083839526E3082F10E0F801E95812
:10354A00FB4F208383953DC0A03001E0B00788F58A
:10355A005524A43670F044E60A2F0E94FF41502EEB
:10356A00252D205D082F10E0F801E958FB4F208334
:10357A008395AA3088F04AE00A2F0E94FF411AE098
:10358A00519E502E501800E3500E082F10E0F801FB
:10359A00E958FB4F508283954AE00A2F0E94FF4167
:1035AA00405D082F10E0F801E958FB4F40838395EE
:1035BA0008C02FE3082F10E0F801E958FB4F2083D9
:1035CA00839529E2082F10E0F801E958FB4F208380
:1035DA00082F091B902F0AC08395282F822F00E2FB
:1035EA0030E0F901E958FB4F008393959830A0F336
:1035FA00E6E00C94B142BD01D90110E015C0202FBC
:10360A0030E0F901E958FB4F2081205D2083123018
:10361A0048F40395402F042F2EE250E0FA01E958AE
:10362A00FB4F208303951395133008F049C01123EB
:10363A0019F4FD01258507C0113019F4FD0126850D
:10364A0002C0FD012785322F32953F70402F50E08E
:10365A00FA01E958FB4F3083402F50E0FA01E9584C
:10366A00FB4F30813A3048F0402F50E0FA01E958D8
:10367A00FB4F3081395C308308C0402F50E0FA019B
:10368A00E958FB4F3081305D30830395402F042F7A
:10369A002F7050E0FA01E958FB4F2083202F30E0C9
:1036AA00F901E958FB4F20812A3008F4A8CF202FCE
:1036BA0030E0F901E958FB4F2081295C2083A7CF2C
:1036CA00DB0108950E94A942802FD90100E00BC0B6
:1036DA008395282F822F1EE230E0F901E958FB4F2B
:1036EA00108383950395033008F056C0002319F41C
:1036FA00FD01138507C0013019F4FD01128502C0CE
:10370A00FD011185212F22952F7090E0FC01E958C7
:10371A00FB4F208390E0FC01E958FB4F20812A30BF
:10372A0040F090E0FC01E958FB4F2081295C20839E
:10373A0007C090E0FC01E958FB4F2081205D2083FF
:10374A008395282F822F1F7030E0F901E958FB4F2B
:10375A00108390E0FC01E958FB4F10811A3040F0C9
:10376A0090E0FC01E958FB4F1081195C108307C0F7
:10377A0090E0FC01E958FB4F1081105D1083023084
:10378A0008F0A6CF8395282F822F1AE330E0F9019B
:10379A00E958FB4F1083A5CFFD010781FD01B085D4
:1037AA00A02FA83E03E0B00760F000E0033080F5E8
:1037BA001FE390E0FC01E958FB4F108383950395C2
:1037CA00F5CF4AE050E08D010E942A42405D90E028
:1037DA00FC01E958FB4F42834AE050E08D010E9408
:1037EA002A42D8014AE050E08D010E942A42405DF7
:1037FA0090E0FC01E958FB4F41834AE050E08D011B
:10380A000E942A42005D90E0FC01E958FB4F0083C8
:10381A00E4E00C94B34201E004BB00E001C003956C
:10382A000A30E8F303B312E014BB0E3FE1F400E000
:10383A0001C003950A30E8F303B314E014BB0D3F4B
:10384A0091F400E001C003950A30E8F303B318E0ED
:10385A0014BB0B3F41F400E001C003950A30E8F3C2
:10386A0003B310E014BBE0E3F0E0FBBFFFE00C940D
:10387A005F4203E4089503E2089500E308950DE426
:10388A00089504E4089509E3089508E3089507E311
:10389A00089505E5089506E3089505E3089504E308
:1038AA00089505E4089503E3089502E3089501E302
:1038BA00089500EF089500E023EA3EE0402F50E02B
:1038CA00440F551FFA01E759FA4F2383348321E045
:1038DA0010E0F801E759FA4F278320E010E0F801D9
:1038EA00E759FA4F208303951091D2011730C1F49A
:1038FA002BEC3EE0402F50E0440F551FFA01E759E8
:10390A00FA4F2383348329E010E0F801E759FA4F8C
:10391A00278322E010E0F801E759FA4F208317C005
:10392A0027EB3EE0402F50E0440F551FFA01E759BC
:10393A00FA4F2383348328E010E0F801E759FA4F5D
:10394A00278321E010E0F801E759FA4F2083039515
:10395A0000936B05089531E042EA57E022E011E056
:10396A0004E00E94B3192FE016E004E00E94241933
:10397A0031E000912F0510E0000F111FE09133058F
:10398A00F0913405E00FF11F4591549122E017E0C0
:10399A0004E00E94B3190091CA040354F9F00A958D
:1039AA0089F00A9581F1005109F0A2C0009132050F
:1039BA0010912F05011728F400912F050A950093FD
:1039CA002F0596C000912F0510913105011728F493
:1039DA0000912F05039500932F058AC000E00093FC
:1039EA001B050E940E1901E00093CE0400E000932B
:1039FA002F0500E00093310500E00093320500E056
:103A0A000093350575C0009110010D3059F40091ED
:103A1A003005023009F05CC000912F050395009330
:103A2A002F0556C000911001033191F40091300521
:103A3A00033009F04DC000912F05002311F001E079
:103A4A0001C000E000938E0200E00093350540C0FB
:103A5A0000911001063149F40091300500933505B3
:103A6A000091360500932F0533C0009110010B30E9
:103A7A0079F500913005023049F400912F050023B1
:103A8A0029F000912F05039500932F050091300529
:103A9A00013021F400912F05023040F400913005E5
:103AAA000230B1F400912F05002391F00091D30167
:103ABA00043040F00091D501043020F00091D1018A
:103ACA00043030F401E310E00093EB041093EC04AB
:103ADA00009130050093350500912F0500933605B6
:103AEA000E940E1901E00093CE0400E000931B052A
:103AFA0000EF0093CA0408950E94AA428091170514
:103B0A00A82FA95F9091CA042FE016E004E00E9452
:103B1A00241931E042EA57E022E011E004E00E9471
:103B2A00B31931E042E151E022E017E004E00E94DB
:103B3A00CC1800911705083098F400912905013036
:103B4A0061F430E045EF5EE022E01A2F04E00E94C3
:103B5A00B31900E00093290503C001E00093290589
:103B6A00903F09F475C2953409F0F2C00091270517
:103B7A00013009F08CC0109118010AE0109F002D45
:103B8A0010911901010F0051209115011AE0219F8E
:103B9A00102D20911601120F1051309112012AE0B6
:103BAA00329F802D20911301820F8051209118019C
:103BBA002295207F30911901230F20532093000171
:103BCA00112369F01D3058F4209115012295207FA8
:103BDA0030911601230F20532093010104C011E0F4
:103BEA0021E020930101125049F0125071F1125054
:103BFA0061F1135051F1125041F138C044E00E9472
:103C0A00FF41442389F08D3158F400911201029545
:103C1A00007F10911301010F00530093020188C025
:103C2A0001E00093020184C08E3158F40091120120
:103C3A000295007F10911301010F005300930201B6
:103C4A0077C001E00093020173C08F3158F40091EC
:103C5A0012010295007F10911301010F0053009386
:103C6A00020166C001E00093020162C0803258F48A
:103C7A00009112010295007F10911301010F005368
:103C8A000093020155C001E00093020151C0009166
:103C9A002705023009F04CC0109112010AE0109F6A
:103CAA00102D00911301100F1051209115010AE0F7
:103CBA00209F002D20911601020F0051309118010A
:103CCA002AE0329F20911901020E20EF020E1831CC
:103CDA0058F4109112011295107F20911301120FBE
:103CEA0010531093030103C010E0109303010C3327
:103CFA0058F4009115010295007F10911601010FE9
:103D0A0000530093040103C000E0009304010CE394
:103D1A00001658F4009118010295007F10911901BC
:103D2A00010F00530093050103C000E00093050151
:103D3A0001E00093D20400E000931B0580E024E137
:103D4A0011E004E00E94241901E00093CE047BC133
:103D5A00933479F400E000931B0500E00093170503
:103D6A0024E111E004E00E94241901E00093CE044A
:103D7A006AC1953551F4873008F48395823019F079
:103D8A00853009F060C183955EC1943451F488236B
:103D9A0009F08A95823019F0853009F054C18A9564
:103DAA0052C1092F00530A3008F04DC1009127056E
:103DBA00013009F0E1C0082F005081F00A9509F49A
:103DCA0045C0025009F46EC00A9509F499C0025020
:103DDA0009F4C2C00A9509F4C7C030C19033A9F4E6
:103DEA00082F10E0F801EE5EFE4F9083839590E075
:103DFA00FC01EE5EFE4F0081003339F501E390E0ED
:103E0A00FC01EE5EFE4F008319C1933340F4082F84
:103E1A0010E0F801EE5EFE4F908383950FC1933355
:103E2A00A1F4082F10E0F801EE5EFE4F908383950F
:103E3A0090E0FC01EE5EFE4F0081023330F000E3B9
:103E4A0090E0FC01EE5EFE4F0083F8C0903381F4EF
:103E5A00082F10E0F801EF5EFE4F0081013308F1F0
:103E6A00082F10E0F801EE5EFE4F90838395E6C0BE
:103E7A00913341F4082F10E0F801EE5EFE4F908373
:103E8A008395DCC0082F10E0F801EF5EFE4F008139
:103E9A00033338F4082F10E0F801EE5EFE4F9083EA
:103EAA008395CCC09033A9F4082F10E0F801EE5E98
:103EBA00FE4F9083839590E0FC01EE5EFE4F0081F9
:103ECA000033E9F401E390E0FC01EE5EFE4F00836B
:103EDA00B5C09133A1F4082F10E0F801EE5EFE4F51
:103EEA009083839590E0FC01EE5EFE4F00810333E0
:103EFA0030F000E390E0FC01EE5EFE4F00839EC0CE
:103F0A00903381F4082F10E0F801EF5EFE4F008134
:103F1A00013308F1082F10E0F801EE5EFE4F90839E
:103F2A0083958CC0082F10E0F801EF5EFE4F0081E8
:103F3A00013351F4933378F4082F10E0F801EE5E60
:103F4A00FE4F908383957AC0082F10E0F801EE5E49
:103F5A00FE4F9083839572C0082F10E0F801EE5E41
:103F6A00FE4F908383956AC0082F10E0F801EE5E39
:103F7A00FE4F9083839562C000912705023009F0B5
:103F8A005DC0082F005071F00A9569F1025009F4DA
:103F9A0044C00A9509F44BC00250F9F10A9509F494
:103FAA0046C04CC0923340F4082F10E0F801EE5E90
:103FBA00FE4F9083839542C09233A1F4082F10E0FC
:103FCA00F801EE5EFE4F9083839590E0FC01EE5E71
:103FDA00FE4F0081043390F100E390E0FC01EE5EB5
:103FEA00FE4F00832BC0943340F4082F10E0F801F1
:103FFA00EE5EFE4F9083839521C0082F10E0F801F2
:10400A00EF5EFE4F00810233C8F4082F10E0F8017A
:10401A00EE5EFE4F9083839511C0963378F4082F95
:10402A0010E0F801EE5EFE4F9083839507C0082FDB
:10403A0010E0F801EE5EFE4F90838395823011F016
:10404A00853009F483958093170500EF0093CA041D
:10405A00E3E00C94B4429A938A9331E042EA57E03F
:10406A0022E011E004E00E94B3192FE016E004E018
:10407A000E9424190091CA04043461F500911705BD
:10408A00002341F1009127050130C9F40091170579
:10409A00002361F0009117050A9500931705009116
:1040AA001705023019F401E00093170500E3209187
:1040BA00170530E0F901E25FFA4F00830BC0209147
:1040CA0017052A952093170500E330E0F901E25F0E
:1040DA00FA4F008300911705109118050117F0F4A3
:1040EA000091CA0400530A3070F42091CA04009166
:1040FA00170510E0F801E25FFA4F208300911705D7
:10410A0003950093170500912705013039F40091B2
:10411A001705023019F403E00093170531E04EE069
:10412A0055E022E017E004E00E94CC180091170540
:10413A00109118050117A8F400912905013071F4AE
:10414A0030E045EF5EE022E010911705195F04E0C8
:10415A000E94B31900E00093290503C001E000930F
:10416A0029050091CA04033459F500E000931B05A0
:10417A000E940A1A01E00093CE0400E007C020E082
:10418A0010E0F801E25FFA4F208303950430B8F398
:10419A0000E00093090500E00093170500E0009392
:1041AA00180500E000931C0500E010E000931E05CE
:1041BA0010931F0500E010E00093200510932105DD
:1041CA000091CA04053409F006C10091270501309F
:1041DA0009F054C000910E0510E00F7010704AE00B
:1041EA0050E00E941D42C80100910F0510E00F70B7
:1041FA001070800F911F4AE050E08C010E941D420E
:10420A00C8010091110510E00F701070800F911F06
:10421A00082F092B21F404E000932705A2C000917E
:10422A00020510910305801B910B0091F704109170
:10423A00F804800F911F4AE050E08C010E9442422C
:10424A0010E0009337051093380500913705102FB9
:10425A0000E000933705109338054AE050E08C01DE
:10426A000E9442420AE0409F1124E7E3F5E0008100
:10427A001181000D111D0083118373C00091270560
:10428A00023009F06EC080E090E00091170503301B
:10429A00E9F400910E0510E00F70107044E650E04A
:1042AA000E941D42C80140910F0550E04F705070A6
:1042BA000AE010E00E941D42800F911F0091100534
:1042CA0010E00F701070800F911F24C00091170525
:1042DA00023091F400910E0510E00F7010704AE060
:1042EA0050E00E941D42C80100910F0510E00F70B6
:1042FA001070800F911F0EC000911705013031F424
:10430A0080910E0590E08F70907004C08091040532
:10431A0090910505009104051091050509511C4F5E
:10432A000F3C27E0120730F000E010E0009304058C
:10433A0010930505082F092B21F405E000932705A2
:10434A0010C00091040510910505801B910B009186
:10435A00000510910105800F911F809337059093F6
:10436A003805883E03E0900724F089310CEF900766
:10437A0094F10AE000933505009127050093EF04B4
:10438A0000E007C020E010E0F801E25FFA4F208366
:10439A0003950430B8F300E000931B050E940A1A43
:1043AA0001E00093CE0400E00093090500E00093C9
:1043BA00170500E00093180500E000931C0500E0D3
:1043CA0010E000931E0510931F0500E010E0009313
:1043DA0020051093210500EF0093CA048991999151
:1043EA0008959A938A932FE016E004E00E94241914
:1043FA00009110010530C9F400918C02023041F499
:10440A0031E048EA57E022E011E004E00E94B319E3
:10441A0000918C02013011F531E040EB57E022E0C7
:10442A0011E004E00E94B31919C0009110010B3089
:10443A0069F400918C02023049F431E048EA57E00D
:10444A0022E011E004E00E94B31908C031E042EA18
:10445A0057E022E011E004E00E94B3190091170529
:10446A00109118050117D0F500912705053A61F05A
:10447A0000912705043941F000912705043A21F0FB
:10448A0000912705063AB9F40091CA04003321F0D5
:10449A000091CA04013311F52091CA04009117054D
:1044AA0010E0F801E25FFA4F2083009117050395A7
:1044BA000093170513C00091CA0400530A3070F420
:1044CA002091CA040091170510E0F801E25FFA4F43
:1044DA002083009117050395009317050091CA04DC
:1044EA000332A1F4009110010D50043078F40091C8
:1044FA00090503950093090500910905023018F092
:10450A0000E00093090501E00093CE04009117052D
:10451A0010911805011708F04AC0009129050130C9
:10452A0009F042C0009110010530E9F400918C02B3
:10453A00023051F430E045EF5EE022E010911705B9
:10454A00175F04E00E94B31900918C02013041F513
:10455A0030E045EF5EE022E010911705115F04E0BC
:10456A000E94B3191DC0009110010B3079F400911B
:10457A008C02023059F430E045EF5EE022E01091FF
:10458A001705175F04E00E94B3190AC030E045EF2F
:10459A005EE022E010911705195F04E00E94B3194A
:1045AA0000E00093290503C001E00093290500916A
:1045BA00CA04043489F400911705002369F00091B4
:1045CA0017050A950093170500E02091170530E0BA
:1045DA00F901E25FFA4F0083009110010530C9F436
:1045EA0000918C02023041F431E04EE055E022E0C5
:1045FA0019E004E00E94CC1800918C02013011F5F8
:10460A0031E04EE055E022E01FE004E00E94CC18C1
:10461A0019C0009110010B3069F400918C0202302C
:10462A0049F431E04EE055E022E019E004E00E944E
:10463A00CC1808C031E04EE055E022E017E004E073
:10464A000E94CC180091CA04033409F068C0009192
:10465A008C02013019F402E000938C020091540597
:10466A00002339F00091D101023019F400E00093DF
:10467A00EE0400915505002359F00091D301013051
:10468A0021F00091D301023019F400E00093EE0406
:10469A0000915605002339F00091D501023019F432
:1046AA0000E00093EE040091EE04013019F401E0F9
:1046BA000093D50400E000931B050E940E1901E047
:1046CA000093CE0400E0009317050DC000E020918E
:1046DA00170530E0F901E25FFA4F008300911705F0
:1046EA0003950093170500911705083078F300E049
:1046FA000093090500E00093170500E000931805F0
:10470A0000E000931C0500E010E000931E051093E2
:10471A001F0500E010E00093200510932105009189
:10472A002705053A69F000912705043949F00091F7
:10473A002705043A29F000912705063A09F06BC0CB
:10474A000091170510911805011709F064C000912E
:10475A00CA04053409F05FC000E000931B050E94FB
:10476A000E1901E00093CE0400E010E00093240546
:10477A001093250500E00093360520E050911805B6
:10478A0012C05A9530E0F901E25FFA4F808190E059
:10479A00C0978C01452F0E94274210913605100FB1
:1047AA0010933605239500911805201750F301E060
:1047BA0000932805009127050093350500E0009332
:1047CA0017050DC000E02091170530E0F901E25FFE
:1047DA00FA4F00830091170503950093170500917E
:1047EA001705083078F300E00093170500E00093FE
:1047FA00180500E000931C0500E00093270500E07F
:10480A0010E000931E0510931F0500E010E00093CE
:10481A002005109321050091CA04053409F0F4C15A
:10482A0000911001023009F4EFC100911001053026
:10483A0009F4EAC1009110010B3009F4E5C10091B5
:10484A002705053A09F4E0C100912705053109F465
:10485A00DBC100912705043909F4D6C10091270567
:10486A00043A09F4D1C100912705063A09F4CCC1EA
:10487A0000E000931B050E940E1901E00093CE048C
:10488A0000911705015051F00A9509F441C00A95A3
:10489A0009F486C00A9509F4CCC01CC100910E0522
:1048AA0010E00053104040911D0550E00E94424222
:1048BA00009322051093230500911D0510E04091F5
:1048CA002205509123050E941D420093240510934E
:1048DA00250500910E050053009326050091240535
:1048EA001091250520912005309121050217130703
:1048FA0070F000911E0510911F052091240530913A
:10490A0025050217130718F001E000932805E2C0F5
:10491A0040910E0550E00AE010E00E941D422091ED
:10492A000F0530E0020F131F0051124040911D0580
:10493A0050E00E9442420093220510932305009101
:10494A001D0510E040912205509123050E941D4249
:10495A00009324051093250500910E050295007F0A
:10496A0010910F05010F00530093260500912405AD
:10497A001091250520912005309121050217130772
:10498A0070F000911E0510911F05209124053091A9
:10499A0025050217130718F001E0009328059AC0AD
:1049AA0040910E0550E004E610E00E941D42C80145
:1049BA0040910F0550E00AE010E00E941D42800F6E
:1049CA00911F0091100510E0800F911F805D9441A6
:1049DA008C0140911D0550E00E944242009322053D
:1049EA001093230500911D0510E040912205509176
:1049FA0023050E941D42009324051093250500916A
:104A0A0024051091250520912005309121050217D2
:104A1A00130770F000911E0510911F0520912405BF
:104A2A00309125050217130718F001E000932805B5
:104A3A0051C040910E0550E008EE13E00E941D425D
:104A4A00980140910F0550E004E610E00E941D42D3
:104A5A00200F311F4091100550E00AE010E00E943B
:104A6A001D42200F311F0091110510E0200F311F48
:104A7A002055304D890140911D0550E00E94424267
:104A8A00009322051093230500911D0510E0409123
:104A9A002205509123050E941D420093240510937C
:104AAA0025050091240510912505209120053091B6
:104ABA0021050217130770F000911E0510911F05BA
:104ACA0020912405309125050217130718F001E0FB
:104ADA000093280500912805013009F068C000916B
:104AEA002705015909F446C00A9509F44CC00A95EC
:104AFA0009F449C00E50F1F10A95E1F10450D1F1DF
:104B0A000F5560F0035058F0005040F0035080F009
:104B1A000F50C1F00A95F1F00A9521F142C00091B7
:104B2A00270500933505009124050093360539C001
:104B3A00009127050550009335050091240500933F
:104B4A0036052FC004E00093350500912405009333
:104B5A00360527C006E00093350500912405009329
:104B6A0036051FC009E0009335050091240500931E
:104B7A00360517C0009127050093350500912405D5
:104B8A00009336050EC000912705009335054AE0CB
:104B9A0050E000912405109125050E942A420093B5
:104BAA00360500E00093270500E00093280500E0A1
:104BBA00009317050DC000E02091170530E0F901B8
:104BCA00E25FFA4F008300911705039500931705DA
:104BDA0000911705083078F300E00093090500E01A
:104BEA000093170500E00093180500E000931C05E8
:104BFA0000E010E000931E0510931F0500E010E08E
:104C0A0000932005109321050091CA04053409F088
:104C1A00FDC000911705043009F0F8C000918C021C
:104C2A00013029F000918C02023009F0EFC00091A6
:104C3A001001053029F0009110010B3009F0E6C08F
:104C4A0000E000931B050E940E1901E00093CE04B8
:104C5A0000918C02023009F089C000E00093170528
:104C6A0000E000938C021AC000918C0210E0F80157
:104C7A00E25FFA4F208100918C0210E0F801E65DB4
:104C8A00FA4F0081201729F0009117050395009328
:104C9A00170500918C02039500938C0200918C02F7
:104CAA00043010F300911705002329F100E0009366
:104CBA00170500E000938C021AC000918C0210E0E4
:104CCA00F801E25FFA4F208100918C0210E0F801AE
:104CDA00EC5FF04F0491201729F000911705039516
:104CEA000093170500918C02039500938C020091A2
:104CFA008C02043010F300911705002339F401E007
:104D0A0000938C0201E00093ED0456C002E0009388
:104D1A008C0200915405002339F00091D101023030
:104D2A0019F400E00093EE0400915505002359F0B0
:104D3A000091D301013021F00091D301023019F41E
:104D4A0000E00093EE0400915605002339F000912B
:104D5A00D501023019F400E00093EE040091EE044C
:104D6A00013051F501E00093D50426C000918C0270
:104D7A00013011F500910E0500932A0500910F05E7
:104D8A0000932B050091100500932C050091110545
:104D9A0000932D0501E00093690400E010E0009300
:104DAA006F04109370040AE215E000936B041093E9
:104DBA006C0402E000938C0200E0009317050DC01A
:104DCA0000E02091170530E0F901E25FFA4F008315
:104DDA0000911705039500931705009117050430F4
:104DEA0078F300E00093170500E00093180500E04F
:104DFA0000931C0500E010E000931E0510931F05A8
:104E0A0000E010E0009320051093210500EF0093C5
:104E1A00CA040091D504013031F405E40093CA04B0
:104E2A0000E00093D50400918C02013039F400911E
:104E3A0010010B3019F405E40093CA0400918C02A6
:104E4A00013071F400911001053051F40091ED0424
:104E5A00013031F403E30093CA0400E00093ED0447
:104E6A008991999108958A93802F05E10093100101
:104E7A000E940E1900E000930A0502E000930C0557
:104E8A00815380933B0500E010E0009341051093A5
:104E9A0042058991089504E0009310010E940E19B9
:104EAA0000E000930A0503E000930C0501E000937B
:104EBA000B0500E00093500528E211E002E00E9491
:104ECA00241900E010E0009341051093420501E027
:104EDA000093CE0408958A93802F8F3F69F40FE3DD
:104EEA0000931F020FE3009320020FE300932102B5
:104EFA000FE30093220223C0843669F401E300938E
:104F0A001F0200E30093200200E30093210200E362
:104F1A000093220214C000E300931F024AE0082F04
:104F2A000E94FF41005D009320024AE0082F0E9480
:104F3A00FF41405D4093210200E3009322028991E0
:104F4A0008959A938A9300911001013009F088C05C
:104F5A000091CA04035209F479C00F5031F102508A
:104F6A0009F446C0025009F443C0025009F44BC088
:104F7A000D5009F470C0085011F00C94A4310E942D
:104F8A000E1902E00093100101E00093CE0401E043
:104F9A0000930D0100E000930A0502E000930B055F
:104FAA0003E000930C050C94A43100918D020230A9
:104FBA0030F000918D020A9500938D0204C006E03C
:104FCA0000938D02102F00918D020093CB0401E013
:104FDA000093690405E010E000936F0410937004D5
:104FEA000BEC14E000936B0410936C040C94A43142
:104FFA0000910F01013011F402E001C001E00093B9
:10500A000F010C94A43100918D02063030F41091F6
:10501A008D02139510938D0204C010E010938D0237
:10502A00012F00918D020093CB0401E000936904E3
:10503A0005E010E000936F04109370040BEC14E089
:10504A0000936B0410936C040C94A43102E0009357
:10505A0008050C94A43101E0009308050C94A431CE
:10506A0000911001023009F0E3C00091CA04015313
:10507A0009F454C00A9509F464C00A9509F46BC08E
:10508A000A9509F47BC00A9509F4ACC00A9509F49B
:10509A00BCC00D5041F00A9561F1095021F0085049
:1050AA00A9F00C94A4310E940E1901E000930D019D
:1050BA0001E00093100100E000930A0500E000936C
:1050CA000C0501E000930B050C94A43100910A052C
:1050DA00002369F00E940E1900910A050A950093AF
:1050EA000A0501E00093CE0401E0009311010C943B
:1050FA00A43100910A0510910B05011768F40E946A
:10510A000E1900910A05039500930A0501E0009320
:10511A00CE0401E0009311010C94A4310E940E19EF
:10512A0001E00093CE0404E00093100100E0009334
:10513A000A0501E000930B0503E000930C050C94AB
:10514A00A4310E940E1901E00093CE0403E00093FB
:10515A0010010C94A4310E940E1901E00093CE04B0
:10516A0006E10093100100E000930A0500E00093B5
:10517A000B0503E000930C050C94A4310E940E1950
:10518A0001E00093CE0405E00093100100E00093D3
:10519A000A0503E000930C0501E000930B0500915A
:1051AA005505002339F00091D301043018F400E0CA
:1051BA0000930B0500915605002339F00091D501A3
:1051CA00043018F400E000930B0500915405002305
:1051DA0039F00091D101043018F400E000930B0576
:1051EA000C94A4310E940E1901E00093CE0406E04B
:1051FA000093100100E000930A0501E000930B05FB
:10520A0003E000930C050C94A4310E940E1901E0EE
:10521A000093CE0403E10093100100E000930A0515
:10522A0004E000930B0501E000930C050C94A431F3
:10523A0000911001033009F073C00091CA040153B0
:10524A0079F10A9509F44CC00151B9F00A5011F0EC
:10525A000C94A4310E940E1901E000930D0101E0A3
:10526A000093100100E000930A0500E000930C058A
:10527A0001E000930B050C94A4310E940E1902E080
:10528A000093100101E00093CE0400E000930A05A8
:10529A0002E000930B0503E000930C050C94A43183
:1052AA0003E000931B050BE111E00093190510932D
:1052BA001A0501E00093270501E000931D0500E0AF
:1052CA000BC010E0F801E55EFE4F208110E0F80106
:1052DA00EE5EFE4F20830395093098F30C94A431B7
:1052EA0003E000931B0504E211E0009319051093F3
:1052FA001A0502E00093270501E000931D0500E06E
:10530A000BC010E0F801EC5DFE4F208110E0F801BF
:10531A00EE5EFE4F20830395093098F30C94A43176
:10532A0000911001043009F05DC00091CA040153D4
:10533A00045008F453C00E50C9F00A95D9F1095027
:10534A0019F0085029F1FBC70E940E1901E00093D9
:10535A000D0101E00093100100E000930A0500E04E
:10536A0000930C0501E000930B05E9C70E940E1992
:10537A0002E00093100101E00093CE0400E00093E4
:10538A000A0502E000930B0503E000930C05D7C75A
:10539A0000910A05002369F00E940E1900910A057E
:1053AA000A9500930A0501E00093CE0401E00093F8
:1053BA001101C5C700910A0510910B05011768F480
:1053CA000E940E1900910A05039500930A0501E04F
:1053DA000093CE0401E000931101B1C70091CA0401
:1053EA0042DDADC700911001053009F0ECC0009113
:1053FA00CA04015309F45CC00A9509F46BC00A9502
:10540A0009F47AC00A9509F4BDC00F50C9F00A958B
:10541A00D9F1095019F0085029F191C70E940E19C3
:10542A0001E000930D0101E00093100100E00093F8
:10543A000A0500E000930C0501E000930B057FC705
:10544A000E940E1902E00093100101E00093CE04BD
:10545A0000E000930A0502E000930B0503E00093C5
:10546A000C056DC700910A05002369F00E940E1908
:10547A0000910A050A9500930A0501E00093CE04FB
:10548A0001E0009311015BC700910A0510910B0519
:10549A00011768F40E940E1900910A0503950093FA
:1054AA000A0501E00093CE0401E00093110147C709
:1054BA000E940E1901E00093CE040BE00093100144
:1054CA0000E000930A0500E000930B0501E0009359
:1054DA000C0535C70E940E1901E00093CE040CE0BA
:1054EA000093100100E000930A0501E000930B0508
:1054FA0003E000930C0523C700918C020230F9F4F3
:10550A0001E000931B0504E0009318050AE215E088
:10551A000093190510931A0500E000931C0500E09A
:10552A0010E000931E0510931F0500E010E00093A1
:10553A0020051093210501E000931D0500C7009185
:10554A008C020130F1F401E000931B0504E00093A2
:10555A0018050AE215E00093190510931A0500E0F0
:10556A0000931C0500E010E000931E0510931F0530
:10557A0000E010E0009320051093210501E000935C
:10558A001D05DDC60091D301043008F4D8C6009188
:10559A00D501043008F4D3C60091D101043008F4CF
:1055AA00CEC60E940E1901E00093CE0404E10093D6
:1055BA00100100E000930A0503E000930C0501E0E6
:1055CA0000930B05BCC600911001063109F08EC08C
:1055DA000091CA04035209F4B2C60D5009F4AFC6C9
:1055EA000351E1F00A95C9F10A9509F4A8C60850D1
:1055FA0019F0085029F14EC00E940E1901E00093DB
:10560A000D0101E00093100100E000930A0500E09B
:10561A0000930C0501E000930B0591C60E940E1938
:10562A0002E00093100101E00093CE0400E0009331
:10563A000A0502E000930B0503E000930C057FC600
:10564A0000910A05002341F000910A050A9500938A
:10565A000A0501E00093CE0472C600910C05109170
:10566A006B050117B0F440910A0550E020916B05D3
:10567A0030E000910C0510E0201B310B4217530754
:10568A0044F400910A05039500930A0501E000938A
:10569A00CE0455C60091CA04015310916B05011737
:1056AA0008F04DC612E71093300510E0F801E759EB
:1056BA00FA4F17811093360510E0F801E759FA4FAF
:1056CA00008110E0009320051093210500931E0528
:1056DA0010931F0500932F050FEE1EE0009333056C
:1056EA001093340502E000931B0529C60091CA04F1
:1056FA00035209F4F2C10E50D9F00A95B1F10A9594
:10570A0009F450C00A9509F46AC0025009F496C017
:10571A000D5009F4BBC00A9509F48AC10A9509F427
:10572A00F1C1085009F4A0C0085009F433C106C6F3
:10573A0000911001065011F00650B1F40E940E19A2
:10574A0001E00093CE04009110010395009310012B
:10575A0000E000930A0507E000930B0501E00093BF
:10576A000C0500E000930905EAC5009110010650F6
:10577A0011F00650B1F40E940E1901E00093CE0414
:10578A0000E000930A0501E000930C0501E0009394
:10579A00110102E000930B05009110010E5F0093C6
:1057AA001001CDC500911001065011F00650B1F458
:1057BA000E940E1901E00093CE0400E000930A054E
:1057CA0001E000930C0501E00093110103E000934E
:1057DA000B05009110010D5F00931001B0C50091F7
:1057EA001001065039F00250C9F0045019F0025065
:1057FA00A9F0A5C50E940E1901E00093CE0400E0AD
:10580A0000930A0501E000930C05009110010C5F5A
:10581A000093100107E000930B0591C500910A055A
:10582A00013059F400911101023020F00091110168
:10583A000A9501C004E00093110181C5009110018D
:10584A00085011F0065079F400910A05013059F414
:10585A0000911101043020F400911101039501C057
:10586A0001E0009311016BC50E940E1901E000933B
:10587A000D0101E00093100100E000930A0500E029
:10588A0000930C0501E000930B0559C50091100126
:10589A000650A9F0015090F0045018F10050B1F1EF
:1058AA000A95A1F1015050F0045008F456C0025074
:1058BA0031F00A9559F10A9509F46AC040C50E9467
:1058CA000E1902E00093100101E00093CE0400E0FB
:1058DA0000930A0502E000930B0503E000930C0510
:1058EA002EC50E940E1906E00093100101E00093F4
:1058FA00CE0400E000930A0501E00093110101E0E3
:10590A0000930B0503E000930C0519C50E940E19BC
:10591A0005E00093100101E00093CE0400E000933B
:10592A000A0503E000930C0501E000930B050091C2
:10593A00D301043018F400E000930B050091D5015F
:10594A00043018F400E000930B050091D1010430F3
:10595A0000F500E000930B05F2C40E940E1901E065
:10596A000093CE040CE00093100100E000930A05B6
:10597A0000E00093090501E00093110101E00093A2
:10598A000B0503E000930C0500E000930905D7C45A
:10599A0082DAD5C40091100106500550A0F00A958C
:1059AA0091F00A9569F00A9571F00A9561F00A95E5
:1059BA0039F0035041F00A9531F00A95B1F0BFC4AD
:1059CA0000E00093090500910A05002381F1009186
:1059DA000A050A9500930A0501E00093CE040E9485
:1059EA000E1901E000931101AAC4E0914105F0915A
:1059FA0042053297E4F000910A05002331F0009144
:105A0A000A050A9500930A0505C0009141050A9501
:105A1A0000930A0500E00093500528E211E002E035
:105A2A000E94241928E01DE004E00E94241987C47A
:105A3A000091100106500550A0F00A9591F00A95C0
:105A4A0069F00A9571F00A9561F00A9539F00350E8
:105A5A0041F00A9531F00A95C1F071C400E0009353
:105A6A00090500910A0510910B050117A8F5009187
:105A7A000A05039500930A0501E00093CE040E94EB
:105A8A000E1901E0009311015AC4E0914105F09109
:105A9A00420532970CF100910A0510E08091410508
:105AAA009091420501970817190734F400910A05E5
:105ABA00039500930A0503C000E000930A0500E07D
:105ACA000093500528E211E002E00E94241928E020
